{
  "contractName": "Auction",
  "abi": [
    {
      "inputs": [],
      "stateMutability": "nonpayable",
      "type": "constructor"
    },
    {
      "inputs": [],
      "name": "latestBid",
      "outputs": [
        {
          "internalType": "uint256",
          "name": "",
          "type": "uint256"
        }
      ],
      "stateMutability": "view",
      "type": "function",
      "constant": true
    },
    {
      "inputs": [],
      "name": "latestBidder",
      "outputs": [
        {
          "internalType": "address payable",
          "name": "",
          "type": "address"
        }
      ],
      "stateMutability": "view",
      "type": "function",
      "constant": true
    },
    {
      "inputs": [],
      "name": "manager",
      "outputs": [
        {
          "internalType": "address",
          "name": "",
          "type": "address"
        }
      ],
      "stateMutability": "view",
      "type": "function",
      "constant": true
    },
    {
      "inputs": [],
      "name": "seller",
      "outputs": [
        {
          "internalType": "address payable",
          "name": "",
          "type": "address"
        }
      ],
      "stateMutability": "view",
      "type": "function",
      "constant": true
    },
    {
      "inputs": [
        {
          "internalType": "uint256",
          "name": "bid",
          "type": "uint256"
        }
      ],
      "name": "auction",
      "outputs": [],
      "stateMutability": "nonpayable",
      "type": "function"
    },
    {
      "inputs": [],
      "name": "bid",
      "outputs": [],
      "stateMutability": "payable",
      "type": "function",
      "payable": true
    },
    {
      "inputs": [],
      "name": "finishAuction",
      "outputs": [],
      "stateMutability": "nonpayable",
      "type": "function"
    }
  ],
  "bytecode": "0x608060405234801561000f575f80fd5b50335f806101000a81548173ffffffffffffffffffffffffffffffffffffffff021916908373ffffffffffffffffffffffffffffffffffffffff1602179055506105c18061005c5f395ff3fe60806040526004361061006f575f3560e01c8063430ca46f1161004d578063430ca46f146100cf578063481c6a75146100e55780635dd672ec1461010f57806367a884e5146101395761006f565b806308551a53146100735780631200617f1461009d5780631998aeef146100c5575b5f80fd5b34801561007e575f80fd5b50610087610163565b6040516100949190610441565b60405180910390f35b3480156100a8575f80fd5b506100c360048036038101906100be9190610491565b610188565b005b6100cd6101e5565b005b3480156100da575f80fd5b506100e36102f7565b005b3480156100f0575f80fd5b506100f96103b4565b60405161010691906104dc565b60405180910390f35b34801561011a575f80fd5b506101236103d7565b6040516101309190610504565b60405180910390f35b348015610144575f80fd5b5061014d6103dd565b60405161015a9190610441565b60405180910390f35b60015f9054906101000a900473ffffffffffffffffffffffffffffffffffffffff1681565b670de0b6b3a76400008161019c919061054a565b6002819055503360015f6101000a81548173ffffffffffffffffffffffffffffffffffffffff021916908373ffffffffffffffffffffffffffffffffffffffff16021790555050565b60025434116101f2575f80fd5b5f73ffffffffffffffffffffffffffffffffffffffff1660035f9054906101000a900473ffffffffffffffffffffffffffffffffffffffff1673ffffffffffffffffffffffffffffffffffffffff16146102ae5760035f9054906101000a900473ffffffffffffffffffffffffffffffffffffffff1673ffffffffffffffffffffffffffffffffffffffff166108fc60025490811502906040515f60405180830381858888f193505050501580156102ac573d5f803e3d5ffd5b505b3360035f6101000a81548173ffffffffffffffffffffffffffffffffffffffff021916908373ffffffffffffffffffffffffffffffffffffffff16021790555034600281905550565b5f8054906101000a900473ffffffffffffffffffffffffffffffffffffffff1673ffffffffffffffffffffffffffffffffffffffff163373ffffffffffffffffffffffffffffffffffffffff161461034d575f80fd5b60015f9054906101000a900473ffffffffffffffffffffffffffffffffffffffff1673ffffffffffffffffffffffffffffffffffffffff166108fc4790811502906040515f60405180830381858888f193505050501580156103b1573d5f803e3d5ffd5b50565b5f8054906101000a900473ffffffffffffffffffffffffffffffffffffffff1681565b60025481565b60035f9054906101000a900473ffffffffffffffffffffffffffffffffffffffff1681565b5f73ffffffffffffffffffffffffffffffffffffffff82169050919050565b5f61042b82610402565b9050919050565b61043b81610421565b82525050565b5f6020820190506104545f830184610432565b92915050565b5f80fd5b5f819050919050565b6104708161045e565b811461047a575f80fd5b50565b5f8135905061048b81610467565b92915050565b5f602082840312156104a6576104a561045a565b5b5f6104b38482850161047d565b91505092915050565b5f6104c682610402565b9050919050565b6104d6816104bc565b82525050565b5f6020820190506104ef5f8301846104cd565b92915050565b6104fe8161045e565b82525050565b5f6020820190506105175f8301846104f5565b92915050565b7f4e487b71000000000000000000000000000000000000000000000000000000005f52601160045260245ffd5b5f6105548261045e565b915061055f8361045e565b925082820261056d8161045e565b915082820484148315176105845761058361051d565b5b509291505056fea2646970667358221220b99cbabf9bbdab04df01bfaf499038795c925b7ea790c456af57274f57a6a57c64736f6c63430008150033",
  "immutableReferences": {},
  "source": "pragma solidity ^0.8.19;\n\ncontract Auction {\n  address public manager;\n  address payable public seller;\n  uint public latestBid;\n  address payable public latestBidder;\n \n  constructor() public {\n    manager = msg.sender;\n  }\n \n  function auction(uint bid) public {\n    latestBid = bid * 1 ether; //1000000000000000000;\n    seller = payable(msg.sender);\n  }\n \n  function bid() public payable {\n    require(msg.value > latestBid);\n \n    if (latestBidder != address(0)) {\n      latestBidder.transfer(latestBid);\n    }\n    latestBidder = payable(msg.sender);\n    latestBid = msg.value;\n  }\n \n  function finishAuction() restricted public {\n    seller.transfer(address(this).balance);\n  }\n \n  modifier restricted() {\n    require(msg.sender == manager);\n    _;\n  }\n}\n",
  "sourcePath": "/workspaces/blockchain-gaming-marketplace-contract/contracts/Auction.sol",
  "compiler": {
    "name": "solc",
    "version": "0.8.21+commit.d9974bed.Emscripten.clang"
  },
  "schemaVersion": "3.4.16",
  "updatedAt": "2024-01-08T12:38:48.747Z",
  "networkType": "ethereum",
  "devdoc": {
    "kind": "dev",
    "methods": {},
    "version": 1
  },
  "userdoc": {
    "kind": "user",
    "methods": {},
    "version": 1
  }
}