{
  "contractName": "Marketplace",
  "abi": [
    {
      "inputs": [
        {
          "internalType": "string",
          "name": "name_",
          "type": "string"
        },
        {
          "internalType": "string",
          "name": "imageSrc_",
          "type": "string"
        }
      ],
      "stateMutability": "nonpayable",
      "type": "constructor"
    },
    {
      "inputs": [
        {
          "internalType": "address",
          "name": "account",
          "type": "address"
        }
      ],
      "name": "AddressInsufficientBalance",
      "type": "error"
    },
    {
      "inputs": [],
      "name": "FailedInnerCall",
      "type": "error"
    },
    {
      "inputs": [
        {
          "internalType": "address",
          "name": "owner",
          "type": "address"
        }
      ],
      "name": "OwnableInvalidOwner",
      "type": "error"
    },
    {
      "inputs": [
        {
          "internalType": "address",
          "name": "account",
          "type": "address"
        }
      ],
      "name": "OwnableUnauthorizedAccount",
      "type": "error"
    },
    {
      "anonymous": false,
      "inputs": [
        {
          "indexed": true,
          "internalType": "uint256",
          "name": "id",
          "type": "uint256"
        },
        {
          "indexed": true,
          "internalType": "address",
          "name": "seller",
          "type": "address"
        }
      ],
      "name": "ItemAdded",
      "type": "event"
    },
    {
      "anonymous": false,
      "inputs": [
        {
          "indexed": true,
          "internalType": "uint256",
          "name": "id",
          "type": "uint256"
        },
        {
          "indexed": true,
          "internalType": "address",
          "name": "seller",
          "type": "address"
        },
        {
          "indexed": true,
          "internalType": "address",
          "name": "buyer",
          "type": "address"
        },
        {
          "indexed": false,
          "internalType": "uint256",
          "name": "price",
          "type": "uint256"
        }
      ],
      "name": "ItemPurchased",
      "type": "event"
    },
    {
      "anonymous": false,
      "inputs": [
        {
          "indexed": true,
          "internalType": "uint256",
          "name": "id",
          "type": "uint256"
        }
      ],
      "name": "ItemRemoved",
      "type": "event"
    },
    {
      "anonymous": false,
      "inputs": [
        {
          "indexed": true,
          "internalType": "uint256",
          "name": "id",
          "type": "uint256"
        },
        {
          "indexed": true,
          "internalType": "address",
          "name": "seller",
          "type": "address"
        }
      ],
      "name": "ItemUpdated",
      "type": "event"
    },
    {
      "anonymous": false,
      "inputs": [
        {
          "indexed": true,
          "internalType": "address",
          "name": "owner",
          "type": "address"
        },
        {
          "indexed": false,
          "internalType": "string",
          "name": "name_",
          "type": "string"
        }
      ],
      "name": "MarketplaceClosed",
      "type": "event"
    },
    {
      "anonymous": false,
      "inputs": [
        {
          "indexed": true,
          "internalType": "address",
          "name": "previousOwner",
          "type": "address"
        },
        {
          "indexed": true,
          "internalType": "address",
          "name": "newOwner",
          "type": "address"
        }
      ],
      "name": "OwnershipTransferred",
      "type": "event"
    },
    {
      "inputs": [],
      "name": "imageSrc",
      "outputs": [
        {
          "internalType": "string",
          "name": "",
          "type": "string"
        }
      ],
      "stateMutability": "view",
      "type": "function",
      "constant": true
    },
    {
      "inputs": [
        {
          "internalType": "uint256",
          "name": "",
          "type": "uint256"
        }
      ],
      "name": "items",
      "outputs": [
        {
          "internalType": "uint256",
          "name": "id",
          "type": "uint256"
        },
        {
          "internalType": "address payable",
          "name": "seller",
          "type": "address"
        },
        {
          "internalType": "address",
          "name": "soldTo",
          "type": "address"
        },
        {
          "internalType": "string",
          "name": "name",
          "type": "string"
        },
        {
          "internalType": "string",
          "name": "imageSrc",
          "type": "string"
        },
        {
          "internalType": "string",
          "name": "description",
          "type": "string"
        },
        {
          "internalType": "uint256",
          "name": "price",
          "type": "uint256"
        }
      ],
      "stateMutability": "view",
      "type": "function",
      "constant": true
    },
    {
      "inputs": [],
      "name": "name",
      "outputs": [
        {
          "internalType": "string",
          "name": "",
          "type": "string"
        }
      ],
      "stateMutability": "view",
      "type": "function",
      "constant": true
    },
    {
      "inputs": [],
      "name": "owner",
      "outputs": [
        {
          "internalType": "address",
          "name": "",
          "type": "address"
        }
      ],
      "stateMutability": "view",
      "type": "function",
      "constant": true
    },
    {
      "inputs": [],
      "name": "renounceOwnership",
      "outputs": [],
      "stateMutability": "nonpayable",
      "type": "function"
    },
    {
      "inputs": [
        {
          "internalType": "address",
          "name": "newOwner",
          "type": "address"
        }
      ],
      "name": "transferOwnership",
      "outputs": [],
      "stateMutability": "nonpayable",
      "type": "function"
    },
    {
      "inputs": [
        {
          "internalType": "string",
          "name": "name_",
          "type": "string"
        },
        {
          "internalType": "string",
          "name": "imageSrc_",
          "type": "string"
        },
        {
          "internalType": "string",
          "name": "description_",
          "type": "string"
        },
        {
          "internalType": "uint256",
          "name": "price_",
          "type": "uint256"
        }
      ],
      "name": "addItem",
      "outputs": [],
      "stateMutability": "nonpayable",
      "type": "function"
    },
    {
      "inputs": [
        {
          "internalType": "uint256",
          "name": "id_",
          "type": "uint256"
        }
      ],
      "name": "purchaseItem",
      "outputs": [],
      "stateMutability": "payable",
      "type": "function",
      "payable": true
    },
    {
      "inputs": [
        {
          "internalType": "uint256",
          "name": "id_",
          "type": "uint256"
        }
      ],
      "name": "removeItem",
      "outputs": [],
      "stateMutability": "nonpayable",
      "type": "function"
    },
    {
      "inputs": [
        {
          "internalType": "uint256",
          "name": "id_",
          "type": "uint256"
        },
        {
          "internalType": "string",
          "name": "name_",
          "type": "string"
        },
        {
          "internalType": "string",
          "name": "imageSrc_",
          "type": "string"
        },
        {
          "internalType": "string",
          "name": "description_",
          "type": "string"
        },
        {
          "internalType": "uint256",
          "name": "price_",
          "type": "uint256"
        }
      ],
      "name": "updateItem",
      "outputs": [],
      "stateMutability": "nonpayable",
      "type": "function"
    },
    {
      "inputs": [],
      "name": "getAllItems",
      "outputs": [
        {
          "components": [
            {
              "internalType": "uint256",
              "name": "id",
              "type": "uint256"
            },
            {
              "internalType": "address payable",
              "name": "seller",
              "type": "address"
            },
            {
              "internalType": "address",
              "name": "soldTo",
              "type": "address"
            },
            {
              "internalType": "string",
              "name": "name",
              "type": "string"
            },
            {
              "internalType": "string",
              "name": "imageSrc",
              "type": "string"
            },
            {
              "internalType": "string",
              "name": "description",
              "type": "string"
            },
            {
              "internalType": "uint256",
              "name": "price",
              "type": "uint256"
            }
          ],
          "internalType": "struct Marketplace.Item[]",
          "name": "",
          "type": "tuple[]"
        }
      ],
      "stateMutability": "view",
      "type": "function",
      "constant": true
    },
    {
      "inputs": [
        {
          "internalType": "uint256",
          "name": "id_",
          "type": "uint256"
        }
      ],
      "name": "getItemById",
      "outputs": [
        {
          "components": [
            {
              "internalType": "uint256",
              "name": "id",
              "type": "uint256"
            },
            {
              "internalType": "address payable",
              "name": "seller",
              "type": "address"
            },
            {
              "internalType": "address",
              "name": "soldTo",
              "type": "address"
            },
            {
              "internalType": "string",
              "name": "name",
              "type": "string"
            },
            {
              "internalType": "string",
              "name": "imageSrc",
              "type": "string"
            },
            {
              "internalType": "string",
              "name": "description",
              "type": "string"
            },
            {
              "internalType": "uint256",
              "name": "price",
              "type": "uint256"
            }
          ],
          "internalType": "struct Marketplace.Item",
          "name": "",
          "type": "tuple"
        }
      ],
      "stateMutability": "view",
      "type": "function",
      "constant": true
    },
    {
      "inputs": [
        {
          "internalType": "string",
          "name": "name_",
          "type": "string"
        }
      ],
      "name": "getItemByName",
      "outputs": [
        {
          "components": [
            {
              "internalType": "uint256",
              "name": "id",
              "type": "uint256"
            },
            {
              "internalType": "address payable",
              "name": "seller",
              "type": "address"
            },
            {
              "internalType": "address",
              "name": "soldTo",
              "type": "address"
            },
            {
              "internalType": "string",
              "name": "name",
              "type": "string"
            },
            {
              "internalType": "string",
              "name": "imageSrc",
              "type": "string"
            },
            {
              "internalType": "string",
              "name": "description",
              "type": "string"
            },
            {
              "internalType": "uint256",
              "name": "price",
              "type": "uint256"
            }
          ],
          "internalType": "struct Marketplace.Item",
          "name": "",
          "type": "tuple"
        }
      ],
      "stateMutability": "view",
      "type": "function",
      "constant": true
    },
    {
      "inputs": [],
      "name": "close",
      "outputs": [],
      "stateMutability": "nonpayable",
      "type": "function"
    }
  ],
  "bytecode": "0x608060405234801562000010575f80fd5b50604051620035423803806200354283398181016040528101906200003691906200035e565b620000466200011160201b60201c565b5f73ffffffffffffffffffffffffffffffffffffffff168173ffffffffffffffffffffffffffffffffffffffff1603620000b9575f6040517f1e4fbdf7000000000000000000000000000000000000000000000000000000008152600401620000b0919062000424565b60405180910390fd5b620000ca816200011860201b60201c565b508160039081620000dc919062000676565b508060049081620000ee919062000676565b50600160055f6101000a81548160ff02191690831515021790555050506200075a565b5f33905090565b5f805f9054906101000a900473ffffffffffffffffffffffffffffffffffffffff169050815f806101000a81548173ffffffffffffffffffffffffffffffffffffffff021916908373ffffffffffffffffffffffffffffffffffffffff1602179055508173ffffffffffffffffffffffffffffffffffffffff168173ffffffffffffffffffffffffffffffffffffffff167f8be0079c531659141344cd1fd0a4f28419497f9722a3daafe3b4186f6b6457e060405160405180910390a35050565b5f604051905090565b5f80fd5b5f80fd5b5f80fd5b5f80fd5b5f601f19601f8301169050919050565b7f4e487b71000000000000000000000000000000000000000000000000000000005f52604160045260245ffd5b6200023a82620001f2565b810181811067ffffffffffffffff821117156200025c576200025b62000202565b5b80604052505050565b5f62000270620001d9565b90506200027e82826200022f565b919050565b5f67ffffffffffffffff821115620002a0576200029f62000202565b5b620002ab82620001f2565b9050602081019050919050565b5f5b83811015620002d7578082015181840152602081019050620002ba565b5f8484015250505050565b5f620002f8620002f28462000283565b62000265565b905082815260208101848484011115620003175762000316620001ee565b5b62000324848285620002b8565b509392505050565b5f82601f830112620003435762000342620001ea565b5b815162000355848260208601620002e2565b91505092915050565b5f8060408385031215620003775762000376620001e2565b5b5f83015167ffffffffffffffff811115620003975762000396620001e6565b5b620003a5858286016200032c565b925050602083015167ffffffffffffffff811115620003c957620003c8620001e6565b5b620003d7858286016200032c565b9150509250929050565b5f73ffffffffffffffffffffffffffffffffffffffff82169050919050565b5f6200040c82620003e1565b9050919050565b6200041e8162000400565b82525050565b5f602082019050620004395f83018462000413565b92915050565b5f81519050919050565b7f4e487b71000000000000000000000000000000000000000000000000000000005f52602260045260245ffd5b5f60028204905060018216806200048e57607f821691505b602082108103620004a457620004a362000449565b5b50919050565b5f819050815f5260205f209050919050565b5f6020601f8301049050919050565b5f82821b905092915050565b5f60088302620005087fffffffffffffffffffffffffffffffffffffffffffffffffffffffffffffffff82620004cb565b620005148683620004cb565b95508019841693508086168417925050509392505050565b5f819050919050565b5f819050919050565b5f6200055e6200055862000552846200052c565b62000535565b6200052c565b9050919050565b5f819050919050565b62000579836200053e565b62000591620005888262000565565b848454620004d7565b825550505050565b5f90565b620005a762000599565b620005b48184846200056e565b505050565b5b81811015620005db57620005cf5f826200059d565b600181019050620005ba565b5050565b601f8211156200062a57620005f481620004aa565b620005ff84620004bc565b810160208510156200060f578190505b620006276200061e85620004bc565b830182620005b9565b50505b505050565b5f82821c905092915050565b5f6200064c5f19846008026200062f565b1980831691505092915050565b5f6200066683836200063b565b9150826002028217905092915050565b62000681826200043f565b67ffffffffffffffff8111156200069d576200069c62000202565b5b620006a9825462000476565b620006b6828285620005df565b5f60209050601f831160018114620006ec575f8415620006d7578287015190505b620006e3858262000659565b86555062000752565b601f198416620006fc86620004aa565b5f5b828110156200072557848901518255600182019150602085019450602081019050620006fe565b8683101562000745578489015162000741601f8916826200063b565b8355505b6001600288020188555050505b505050505050565b612dda80620007685f395ff3fe6080604052600436106100dc575f3560e01c806399e07caf1161007e578063cd2f071011610058578063cd2f07101461026e578063d38ea5bf146102aa578063f2fde38b146102c6578063f7d85c05146102ee576100dc565b806399e07caf146101da578063bf46546514610202578063bfb231d21461022c576100dc565b80636265db2f116100ba5780636265db2f1461014a5780637132917114610172578063715018a61461019a5780638da5cb5b146101b0576100dc565b806306fdde03146100e057806343d726d61461010a5780634ba1d6aa14610120575b5f80fd5b3480156100eb575f80fd5b506100f461032a565b6040516101019190611e57565b60405180910390f35b348015610115575f80fd5b5061011e6103b6565b005b34801561012b575f80fd5b50610134610476565b6040516101419190612098565b60405180910390f35b348015610155575f80fd5b50610170600480360381019061016b919061221f565b6107a8565b005b34801561017d575f80fd5b50610198600480360381019061019391906122d7565b610978565b005b3480156101a5575f80fd5b506101ae610bc6565b005b3480156101bb575f80fd5b506101c4610bd9565b6040516101d19190612311565b60405180910390f35b3480156101e5575f80fd5b5061020060048036038101906101fb919061232a565b610c00565b005b34801561020d575f80fd5b50610216610e46565b6040516102239190611e57565b60405180910390f35b348015610237575f80fd5b50610252600480360381019061024d91906122d7565b610ed2565b6040516102659796959493929190612413565b60405180910390f35b348015610279575f80fd5b50610294600480360381019061028f91906122d7565b6110e0565b6040516102a1919061253c565b60405180910390f35b6102c460048036038101906102bf91906122d7565b611378565b005b3480156102d1575f80fd5b506102ec60048036038101906102e79190612586565b61165d565b005b3480156102f9575f80fd5b50610314600480360381019061030f91906125b1565b6116e1565b604051610321919061253c565b60405180910390f35b6003805461033790612625565b80601f016020809104026020016040519081016040528092919081815260200182805461036390612625565b80156103ae5780601f10610385576101008083540402835291602001916103ae565b820191905f5260205f20905b81548152906001019060200180831161039157829003601f168201915b505050505081565b6103be611a43565b6103c6611aca565b610405576040517f08c379a00000000000000000000000000000000000000000000000000000000081526004016103fc906126c5565b60405180910390fd5b5f60055f6101000a81548160ff021916908315150217905550610426611b5f565b73ffffffffffffffffffffffffffffffffffffffff167f0ae0f634055c3fff3f95d85c9cf6b5b4e9f109f0689d04714c4ffc3b87520cb1600360405161046c9190612776565b60405180910390a2565b60605f60025467ffffffffffffffff811115610495576104946120d1565b5b6040519080825280602002602001820160405280156104ce57816020015b6104bb611d10565b8152602001906001900390816104b35790505b5090505f600190505b60025481116107a05760015f8281526020019081526020015f206040518060e00160405290815f8201548152602001600182015f9054906101000a900473ffffffffffffffffffffffffffffffffffffffff1673ffffffffffffffffffffffffffffffffffffffff1673ffffffffffffffffffffffffffffffffffffffff168152602001600282015f9054906101000a900473ffffffffffffffffffffffffffffffffffffffff1673ffffffffffffffffffffffffffffffffffffffff1673ffffffffffffffffffffffffffffffffffffffff1681526020016003820180546105bf90612625565b80601f01602080910402602001604051908101604052809291908181526020018280546105eb90612625565b80156106365780601f1061060d57610100808354040283529160200191610636565b820191905f5260205f20905b81548152906001019060200180831161061957829003601f168201915b5050505050815260200160048201805461064f90612625565b80601f016020809104026020016040519081016040528092919081815260200182805461067b90612625565b80156106c65780601f1061069d576101008083540402835291602001916106c6565b820191905f5260205f20905b8154815290600101906020018083116106a957829003601f168201915b505050505081526020016005820180546106df90612625565b80601f016020809104026020016040519081016040528092919081815260200182805461070b90612625565b80156107565780601f1061072d57610100808354040283529160200191610756565b820191905f5260205f20905b81548152906001019060200180831161073957829003601f168201915b505050505081526020016006820154815250508260018361077791906127c3565b81518110610788576107876127f6565b5b602002602001018190525080806001019150506104d7565b508091505090565b6107b0611a43565b60025f8154809291906107c290612823565b91905055506040518060e0016040528060025481526020016107e2611b5f565b73ffffffffffffffffffffffffffffffffffffffff1681526020015f73ffffffffffffffffffffffffffffffffffffffff1681526020018581526020018481526020018381526020018281525060015f60025481526020019081526020015f205f820151815f01556020820151816001015f6101000a81548173ffffffffffffffffffffffffffffffffffffffff021916908373ffffffffffffffffffffffffffffffffffffffff1602179055506040820151816002015f6101000a81548173ffffffffffffffffffffffffffffffffffffffff021916908373ffffffffffffffffffffffffffffffffffffffff16021790555060608201518160030190816108eb91906129f5565b50608082015181600401908161090191906129f5565b5060a082015181600501908161091791906129f5565b5060c0820151816006015590505061092d611b5f565b73ffffffffffffffffffffffffffffffffffffffff166002547f6375005112faeb3c31f129d3aa24c423df50ca6f7c78b0490c6f4b691feac38a60405160405180910390a350505050565b60055f9054906101000a900460ff166109c6576040517f08c379a00000000000000000000000000000000000000000000000000000000081526004016109bd90612b0e565b60405180910390fd5b6109ce611a43565b805f60015f8381526020019081526020015f205f015414158015610a5157505f73ffffffffffffffffffffffffffffffffffffffff1660015f8381526020019081526020015f206001015f9054906101000a900473ffffffffffffffffffffffffffffffffffffffff1673ffffffffffffffffffffffffffffffffffffffff1614155b8015610abc57505f73ffffffffffffffffffffffffffffffffffffffff1660015f8381526020019081526020015f206002015f9054906101000a900473ffffffffffffffffffffffffffffffffffffffff1673ffffffffffffffffffffffffffffffffffffffff1614155b610afb576040517f08c379a0000000000000000000000000000000000000000000000000000000008152600401610af290612b76565b60405180910390fd5b60015f8381526020019081526020015f205f8082015f9055600182015f6101000a81549073ffffffffffffffffffffffffffffffffffffffff0219169055600282015f6101000a81549073ffffffffffffffffffffffffffffffffffffffff0219169055600382015f610b6e9190611d75565b600482015f610b7d9190611d75565b600582015f610b8c9190611d75565b600682015f90555050817fa54eda4149a0fb9258911733973ecf1f6762357ed371fc6d1e63123bbce23bed60405160405180910390a25050565b610bce611a43565b610bd75f611b66565b565b5f805f9054906101000a900473ffffffffffffffffffffffffffffffffffffffff16905090565b60055f9054906101000a900460ff16610c4e576040517f08c379a0000000000000000000000000000000000000000000000000000000008152600401610c4590612b0e565b60405180910390fd5b610c56611a43565b845f60015f8381526020019081526020015f205f015414158015610cd957505f73ffffffffffffffffffffffffffffffffffffffff1660015f8381526020019081526020015f206001015f9054906101000a900473ffffffffffffffffffffffffffffffffffffffff1673ffffffffffffffffffffffffffffffffffffffff1614155b8015610d4457505f73ffffffffffffffffffffffffffffffffffffffff1660015f8381526020019081526020015f206002015f9054906101000a900473ffffffffffffffffffffffffffffffffffffffff1673ffffffffffffffffffffffffffffffffffffffff1614155b610d83576040517f08c379a0000000000000000000000000000000000000000000000000000000008152600401610d7a90612b76565b60405180910390fd5b5f60015f8881526020019081526020015f20905085816003019081610da891906129f5565b5084816004019081610dba91906129f5565b5083816005019081610dcc91906129f5565b50828160060181905550806001015f9054906101000a900473ffffffffffffffffffffffffffffffffffffffff1673ffffffffffffffffffffffffffffffffffffffff16877f38f487ae24444315197e622aa97fa1b715d2061149fedf9e29b0d2f80f773a1d60405160405180910390a350505050505050565b60048054610e5390612625565b80601f0160208091040260200160405190810160405280929190818152602001828054610e7f90612625565b8015610eca5780601f10610ea157610100808354040283529160200191610eca565b820191905f5260205f20905b815481529060010190602001808311610ead57829003601f168201915b505050505081565b6001602052805f5260405f205f91509050805f015490806001015f9054906101000a900473ffffffffffffffffffffffffffffffffffffffff1690806002015f9054906101000a900473ffffffffffffffffffffffffffffffffffffffff1690806003018054610f4190612625565b80601f0160208091040260200160405190810160405280929190818152602001828054610f6d90612625565b8015610fb85780601f10610f8f57610100808354040283529160200191610fb8565b820191905f5260205f20905b815481529060010190602001808311610f9b57829003601f168201915b505050505090806004018054610fcd90612625565b80601f0160208091040260200160405190810160405280929190818152602001828054610ff990612625565b80156110445780601f1061101b57610100808354040283529160200191611044565b820191905f5260205f20905b81548152906001019060200180831161102757829003601f168201915b50505050509080600501805461105990612625565b80601f016020809104026020016040519081016040528092919081815260200182805461108590612625565b80156110d05780601f106110a7576101008083540402835291602001916110d0565b820191905f5260205f20905b8154815290600101906020018083116110b357829003601f168201915b5050505050908060060154905087565b6110e8611d10565b60015f8381526020019081526020015f206040518060e00160405290815f8201548152602001600182015f9054906101000a900473ffffffffffffffffffffffffffffffffffffffff1673ffffffffffffffffffffffffffffffffffffffff1673ffffffffffffffffffffffffffffffffffffffff168152602001600282015f9054906101000a900473ffffffffffffffffffffffffffffffffffffffff1673ffffffffffffffffffffffffffffffffffffffff1673ffffffffffffffffffffffffffffffffffffffff1681526020016003820180546111c790612625565b80601f01602080910402602001604051908101604052809291908181526020018280546111f390612625565b801561123e5780601f106112155761010080835404028352916020019161123e565b820191905f5260205f20905b81548152906001019060200180831161122157829003601f168201915b5050505050815260200160048201805461125790612625565b80601f016020809104026020016040519081016040528092919081815260200182805461128390612625565b80156112ce5780601f106112a5576101008083540402835291602001916112ce565b820191905f5260205f20905b8154815290600101906020018083116112b157829003601f168201915b505050505081526020016005820180546112e790612625565b80601f016020809104026020016040519081016040528092919081815260200182805461131390612625565b801561135e5780601f106113355761010080835404028352916020019161135e565b820191905f5260205f20905b81548152906001019060200180831161134157829003601f168201915b505050505081526020016006820154815250509050919050565b60055f9054906101000a900460ff166113c6576040517f08c379a00000000000000000000000000000000000000000000000000000000081526004016113bd90612b0e565b60405180910390fd5b805f60015f8381526020019081526020015f205f01541415801561144957505f73ffffffffffffffffffffffffffffffffffffffff1660015f8381526020019081526020015f206001015f9054906101000a900473ffffffffffffffffffffffffffffffffffffffff1673ffffffffffffffffffffffffffffffffffffffff1614155b80156114b457505f73ffffffffffffffffffffffffffffffffffffffff1660015f8381526020019081526020015f206002015f9054906101000a900473ffffffffffffffffffffffffffffffffffffffff1673ffffffffffffffffffffffffffffffffffffffff1614155b6114f3576040517f08c379a00000000000000000000000000000000000000000000000000000000081526004016114ea90612b76565b60405180910390fd5b5f60015f8481526020019081526020015f209050806006015434101561154e576040517f08c379a000000000000000000000000000000000000000000000000000000000815260040161154590612bde565b60405180910390fd5b61157b816001015f9054906101000a900473ffffffffffffffffffffffffffffffffffffffff1634611c27565b611583611b5f565b816002015f6101000a81548173ffffffffffffffffffffffffffffffffffffffff021916908373ffffffffffffffffffffffffffffffffffffffff1602179055506115cc611b5f565b73ffffffffffffffffffffffffffffffffffffffff16816001015f9054906101000a900473ffffffffffffffffffffffffffffffffffffffff1673ffffffffffffffffffffffffffffffffffffffff16847f3e2a5a5ee3a24b1b9d330b0bc0946a7d0eb9c99f453f93a45348a9a8e29a94fb84600601546040516116509190612bfc565b60405180910390a4505050565b611665611a43565b5f73ffffffffffffffffffffffffffffffffffffffff168173ffffffffffffffffffffffffffffffffffffffff16036116d5575f6040517f1e4fbdf70000000000000000000000000000000000000000000000000000000081526004016116cc9190612311565b60405180910390fd5b6116de81611b66565b50565b6116e9611d10565b5f600190505b6002548111611a0257826040516020016117099190612c4f565b6040516020818303038152906040528051906020012060015f8381526020019081526020015f206003016040516020016117439190612ce5565b60405160208183030381529060405280519060200120036119ef5760015f8281526020019081526020015f206040518060e00160405290815f8201548152602001600182015f9054906101000a900473ffffffffffffffffffffffffffffffffffffffff1673ffffffffffffffffffffffffffffffffffffffff1673ffffffffffffffffffffffffffffffffffffffff168152602001600282015f9054906101000a900473ffffffffffffffffffffffffffffffffffffffff1673ffffffffffffffffffffffffffffffffffffffff1673ffffffffffffffffffffffffffffffffffffffff16815260200160038201805461183d90612625565b80601f016020809104026020016040519081016040528092919081815260200182805461186990612625565b80156118b45780601f1061188b576101008083540402835291602001916118b4565b820191905f5260205f20905b81548152906001019060200180831161189757829003601f168201915b505050505081526020016004820180546118cd90612625565b80601f01602080910402602001604051908101604052809291908181526020018280546118f990612625565b80156119445780601f1061191b57610100808354040283529160200191611944565b820191905f5260205f20905b81548152906001019060200180831161192757829003601f168201915b5050505050815260200160058201805461195d90612625565b80601f016020809104026020016040519081016040528092919081815260200182805461198990612625565b80156119d45780601f106119ab576101008083540402835291602001916119d4565b820191905f5260205f20905b8154815290600101906020018083116119b757829003601f168201915b50505050508152602001600682015481525050915050611a3e565b80806119fa90612823565b9150506116ef565b506040517f08c379a0000000000000000000000000000000000000000000000000000000008152600401611a3590612d45565b60405180910390fd5b919050565b611a4b611b5f565b73ffffffffffffffffffffffffffffffffffffffff16611a69610bd9565b73ffffffffffffffffffffffffffffffffffffffff1614611ac857611a8c611b5f565b6040517f118cdaa7000000000000000000000000000000000000000000000000000000008152600401611abf9190612311565b60405180910390fd5b565b5f80600190505b6002548111611b56575f73ffffffffffffffffffffffffffffffffffffffff1660015f8381526020019081526020015f206002015f9054906101000a900473ffffffffffffffffffffffffffffffffffffffff1673ffffffffffffffffffffffffffffffffffffffff1603611b49575f915050611b5c565b8080600101915050611ad1565b50600190505b90565b5f33905090565b5f805f9054906101000a900473ffffffffffffffffffffffffffffffffffffffff169050815f806101000a81548173ffffffffffffffffffffffffffffffffffffffff021916908373ffffffffffffffffffffffffffffffffffffffff1602179055508173ffffffffffffffffffffffffffffffffffffffff168173ffffffffffffffffffffffffffffffffffffffff167f8be0079c531659141344cd1fd0a4f28419497f9722a3daafe3b4186f6b6457e060405160405180910390a35050565b80471015611c6c57306040517fcd786059000000000000000000000000000000000000000000000000000000008152600401611c639190612311565b60405180910390fd5b5f8273ffffffffffffffffffffffffffffffffffffffff1682604051611c9190612d90565b5f6040518083038185875af1925050503d805f8114611ccb576040519150601f19603f3d011682016040523d82523d5f602084013e611cd0565b606091505b5050905080611d0b576040517f1425ea4200000000000000000000000000000000000000000000000000000000815260040160405180910390fd5b505050565b6040518060e001604052805f81526020015f73ffffffffffffffffffffffffffffffffffffffff1681526020015f73ffffffffffffffffffffffffffffffffffffffff1681526020016060815260200160608152602001606081526020015f81525090565b508054611d8190612625565b5f825580601f10611d925750611daf565b601f0160209004905f5260205f2090810190611dae9190611db2565b5b50565b5b80821115611dc9575f815f905550600101611db3565b5090565b5f81519050919050565b5f82825260208201905092915050565b5f5b83811015611e04578082015181840152602081019050611de9565b5f8484015250505050565b5f601f19601f8301169050919050565b5f611e2982611dcd565b611e338185611dd7565b9350611e43818560208601611de7565b611e4c81611e0f565b840191505092915050565b5f6020820190508181035f830152611e6f8184611e1f565b905092915050565b5f81519050919050565b5f82825260208201905092915050565b5f819050602082019050919050565b5f819050919050565b611eb281611ea0565b82525050565b5f73ffffffffffffffffffffffffffffffffffffffff82169050919050565b5f611ee182611eb8565b9050919050565b611ef181611ed7565b82525050565b5f611f0182611eb8565b9050919050565b611f1181611ef7565b82525050565b5f82825260208201905092915050565b5f611f3182611dcd565b611f3b8185611f17565b9350611f4b818560208601611de7565b611f5481611e0f565b840191505092915050565b5f60e083015f830151611f745f860182611ea9565b506020830151611f876020860182611ee8565b506040830151611f9a6040860182611f08565b5060608301518482036060860152611fb28282611f27565b91505060808301518482036080860152611fcc8282611f27565b91505060a083015184820360a0860152611fe68282611f27565b91505060c0830151611ffb60c0860182611ea9565b508091505092915050565b5f6120118383611f5f565b905092915050565b5f602082019050919050565b5f61202f82611e77565b6120398185611e81565b93508360208202850161204b85611e91565b805f5b8581101561208657848403895281516120678582612006565b945061207283612019565b925060208a0199505060018101905061204e565b50829750879550505050505092915050565b5f6020820190508181035f8301526120b08184612025565b905092915050565b5f604051905090565b5f80fd5b5f80fd5b5f80fd5b5f80fd5b7f4e487b71000000000000000000000000000000000000000000000000000000005f52604160045260245ffd5b61210782611e0f565b810181811067ffffffffffffffff82111715612126576121256120d1565b5b80604052505050565b5f6121386120b8565b905061214482826120fe565b919050565b5f67ffffffffffffffff821115612163576121626120d1565b5b61216c82611e0f565b9050602081019050919050565b828183375f83830152505050565b5f61219961219484612149565b61212f565b9050828152602081018484840111156121b5576121b46120cd565b5b6121c0848285612179565b509392505050565b5f82601f8301126121dc576121db6120c9565b5b81356121ec848260208601612187565b91505092915050565b6121fe81611ea0565b8114612208575f80fd5b50565b5f81359050612219816121f5565b92915050565b5f805f8060808587031215612237576122366120c1565b5b5f85013567ffffffffffffffff811115612254576122536120c5565b5b612260878288016121c8565b945050602085013567ffffffffffffffff811115612281576122806120c5565b5b61228d878288016121c8565b935050604085013567ffffffffffffffff8111156122ae576122ad6120c5565b5b6122ba878288016121c8565b92505060606122cb8782880161220b565b91505092959194509250565b5f602082840312156122ec576122eb6120c1565b5b5f6122f98482850161220b565b91505092915050565b61230b81611ef7565b82525050565b5f6020820190506123245f830184612302565b92915050565b5f805f805f60a08688031215612343576123426120c1565b5b5f6123508882890161220b565b955050602086013567ffffffffffffffff811115612371576123706120c5565b5b61237d888289016121c8565b945050604086013567ffffffffffffffff81111561239e5761239d6120c5565b5b6123aa888289016121c8565b935050606086013567ffffffffffffffff8111156123cb576123ca6120c5565b5b6123d7888289016121c8565b92505060806123e88882890161220b565b9150509295509295909350565b6123fe81611ea0565b82525050565b61240d81611ed7565b82525050565b5f60e0820190506124265f83018a6123f5565b6124336020830189612404565b6124406040830188612302565b81810360608301526124528187611e1f565b905081810360808301526124668186611e1f565b905081810360a083015261247a8185611e1f565b905061248960c08301846123f5565b98975050505050505050565b5f60e083015f8301516124aa5f860182611ea9565b5060208301516124bd6020860182611ee8565b5060408301516124d06040860182611f08565b50606083015184820360608601526124e88282611f27565b915050608083015184820360808601526125028282611f27565b91505060a083015184820360a086015261251c8282611f27565b91505060c083015161253160c0860182611ea9565b508091505092915050565b5f6020820190508181035f8301526125548184612495565b905092915050565b61256581611ef7565b811461256f575f80fd5b50565b5f813590506125808161255c565b92915050565b5f6020828403121561259b5761259a6120c1565b5b5f6125a884828501612572565b91505092915050565b5f602082840312156125c6576125c56120c1565b5b5f82013567ffffffffffffffff8111156125e3576125e26120c5565b5b6125ef848285016121c8565b91505092915050565b7f4e487b71000000000000000000000000000000000000000000000000000000005f52602260045260245ffd5b5f600282049050600182168061263c57607f821691505b60208210810361264f5761264e6125f8565b5b50919050565b7f4e6f7420616c6c206974656d7320696e2074686973206d61726b6574706c61635f8201527f652068617665206265656e20736f6c642e000000000000000000000000000000602082015250565b5f6126af603183611dd7565b91506126ba82612655565b604082019050919050565b5f6020820190508181035f8301526126dc816126a3565b9050919050565b5f819050815f5260205f209050919050565b5f815461270181612625565b61270b8186611dd7565b9450600182165f8114612725576001811461273b5761276d565b60ff19831686528115156020028601935061276d565b612744856126e3565b5f5b8381101561276557815481890152600182019150602081019050612746565b808801955050505b50505092915050565b5f6020820190508181035f83015261278e81846126f5565b905092915050565b7f4e487b71000000000000000000000000000000000000000000000000000000005f52601160045260245ffd5b5f6127cd82611ea0565b91506127d883611ea0565b92508282039050818111156127f0576127ef612796565b5b92915050565b7f4e487b71000000000000000000000000000000000000000000000000000000005f52603260045260245ffd5b5f61282d82611ea0565b91507fffffffffffffffffffffffffffffffffffffffffffffffffffffffffffffffff820361285f5761285e612796565b5b600182019050919050565b5f6020601f8301049050919050565b5f82821b905092915050565b5f600883026128b47fffffffffffffffffffffffffffffffffffffffffffffffffffffffffffffffff82612879565b6128be8683612879565b95508019841693508086168417925050509392505050565b5f819050919050565b5f6128f96128f46128ef84611ea0565b6128d6565b611ea0565b9050919050565b5f819050919050565b612912836128df565b61292661291e82612900565b848454612885565b825550505050565b5f90565b61293a61292e565b612945818484612909565b505050565b5b818110156129685761295d5f82612932565b60018101905061294b565b5050565b601f8211156129ad5761297e816126e3565b6129878461286a565b81016020851015612996578190505b6129aa6129a28561286a565b83018261294a565b50505b505050565b5f82821c905092915050565b5f6129cd5f19846008026129b2565b1980831691505092915050565b5f6129e583836129be565b9150826002028217905092915050565b6129fe82611dcd565b67ffffffffffffffff811115612a1757612a166120d1565b5b612a218254612625565b612a2c82828561296c565b5f60209050601f831160018114612a5d575f8415612a4b578287015190505b612a5585826129da565b865550612abc565b601f198416612a6b866126e3565b5f5b82811015612a9257848901518255600182019150602085019450602081019050612a6d565b86831015612aaf5784890151612aab601f8916826129be565b8355505b6001600288020188555050505b505050505050565b7f4d61726b6574706c61636520697320636c6f7365642e000000000000000000005f82015250565b5f612af8601683611dd7565b9150612b0382612ac4565b602082019050919050565b5f6020820190508181035f830152612b2581612aec565b9050919050565b7f4974656d206e6f7420617661696c61626c652e000000000000000000000000005f82015250565b5f612b60601383611dd7565b9150612b6b82612b2c565b602082019050919050565b5f6020820190508181035f830152612b8d81612b54565b9050919050565b7f4e6f7420656e6f7567682045746865722070726f76696465642e0000000000005f82015250565b5f612bc8601a83611dd7565b9150612bd382612b94565b602082019050919050565b5f6020820190508181035f830152612bf581612bbc565b9050919050565b5f602082019050612c0f5f8301846123f5565b92915050565b5f81905092915050565b5f612c2982611dcd565b612c338185612c15565b9350612c43818560208601611de7565b80840191505092915050565b5f612c5a8284612c1f565b915081905092915050565b5f8154612c7181612625565b612c7b8186612c15565b9450600182165f8114612c955760018114612caa57612cdc565b60ff1983168652811515820286019350612cdc565b612cb3856126e3565b5f5b83811015612cd457815481890152600182019150602081019050612cb5565b838801955050505b50505092915050565b5f612cf08284612c65565b915081905092915050565b7f4974656d206e6f7420666f756e642e00000000000000000000000000000000005f82015250565b5f612d2f600f83611dd7565b9150612d3a82612cfb565b602082019050919050565b5f6020820190508181035f830152612d5c81612d23565b9050919050565b5f81905092915050565b50565b5f612d7b5f83612d63565b9150612d8682612d6d565b5f82019050919050565b5f612d9a82612d70565b915081905091905056fea2646970667358221220d518fdcf4e878fd0d72721ef0bf71d2c76acb47a5ed4f098222eda54eda9547b64736f6c63430008150033",
  "immutableReferences": {},
  "source": "// SPDX-License-Identifier: MIT\npragma solidity ^0.8.20;\n\nimport \"@openzeppelin/contracts/access/Ownable.sol\";\nimport \"@openzeppelin/contracts/utils/Address.sol\";\n\n// transfer ownership of marketplace possible???\n// TODO: add PaymentSplitter for marketplace owner\ncontract Marketplace is Ownable {\n    mapping(uint => Item) public items;\n    uint private itemCount;\n    string public name;\n    string public imageSrc;\n    bool private isOpen;\n\n    struct Item {\n        uint id;\n        address payable seller;\n        address soldTo;\n        string name;\n        string imageSrc;\n        string description;\n        uint price;\n    }\n\n    modifier itemAvailable(uint id_) {\n        require(\n            items[id_].id != 0 &&\n                items[id_].seller != address(0) &&\n                items[id_].soldTo != address(0),\n            \"Item not available.\"\n        );\n        _;\n    }\n\n    modifier marketplaceOpen() {\n        require(isOpen, \"Marketplace is closed.\");\n        _;\n    }\n\n    event ItemAdded(\n        uint indexed id,\n        address indexed seller\n    );\n\n    event ItemUpdated(\n        uint indexed id,\n        address indexed seller\n    );\n\n    event ItemPurchased(\n        uint indexed id,\n        address indexed seller,\n        address indexed buyer,\n        uint price\n    );\n\n    event ItemRemoved(uint indexed id);\n\n    event MarketplaceClosed(address indexed owner, string name_);\n\n    constructor(\n        string memory name_,\n        string memory imageSrc_\n    ) Ownable(_msgSender()) {\n        name = name_;\n        imageSrc = imageSrc_;\n        isOpen = true;\n    }\n\n    // onlyOwner unnecessary?\n    // check if address exists at game\n    function addItem(\n        string memory name_,\n        string memory imageSrc_,\n        string memory description_,\n        uint price_\n    ) public onlyOwner {\n        itemCount++;\n        items[itemCount] = Item(\n            itemCount,\n            payable(_msgSender()),\n            address(0),\n            name_,\n            imageSrc_,\n            description_,\n            price_\n        );\n        emit ItemAdded(\n            itemCount,\n            _msgSender()\n        );\n    }\n\n    // TODO: request purchase!\n    // TODO: price calculation\n    function purchaseItem(uint id_) public payable marketplaceOpen itemAvailable(id_) {\n        Item storage item = items[id_];\n        require(msg.value >= item.price, \"Not enough Ether provided.\");\n        Address.sendValue(item.seller, msg.value);\n        item.soldTo = _msgSender();\n        emit ItemPurchased(id_, item.seller, _msgSender(), item.price);\n    }\n\n    // onlyOwner unnecessary? onlyItemSeller instead?\n    function removeItem(uint id_) public marketplaceOpen onlyOwner itemAvailable(id_) {\n        delete items[id_];\n        emit ItemRemoved(id_);\n    }\n\n    // price updateable?\n    function updateItem(\n        uint id_,\n        string memory name_,\n        string memory imageSrc_,\n        string memory description_,\n        uint price_\n    ) public marketplaceOpen onlyOwner itemAvailable(id_) {\n        Item storage item = items[id_];\n        item.name = name_;\n        item.imageSrc = imageSrc_;\n        item.description = description_;\n        item.price = price_;\n        emit ItemUpdated(\n            id_,\n            item.seller\n        );\n    }\n\n    function getAllItems() public view returns (Item[] memory) {\n        Item[] memory _items = new Item[](itemCount);\n        for (uint i = 1; i <= itemCount; ) {\n            _items[i - 1] = items[i];\n            unchecked {\n                i++;\n            }\n        }\n        return _items;\n    }\n\n    function getItemById(uint id_) public view returns (Item memory) {\n        return items[id_];\n    }\n\n    // not case-insensitive\n    function getItemByName(\n        string memory name_\n    ) public view returns (Item memory) {\n        for (uint i = 1; i <= itemCount; i++) {\n            if (\n                keccak256(abi.encodePacked(items[i].name)) ==\n                keccak256(abi.encodePacked(name_))\n            ) {\n                return items[i];\n            }\n        }\n        revert(\"Item not found.\");\n    }\n    // helper function for case-insensitive search\n    function toLowerCase(\n        string memory str\n    ) internal pure returns (string memory) {\n        bytes memory bStr = bytes(str);\n        bytes memory bLower = new bytes(bStr.length);\n        for (uint i = 0; i < bStr.length; i++) {\n            // Uppercase character ASCII range 65 to 90\n            if ((uint8(bStr[i]) >= 65) && (uint8(bStr[i]) <= 90)) {\n                // Convert to lowercase by adding 32 to ASCII value\n                bLower[i] = bytes1(uint8(bStr[i]) + 32);\n            } else {\n                bLower[i] = bStr[i];\n            }\n        }\n        return string(bLower);\n    }\n\n    function close() public onlyOwner {\n        require(\n            allItemsSold(),\n            \"Not all items in this marketplace have been sold.\"\n        );\n        isOpen = false;\n        emit MarketplaceClosed(_msgSender(), name);\n    }\n\n    function allItemsSold() internal view returns (bool) {\n        for (uint i = 1; i <= itemCount; ) {\n            if (items[i].soldTo == address(0)) {\n                return false;\n            }\n            unchecked {\n                i++;\n            }\n        }\n        return true;\n    }\n}\n",
  "sourcePath": "/workspaces/blockchain-gaming-marketplace-contract/contracts/Marketplace.sol",
  "compiler": {
    "name": "solc",
    "version": "0.8.21+commit.d9974bed.Emscripten.clang"
  },
  "schemaVersion": "3.4.16",
  "updatedAt": "2024-02-02T14:02:07.153Z",
  "networkType": "ethereum",
  "devdoc": {
    "errors": {
      "AddressInsufficientBalance(address)": [
        {
          "details": "The ETH balance of the account is not enough to perform the operation."
        }
      ],
      "FailedInnerCall()": [
        {
          "details": "A call to an address target failed. The target may have reverted."
        }
      ],
      "OwnableInvalidOwner(address)": [
        {
          "details": "The owner is not a valid owner account. (eg. `address(0)`)"
        }
      ],
      "OwnableUnauthorizedAccount(address)": [
        {
          "details": "The caller account is not authorized to perform an operation."
        }
      ]
    },
    "kind": "dev",
    "methods": {
      "owner()": {
        "details": "Returns the address of the current owner."
      },
      "renounceOwnership()": {
        "details": "Leaves the contract without owner. It will not be possible to call `onlyOwner` functions. Can only be called by the current owner. NOTE: Renouncing ownership will leave the contract without an owner, thereby disabling any functionality that is only available to the owner."
      },
      "transferOwnership(address)": {
        "details": "Transfers ownership of the contract to a new account (`newOwner`). Can only be called by the current owner."
      }
    },
    "version": 1
  },
  "userdoc": {
    "kind": "user",
    "methods": {},
    "version": 1
  }
}