{
  "contractName": "Marketplace",
  "abi": [
    {
      "inputs": [
        {
          "internalType": "address",
          "name": "owner_",
          "type": "address"
        },
        {
          "internalType": "string",
          "name": "name_",
          "type": "string"
        },
        {
          "internalType": "string",
          "name": "imageSrc_",
          "type": "string"
        }
      ],
      "stateMutability": "nonpayable",
      "type": "constructor"
    },
    {
      "inputs": [
        {
          "internalType": "address",
          "name": "account",
          "type": "address"
        }
      ],
      "name": "AddressInsufficientBalance",
      "type": "error"
    },
    {
      "inputs": [],
      "name": "FailedInnerCall",
      "type": "error"
    },
    {
      "inputs": [
        {
          "internalType": "address",
          "name": "owner",
          "type": "address"
        }
      ],
      "name": "OwnableInvalidOwner",
      "type": "error"
    },
    {
      "inputs": [
        {
          "internalType": "address",
          "name": "account",
          "type": "address"
        }
      ],
      "name": "OwnableUnauthorizedAccount",
      "type": "error"
    },
    {
      "anonymous": false,
      "inputs": [
        {
          "indexed": true,
          "internalType": "uint256",
          "name": "id",
          "type": "uint256"
        },
        {
          "indexed": true,
          "internalType": "address",
          "name": "seller",
          "type": "address"
        }
      ],
      "name": "ItemAdded",
      "type": "event"
    },
    {
      "anonymous": false,
      "inputs": [
        {
          "indexed": true,
          "internalType": "uint256",
          "name": "id",
          "type": "uint256"
        },
        {
          "indexed": true,
          "internalType": "address",
          "name": "seller",
          "type": "address"
        },
        {
          "indexed": true,
          "internalType": "address",
          "name": "buyer",
          "type": "address"
        },
        {
          "indexed": false,
          "internalType": "uint256",
          "name": "price",
          "type": "uint256"
        }
      ],
      "name": "ItemPurchased",
      "type": "event"
    },
    {
      "anonymous": false,
      "inputs": [
        {
          "indexed": true,
          "internalType": "uint256",
          "name": "id",
          "type": "uint256"
        }
      ],
      "name": "ItemRemoved",
      "type": "event"
    },
    {
      "anonymous": false,
      "inputs": [
        {
          "indexed": true,
          "internalType": "uint256",
          "name": "id",
          "type": "uint256"
        },
        {
          "indexed": true,
          "internalType": "address",
          "name": "seller",
          "type": "address"
        }
      ],
      "name": "ItemUpdated",
      "type": "event"
    },
    {
      "anonymous": false,
      "inputs": [
        {
          "indexed": true,
          "internalType": "address",
          "name": "owner",
          "type": "address"
        },
        {
          "indexed": true,
          "internalType": "address",
          "name": "marketplace",
          "type": "address"
        }
      ],
      "name": "MarketplaceClosed",
      "type": "event"
    },
    {
      "anonymous": false,
      "inputs": [
        {
          "indexed": true,
          "internalType": "address",
          "name": "previousOwner",
          "type": "address"
        },
        {
          "indexed": true,
          "internalType": "address",
          "name": "newOwner",
          "type": "address"
        }
      ],
      "name": "OwnershipTransferred",
      "type": "event"
    },
    {
      "inputs": [],
      "name": "imageSrc",
      "outputs": [
        {
          "internalType": "string",
          "name": "",
          "type": "string"
        }
      ],
      "stateMutability": "view",
      "type": "function",
      "constant": true
    },
    {
      "inputs": [],
      "name": "isOpen",
      "outputs": [
        {
          "internalType": "bool",
          "name": "",
          "type": "bool"
        }
      ],
      "stateMutability": "view",
      "type": "function",
      "constant": true
    },
    {
      "inputs": [
        {
          "internalType": "uint256",
          "name": "",
          "type": "uint256"
        }
      ],
      "name": "items",
      "outputs": [
        {
          "internalType": "uint256",
          "name": "id",
          "type": "uint256"
        },
        {
          "internalType": "address payable",
          "name": "seller",
          "type": "address"
        },
        {
          "internalType": "address",
          "name": "soldTo",
          "type": "address"
        },
        {
          "internalType": "string",
          "name": "name",
          "type": "string"
        },
        {
          "internalType": "string",
          "name": "imageSrc",
          "type": "string"
        },
        {
          "internalType": "string",
          "name": "description",
          "type": "string"
        },
        {
          "internalType": "uint256",
          "name": "price",
          "type": "uint256"
        }
      ],
      "stateMutability": "view",
      "type": "function",
      "constant": true
    },
    {
      "inputs": [],
      "name": "name",
      "outputs": [
        {
          "internalType": "string",
          "name": "",
          "type": "string"
        }
      ],
      "stateMutability": "view",
      "type": "function",
      "constant": true
    },
    {
      "inputs": [],
      "name": "owner",
      "outputs": [
        {
          "internalType": "address",
          "name": "",
          "type": "address"
        }
      ],
      "stateMutability": "view",
      "type": "function",
      "constant": true
    },
    {
      "inputs": [],
      "name": "renounceOwnership",
      "outputs": [],
      "stateMutability": "nonpayable",
      "type": "function"
    },
    {
      "inputs": [
        {
          "internalType": "address",
          "name": "newOwner",
          "type": "address"
        }
      ],
      "name": "transferOwnership",
      "outputs": [],
      "stateMutability": "nonpayable",
      "type": "function"
    },
    {
      "inputs": [
        {
          "internalType": "string",
          "name": "name_",
          "type": "string"
        },
        {
          "internalType": "string",
          "name": "imageSrc_",
          "type": "string"
        },
        {
          "internalType": "string",
          "name": "description_",
          "type": "string"
        },
        {
          "internalType": "uint256",
          "name": "price_",
          "type": "uint256"
        }
      ],
      "name": "addItem",
      "outputs": [],
      "stateMutability": "nonpayable",
      "type": "function"
    },
    {
      "inputs": [
        {
          "internalType": "uint256",
          "name": "id_",
          "type": "uint256"
        }
      ],
      "name": "purchaseItem",
      "outputs": [],
      "stateMutability": "payable",
      "type": "function",
      "payable": true
    },
    {
      "inputs": [
        {
          "internalType": "uint256",
          "name": "id_",
          "type": "uint256"
        }
      ],
      "name": "removeItem",
      "outputs": [],
      "stateMutability": "nonpayable",
      "type": "function"
    },
    {
      "inputs": [
        {
          "internalType": "uint256",
          "name": "id_",
          "type": "uint256"
        },
        {
          "internalType": "string",
          "name": "name_",
          "type": "string"
        },
        {
          "internalType": "string",
          "name": "imageSrc_",
          "type": "string"
        },
        {
          "internalType": "string",
          "name": "description_",
          "type": "string"
        },
        {
          "internalType": "uint256",
          "name": "price_",
          "type": "uint256"
        }
      ],
      "name": "updateItem",
      "outputs": [],
      "stateMutability": "nonpayable",
      "type": "function"
    },
    {
      "inputs": [],
      "name": "getAllItems",
      "outputs": [
        {
          "components": [
            {
              "internalType": "uint256",
              "name": "id",
              "type": "uint256"
            },
            {
              "internalType": "address payable",
              "name": "seller",
              "type": "address"
            },
            {
              "internalType": "address",
              "name": "soldTo",
              "type": "address"
            },
            {
              "internalType": "string",
              "name": "name",
              "type": "string"
            },
            {
              "internalType": "string",
              "name": "imageSrc",
              "type": "string"
            },
            {
              "internalType": "string",
              "name": "description",
              "type": "string"
            },
            {
              "internalType": "uint256",
              "name": "price",
              "type": "uint256"
            }
          ],
          "internalType": "struct Marketplace.Item[]",
          "name": "",
          "type": "tuple[]"
        }
      ],
      "stateMutability": "view",
      "type": "function",
      "constant": true
    },
    {
      "inputs": [
        {
          "internalType": "uint256",
          "name": "id_",
          "type": "uint256"
        }
      ],
      "name": "getItemById",
      "outputs": [
        {
          "components": [
            {
              "internalType": "uint256",
              "name": "id",
              "type": "uint256"
            },
            {
              "internalType": "address payable",
              "name": "seller",
              "type": "address"
            },
            {
              "internalType": "address",
              "name": "soldTo",
              "type": "address"
            },
            {
              "internalType": "string",
              "name": "name",
              "type": "string"
            },
            {
              "internalType": "string",
              "name": "imageSrc",
              "type": "string"
            },
            {
              "internalType": "string",
              "name": "description",
              "type": "string"
            },
            {
              "internalType": "uint256",
              "name": "price",
              "type": "uint256"
            }
          ],
          "internalType": "struct Marketplace.Item",
          "name": "",
          "type": "tuple"
        }
      ],
      "stateMutability": "view",
      "type": "function",
      "constant": true
    },
    {
      "inputs": [
        {
          "internalType": "string",
          "name": "name_",
          "type": "string"
        }
      ],
      "name": "getItemsByName",
      "outputs": [
        {
          "components": [
            {
              "internalType": "uint256",
              "name": "id",
              "type": "uint256"
            },
            {
              "internalType": "address payable",
              "name": "seller",
              "type": "address"
            },
            {
              "internalType": "address",
              "name": "soldTo",
              "type": "address"
            },
            {
              "internalType": "string",
              "name": "name",
              "type": "string"
            },
            {
              "internalType": "string",
              "name": "imageSrc",
              "type": "string"
            },
            {
              "internalType": "string",
              "name": "description",
              "type": "string"
            },
            {
              "internalType": "uint256",
              "name": "price",
              "type": "uint256"
            }
          ],
          "internalType": "struct Marketplace.Item[]",
          "name": "",
          "type": "tuple[]"
        }
      ],
      "stateMutability": "view",
      "type": "function",
      "constant": true
    },
    {
      "inputs": [
        {
          "internalType": "address",
          "name": "seller_",
          "type": "address"
        }
      ],
      "name": "getItemsBySeller",
      "outputs": [
        {
          "components": [
            {
              "internalType": "uint256",
              "name": "id",
              "type": "uint256"
            },
            {
              "internalType": "address payable",
              "name": "seller",
              "type": "address"
            },
            {
              "internalType": "address",
              "name": "soldTo",
              "type": "address"
            },
            {
              "internalType": "string",
              "name": "name",
              "type": "string"
            },
            {
              "internalType": "string",
              "name": "imageSrc",
              "type": "string"
            },
            {
              "internalType": "string",
              "name": "description",
              "type": "string"
            },
            {
              "internalType": "uint256",
              "name": "price",
              "type": "uint256"
            }
          ],
          "internalType": "struct Marketplace.Item[]",
          "name": "",
          "type": "tuple[]"
        }
      ],
      "stateMutability": "view",
      "type": "function",
      "constant": true
    },
    {
      "inputs": [
        {
          "internalType": "address",
          "name": "buyer_",
          "type": "address"
        }
      ],
      "name": "getItemsByBuyer",
      "outputs": [
        {
          "components": [
            {
              "internalType": "uint256",
              "name": "id",
              "type": "uint256"
            },
            {
              "internalType": "address payable",
              "name": "seller",
              "type": "address"
            },
            {
              "internalType": "address",
              "name": "soldTo",
              "type": "address"
            },
            {
              "internalType": "string",
              "name": "name",
              "type": "string"
            },
            {
              "internalType": "string",
              "name": "imageSrc",
              "type": "string"
            },
            {
              "internalType": "string",
              "name": "description",
              "type": "string"
            },
            {
              "internalType": "uint256",
              "name": "price",
              "type": "uint256"
            }
          ],
          "internalType": "struct Marketplace.Item[]",
          "name": "",
          "type": "tuple[]"
        }
      ],
      "stateMutability": "view",
      "type": "function",
      "constant": true
    },
    {
      "inputs": [],
      "name": "getUnsoldItems",
      "outputs": [
        {
          "components": [
            {
              "internalType": "uint256",
              "name": "id",
              "type": "uint256"
            },
            {
              "internalType": "address payable",
              "name": "seller",
              "type": "address"
            },
            {
              "internalType": "address",
              "name": "soldTo",
              "type": "address"
            },
            {
              "internalType": "string",
              "name": "name",
              "type": "string"
            },
            {
              "internalType": "string",
              "name": "imageSrc",
              "type": "string"
            },
            {
              "internalType": "string",
              "name": "description",
              "type": "string"
            },
            {
              "internalType": "uint256",
              "name": "price",
              "type": "uint256"
            }
          ],
          "internalType": "struct Marketplace.Item[]",
          "name": "",
          "type": "tuple[]"
        }
      ],
      "stateMutability": "view",
      "type": "function",
      "constant": true
    },
    {
      "inputs": [],
      "name": "close",
      "outputs": [],
      "stateMutability": "nonpayable",
      "type": "function"
    }
  ],
  "bytecode": "0x608060405234801562000010575f80fd5b50604051620042e2380380620042e28339818101604052810190620000369190620003aa565b825f73ffffffffffffffffffffffffffffffffffffffff168173ffffffffffffffffffffffffffffffffffffffff1603620000aa575f6040517f1e4fbdf7000000000000000000000000000000000000000000000000000000008152600401620000a1919062000452565b60405180910390fd5b620000bb816200010360201b60201c565b508160039081620000cd9190620006a4565b508060049081620000df9190620006a4565b50600160055f6101000a81548160ff02191690831515021790555050505062000788565b5f805f9054906101000a900473ffffffffffffffffffffffffffffffffffffffff169050815f806101000a81548173ffffffffffffffffffffffffffffffffffffffff021916908373ffffffffffffffffffffffffffffffffffffffff1602179055508173ffffffffffffffffffffffffffffffffffffffff168173ffffffffffffffffffffffffffffffffffffffff167f8be0079c531659141344cd1fd0a4f28419497f9722a3daafe3b4186f6b6457e060405160405180910390a35050565b5f604051905090565b5f80fd5b5f80fd5b5f73ffffffffffffffffffffffffffffffffffffffff82169050919050565b5f6200020082620001d5565b9050919050565b6200021281620001f4565b81146200021d575f80fd5b50565b5f81519050620002308162000207565b92915050565b5f80fd5b5f80fd5b5f601f19601f8301169050919050565b7f4e487b71000000000000000000000000000000000000000000000000000000005f52604160045260245ffd5b62000286826200023e565b810181811067ffffffffffffffff82111715620002a857620002a76200024e565b5b80604052505050565b5f620002bc620001c4565b9050620002ca82826200027b565b919050565b5f67ffffffffffffffff821115620002ec57620002eb6200024e565b5b620002f7826200023e565b9050602081019050919050565b5f5b838110156200032357808201518184015260208101905062000306565b5f8484015250505050565b5f620003446200033e84620002cf565b620002b1565b9050828152602081018484840111156200036357620003626200023a565b5b6200037084828562000304565b509392505050565b5f82601f8301126200038f576200038e62000236565b5b8151620003a18482602086016200032e565b91505092915050565b5f805f60608486031215620003c457620003c3620001cd565b5b5f620003d38682870162000220565b935050602084015167ffffffffffffffff811115620003f757620003f6620001d1565b5b620004058682870162000378565b925050604084015167ffffffffffffffff811115620004295762000428620001d1565b5b620004378682870162000378565b9150509250925092565b6200044c81620001f4565b82525050565b5f602082019050620004675f83018462000441565b92915050565b5f81519050919050565b7f4e487b71000000000000000000000000000000000000000000000000000000005f52602260045260245ffd5b5f6002820490506001821680620004bc57607f821691505b602082108103620004d257620004d162000477565b5b50919050565b5f819050815f5260205f209050919050565b5f6020601f8301049050919050565b5f82821b905092915050565b5f60088302620005367fffffffffffffffffffffffffffffffffffffffffffffffffffffffffffffffff82620004f9565b620005428683620004f9565b95508019841693508086168417925050509392505050565b5f819050919050565b5f819050919050565b5f6200058c6200058662000580846200055a565b62000563565b6200055a565b9050919050565b5f819050919050565b620005a7836200056c565b620005bf620005b68262000593565b84845462000505565b825550505050565b5f90565b620005d5620005c7565b620005e28184846200059c565b505050565b5b818110156200060957620005fd5f82620005cb565b600181019050620005e8565b5050565b601f82111562000658576200062281620004d8565b6200062d84620004ea565b810160208510156200063d578190505b620006556200064c85620004ea565b830182620005e7565b50505b505050565b5f82821c905092915050565b5f6200067a5f19846008026200065d565b1980831691505092915050565b5f62000694838362000669565b9150826002028217905092915050565b620006af826200046d565b67ffffffffffffffff811115620006cb57620006ca6200024e565b5b620006d78254620004a4565b620006e48282856200060d565b5f60209050601f8311600181146200071a575f841562000705578287015190505b62000711858262000687565b86555062000780565b601f1984166200072a86620004d8565b5f5b8281101562000753578489015182556001820191506020850194506020810190506200072c565b868310156200077357848901516200076f601f89168262000669565b8355505b6001600288020188555050505b505050505050565b613b4c80620007965f395ff3fe608060405260043610610108575f3560e01c806399e07caf11610094578063bf46546511610063578063bf46546514610336578063bfb231d214610360578063cd2f0710146103a2578063d38ea5bf146103de578063f2fde38b146103fa57610108565b806399e07caf1461026c5780639b8bc127146102945780639f3efdf6146102be578063b7d53474146102fa57610108565b80634ba1d6aa116100db5780634ba1d6aa146101b25780636265db2f146101dc5780637132917114610204578063715018a61461022c5780638da5cb5b1461024257610108565b806306fdde031461010c57806343d726d61461013657806347535d7b1461014c57806349bf3efb14610176575b5f80fd5b348015610117575f80fd5b50610120610422565b60405161012d9190612d45565b60405180910390f35b348015610141575f80fd5b5061014a6104ae565b005b348015610157575f80fd5b50610160610579565b60405161016d9190612d7f565b60405180910390f35b348015610181575f80fd5b5061019c60048036038101906101979190612e03565b61058b565b6040516101a9919061301f565b60405180910390f35b3480156101bd575f80fd5b506101c6610924565b6040516101d3919061301f565b60405180910390f35b3480156101e7575f80fd5b5061020260048036038101906101fd9190613195565b610c56565b005b34801561020f575f80fd5b5061022a6004803603810190610225919061324d565b610e26565b005b348015610237575f80fd5b50610240611073565b005b34801561024d575f80fd5b50610256611086565b6040516102639190613287565b60405180910390f35b348015610277575f80fd5b50610292600480360381019061028d91906132a0565b6110ad565b005b34801561029f575f80fd5b506102a86112f2565b6040516102b5919061301f565b60405180910390f35b3480156102c9575f80fd5b506102e460048036038101906102df919061336b565b611689565b6040516102f1919061301f565b60405180910390f35b348015610305575f80fd5b50610320600480360381019061031b9190612e03565b611a7f565b60405161032d919061301f565b60405180910390f35b348015610341575f80fd5b5061034a611e18565b6040516103579190612d45565b60405180910390f35b34801561036b575f80fd5b506103866004803603810190610381919061324d565b611ea4565b60405161039997969594939291906133d0565b60405180910390f35b3480156103ad575f80fd5b506103c860048036038101906103c3919061324d565b6120b2565b6040516103d591906134f9565b60405180910390f35b6103f860048036038101906103f3919061324d565b61234a565b005b348015610405575f80fd5b50610420600480360381019061041b9190612e03565b61262e565b005b6003805461042f90613546565b80601f016020809104026020016040519081016040528092919081815260200182805461045b90613546565b80156104a65780601f1061047d576101008083540402835291602001916104a6565b820191905f5260205f20905b81548152906001019060200180831161048957829003601f168201915b505050505081565b6104b66126b2565b6104be612739565b6104fd576040517f08c379a00000000000000000000000000000000000000000000000000000000081526004016104f4906135e6565b60405180910390fd5b5f60055f6101000a81548160ff0219169083151502179055503073ffffffffffffffffffffffffffffffffffffffff166105356127ce565b73ffffffffffffffffffffffffffffffffffffffff167f83d0180088be204f97ef95ce34f9ba21504932c1ebd4f2ff64bd0df8cf70f32860405160405180910390a3565b60055f9054906101000a900460ff1681565b60605f60025467ffffffffffffffff8111156105aa576105a9613047565b5b6040519080825280602002602001820160405280156105e357816020015b6105d0612bfe565b8152602001906001900390816105c85790505b5090505f80600190505b6002548111610919578473ffffffffffffffffffffffffffffffffffffffff1660015f8381526020019081526020015f206001015f9054906101000a900473ffffffffffffffffffffffffffffffffffffffff1673ffffffffffffffffffffffffffffffffffffffff160361090c5760015f8281526020019081526020015f206040518060e00160405290815f8201548152602001600182015f9054906101000a900473ffffffffffffffffffffffffffffffffffffffff1673ffffffffffffffffffffffffffffffffffffffff1673ffffffffffffffffffffffffffffffffffffffff168152602001600282015f9054906101000a900473ffffffffffffffffffffffffffffffffffffffff1673ffffffffffffffffffffffffffffffffffffffff1673ffffffffffffffffffffffffffffffffffffffff16815260200160038201805461073b90613546565b80601f016020809104026020016040519081016040528092919081815260200182805461076790613546565b80156107b25780601f10610789576101008083540402835291602001916107b2565b820191905f5260205f20905b81548152906001019060200180831161079557829003601f168201915b505050505081526020016004820180546107cb90613546565b80601f01602080910402602001604051908101604052809291908181526020018280546107f790613546565b80156108425780601f1061081957610100808354040283529160200191610842565b820191905f5260205f20905b81548152906001019060200180831161082557829003601f168201915b5050505050815260200160058201805461085b90613546565b80601f016020809104026020016040519081016040528092919081815260200182805461088790613546565b80156108d25780601f106108a9576101008083540402835291602001916108d2565b820191905f5260205f20905b8154815290600101906020018083116108b557829003601f168201915b505050505081526020016006820154815250508383815181106108f8576108f7613604565b5b602002602001018190525081806001019250505b80806001019150506105ed565b508192505050919050565b60605f60025467ffffffffffffffff81111561094357610942613047565b5b60405190808252806020026020018201604052801561097c57816020015b610969612bfe565b8152602001906001900390816109615790505b5090505f600190505b6002548111610c4e5760015f8281526020019081526020015f206040518060e00160405290815f8201548152602001600182015f9054906101000a900473ffffffffffffffffffffffffffffffffffffffff1673ffffffffffffffffffffffffffffffffffffffff1673ffffffffffffffffffffffffffffffffffffffff168152602001600282015f9054906101000a900473ffffffffffffffffffffffffffffffffffffffff1673ffffffffffffffffffffffffffffffffffffffff1673ffffffffffffffffffffffffffffffffffffffff168152602001600382018054610a6d90613546565b80601f0160208091040260200160405190810160405280929190818152602001828054610a9990613546565b8015610ae45780601f10610abb57610100808354040283529160200191610ae4565b820191905f5260205f20905b815481529060010190602001808311610ac757829003601f168201915b50505050508152602001600482018054610afd90613546565b80601f0160208091040260200160405190810160405280929190818152602001828054610b2990613546565b8015610b745780601f10610b4b57610100808354040283529160200191610b74565b820191905f5260205f20905b815481529060010190602001808311610b5757829003601f168201915b50505050508152602001600582018054610b8d90613546565b80601f0160208091040260200160405190810160405280929190818152602001828054610bb990613546565b8015610c045780601f10610bdb57610100808354040283529160200191610c04565b820191905f5260205f20905b815481529060010190602001808311610be757829003601f168201915b5050505050815260200160068201548152505082600183610c25919061365e565b81518110610c3657610c35613604565b5b60200260200101819052508080600101915050610985565b508091505090565b610c5e6126b2565b60025f815480929190610c7090613691565b91905055506040518060e001604052806002548152602001610c906127ce565b73ffffffffffffffffffffffffffffffffffffffff1681526020015f73ffffffffffffffffffffffffffffffffffffffff1681526020018581526020018481526020018381526020018281525060015f60025481526020019081526020015f205f820151815f01556020820151816001015f6101000a81548173ffffffffffffffffffffffffffffffffffffffff021916908373ffffffffffffffffffffffffffffffffffffffff1602179055506040820151816002015f6101000a81548173ffffffffffffffffffffffffffffffffffffffff021916908373ffffffffffffffffffffffffffffffffffffffff1602179055506060820151816003019081610d999190613875565b506080820151816004019081610daf9190613875565b5060a0820151816005019081610dc59190613875565b5060c08201518160060155905050610ddb6127ce565b73ffffffffffffffffffffffffffffffffffffffff166002547f6375005112faeb3c31f129d3aa24c423df50ca6f7c78b0490c6f4b691feac38a60405160405180910390a350505050565b60055f9054906101000a900460ff16610e74576040517f08c379a0000000000000000000000000000000000000000000000000000000008152600401610e6b9061398e565b60405180910390fd5b610e7c6126b2565b805f60015f8381526020019081526020015f205f015414158015610eff57505f73ffffffffffffffffffffffffffffffffffffffff1660015f8381526020019081526020015f206001015f9054906101000a900473ffffffffffffffffffffffffffffffffffffffff1673ffffffffffffffffffffffffffffffffffffffff1614155b8015610f6957505f73ffffffffffffffffffffffffffffffffffffffff1660015f8381526020019081526020015f206002015f9054906101000a900473ffffffffffffffffffffffffffffffffffffffff1673ffffffffffffffffffffffffffffffffffffffff16145b610fa8576040517f08c379a0000000000000000000000000000000000000000000000000000000008152600401610f9f906139f6565b60405180910390fd5b60015f8381526020019081526020015f205f8082015f9055600182015f6101000a81549073ffffffffffffffffffffffffffffffffffffffff0219169055600282015f6101000a81549073ffffffffffffffffffffffffffffffffffffffff0219169055600382015f61101b9190612c63565b600482015f61102a9190612c63565b600582015f6110399190612c63565b600682015f90555050817fa54eda4149a0fb9258911733973ecf1f6762357ed371fc6d1e63123bbce23bed60405160405180910390a25050565b61107b6126b2565b6110845f6127d5565b565b5f805f9054906101000a900473ffffffffffffffffffffffffffffffffffffffff16905090565b60055f9054906101000a900460ff166110fb576040517f08c379a00000000000000000000000000000000000000000000000000000000081526004016110f29061398e565b60405180910390fd5b6111036126b2565b845f60015f8381526020019081526020015f205f01541415801561118657505f73ffffffffffffffffffffffffffffffffffffffff1660015f8381526020019081526020015f206001015f9054906101000a900473ffffffffffffffffffffffffffffffffffffffff1673ffffffffffffffffffffffffffffffffffffffff1614155b80156111f057505f73ffffffffffffffffffffffffffffffffffffffff1660015f8381526020019081526020015f206002015f9054906101000a900473ffffffffffffffffffffffffffffffffffffffff1673ffffffffffffffffffffffffffffffffffffffff16145b61122f576040517f08c379a0000000000000000000000000000000000000000000000000000000008152600401611226906139f6565b60405180910390fd5b5f60015f8881526020019081526020015f209050858160030190816112549190613875565b50848160040190816112669190613875565b50838160050190816112789190613875565b50828160060181905550806001015f9054906101000a900473ffffffffffffffffffffffffffffffffffffffff1673ffffffffffffffffffffffffffffffffffffffff16877f38f487ae24444315197e622aa97fa1b715d2061149fedf9e29b0d2f80f773a1d60405160405180910390a350505050505050565b60605f60025467ffffffffffffffff81111561131157611310613047565b5b60405190808252806020026020018201604052801561134a57816020015b611337612bfe565b81526020019060019003908161132f5790505b5090505f80600190505b6002548111611680575f73ffffffffffffffffffffffffffffffffffffffff1660015f8381526020019081526020015f206002015f9054906101000a900473ffffffffffffffffffffffffffffffffffffffff1673ffffffffffffffffffffffffffffffffffffffff16036116735760015f8281526020019081526020015f206040518060e00160405290815f8201548152602001600182015f9054906101000a900473ffffffffffffffffffffffffffffffffffffffff1673ffffffffffffffffffffffffffffffffffffffff1673ffffffffffffffffffffffffffffffffffffffff168152602001600282015f9054906101000a900473ffffffffffffffffffffffffffffffffffffffff1673ffffffffffffffffffffffffffffffffffffffff1673ffffffffffffffffffffffffffffffffffffffff1681526020016003820180546114a290613546565b80601f01602080910402602001604051908101604052809291908181526020018280546114ce90613546565b80156115195780601f106114f057610100808354040283529160200191611519565b820191905f5260205f20905b8154815290600101906020018083116114fc57829003601f168201915b5050505050815260200160048201805461153290613546565b80601f016020809104026020016040519081016040528092919081815260200182805461155e90613546565b80156115a95780601f10611580576101008083540402835291602001916115a9565b820191905f5260205f20905b81548152906001019060200180831161158c57829003601f168201915b505050505081526020016005820180546115c290613546565b80601f01602080910402602001604051908101604052809291908181526020018280546115ee90613546565b80156116395780601f1061161057610100808354040283529160200191611639565b820191905f5260205f20905b81548152906001019060200180831161161c57829003601f168201915b5050505050815260200160068201548152505083838151811061165f5761165e613604565b5b602002602001018190525081806001019250505b8080600101915050611354565b50819250505090565b60605f61169583612896565b90505f60025467ffffffffffffffff8111156116b4576116b3613047565b5b6040519080825280602002602001820160405280156116ed57816020015b6116da612bfe565b8152602001906001900390816116d25790505b5090505f80600190505b6002548111611a73575f6117a460015f8481526020019081526020015f20600301805461172390613546565b80601f016020809104026020016040519081016040528092919081815260200182805461174f90613546565b801561179a5780601f106117715761010080835404028352916020019161179a565b820191905f5260205f20905b81548152906001019060200180831161177d57829003601f168201915b5050505050612896565b90506117b08186612a43565b15611a655760015f8381526020019081526020015f206040518060e00160405290815f8201548152602001600182015f9054906101000a900473ffffffffffffffffffffffffffffffffffffffff1673ffffffffffffffffffffffffffffffffffffffff1673ffffffffffffffffffffffffffffffffffffffff168152602001600282015f9054906101000a900473ffffffffffffffffffffffffffffffffffffffff1673ffffffffffffffffffffffffffffffffffffffff1673ffffffffffffffffffffffffffffffffffffffff16815260200160038201805461189490613546565b80601f01602080910402602001604051908101604052809291908181526020018280546118c090613546565b801561190b5780601f106118e25761010080835404028352916020019161190b565b820191905f5260205f20905b8154815290600101906020018083116118ee57829003601f168201915b5050505050815260200160048201805461192490613546565b80601f016020809104026020016040519081016040528092919081815260200182805461195090613546565b801561199b5780601f106119725761010080835404028352916020019161199b565b820191905f5260205f20905b81548152906001019060200180831161197e57829003601f168201915b505050505081526020016005820180546119b490613546565b80601f01602080910402602001604051908101604052809291908181526020018280546119e090613546565b8015611a2b5780601f10611a0257610100808354040283529160200191611a2b565b820191905f5260205f20905b815481529060010190602001808311611a0e57829003601f168201915b50505050508152602001600682015481525050848481518110611a5157611a50613604565b5b602002602001018190525082806001019350505b8180600101925050506116f7565b50819350505050919050565b60605f60025467ffffffffffffffff811115611a9e57611a9d613047565b5b604051908082528060200260200182016040528015611ad757816020015b611ac4612bfe565b815260200190600190039081611abc5790505b5090505f80600190505b6002548111611e0d578473ffffffffffffffffffffffffffffffffffffffff1660015f8381526020019081526020015f206002015f9054906101000a900473ffffffffffffffffffffffffffffffffffffffff1673ffffffffffffffffffffffffffffffffffffffff1603611e005760015f8281526020019081526020015f206040518060e00160405290815f8201548152602001600182015f9054906101000a900473ffffffffffffffffffffffffffffffffffffffff1673ffffffffffffffffffffffffffffffffffffffff1673ffffffffffffffffffffffffffffffffffffffff168152602001600282015f9054906101000a900473ffffffffffffffffffffffffffffffffffffffff1673ffffffffffffffffffffffffffffffffffffffff1673ffffffffffffffffffffffffffffffffffffffff168152602001600382018054611c2f90613546565b80601f0160208091040260200160405190810160405280929190818152602001828054611c5b90613546565b8015611ca65780601f10611c7d57610100808354040283529160200191611ca6565b820191905f5260205f20905b815481529060010190602001808311611c8957829003601f168201915b50505050508152602001600482018054611cbf90613546565b80601f0160208091040260200160405190810160405280929190818152602001828054611ceb90613546565b8015611d365780601f10611d0d57610100808354040283529160200191611d36565b820191905f5260205f20905b815481529060010190602001808311611d1957829003601f168201915b50505050508152602001600582018054611d4f90613546565b80601f0160208091040260200160405190810160405280929190818152602001828054611d7b90613546565b8015611dc65780601f10611d9d57610100808354040283529160200191611dc6565b820191905f5260205f20905b815481529060010190602001808311611da957829003601f168201915b50505050508152602001600682015481525050838381518110611dec57611deb613604565b5b602002602001018190525081806001019250505b8080600101915050611ae1565b508192505050919050565b60048054611e2590613546565b80601f0160208091040260200160405190810160405280929190818152602001828054611e5190613546565b8015611e9c5780601f10611e7357610100808354040283529160200191611e9c565b820191905f5260205f20905b815481529060010190602001808311611e7f57829003601f168201915b505050505081565b6001602052805f5260405f205f91509050805f015490806001015f9054906101000a900473ffffffffffffffffffffffffffffffffffffffff1690806002015f9054906101000a900473ffffffffffffffffffffffffffffffffffffffff1690806003018054611f1390613546565b80601f0160208091040260200160405190810160405280929190818152602001828054611f3f90613546565b8015611f8a5780601f10611f6157610100808354040283529160200191611f8a565b820191905f5260205f20905b815481529060010190602001808311611f6d57829003601f168201915b505050505090806004018054611f9f90613546565b80601f0160208091040260200160405190810160405280929190818152602001828054611fcb90613546565b80156120165780601f10611fed57610100808354040283529160200191612016565b820191905f5260205f20905b815481529060010190602001808311611ff957829003601f168201915b50505050509080600501805461202b90613546565b80601f016020809104026020016040519081016040528092919081815260200182805461205790613546565b80156120a25780601f10612079576101008083540402835291602001916120a2565b820191905f5260205f20905b81548152906001019060200180831161208557829003601f168201915b5050505050908060060154905087565b6120ba612bfe565b60015f8381526020019081526020015f206040518060e00160405290815f8201548152602001600182015f9054906101000a900473ffffffffffffffffffffffffffffffffffffffff1673ffffffffffffffffffffffffffffffffffffffff1673ffffffffffffffffffffffffffffffffffffffff168152602001600282015f9054906101000a900473ffffffffffffffffffffffffffffffffffffffff1673ffffffffffffffffffffffffffffffffffffffff1673ffffffffffffffffffffffffffffffffffffffff16815260200160038201805461219990613546565b80601f01602080910402602001604051908101604052809291908181526020018280546121c590613546565b80156122105780601f106121e757610100808354040283529160200191612210565b820191905f5260205f20905b8154815290600101906020018083116121f357829003601f168201915b5050505050815260200160048201805461222990613546565b80601f016020809104026020016040519081016040528092919081815260200182805461225590613546565b80156122a05780601f10612277576101008083540402835291602001916122a0565b820191905f5260205f20905b81548152906001019060200180831161228357829003601f168201915b505050505081526020016005820180546122b990613546565b80601f01602080910402602001604051908101604052809291908181526020018280546122e590613546565b80156123305780601f1061230757610100808354040283529160200191612330565b820191905f5260205f20905b81548152906001019060200180831161231357829003601f168201915b505050505081526020016006820154815250509050919050565b60055f9054906101000a900460ff16612398576040517f08c379a000000000000000000000000000000000000000000000000000000000815260040161238f9061398e565b60405180910390fd5b805f60015f8381526020019081526020015f205f01541415801561241b57505f73ffffffffffffffffffffffffffffffffffffffff1660015f8381526020019081526020015f206001015f9054906101000a900473ffffffffffffffffffffffffffffffffffffffff1673ffffffffffffffffffffffffffffffffffffffff1614155b801561248557505f73ffffffffffffffffffffffffffffffffffffffff1660015f8381526020019081526020015f206002015f9054906101000a900473ffffffffffffffffffffffffffffffffffffffff1673ffffffffffffffffffffffffffffffffffffffff16145b6124c4576040517f08c379a00000000000000000000000000000000000000000000000000000000081526004016124bb906139f6565b60405180910390fd5b5f60015f8481526020019081526020015f209050806006015434101561251f576040517f08c379a000000000000000000000000000000000000000000000000000000000815260040161251690613a5e565b60405180910390fd5b61254c816001015f9054906101000a900473ffffffffffffffffffffffffffffffffffffffff1634612b15565b6125546127ce565b816002015f6101000a81548173ffffffffffffffffffffffffffffffffffffffff021916908373ffffffffffffffffffffffffffffffffffffffff16021790555061259d6127ce565b73ffffffffffffffffffffffffffffffffffffffff16816001015f9054906101000a900473ffffffffffffffffffffffffffffffffffffffff1673ffffffffffffffffffffffffffffffffffffffff16847f3e2a5a5ee3a24b1b9d330b0bc0946a7d0eb9c99f453f93a45348a9a8e29a94fb84600601546040516126219190613a7c565b60405180910390a4505050565b6126366126b2565b5f73ffffffffffffffffffffffffffffffffffffffff168173ffffffffffffffffffffffffffffffffffffffff16036126a6575f6040517f1e4fbdf700000000000000000000000000000000000000000000000000000000815260040161269d9190613287565b60405180910390fd5b6126af816127d5565b50565b6126ba6127ce565b73ffffffffffffffffffffffffffffffffffffffff166126d8611086565b73ffffffffffffffffffffffffffffffffffffffff1614612737576126fb6127ce565b6040517f118cdaa700000000000000000000000000000000000000000000000000000000815260040161272e9190613287565b60405180910390fd5b565b5f80600190505b60025481116127c5575f73ffffffffffffffffffffffffffffffffffffffff1660015f8381526020019081526020015f206002015f9054906101000a900473ffffffffffffffffffffffffffffffffffffffff1673ffffffffffffffffffffffffffffffffffffffff16036127b8575f9150506127cb565b8080600101915050612740565b50600190505b90565b5f33905090565b5f805f9054906101000a900473ffffffffffffffffffffffffffffffffffffffff169050815f806101000a81548173ffffffffffffffffffffffffffffffffffffffff021916908373ffffffffffffffffffffffffffffffffffffffff1602179055508173ffffffffffffffffffffffffffffffffffffffff168173ffffffffffffffffffffffffffffffffffffffff167f8be0079c531659141344cd1fd0a4f28419497f9722a3daafe3b4186f6b6457e060405160405180910390a35050565b60605f8290505f815167ffffffffffffffff8111156128b8576128b7613047565b5b6040519080825280601f01601f1916602001820160405280156128ea5781602001600182028036833780820191505090505b5090505f5b8251811015612a3857604183828151811061290d5761290c613604565b5b602001015160f81c60f81b60f81c60ff16101580156129505750605a83828151811061293c5761293b613604565b5b602001015160f81c60f81b60f81c60ff1611155b156129cb57602083828151811061296a57612969613604565b5b602001015160f81c60f81b60f81c6129829190613aa1565b60f81b82828151811061299857612997613604565b5b60200101907effffffffffffffffffffffffffffffffffffffffffffffffffffffffffffff191690815f1a905350612a2b565b8281815181106129de576129dd613604565b5b602001015160f81c60f81b8282815181106129fc576129fb613604565b5b60200101907effffffffffffffffffffffffffffffffffffffffffffffffffffffffffffff191690815f1a9053505b80806001019150506128ef565b508092505050919050565b5f808390505f8390508051825114612a5f575f92505050612b0f565b5f5b8251811015612b0757818181518110612a7d57612a7c613604565b5b602001015160f81c60f81b7effffffffffffffffffffffffffffffffffffffffffffffffffffffffffffff1916838281518110612abd57612abc613604565b5b602001015160f81c60f81b7effffffffffffffffffffffffffffffffffffffffffffffffffffffffffffff191614612afa575f9350505050612b0f565b8080600101915050612a61565b506001925050505b92915050565b80471015612b5a57306040517fcd786059000000000000000000000000000000000000000000000000000000008152600401612b519190613287565b60405180910390fd5b5f8273ffffffffffffffffffffffffffffffffffffffff1682604051612b7f90613b02565b5f6040518083038185875af1925050503d805f8114612bb9576040519150601f19603f3d011682016040523d82523d5f602084013e612bbe565b606091505b5050905080612bf9576040517f1425ea4200000000000000000000000000000000000000000000000000000000815260040160405180910390fd5b505050565b6040518060e001604052805f81526020015f73ffffffffffffffffffffffffffffffffffffffff1681526020015f73ffffffffffffffffffffffffffffffffffffffff1681526020016060815260200160608152602001606081526020015f81525090565b508054612c6f90613546565b5f825580601f10612c805750612c9d565b601f0160209004905f5260205f2090810190612c9c9190612ca0565b5b50565b5b80821115612cb7575f815f905550600101612ca1565b5090565b5f81519050919050565b5f82825260208201905092915050565b5f5b83811015612cf2578082015181840152602081019050612cd7565b5f8484015250505050565b5f601f19601f8301169050919050565b5f612d1782612cbb565b612d218185612cc5565b9350612d31818560208601612cd5565b612d3a81612cfd565b840191505092915050565b5f6020820190508181035f830152612d5d8184612d0d565b905092915050565b5f8115159050919050565b612d7981612d65565b82525050565b5f602082019050612d925f830184612d70565b92915050565b5f604051905090565b5f80fd5b5f80fd5b5f73ffffffffffffffffffffffffffffffffffffffff82169050919050565b5f612dd282612da9565b9050919050565b612de281612dc8565b8114612dec575f80fd5b50565b5f81359050612dfd81612dd9565b92915050565b5f60208284031215612e1857612e17612da1565b5b5f612e2584828501612def565b91505092915050565b5f81519050919050565b5f82825260208201905092915050565b5f819050602082019050919050565b5f819050919050565b612e6981612e57565b82525050565b5f612e7982612da9565b9050919050565b612e8981612e6f565b82525050565b612e9881612dc8565b82525050565b5f82825260208201905092915050565b5f612eb882612cbb565b612ec28185612e9e565b9350612ed2818560208601612cd5565b612edb81612cfd565b840191505092915050565b5f60e083015f830151612efb5f860182612e60565b506020830151612f0e6020860182612e80565b506040830151612f216040860182612e8f565b5060608301518482036060860152612f398282612eae565b91505060808301518482036080860152612f538282612eae565b91505060a083015184820360a0860152612f6d8282612eae565b91505060c0830151612f8260c0860182612e60565b508091505092915050565b5f612f988383612ee6565b905092915050565b5f602082019050919050565b5f612fb682612e2e565b612fc08185612e38565b935083602082028501612fd285612e48565b805f5b8581101561300d5784840389528151612fee8582612f8d565b9450612ff983612fa0565b925060208a01995050600181019050612fd5565b50829750879550505050505092915050565b5f6020820190508181035f8301526130378184612fac565b905092915050565b5f80fd5b5f80fd5b7f4e487b71000000000000000000000000000000000000000000000000000000005f52604160045260245ffd5b61307d82612cfd565b810181811067ffffffffffffffff8211171561309c5761309b613047565b5b80604052505050565b5f6130ae612d98565b90506130ba8282613074565b919050565b5f67ffffffffffffffff8211156130d9576130d8613047565b5b6130e282612cfd565b9050602081019050919050565b828183375f83830152505050565b5f61310f61310a846130bf565b6130a5565b90508281526020810184848401111561312b5761312a613043565b5b6131368482856130ef565b509392505050565b5f82601f8301126131525761315161303f565b5b81356131628482602086016130fd565b91505092915050565b61317481612e57565b811461317e575f80fd5b50565b5f8135905061318f8161316b565b92915050565b5f805f80608085870312156131ad576131ac612da1565b5b5f85013567ffffffffffffffff8111156131ca576131c9612da5565b5b6131d68782880161313e565b945050602085013567ffffffffffffffff8111156131f7576131f6612da5565b5b6132038782880161313e565b935050604085013567ffffffffffffffff81111561322457613223612da5565b5b6132308782880161313e565b925050606061324187828801613181565b91505092959194509250565b5f6020828403121561326257613261612da1565b5b5f61326f84828501613181565b91505092915050565b61328181612dc8565b82525050565b5f60208201905061329a5f830184613278565b92915050565b5f805f805f60a086880312156132b9576132b8612da1565b5b5f6132c688828901613181565b955050602086013567ffffffffffffffff8111156132e7576132e6612da5565b5b6132f38882890161313e565b945050604086013567ffffffffffffffff81111561331457613313612da5565b5b6133208882890161313e565b935050606086013567ffffffffffffffff81111561334157613340612da5565b5b61334d8882890161313e565b925050608061335e88828901613181565b9150509295509295909350565b5f602082840312156133805761337f612da1565b5b5f82013567ffffffffffffffff81111561339d5761339c612da5565b5b6133a98482850161313e565b91505092915050565b6133bb81612e57565b82525050565b6133ca81612e6f565b82525050565b5f60e0820190506133e35f83018a6133b2565b6133f060208301896133c1565b6133fd6040830188613278565b818103606083015261340f8187612d0d565b905081810360808301526134238186612d0d565b905081810360a08301526134378185612d0d565b905061344660c08301846133b2565b98975050505050505050565b5f60e083015f8301516134675f860182612e60565b50602083015161347a6020860182612e80565b50604083015161348d6040860182612e8f565b50606083015184820360608601526134a58282612eae565b915050608083015184820360808601526134bf8282612eae565b91505060a083015184820360a08601526134d98282612eae565b91505060c08301516134ee60c0860182612e60565b508091505092915050565b5f6020820190508181035f8301526135118184613452565b905092915050565b7f4e487b71000000000000000000000000000000000000000000000000000000005f52602260045260245ffd5b5f600282049050600182168061355d57607f821691505b6020821081036135705761356f613519565b5b50919050565b7f4e6f7420616c6c206974656d7320696e2074686973206d61726b6574706c61635f8201527f652068617665206265656e20736f6c642e000000000000000000000000000000602082015250565b5f6135d0603183612cc5565b91506135db82613576565b604082019050919050565b5f6020820190508181035f8301526135fd816135c4565b9050919050565b7f4e487b71000000000000000000000000000000000000000000000000000000005f52603260045260245ffd5b7f4e487b71000000000000000000000000000000000000000000000000000000005f52601160045260245ffd5b5f61366882612e57565b915061367383612e57565b925082820390508181111561368b5761368a613631565b5b92915050565b5f61369b82612e57565b91507fffffffffffffffffffffffffffffffffffffffffffffffffffffffffffffffff82036136cd576136cc613631565b5b600182019050919050565b5f819050815f5260205f209050919050565b5f6020601f8301049050919050565b5f82821b905092915050565b5f600883026137347fffffffffffffffffffffffffffffffffffffffffffffffffffffffffffffffff826136f9565b61373e86836136f9565b95508019841693508086168417925050509392505050565b5f819050919050565b5f61377961377461376f84612e57565b613756565b612e57565b9050919050565b5f819050919050565b6137928361375f565b6137a661379e82613780565b848454613705565b825550505050565b5f90565b6137ba6137ae565b6137c5818484613789565b505050565b5b818110156137e8576137dd5f826137b2565b6001810190506137cb565b5050565b601f82111561382d576137fe816136d8565b613807846136ea565b81016020851015613816578190505b61382a613822856136ea565b8301826137ca565b50505b505050565b5f82821c905092915050565b5f61384d5f1984600802613832565b1980831691505092915050565b5f613865838361383e565b9150826002028217905092915050565b61387e82612cbb565b67ffffffffffffffff81111561389757613896613047565b5b6138a18254613546565b6138ac8282856137ec565b5f60209050601f8311600181146138dd575f84156138cb578287015190505b6138d5858261385a565b86555061393c565b601f1984166138eb866136d8565b5f5b82811015613912578489015182556001820191506020850194506020810190506138ed565b8683101561392f578489015161392b601f89168261383e565b8355505b6001600288020188555050505b505050505050565b7f4d61726b6574706c61636520697320636c6f7365642e000000000000000000005f82015250565b5f613978601683612cc5565b915061398382613944565b602082019050919050565b5f6020820190508181035f8301526139a58161396c565b9050919050565b7f4974656d206e6f7420617661696c61626c652e000000000000000000000000005f82015250565b5f6139e0601383612cc5565b91506139eb826139ac565b602082019050919050565b5f6020820190508181035f830152613a0d816139d4565b9050919050565b7f4e6f7420656e6f7567682045746865722070726f76696465642e0000000000005f82015250565b5f613a48601a83612cc5565b9150613a5382613a14565b602082019050919050565b5f6020820190508181035f830152613a7581613a3c565b9050919050565b5f602082019050613a8f5f8301846133b2565b92915050565b5f60ff82169050919050565b5f613aab82613a95565b9150613ab683613a95565b9250828201905060ff811115613acf57613ace613631565b5b92915050565b5f81905092915050565b50565b5f613aed5f83613ad5565b9150613af882613adf565b5f82019050919050565b5f613b0c82613ae2565b915081905091905056fea2646970667358221220356713fde4be47da4cd8544f1dd5906e94bd610900b9d8448b4cb83c40896b3764736f6c63430008150033",
  "immutableReferences": {},
  "source": "// SPDX-License-Identifier: MIT\npragma solidity ^0.8.20;\n\nimport \"@openzeppelin/contracts/access/Ownable.sol\";\nimport \"@openzeppelin/contracts/utils/Address.sol\";\nimport \"../libraries/StringUtils.sol\";\n\n// TODO: add PaymentSplitter for marketplace owner\ncontract Marketplace is Ownable {\n    mapping(uint => Item) public items;\n    uint private itemCount;\n    string public name;\n    string public imageSrc;\n    bool public isOpen;\n\n    struct Item {\n        uint id;\n        address payable seller;\n        address soldTo;\n        string name;\n        string imageSrc;\n        string description;\n        uint price;\n    }\n\n    modifier itemAvailable(uint id_) {\n        require(\n            items[id_].id != 0 &&\n                items[id_].seller != address(0) &&\n                items[id_].soldTo == address(0),\n            \"Item not available.\"\n        );\n        _;\n    }\n\n    modifier marketplaceOpen() {\n        require(isOpen, \"Marketplace is closed.\");\n        _;\n    }\n\n    event ItemAdded(uint indexed id, address indexed seller);\n\n    event ItemUpdated(uint indexed id, address indexed seller);\n\n    event ItemPurchased(\n        uint indexed id,\n        address indexed seller,\n        address indexed buyer,\n        uint price\n    );\n\n    event ItemRemoved(uint indexed id);\n\n    event MarketplaceClosed(address indexed owner, address indexed marketplace);\n\n    constructor(\n        address owner_,\n        string memory name_,\n        string memory imageSrc_\n    ) Ownable(owner_) {\n        name = name_;\n        imageSrc = imageSrc_;\n        isOpen = true;\n    }\n\n    function addItem(\n        string memory name_,\n        string memory imageSrc_,\n        string memory description_,\n        uint price_\n    ) public onlyOwner {\n        itemCount++;\n        items[itemCount] = Item(\n            itemCount,\n            payable(_msgSender()),\n            address(0),\n            name_,\n            imageSrc_,\n            description_,\n            price_\n        );\n        emit ItemAdded(itemCount, _msgSender());\n    }\n\n    // TODO: request purchase!\n    // TODO: price calculation\n    function purchaseItem(\n        uint id_\n    ) public payable marketplaceOpen itemAvailable(id_) {\n        Item storage item = items[id_];\n        require(msg.value >= item.price, \"Not enough Ether provided.\");\n        Address.sendValue(item.seller, msg.value);\n        item.soldTo = _msgSender();\n        emit ItemPurchased(id_, item.seller, _msgSender(), item.price);\n    }\n\n    function removeItem(\n        uint id_\n    ) public marketplaceOpen onlyOwner itemAvailable(id_) {\n        delete items[id_];\n        emit ItemRemoved(id_);\n    }\n\n    function updateItem(\n        uint id_,\n        string memory name_,\n        string memory imageSrc_,\n        string memory description_,\n        uint price_\n    ) public marketplaceOpen onlyOwner itemAvailable(id_) {\n        Item storage item = items[id_];\n        item.name = name_;\n        item.imageSrc = imageSrc_;\n        item.description = description_;\n        item.price = price_;\n        emit ItemUpdated(id_, address(item.seller));\n    }\n\n    function getAllItems() public view returns (Item[] memory) {\n        Item[] memory _items = new Item[](itemCount);\n        for (uint i = 1; i <= itemCount; ) {\n            _items[i - 1] = items[i];\n            unchecked {\n                i++;\n            }\n        }\n        return _items;\n    }\n\n    function getItemById(uint id_) public view returns (Item memory) {\n        return items[id_];\n    }\n\n    function getItemsByName(\n        string memory name_\n    ) public view returns (Item[] memory) {\n        string memory lowerName = StringUtils.toLowerCase(name_);\n        Item[] memory matchingItems = new Item[](itemCount);\n        uint matchingItemCount = 0;\n\n        for (uint i = 1; i <= itemCount; ) {\n            string memory lowerItemName = StringUtils.toLowerCase(items[i].name);\n            if (StringUtils.isEqual(lowerItemName, lowerName)) {\n                matchingItems[matchingItemCount] = items[i];\n                unchecked {\n                    matchingItemCount++;\n                }\n            }\n            unchecked {\n                i++;\n            }\n        }\n        return matchingItems;\n    }\n\n    function getItemsBySeller(\n        address seller_\n    ) public view returns (Item[] memory) {\n        Item[] memory sellerItems = new Item[](itemCount);\n        uint sellerItemCount = 0;\n        for (uint i = 1; i <= itemCount; ) {\n            if (items[i].seller == seller_) {\n                sellerItems[sellerItemCount] = items[i];\n                unchecked {\n                    sellerItemCount++;\n                }\n            }\n            unchecked {\n                i++;\n            }\n        }\n        return sellerItems;\n    }\n\n    function getItemsByBuyer(\n        address buyer_\n    ) public view returns (Item[] memory) {\n        Item[] memory buyerItems = new Item[](itemCount);\n        uint buyerItemCount = 0;\n\n        for (uint i = 1; i <= itemCount; ) {\n            if (items[i].soldTo == buyer_) {\n                buyerItems[buyerItemCount] = items[i];\n                unchecked {\n                    buyerItemCount++;\n                }\n            }\n            unchecked {\n                i++;\n            }\n        }\n        return buyerItems;\n    }\n\n    function getUnsoldItems() public view returns (Item[] memory) {\n        Item[] memory unsoldItems = new Item[](itemCount);\n        uint unsoldItemCount = 0;\n\n        for (uint i = 1; i <= itemCount; ) {\n            if (items[i].soldTo == address(0)) {\n                unsoldItems[unsoldItemCount] = items[i];\n                unchecked {\n                    unsoldItemCount++;\n                }\n            }\n            unchecked {\n                i++;\n            }\n        }\n        return unsoldItems;\n    }\n\n    function close() public onlyOwner {\n        require(\n            allItemsSold(),\n            \"Not all items in this marketplace have been sold.\"\n        );\n        isOpen = false;\n        emit MarketplaceClosed(_msgSender(), address(this));\n    }\n\n    function allItemsSold() internal view returns (bool) {\n        for (uint i = 1; i <= itemCount; ) {\n            if (items[i].soldTo == address(0)) {\n                return false;\n            }\n            unchecked {\n                i++;\n            }\n        }\n        return true;\n    }\n}\n",
  "sourcePath": "/workspaces/blockchain-gaming-marketplace-contract/contracts/Marketplace.sol",
  "compiler": {
    "name": "solc",
    "version": "0.8.21+commit.d9974bed.Emscripten.clang"
  },
  "schemaVersion": "3.4.16",
  "updatedAt": "2024-02-03T19:33:02.762Z",
  "networkType": "ethereum",
  "devdoc": {
    "errors": {
      "AddressInsufficientBalance(address)": [
        {
          "details": "The ETH balance of the account is not enough to perform the operation."
        }
      ],
      "FailedInnerCall()": [
        {
          "details": "A call to an address target failed. The target may have reverted."
        }
      ],
      "OwnableInvalidOwner(address)": [
        {
          "details": "The owner is not a valid owner account. (eg. `address(0)`)"
        }
      ],
      "OwnableUnauthorizedAccount(address)": [
        {
          "details": "The caller account is not authorized to perform an operation."
        }
      ]
    },
    "kind": "dev",
    "methods": {
      "owner()": {
        "details": "Returns the address of the current owner."
      },
      "renounceOwnership()": {
        "details": "Leaves the contract without owner. It will not be possible to call `onlyOwner` functions. Can only be called by the current owner. NOTE: Renouncing ownership will leave the contract without an owner, thereby disabling any functionality that is only available to the owner."
      },
      "transferOwnership(address)": {
        "details": "Transfers ownership of the contract to a new account (`newOwner`). Can only be called by the current owner."
      }
    },
    "version": 1
  },
  "userdoc": {
    "kind": "user",
    "methods": {},
    "version": 1
  }
}