{
  "contractName": "Marketplace",
  "abi": [
    {
      "inputs": [
        {
          "internalType": "string",
          "name": "name_",
          "type": "string"
        },
        {
          "internalType": "string",
          "name": "imageSrc_",
          "type": "string"
        }
      ],
      "stateMutability": "nonpayable",
      "type": "constructor"
    },
    {
      "inputs": [
        {
          "internalType": "address",
          "name": "owner",
          "type": "address"
        }
      ],
      "name": "OwnableInvalidOwner",
      "type": "error"
    },
    {
      "inputs": [
        {
          "internalType": "address",
          "name": "account",
          "type": "address"
        }
      ],
      "name": "OwnableUnauthorizedAccount",
      "type": "error"
    },
    {
      "anonymous": false,
      "inputs": [
        {
          "indexed": true,
          "internalType": "address",
          "name": "previousOwner",
          "type": "address"
        },
        {
          "indexed": true,
          "internalType": "address",
          "name": "newOwner",
          "type": "address"
        }
      ],
      "name": "OwnershipTransferred",
      "type": "event"
    },
    {
      "inputs": [],
      "name": "imageSrc",
      "outputs": [
        {
          "internalType": "string",
          "name": "",
          "type": "string"
        }
      ],
      "stateMutability": "view",
      "type": "function",
      "constant": true
    },
    {
      "inputs": [],
      "name": "isOpen",
      "outputs": [
        {
          "internalType": "bool",
          "name": "",
          "type": "bool"
        }
      ],
      "stateMutability": "view",
      "type": "function",
      "constant": true
    },
    {
      "inputs": [
        {
          "internalType": "uint256",
          "name": "",
          "type": "uint256"
        }
      ],
      "name": "items",
      "outputs": [
        {
          "internalType": "uint256",
          "name": "id",
          "type": "uint256"
        },
        {
          "internalType": "address payable",
          "name": "owner",
          "type": "address"
        },
        {
          "internalType": "address",
          "name": "soldTo",
          "type": "address"
        },
        {
          "internalType": "string",
          "name": "name",
          "type": "string"
        },
        {
          "internalType": "string",
          "name": "imageSrc",
          "type": "string"
        },
        {
          "internalType": "uint256",
          "name": "price",
          "type": "uint256"
        },
        {
          "internalType": "bool",
          "name": "sold",
          "type": "bool"
        }
      ],
      "stateMutability": "view",
      "type": "function",
      "constant": true
    },
    {
      "inputs": [],
      "name": "name",
      "outputs": [
        {
          "internalType": "string",
          "name": "",
          "type": "string"
        }
      ],
      "stateMutability": "view",
      "type": "function",
      "constant": true
    },
    {
      "inputs": [],
      "name": "owner",
      "outputs": [
        {
          "internalType": "address",
          "name": "",
          "type": "address"
        }
      ],
      "stateMutability": "view",
      "type": "function",
      "constant": true
    },
    {
      "inputs": [],
      "name": "renounceOwnership",
      "outputs": [],
      "stateMutability": "nonpayable",
      "type": "function"
    },
    {
      "inputs": [
        {
          "internalType": "address",
          "name": "newOwner",
          "type": "address"
        }
      ],
      "name": "transferOwnership",
      "outputs": [],
      "stateMutability": "nonpayable",
      "type": "function"
    },
    {
      "inputs": [
        {
          "internalType": "string",
          "name": "name_",
          "type": "string"
        },
        {
          "internalType": "string",
          "name": "imageSrc_",
          "type": "string"
        },
        {
          "internalType": "uint256",
          "name": "price_",
          "type": "uint256"
        }
      ],
      "name": "addItem",
      "outputs": [],
      "stateMutability": "nonpayable",
      "type": "function"
    },
    {
      "inputs": [
        {
          "internalType": "uint256",
          "name": "id_",
          "type": "uint256"
        }
      ],
      "name": "purchaseItem",
      "outputs": [],
      "stateMutability": "payable",
      "type": "function",
      "payable": true
    },
    {
      "inputs": [
        {
          "internalType": "uint256",
          "name": "id_",
          "type": "uint256"
        }
      ],
      "name": "removeItem",
      "outputs": [],
      "stateMutability": "nonpayable",
      "type": "function"
    },
    {
      "inputs": [
        {
          "internalType": "uint256",
          "name": "id_",
          "type": "uint256"
        },
        {
          "internalType": "string",
          "name": "name_",
          "type": "string"
        },
        {
          "internalType": "string",
          "name": "imageSrc_",
          "type": "string"
        },
        {
          "internalType": "uint256",
          "name": "price_",
          "type": "uint256"
        }
      ],
      "name": "updateItem",
      "outputs": [],
      "stateMutability": "nonpayable",
      "type": "function"
    },
    {
      "inputs": [],
      "name": "getAllItems",
      "outputs": [
        {
          "components": [
            {
              "internalType": "uint256",
              "name": "id",
              "type": "uint256"
            },
            {
              "internalType": "address payable",
              "name": "owner",
              "type": "address"
            },
            {
              "internalType": "address",
              "name": "soldTo",
              "type": "address"
            },
            {
              "internalType": "string",
              "name": "name",
              "type": "string"
            },
            {
              "internalType": "string",
              "name": "imageSrc",
              "type": "string"
            },
            {
              "internalType": "uint256",
              "name": "price",
              "type": "uint256"
            },
            {
              "internalType": "bool",
              "name": "sold",
              "type": "bool"
            }
          ],
          "internalType": "struct Marketplace.Item[]",
          "name": "",
          "type": "tuple[]"
        }
      ],
      "stateMutability": "view",
      "type": "function",
      "constant": true
    },
    {
      "inputs": [
        {
          "internalType": "uint256",
          "name": "id_",
          "type": "uint256"
        }
      ],
      "name": "getItem",
      "outputs": [
        {
          "components": [
            {
              "internalType": "uint256",
              "name": "id",
              "type": "uint256"
            },
            {
              "internalType": "address payable",
              "name": "owner",
              "type": "address"
            },
            {
              "internalType": "address",
              "name": "soldTo",
              "type": "address"
            },
            {
              "internalType": "string",
              "name": "name",
              "type": "string"
            },
            {
              "internalType": "string",
              "name": "imageSrc",
              "type": "string"
            },
            {
              "internalType": "uint256",
              "name": "price",
              "type": "uint256"
            },
            {
              "internalType": "bool",
              "name": "sold",
              "type": "bool"
            }
          ],
          "internalType": "struct Marketplace.Item",
          "name": "",
          "type": "tuple"
        }
      ],
      "stateMutability": "view",
      "type": "function",
      "constant": true
    },
    {
      "inputs": [],
      "name": "close",
      "outputs": [],
      "stateMutability": "nonpayable",
      "type": "function"
    }
  ],
  "bytecode": "0x608060405234801562000010575f80fd5b50604051620028103803806200281083398181016040528101906200003691906200035e565b620000466200011160201b60201c565b5f73ffffffffffffffffffffffffffffffffffffffff168173ffffffffffffffffffffffffffffffffffffffff1603620000b9575f6040517f1e4fbdf7000000000000000000000000000000000000000000000000000000008152600401620000b0919062000424565b60405180910390fd5b620000ca816200011860201b60201c565b508160039081620000dc919062000676565b508060049081620000ee919062000676565b50600160055f6101000a81548160ff02191690831515021790555050506200075a565b5f33905090565b5f805f9054906101000a900473ffffffffffffffffffffffffffffffffffffffff169050815f806101000a81548173ffffffffffffffffffffffffffffffffffffffff021916908373ffffffffffffffffffffffffffffffffffffffff1602179055508173ffffffffffffffffffffffffffffffffffffffff168173ffffffffffffffffffffffffffffffffffffffff167f8be0079c531659141344cd1fd0a4f28419497f9722a3daafe3b4186f6b6457e060405160405180910390a35050565b5f604051905090565b5f80fd5b5f80fd5b5f80fd5b5f80fd5b5f601f19601f8301169050919050565b7f4e487b71000000000000000000000000000000000000000000000000000000005f52604160045260245ffd5b6200023a82620001f2565b810181811067ffffffffffffffff821117156200025c576200025b62000202565b5b80604052505050565b5f62000270620001d9565b90506200027e82826200022f565b919050565b5f67ffffffffffffffff821115620002a0576200029f62000202565b5b620002ab82620001f2565b9050602081019050919050565b5f5b83811015620002d7578082015181840152602081019050620002ba565b5f8484015250505050565b5f620002f8620002f28462000283565b62000265565b905082815260208101848484011115620003175762000316620001ee565b5b62000324848285620002b8565b509392505050565b5f82601f830112620003435762000342620001ea565b5b815162000355848260208601620002e2565b91505092915050565b5f8060408385031215620003775762000376620001e2565b5b5f83015167ffffffffffffffff811115620003975762000396620001e6565b5b620003a5858286016200032c565b925050602083015167ffffffffffffffff811115620003c957620003c8620001e6565b5b620003d7858286016200032c565b9150509250929050565b5f73ffffffffffffffffffffffffffffffffffffffff82169050919050565b5f6200040c82620003e1565b9050919050565b6200041e8162000400565b82525050565b5f602082019050620004395f83018462000413565b92915050565b5f81519050919050565b7f4e487b71000000000000000000000000000000000000000000000000000000005f52602260045260245ffd5b5f60028204905060018216806200048e57607f821691505b602082108103620004a457620004a362000449565b5b50919050565b5f819050815f5260205f209050919050565b5f6020601f8301049050919050565b5f82821b905092915050565b5f60088302620005087fffffffffffffffffffffffffffffffffffffffffffffffffffffffffffffffff82620004cb565b620005148683620004cb565b95508019841693508086168417925050509392505050565b5f819050919050565b5f819050919050565b5f6200055e6200055862000552846200052c565b62000535565b6200052c565b9050919050565b5f819050919050565b62000579836200053e565b62000591620005888262000565565b848454620004d7565b825550505050565b5f90565b620005a762000599565b620005b48184846200056e565b505050565b5b81811015620005db57620005cf5f826200059d565b600181019050620005ba565b5050565b601f8211156200062a57620005f481620004aa565b620005ff84620004bc565b810160208510156200060f578190505b620006276200061e85620004bc565b830182620005b9565b50505b505050565b5f82821c905092915050565b5f6200064c5f19846008026200062f565b1980831691505092915050565b5f6200066683836200063b565b9150826002028217905092915050565b62000681826200043f565b67ffffffffffffffff8111156200069d576200069c62000202565b5b620006a9825462000476565b620006b6828285620005df565b5f60209050601f831160018114620006ec575f8415620006d7578287015190505b620006e3858262000659565b86555062000752565b601f198416620006fc86620004aa565b5f5b828110156200072557848901518255600182019150602085019450602081019050620006fe565b8683101562000745578489015162000741601f8916826200063b565b8355505b6001600288020188555050505b505050505050565b6120a880620007685f395ff3fe6080604052600436106100dc575f3560e01c8063713291711161007e578063bf46546511610058578063bf46546514610268578063bfb231d214610292578063d38ea5bf146102d4578063f2fde38b146102f0576100dc565b80637132917114610200578063715018a6146102285780638da5cb5b1461023e576100dc565b806343d726d6116100ba57806343d726d61461016e57806347535d7b146101845780634ba1d6aa146101ae57806364432eb8146101d8576100dc565b806306a6034f146100e057806306fdde03146101085780633129e77314610132575b5f80fd5b3480156100eb575f80fd5b5061010660048036038101906101019190611545565b610318565b005b348015610113575f80fd5b5061011c610405565b604051610129919061165b565b60405180910390f35b34801561013d575f80fd5b506101586004803603810190610153919061167b565b610491565b6040516101659190611816565b60405180910390f35b348015610179575f80fd5b506101826106b3565b005b34801561018f575f80fd5b5061019861071d565b6040516101a59190611845565b60405180910390f35b3480156101b9575f80fd5b506101c261072f565b6040516101cf91906119b9565b60405180910390f35b3480156101e3575f80fd5b506101fe60048036038101906101f991906119d9565b6109f1565b005b34801561020b575f80fd5b506102266004803603810190610221919061167b565b610b7e565b005b348015610233575f80fd5b5061023c610ca9565b005b348015610249575f80fd5b50610252610cbc565b60405161025f9190611a70565b60405180910390f35b348015610273575f80fd5b5061027c610ce3565b604051610289919061165b565b60405180910390f35b34801561029d575f80fd5b506102b860048036038101906102b3919061167b565b610d6f565b6040516102cb9796959493929190611aa7565b60405180910390f35b6102ee60048036038101906102e9919061167b565b610f03565b005b3480156102fb575f80fd5b5061031660048036038101906103119190611b4c565b6110da565b005b61032061115e565b835f60015f8381526020019081526020015f205f015414158015610362575060015f8281526020019081526020015f206006015f9054906101000a900460ff16155b6103a1576040517f08c379a000000000000000000000000000000000000000000000000000000000815260040161039890611bc1565b60405180910390fd5b8360015f8781526020019081526020015f2060030190816103c29190611dd9565b508260015f8781526020019081526020015f2060040190816103e49190611dd9565b508160015f8781526020019081526020015f20600501819055505050505050565b6003805461041290611c0c565b80601f016020809104026020016040519081016040528092919081815260200182805461043e90611c0c565b80156104895780601f1061046057610100808354040283529160200191610489565b820191905f5260205f20905b81548152906001019060200180831161046c57829003601f168201915b505050505081565b610499611307565b60015f8381526020019081526020015f206040518060e00160405290815f8201548152602001600182015f9054906101000a900473ffffffffffffffffffffffffffffffffffffffff1673ffffffffffffffffffffffffffffffffffffffff1673ffffffffffffffffffffffffffffffffffffffff168152602001600282015f9054906101000a900473ffffffffffffffffffffffffffffffffffffffff1673ffffffffffffffffffffffffffffffffffffffff1673ffffffffffffffffffffffffffffffffffffffff16815260200160038201805461057890611c0c565b80601f01602080910402602001604051908101604052809291908181526020018280546105a490611c0c565b80156105ef5780601f106105c6576101008083540402835291602001916105ef565b820191905f5260205f20905b8154815290600101906020018083116105d257829003601f168201915b5050505050815260200160048201805461060890611c0c565b80601f016020809104026020016040519081016040528092919081815260200182805461063490611c0c565b801561067f5780601f106106565761010080835404028352916020019161067f565b820191905f5260205f20905b81548152906001019060200180831161066257829003601f168201915b5050505050815260200160058201548152602001600682015f9054906101000a900460ff1615151515815250509050919050565b6106bb61115e565b6106c36111e5565b610702576040517f08c379a00000000000000000000000000000000000000000000000000000000081526004016106f990611f18565b60405180910390fd5b5f60055f6101000a81548160ff021916908315150217905550565b60055f9054906101000a900460ff1681565b60605f60025467ffffffffffffffff81111561074e5761074d611421565b5b60405190808252806020026020018201604052801561078757816020015b610774611307565b81526020019060019003908161076c5790505b5090505f600190505b60025481116109e95760015f8281526020019081526020015f206040518060e00160405290815f8201548152602001600182015f9054906101000a900473ffffffffffffffffffffffffffffffffffffffff1673ffffffffffffffffffffffffffffffffffffffff1673ffffffffffffffffffffffffffffffffffffffff168152602001600282015f9054906101000a900473ffffffffffffffffffffffffffffffffffffffff1673ffffffffffffffffffffffffffffffffffffffff1673ffffffffffffffffffffffffffffffffffffffff16815260200160038201805461087890611c0c565b80601f01602080910402602001604051908101604052809291908181526020018280546108a490611c0c565b80156108ef5780601f106108c6576101008083540402835291602001916108ef565b820191905f5260205f20905b8154815290600101906020018083116108d257829003601f168201915b5050505050815260200160048201805461090890611c0c565b80601f016020809104026020016040519081016040528092919081815260200182805461093490611c0c565b801561097f5780601f106109565761010080835404028352916020019161097f565b820191905f5260205f20905b81548152906001019060200180831161096257829003601f168201915b5050505050815260200160058201548152602001600682015f9054906101000a900460ff161515151581525050826001836109ba9190611f63565b815181106109cb576109ca611f96565b5b602002602001018190525080806109e190611fc3565b915050610790565b508091505090565b6109f961115e565b60025f815480929190610a0b90611fc3565b91905055506040518060e001604052806002548152602001610a2b61123f565b73ffffffffffffffffffffffffffffffffffffffff1681526020015f73ffffffffffffffffffffffffffffffffffffffff1681526020018481526020018381526020018281526020015f151581525060015f60025481526020019081526020015f205f820151815f01556020820151816001015f6101000a81548173ffffffffffffffffffffffffffffffffffffffff021916908373ffffffffffffffffffffffffffffffffffffffff1602179055506040820151816002015f6101000a81548173ffffffffffffffffffffffffffffffffffffffff021916908373ffffffffffffffffffffffffffffffffffffffff1602179055506060820151816003019081610b369190611dd9565b506080820151816004019081610b4c9190611dd9565b5060a0820151816005015560c0820151816006015f6101000a81548160ff021916908315150217905550905050505050565b610b8661115e565b805f60015f8381526020019081526020015f205f015414158015610bc8575060015f8281526020019081526020015f206006015f9054906101000a900460ff16155b610c07576040517f08c379a0000000000000000000000000000000000000000000000000000000008152600401610bfe90611bc1565b60405180910390fd5b60015f8381526020019081526020015f205f8082015f9055600182015f6101000a81549073ffffffffffffffffffffffffffffffffffffffff0219169055600282015f6101000a81549073ffffffffffffffffffffffffffffffffffffffff0219169055600382015f610c7a919061136d565b600482015f610c89919061136d565b600582015f9055600682015f6101000a81549060ff021916905550505050565b610cb161115e565b610cba5f611246565b565b5f805f9054906101000a900473ffffffffffffffffffffffffffffffffffffffff16905090565b60048054610cf090611c0c565b80601f0160208091040260200160405190810160405280929190818152602001828054610d1c90611c0c565b8015610d675780601f10610d3e57610100808354040283529160200191610d67565b820191905f5260205f20905b815481529060010190602001808311610d4a57829003601f168201915b505050505081565b6001602052805f5260405f205f91509050805f015490806001015f9054906101000a900473ffffffffffffffffffffffffffffffffffffffff1690806002015f9054906101000a900473ffffffffffffffffffffffffffffffffffffffff1690806003018054610dde90611c0c565b80601f0160208091040260200160405190810160405280929190818152602001828054610e0a90611c0c565b8015610e555780601f10610e2c57610100808354040283529160200191610e55565b820191905f5260205f20905b815481529060010190602001808311610e3857829003601f168201915b505050505090806004018054610e6a90611c0c565b80601f0160208091040260200160405190810160405280929190818152602001828054610e9690611c0c565b8015610ee15780601f10610eb857610100808354040283529160200191610ee1565b820191905f5260205f20905b815481529060010190602001808311610ec457829003601f168201915b505050505090806005015490806006015f9054906101000a900460ff16905087565b805f60015f8381526020019081526020015f205f015414158015610f45575060015f8281526020019081526020015f206006015f9054906101000a900460ff16155b610f84576040517f08c379a0000000000000000000000000000000000000000000000000000000008152600401610f7b90611bc1565b60405180910390fd5b60015f8381526020019081526020015f2060050154341015610fdb576040517f08c379a0000000000000000000000000000000000000000000000000000000008152600401610fd290612054565b60405180910390fd5b610fe361123f565b60015f8481526020019081526020015f206002015f6101000a81548173ffffffffffffffffffffffffffffffffffffffff021916908373ffffffffffffffffffffffffffffffffffffffff1602179055506001805f8481526020019081526020015f206006015f6101000a81548160ff02191690831515021790555060015f8381526020019081526020015f206001015f9054906101000a900473ffffffffffffffffffffffffffffffffffffffff1673ffffffffffffffffffffffffffffffffffffffff166108fc3490811502906040515f60405180830381858888f193505050501580156110d5573d5f803e3d5ffd5b505050565b6110e261115e565b5f73ffffffffffffffffffffffffffffffffffffffff168173ffffffffffffffffffffffffffffffffffffffff1603611152575f6040517f1e4fbdf70000000000000000000000000000000000000000000000000000000081526004016111499190611a70565b60405180910390fd5b61115b81611246565b50565b61116661123f565b73ffffffffffffffffffffffffffffffffffffffff16611184610cbc565b73ffffffffffffffffffffffffffffffffffffffff16146111e3576111a761123f565b6040517f118cdaa70000000000000000000000000000000000000000000000000000000081526004016111da9190611a70565b60405180910390fd5b565b5f80600190505b60025481116112365760015f8281526020019081526020015f206006015f9054906101000a900460ff16611223575f91505061123c565b808061122e90611fc3565b9150506111ec565b50600190505b90565b5f33905090565b5f805f9054906101000a900473ffffffffffffffffffffffffffffffffffffffff169050815f806101000a81548173ffffffffffffffffffffffffffffffffffffffff021916908373ffffffffffffffffffffffffffffffffffffffff1602179055508173ffffffffffffffffffffffffffffffffffffffff168173ffffffffffffffffffffffffffffffffffffffff167f8be0079c531659141344cd1fd0a4f28419497f9722a3daafe3b4186f6b6457e060405160405180910390a35050565b6040518060e001604052805f81526020015f73ffffffffffffffffffffffffffffffffffffffff1681526020015f73ffffffffffffffffffffffffffffffffffffffff16815260200160608152602001606081526020015f81526020015f151581525090565b50805461137990611c0c565b5f825580601f1061138a57506113a7565b601f0160209004905f5260205f20908101906113a691906113aa565b5b50565b5b808211156113c1575f815f9055506001016113ab565b5090565b5f604051905090565b5f80fd5b5f80fd5b5f819050919050565b6113e8816113d6565b81146113f2575f80fd5b50565b5f81359050611403816113df565b92915050565b5f80fd5b5f80fd5b5f601f19601f8301169050919050565b7f4e487b71000000000000000000000000000000000000000000000000000000005f52604160045260245ffd5b61145782611411565b810181811067ffffffffffffffff8211171561147657611475611421565b5b80604052505050565b5f6114886113c5565b9050611494828261144e565b919050565b5f67ffffffffffffffff8211156114b3576114b2611421565b5b6114bc82611411565b9050602081019050919050565b828183375f83830152505050565b5f6114e96114e484611499565b61147f565b9050828152602081018484840111156115055761150461140d565b5b6115108482856114c9565b509392505050565b5f82601f83011261152c5761152b611409565b5b813561153c8482602086016114d7565b91505092915050565b5f805f806080858703121561155d5761155c6113ce565b5b5f61156a878288016113f5565b945050602085013567ffffffffffffffff81111561158b5761158a6113d2565b5b61159787828801611518565b935050604085013567ffffffffffffffff8111156115b8576115b76113d2565b5b6115c487828801611518565b92505060606115d5878288016113f5565b91505092959194509250565b5f81519050919050565b5f82825260208201905092915050565b5f5b838110156116185780820151818401526020810190506115fd565b5f8484015250505050565b5f61162d826115e1565b61163781856115eb565b93506116478185602086016115fb565b61165081611411565b840191505092915050565b5f6020820190508181035f8301526116738184611623565b905092915050565b5f602082840312156116905761168f6113ce565b5b5f61169d848285016113f5565b91505092915050565b6116af816113d6565b82525050565b5f73ffffffffffffffffffffffffffffffffffffffff82169050919050565b5f6116de826116b5565b9050919050565b6116ee816116d4565b82525050565b5f6116fe826116b5565b9050919050565b61170e816116f4565b82525050565b5f82825260208201905092915050565b5f61172e826115e1565b6117388185611714565b93506117488185602086016115fb565b61175181611411565b840191505092915050565b5f8115159050919050565b6117708161175c565b82525050565b5f60e083015f83015161178b5f8601826116a6565b50602083015161179e60208601826116e5565b5060408301516117b16040860182611705565b50606083015184820360608601526117c98282611724565b915050608083015184820360808601526117e38282611724565b91505060a08301516117f860a08601826116a6565b5060c083015161180b60c0860182611767565b508091505092915050565b5f6020820190508181035f83015261182e8184611776565b905092915050565b61183f8161175c565b82525050565b5f6020820190506118585f830184611836565b92915050565b5f81519050919050565b5f82825260208201905092915050565b5f819050602082019050919050565b5f60e083015f83015161189c5f8601826116a6565b5060208301516118af60208601826116e5565b5060408301516118c26040860182611705565b50606083015184820360608601526118da8282611724565b915050608083015184820360808601526118f48282611724565b91505060a083015161190960a08601826116a6565b5060c083015161191c60c0860182611767565b508091505092915050565b5f6119328383611887565b905092915050565b5f602082019050919050565b5f6119508261185e565b61195a8185611868565b93508360208202850161196c85611878565b805f5b858110156119a757848403895281516119888582611927565b94506119938361193a565b925060208a0199505060018101905061196f565b50829750879550505050505092915050565b5f6020820190508181035f8301526119d18184611946565b905092915050565b5f805f606084860312156119f0576119ef6113ce565b5b5f84013567ffffffffffffffff811115611a0d57611a0c6113d2565b5b611a1986828701611518565b935050602084013567ffffffffffffffff811115611a3a57611a396113d2565b5b611a4686828701611518565b9250506040611a57868287016113f5565b9150509250925092565b611a6a816116f4565b82525050565b5f602082019050611a835f830184611a61565b92915050565b611a92816113d6565b82525050565b611aa1816116d4565b82525050565b5f60e082019050611aba5f83018a611a89565b611ac76020830189611a98565b611ad46040830188611a61565b8181036060830152611ae68187611623565b90508181036080830152611afa8186611623565b9050611b0960a0830185611a89565b611b1660c0830184611836565b98975050505050505050565b611b2b816116f4565b8114611b35575f80fd5b50565b5f81359050611b4681611b22565b92915050565b5f60208284031215611b6157611b606113ce565b5b5f611b6e84828501611b38565b91505092915050565b7f4974656d206e6f7420617661696c61626c652e000000000000000000000000005f82015250565b5f611bab6013836115eb565b9150611bb682611b77565b602082019050919050565b5f6020820190508181035f830152611bd881611b9f565b9050919050565b7f4e487b71000000000000000000000000000000000000000000000000000000005f52602260045260245ffd5b5f6002820490506001821680611c2357607f821691505b602082108103611c3657611c35611bdf565b5b50919050565b5f819050815f5260205f209050919050565b5f6020601f8301049050919050565b5f82821b905092915050565b5f60088302611c987fffffffffffffffffffffffffffffffffffffffffffffffffffffffffffffffff82611c5d565b611ca28683611c5d565b95508019841693508086168417925050509392505050565b5f819050919050565b5f611cdd611cd8611cd3846113d6565b611cba565b6113d6565b9050919050565b5f819050919050565b611cf683611cc3565b611d0a611d0282611ce4565b848454611c69565b825550505050565b5f90565b611d1e611d12565b611d29818484611ced565b505050565b5b81811015611d4c57611d415f82611d16565b600181019050611d2f565b5050565b601f821115611d9157611d6281611c3c565b611d6b84611c4e565b81016020851015611d7a578190505b611d8e611d8685611c4e565b830182611d2e565b50505b505050565b5f82821c905092915050565b5f611db15f1984600802611d96565b1980831691505092915050565b5f611dc98383611da2565b9150826002028217905092915050565b611de2826115e1565b67ffffffffffffffff811115611dfb57611dfa611421565b5b611e058254611c0c565b611e10828285611d50565b5f60209050601f831160018114611e41575f8415611e2f578287015190505b611e398582611dbe565b865550611ea0565b601f198416611e4f86611c3c565b5f5b82811015611e7657848901518255600182019150602085019450602081019050611e51565b86831015611e935784890151611e8f601f891682611da2565b8355505b6001600288020188555050505b505050505050565b7f4e6f7420616c6c206974656d7320696e2074686973206d61726b6574706c63655f8201527f2068617665206265656e20736f6c642e00000000000000000000000000000000602082015250565b5f611f026030836115eb565b9150611f0d82611ea8565b604082019050919050565b5f6020820190508181035f830152611f2f81611ef6565b9050919050565b7f4e487b71000000000000000000000000000000000000000000000000000000005f52601160045260245ffd5b5f611f6d826113d6565b9150611f78836113d6565b9250828203905081811115611f9057611f8f611f36565b5b92915050565b7f4e487b71000000000000000000000000000000000000000000000000000000005f52603260045260245ffd5b5f611fcd826113d6565b91507fffffffffffffffffffffffffffffffffffffffffffffffffffffffffffffffff8203611fff57611ffe611f36565b5b600182019050919050565b7f496e73756666696369656e742066756e64732e000000000000000000000000005f82015250565b5f61203e6013836115eb565b91506120498261200a565b602082019050919050565b5f6020820190508181035f83015261206b81612032565b905091905056fea2646970667358221220c87df6709eae6ea31c8085247f1227a61c113f42521fe581c2e3bc34432f859f64736f6c63430008150033",
  "immutableReferences": {},
  "source": "// SPDX-License-Identifier: UNLICENSED\npragma solidity ^0.8.20;\n\nimport \"@openzeppelin/contracts/access/Ownable.sol\";\n\n// AccessControl.sol better? https://github.com/OpenZeppelin/openzeppelin-contracts/tree/master/contracts/access \ncontract Marketplace is Ownable {\n    mapping(uint => Item) public items;\n    uint private itemCount;\n    string public name;\n    string public imageSrc;\n    bool public isOpen; //private?\n    \n    struct Item {\n        uint id; // id required?\n        address payable owner;\n        address soldTo;\n        string name;\n        string imageSrc;\n        uint price;\n        bool sold;\n        // quantity?\n        // description?\n    }\n\n    // EVENTS!!!!\n    // flexible for different types of items/games??\n    // transfer ownership of marketplace possible??\n\n    modifier itemAvailable(uint id_) {\n        require(items[id_].id != 0 && !items[id_].sold, \"Item not available.\");\n        _;\n    }\n\n    constructor(string memory name_, string memory imageSrc_) Ownable(_msgSender()) {\n        name = name_;\n        imageSrc = imageSrc_;\n        isOpen = true;\n    }\n\n    function addItem(string memory name_, string memory imageSrc_, uint price_) public onlyOwner {\n        itemCount++;\n        items[itemCount] = Item(\n            itemCount,\n            payable(_msgSender()),\n            address(0),\n            name_,\n            imageSrc_,\n            price_,\n            false\n        );\n    }\n\n    //request purchase!\n\n    function purchaseItem(uint id_) public payable itemAvailable(id_) {\n        // change owner when sold?\n        require(msg.value >= items[id_].price, \"Insufficient funds.\");\n        items[id_].soldTo = _msgSender(); // payable?\n        items[id_].sold = true;\n        items[id_].owner.transfer(msg.value);\n    }\n\n    function removeItem(uint id_) public onlyOwner itemAvailable(id_) {\n        delete items[id_];\n    }\n\n    function updateItem(uint id_, string memory name_, string memory imageSrc_,uint price_) public onlyOwner itemAvailable(id_) {\n        items[id_].name = name_;\n        items[id_].imageSrc = imageSrc_;\n        items[id_].price = price_;\n    }\n\n    function getAllItems() public view returns (Item[] memory) {\n        Item[] memory _items = new Item[](itemCount);\n        for (uint i = 1; i <= itemCount; i++) {\n            _items[i - 1] = items[i];\n        }\n        return _items;\n    }\n\n    function getItem(uint id_) public view returns (Item memory) { // string\n        return items[id_];\n    }\n\n    function close() public onlyOwner {\n        // required when MarketplaceRegistry.sol is implemented???\n        require(\n            allItemsSold(),\n            \"Not all items in this marketplce have been sold.\"\n        );\n        isOpen = false;\n    }\n\n    function allItemsSold() internal view returns (bool) {\n        for (uint i = 1; i <= itemCount; i++) {\n            if (!items[i].sold) {\n                return false;\n            }\n        }\n        return true;\n    }\n}\n",
  "sourcePath": "/workspaces/blockchain-gaming-marketplace-contract/contracts/Marketplace.sol",
  "compiler": {
    "name": "solc",
    "version": "0.8.21+commit.d9974bed.Emscripten.clang"
  },
  "schemaVersion": "3.4.16",
  "updatedAt": "2024-01-30T13:08:03.259Z",
  "networkType": "ethereum",
  "devdoc": {
    "errors": {
      "OwnableInvalidOwner(address)": [
        {
          "details": "The owner is not a valid owner account. (eg. `address(0)`)"
        }
      ],
      "OwnableUnauthorizedAccount(address)": [
        {
          "details": "The caller account is not authorized to perform an operation."
        }
      ]
    },
    "kind": "dev",
    "methods": {
      "owner()": {
        "details": "Returns the address of the current owner."
      },
      "renounceOwnership()": {
        "details": "Leaves the contract without owner. It will not be possible to call `onlyOwner` functions. Can only be called by the current owner. NOTE: Renouncing ownership will leave the contract without an owner, thereby disabling any functionality that is only available to the owner."
      },
      "transferOwnership(address)": {
        "details": "Transfers ownership of the contract to a new account (`newOwner`). Can only be called by the current owner."
      }
    },
    "version": 1
  },
  "userdoc": {
    "kind": "user",
    "methods": {},
    "version": 1
  }
}