{
  "contractName": "Marketplace",
  "abi": [
    {
      "inputs": [
        {
          "internalType": "address",
          "name": "owner_",
          "type": "address"
        },
        {
          "internalType": "string",
          "name": "name_",
          "type": "string"
        },
        {
          "internalType": "string",
          "name": "imageSrc_",
          "type": "string"
        }
      ],
      "stateMutability": "nonpayable",
      "type": "constructor"
    },
    {
      "inputs": [
        {
          "internalType": "address",
          "name": "account",
          "type": "address"
        }
      ],
      "name": "AddressInsufficientBalance",
      "type": "error"
    },
    {
      "inputs": [],
      "name": "FailedInnerCall",
      "type": "error"
    },
    {
      "inputs": [
        {
          "internalType": "address",
          "name": "owner",
          "type": "address"
        }
      ],
      "name": "OwnableInvalidOwner",
      "type": "error"
    },
    {
      "inputs": [
        {
          "internalType": "address",
          "name": "account",
          "type": "address"
        }
      ],
      "name": "OwnableUnauthorizedAccount",
      "type": "error"
    },
    {
      "anonymous": false,
      "inputs": [
        {
          "indexed": true,
          "internalType": "uint256",
          "name": "id",
          "type": "uint256"
        },
        {
          "indexed": true,
          "internalType": "address",
          "name": "seller",
          "type": "address"
        }
      ],
      "name": "ItemAdded",
      "type": "event"
    },
    {
      "anonymous": false,
      "inputs": [
        {
          "indexed": true,
          "internalType": "uint256",
          "name": "id",
          "type": "uint256"
        },
        {
          "indexed": true,
          "internalType": "address",
          "name": "seller",
          "type": "address"
        },
        {
          "indexed": true,
          "internalType": "address",
          "name": "buyer",
          "type": "address"
        },
        {
          "indexed": false,
          "internalType": "uint256",
          "name": "price",
          "type": "uint256"
        }
      ],
      "name": "ItemPurchased",
      "type": "event"
    },
    {
      "anonymous": false,
      "inputs": [
        {
          "indexed": true,
          "internalType": "uint256",
          "name": "id",
          "type": "uint256"
        }
      ],
      "name": "ItemRemoved",
      "type": "event"
    },
    {
      "anonymous": false,
      "inputs": [
        {
          "indexed": true,
          "internalType": "uint256",
          "name": "id",
          "type": "uint256"
        },
        {
          "indexed": true,
          "internalType": "address",
          "name": "seller",
          "type": "address"
        }
      ],
      "name": "ItemUpdated",
      "type": "event"
    },
    {
      "anonymous": false,
      "inputs": [
        {
          "indexed": true,
          "internalType": "address",
          "name": "owner",
          "type": "address"
        },
        {
          "indexed": true,
          "internalType": "address",
          "name": "marketplace",
          "type": "address"
        }
      ],
      "name": "MarketplaceClosed",
      "type": "event"
    },
    {
      "anonymous": false,
      "inputs": [
        {
          "indexed": true,
          "internalType": "address",
          "name": "previousOwner",
          "type": "address"
        },
        {
          "indexed": true,
          "internalType": "address",
          "name": "newOwner",
          "type": "address"
        }
      ],
      "name": "OwnershipTransferred",
      "type": "event"
    },
    {
      "inputs": [],
      "name": "imageSrc",
      "outputs": [
        {
          "internalType": "string",
          "name": "",
          "type": "string"
        }
      ],
      "stateMutability": "view",
      "type": "function"
    },
    {
      "inputs": [],
      "name": "isOpen",
      "outputs": [
        {
          "internalType": "bool",
          "name": "",
          "type": "bool"
        }
      ],
      "stateMutability": "view",
      "type": "function"
    },
    {
      "inputs": [
        {
          "internalType": "uint256",
          "name": "",
          "type": "uint256"
        }
      ],
      "name": "items",
      "outputs": [
        {
          "internalType": "uint256",
          "name": "id",
          "type": "uint256"
        },
        {
          "internalType": "address payable",
          "name": "seller",
          "type": "address"
        },
        {
          "internalType": "address",
          "name": "soldTo",
          "type": "address"
        },
        {
          "internalType": "string",
          "name": "name",
          "type": "string"
        },
        {
          "internalType": "string",
          "name": "imageSrc",
          "type": "string"
        },
        {
          "internalType": "string",
          "name": "description",
          "type": "string"
        },
        {
          "internalType": "uint256",
          "name": "price",
          "type": "uint256"
        }
      ],
      "stateMutability": "view",
      "type": "function"
    },
    {
      "inputs": [],
      "name": "name",
      "outputs": [
        {
          "internalType": "string",
          "name": "",
          "type": "string"
        }
      ],
      "stateMutability": "view",
      "type": "function"
    },
    {
      "inputs": [],
      "name": "owner",
      "outputs": [
        {
          "internalType": "address",
          "name": "",
          "type": "address"
        }
      ],
      "stateMutability": "view",
      "type": "function"
    },
    {
      "inputs": [],
      "name": "renounceOwnership",
      "outputs": [],
      "stateMutability": "nonpayable",
      "type": "function"
    },
    {
      "inputs": [
        {
          "internalType": "address",
          "name": "newOwner",
          "type": "address"
        }
      ],
      "name": "transferOwnership",
      "outputs": [],
      "stateMutability": "nonpayable",
      "type": "function"
    },
    {
      "inputs": [
        {
          "internalType": "string",
          "name": "name_",
          "type": "string"
        },
        {
          "internalType": "string",
          "name": "imageSrc_",
          "type": "string"
        },
        {
          "internalType": "string",
          "name": "description_",
          "type": "string"
        },
        {
          "internalType": "uint256",
          "name": "price_",
          "type": "uint256"
        }
      ],
      "name": "addItem",
      "outputs": [],
      "stateMutability": "nonpayable",
      "type": "function"
    },
    {
      "inputs": [
        {
          "internalType": "uint256",
          "name": "id_",
          "type": "uint256"
        }
      ],
      "name": "purchaseItem",
      "outputs": [],
      "stateMutability": "payable",
      "type": "function"
    },
    {
      "inputs": [
        {
          "internalType": "uint256",
          "name": "id_",
          "type": "uint256"
        }
      ],
      "name": "removeItem",
      "outputs": [],
      "stateMutability": "nonpayable",
      "type": "function"
    },
    {
      "inputs": [
        {
          "internalType": "uint256",
          "name": "id_",
          "type": "uint256"
        },
        {
          "internalType": "string",
          "name": "name_",
          "type": "string"
        },
        {
          "internalType": "string",
          "name": "imageSrc_",
          "type": "string"
        },
        {
          "internalType": "string",
          "name": "description_",
          "type": "string"
        },
        {
          "internalType": "uint256",
          "name": "price_",
          "type": "uint256"
        }
      ],
      "name": "updateItem",
      "outputs": [],
      "stateMutability": "nonpayable",
      "type": "function"
    },
    {
      "inputs": [],
      "name": "getAllItems",
      "outputs": [
        {
          "components": [
            {
              "internalType": "uint256",
              "name": "id",
              "type": "uint256"
            },
            {
              "internalType": "address payable",
              "name": "seller",
              "type": "address"
            },
            {
              "internalType": "address",
              "name": "soldTo",
              "type": "address"
            },
            {
              "internalType": "string",
              "name": "name",
              "type": "string"
            },
            {
              "internalType": "string",
              "name": "imageSrc",
              "type": "string"
            },
            {
              "internalType": "string",
              "name": "description",
              "type": "string"
            },
            {
              "internalType": "uint256",
              "name": "price",
              "type": "uint256"
            }
          ],
          "internalType": "struct Marketplace.Item[]",
          "name": "",
          "type": "tuple[]"
        }
      ],
      "stateMutability": "view",
      "type": "function"
    },
    {
      "inputs": [
        {
          "internalType": "uint256",
          "name": "id_",
          "type": "uint256"
        }
      ],
      "name": "getItemById",
      "outputs": [
        {
          "components": [
            {
              "internalType": "uint256",
              "name": "id",
              "type": "uint256"
            },
            {
              "internalType": "address payable",
              "name": "seller",
              "type": "address"
            },
            {
              "internalType": "address",
              "name": "soldTo",
              "type": "address"
            },
            {
              "internalType": "string",
              "name": "name",
              "type": "string"
            },
            {
              "internalType": "string",
              "name": "imageSrc",
              "type": "string"
            },
            {
              "internalType": "string",
              "name": "description",
              "type": "string"
            },
            {
              "internalType": "uint256",
              "name": "price",
              "type": "uint256"
            }
          ],
          "internalType": "struct Marketplace.Item",
          "name": "",
          "type": "tuple"
        }
      ],
      "stateMutability": "view",
      "type": "function"
    },
    {
      "inputs": [
        {
          "internalType": "string",
          "name": "name_",
          "type": "string"
        }
      ],
      "name": "getItemsByName",
      "outputs": [
        {
          "components": [
            {
              "internalType": "uint256",
              "name": "id",
              "type": "uint256"
            },
            {
              "internalType": "address payable",
              "name": "seller",
              "type": "address"
            },
            {
              "internalType": "address",
              "name": "soldTo",
              "type": "address"
            },
            {
              "internalType": "string",
              "name": "name",
              "type": "string"
            },
            {
              "internalType": "string",
              "name": "imageSrc",
              "type": "string"
            },
            {
              "internalType": "string",
              "name": "description",
              "type": "string"
            },
            {
              "internalType": "uint256",
              "name": "price",
              "type": "uint256"
            }
          ],
          "internalType": "struct Marketplace.Item[]",
          "name": "",
          "type": "tuple[]"
        }
      ],
      "stateMutability": "view",
      "type": "function"
    },
    {
      "inputs": [],
      "name": "close",
      "outputs": [],
      "stateMutability": "nonpayable",
      "type": "function"
    }
  ],
  "bytecode": "0x608060405234801562000010575f80fd5b5060405162003756380380620037568339818101604052810190620000369190620003aa565b825f73ffffffffffffffffffffffffffffffffffffffff168173ffffffffffffffffffffffffffffffffffffffff1603620000aa575f6040517f1e4fbdf7000000000000000000000000000000000000000000000000000000008152600401620000a1919062000452565b60405180910390fd5b620000bb816200010360201b60201c565b508160039081620000cd9190620006a4565b508060049081620000df9190620006a4565b50600160055f6101000a81548160ff02191690831515021790555050505062000788565b5f805f9054906101000a900473ffffffffffffffffffffffffffffffffffffffff169050815f806101000a81548173ffffffffffffffffffffffffffffffffffffffff021916908373ffffffffffffffffffffffffffffffffffffffff1602179055508173ffffffffffffffffffffffffffffffffffffffff168173ffffffffffffffffffffffffffffffffffffffff167f8be0079c531659141344cd1fd0a4f28419497f9722a3daafe3b4186f6b6457e060405160405180910390a35050565b5f604051905090565b5f80fd5b5f80fd5b5f73ffffffffffffffffffffffffffffffffffffffff82169050919050565b5f6200020082620001d5565b9050919050565b6200021281620001f4565b81146200021d575f80fd5b50565b5f81519050620002308162000207565b92915050565b5f80fd5b5f80fd5b5f601f19601f8301169050919050565b7f4e487b71000000000000000000000000000000000000000000000000000000005f52604160045260245ffd5b62000286826200023e565b810181811067ffffffffffffffff82111715620002a857620002a76200024e565b5b80604052505050565b5f620002bc620001c4565b9050620002ca82826200027b565b919050565b5f67ffffffffffffffff821115620002ec57620002eb6200024e565b5b620002f7826200023e565b9050602081019050919050565b5f5b838110156200032357808201518184015260208101905062000306565b5f8484015250505050565b5f620003446200033e84620002cf565b620002b1565b9050828152602081018484840111156200036357620003626200023a565b5b6200037084828562000304565b509392505050565b5f82601f8301126200038f576200038e62000236565b5b8151620003a18482602086016200032e565b91505092915050565b5f805f60608486031215620003c457620003c3620001cd565b5b5f620003d38682870162000220565b935050602084015167ffffffffffffffff811115620003f757620003f6620001d1565b5b620004058682870162000378565b925050604084015167ffffffffffffffff811115620004295762000428620001d1565b5b620004378682870162000378565b9150509250925092565b6200044c81620001f4565b82525050565b5f602082019050620004675f83018462000441565b92915050565b5f81519050919050565b7f4e487b71000000000000000000000000000000000000000000000000000000005f52602260045260245ffd5b5f6002820490506001821680620004bc57607f821691505b602082108103620004d257620004d162000477565b5b50919050565b5f819050815f5260205f209050919050565b5f6020601f8301049050919050565b5f82821b905092915050565b5f60088302620005367fffffffffffffffffffffffffffffffffffffffffffffffffffffffffffffffff82620004f9565b620005428683620004f9565b95508019841693508086168417925050509392505050565b5f819050919050565b5f819050919050565b5f6200058c6200058662000580846200055a565b62000563565b6200055a565b9050919050565b5f819050919050565b620005a7836200056c565b620005bf620005b68262000593565b84845462000505565b825550505050565b5f90565b620005d5620005c7565b620005e28184846200059c565b505050565b5b818110156200060957620005fd5f82620005cb565b600181019050620005e8565b5050565b601f82111562000658576200062281620004d8565b6200062d84620004ea565b810160208510156200063d578190505b620006556200064c85620004ea565b830182620005e7565b50505b505050565b5f82821c905092915050565b5f6200067a5f19846008026200065d565b1980831691505092915050565b5f62000694838362000669565b9150826002028217905092915050565b620006af826200046d565b67ffffffffffffffff811115620006cb57620006ca6200024e565b5b620006d78254620004a4565b620006e48282856200060d565b5f60209050601f8311600181146200071a575f841562000705578287015190505b62000711858262000687565b86555062000780565b601f1984166200072a86620004d8565b5f5b8281101562000753578489015182556001820191506020850194506020810190506200072c565b868310156200077357848901516200076f601f89168262000669565b8355505b6001600288020188555050505b505050505050565b612fc080620007965f395ff3fe6080604052600436106100e7575f3560e01c80638da5cb5b11610089578063bfb231d211610058578063bfb231d21461029d578063cd2f0710146102df578063d38ea5bf1461031b578063f2fde38b14610337576100e7565b80638da5cb5b146101e557806399e07caf1461020f5780639f3efdf614610237578063bf46546514610273576100e7565b80634ba1d6aa116100c55780634ba1d6aa146101555780636265db2f1461017f57806371329171146101a7578063715018a6146101cf576100e7565b806306fdde03146100eb57806343d726d61461011557806347535d7b1461012b575b5f80fd5b3480156100f6575f80fd5b506100ff61035f565b60405161010c91906121b9565b60405180910390f35b348015610120575f80fd5b506101296103eb565b005b348015610136575f80fd5b5061013f6104b6565b60405161014c91906121f3565b60405180910390f35b348015610160575f80fd5b506101696104c8565b604051610176919061242d565b60405180910390f35b34801561018a575f80fd5b506101a560048036038101906101a091906125b4565b6107fa565b005b3480156101b2575f80fd5b506101cd60048036038101906101c8919061266c565b6109ca565b005b3480156101da575f80fd5b506101e3610c17565b005b3480156101f0575f80fd5b506101f9610c2a565b60405161020691906126a6565b60405180910390f35b34801561021a575f80fd5b50610235600480360381019061023091906126bf565b610c51565b005b348015610242575f80fd5b5061025d6004803603810190610258919061278a565b610e96565b60405161026a919061242d565b60405180910390f35b34801561027e575f80fd5b5061028761128c565b60405161029491906121b9565b60405180910390f35b3480156102a8575f80fd5b506102c360048036038101906102be919061266c565b611318565b6040516102d697969594939291906127ef565b60405180910390f35b3480156102ea575f80fd5b506103056004803603810190610300919061266c565b611526565b6040516103129190612918565b60405180910390f35b6103356004803603810190610330919061266c565b6117be565b005b348015610342575f80fd5b5061035d60048036038101906103589190612962565b611aa2565b005b6003805461036c906129ba565b80601f0160208091040260200160405190810160405280929190818152602001828054610398906129ba565b80156103e35780601f106103ba576101008083540402835291602001916103e3565b820191905f5260205f20905b8154815290600101906020018083116103c657829003601f168201915b505050505081565b6103f3611b26565b6103fb611bad565b61043a576040517f08c379a000000000000000000000000000000000000000000000000000000000815260040161043190612a5a565b60405180910390fd5b5f60055f6101000a81548160ff0219169083151502179055503073ffffffffffffffffffffffffffffffffffffffff16610472611c42565b73ffffffffffffffffffffffffffffffffffffffff167f83d0180088be204f97ef95ce34f9ba21504932c1ebd4f2ff64bd0df8cf70f32860405160405180910390a3565b60055f9054906101000a900460ff1681565b60605f60025467ffffffffffffffff8111156104e7576104e6612466565b5b60405190808252806020026020018201604052801561052057816020015b61050d612072565b8152602001906001900390816105055790505b5090505f600190505b60025481116107f25760015f8281526020019081526020015f206040518060e00160405290815f8201548152602001600182015f9054906101000a900473ffffffffffffffffffffffffffffffffffffffff1673ffffffffffffffffffffffffffffffffffffffff1673ffffffffffffffffffffffffffffffffffffffff168152602001600282015f9054906101000a900473ffffffffffffffffffffffffffffffffffffffff1673ffffffffffffffffffffffffffffffffffffffff1673ffffffffffffffffffffffffffffffffffffffff168152602001600382018054610611906129ba565b80601f016020809104026020016040519081016040528092919081815260200182805461063d906129ba565b80156106885780601f1061065f57610100808354040283529160200191610688565b820191905f5260205f20905b81548152906001019060200180831161066b57829003601f168201915b505050505081526020016004820180546106a1906129ba565b80601f01602080910402602001604051908101604052809291908181526020018280546106cd906129ba565b80156107185780601f106106ef57610100808354040283529160200191610718565b820191905f5260205f20905b8154815290600101906020018083116106fb57829003601f168201915b50505050508152602001600582018054610731906129ba565b80601f016020809104026020016040519081016040528092919081815260200182805461075d906129ba565b80156107a85780601f1061077f576101008083540402835291602001916107a8565b820191905f5260205f20905b81548152906001019060200180831161078b57829003601f168201915b50505050508152602001600682015481525050826001836107c99190612aa5565b815181106107da576107d9612ad8565b5b60200260200101819052508080600101915050610529565b508091505090565b610802611b26565b60025f81548092919061081490612b05565b91905055506040518060e001604052806002548152602001610834611c42565b73ffffffffffffffffffffffffffffffffffffffff1681526020015f73ffffffffffffffffffffffffffffffffffffffff1681526020018581526020018481526020018381526020018281525060015f60025481526020019081526020015f205f820151815f01556020820151816001015f6101000a81548173ffffffffffffffffffffffffffffffffffffffff021916908373ffffffffffffffffffffffffffffffffffffffff1602179055506040820151816002015f6101000a81548173ffffffffffffffffffffffffffffffffffffffff021916908373ffffffffffffffffffffffffffffffffffffffff160217905550606082015181600301908161093d9190612ce9565b5060808201518160040190816109539190612ce9565b5060a08201518160050190816109699190612ce9565b5060c0820151816006015590505061097f611c42565b73ffffffffffffffffffffffffffffffffffffffff166002547f6375005112faeb3c31f129d3aa24c423df50ca6f7c78b0490c6f4b691feac38a60405160405180910390a350505050565b60055f9054906101000a900460ff16610a18576040517f08c379a0000000000000000000000000000000000000000000000000000000008152600401610a0f90612e02565b60405180910390fd5b610a20611b26565b805f60015f8381526020019081526020015f205f015414158015610aa357505f73ffffffffffffffffffffffffffffffffffffffff1660015f8381526020019081526020015f206001015f9054906101000a900473ffffffffffffffffffffffffffffffffffffffff1673ffffffffffffffffffffffffffffffffffffffff1614155b8015610b0d57505f73ffffffffffffffffffffffffffffffffffffffff1660015f8381526020019081526020015f206002015f9054906101000a900473ffffffffffffffffffffffffffffffffffffffff1673ffffffffffffffffffffffffffffffffffffffff16145b610b4c576040517f08c379a0000000000000000000000000000000000000000000000000000000008152600401610b4390612e6a565b60405180910390fd5b60015f8381526020019081526020015f205f8082015f9055600182015f6101000a81549073ffffffffffffffffffffffffffffffffffffffff0219169055600282015f6101000a81549073ffffffffffffffffffffffffffffffffffffffff0219169055600382015f610bbf91906120d7565b600482015f610bce91906120d7565b600582015f610bdd91906120d7565b600682015f90555050817fa54eda4149a0fb9258911733973ecf1f6762357ed371fc6d1e63123bbce23bed60405160405180910390a25050565b610c1f611b26565b610c285f611c49565b565b5f805f9054906101000a900473ffffffffffffffffffffffffffffffffffffffff16905090565b60055f9054906101000a900460ff16610c9f576040517f08c379a0000000000000000000000000000000000000000000000000000000008152600401610c9690612e02565b60405180910390fd5b610ca7611b26565b845f60015f8381526020019081526020015f205f015414158015610d2a57505f73ffffffffffffffffffffffffffffffffffffffff1660015f8381526020019081526020015f206001015f9054906101000a900473ffffffffffffffffffffffffffffffffffffffff1673ffffffffffffffffffffffffffffffffffffffff1614155b8015610d9457505f73ffffffffffffffffffffffffffffffffffffffff1660015f8381526020019081526020015f206002015f9054906101000a900473ffffffffffffffffffffffffffffffffffffffff1673ffffffffffffffffffffffffffffffffffffffff16145b610dd3576040517f08c379a0000000000000000000000000000000000000000000000000000000008152600401610dca90612e6a565b60405180910390fd5b5f60015f8881526020019081526020015f20905085816003019081610df89190612ce9565b5084816004019081610e0a9190612ce9565b5083816005019081610e1c9190612ce9565b50828160060181905550806001015f9054906101000a900473ffffffffffffffffffffffffffffffffffffffff1673ffffffffffffffffffffffffffffffffffffffff16877f38f487ae24444315197e622aa97fa1b715d2061149fedf9e29b0d2f80f773a1d60405160405180910390a350505050505050565b60605f610ea283611d0a565b90505f60025467ffffffffffffffff811115610ec157610ec0612466565b5b604051908082528060200260200182016040528015610efa57816020015b610ee7612072565b815260200190600190039081610edf5790505b5090505f80600190505b6002548111611280575f610fb160015f8481526020019081526020015f206003018054610f30906129ba565b80601f0160208091040260200160405190810160405280929190818152602001828054610f5c906129ba565b8015610fa75780601f10610f7e57610100808354040283529160200191610fa7565b820191905f5260205f20905b815481529060010190602001808311610f8a57829003601f168201915b5050505050611d0a565b9050610fbd8186611eb7565b156112725760015f8381526020019081526020015f206040518060e00160405290815f8201548152602001600182015f9054906101000a900473ffffffffffffffffffffffffffffffffffffffff1673ffffffffffffffffffffffffffffffffffffffff1673ffffffffffffffffffffffffffffffffffffffff168152602001600282015f9054906101000a900473ffffffffffffffffffffffffffffffffffffffff1673ffffffffffffffffffffffffffffffffffffffff1673ffffffffffffffffffffffffffffffffffffffff1681526020016003820180546110a1906129ba565b80601f01602080910402602001604051908101604052809291908181526020018280546110cd906129ba565b80156111185780601f106110ef57610100808354040283529160200191611118565b820191905f5260205f20905b8154815290600101906020018083116110fb57829003601f168201915b50505050508152602001600482018054611131906129ba565b80601f016020809104026020016040519081016040528092919081815260200182805461115d906129ba565b80156111a85780601f1061117f576101008083540402835291602001916111a8565b820191905f5260205f20905b81548152906001019060200180831161118b57829003601f168201915b505050505081526020016005820180546111c1906129ba565b80601f01602080910402602001604051908101604052809291908181526020018280546111ed906129ba565b80156112385780601f1061120f57610100808354040283529160200191611238565b820191905f5260205f20905b81548152906001019060200180831161121b57829003601f168201915b5050505050815260200160068201548152505084848151811061125e5761125d612ad8565b5b602002602001018190525082806001019350505b818060010192505050610f04565b50819350505050919050565b60048054611299906129ba565b80601f01602080910402602001604051908101604052809291908181526020018280546112c5906129ba565b80156113105780601f106112e757610100808354040283529160200191611310565b820191905f5260205f20905b8154815290600101906020018083116112f357829003601f168201915b505050505081565b6001602052805f5260405f205f91509050805f015490806001015f9054906101000a900473ffffffffffffffffffffffffffffffffffffffff1690806002015f9054906101000a900473ffffffffffffffffffffffffffffffffffffffff1690806003018054611387906129ba565b80601f01602080910402602001604051908101604052809291908181526020018280546113b3906129ba565b80156113fe5780601f106113d5576101008083540402835291602001916113fe565b820191905f5260205f20905b8154815290600101906020018083116113e157829003601f168201915b505050505090806004018054611413906129ba565b80601f016020809104026020016040519081016040528092919081815260200182805461143f906129ba565b801561148a5780601f106114615761010080835404028352916020019161148a565b820191905f5260205f20905b81548152906001019060200180831161146d57829003601f168201915b50505050509080600501805461149f906129ba565b80601f01602080910402602001604051908101604052809291908181526020018280546114cb906129ba565b80156115165780601f106114ed57610100808354040283529160200191611516565b820191905f5260205f20905b8154815290600101906020018083116114f957829003601f168201915b5050505050908060060154905087565b61152e612072565b60015f8381526020019081526020015f206040518060e00160405290815f8201548152602001600182015f9054906101000a900473ffffffffffffffffffffffffffffffffffffffff1673ffffffffffffffffffffffffffffffffffffffff1673ffffffffffffffffffffffffffffffffffffffff168152602001600282015f9054906101000a900473ffffffffffffffffffffffffffffffffffffffff1673ffffffffffffffffffffffffffffffffffffffff1673ffffffffffffffffffffffffffffffffffffffff16815260200160038201805461160d906129ba565b80601f0160208091040260200160405190810160405280929190818152602001828054611639906129ba565b80156116845780601f1061165b57610100808354040283529160200191611684565b820191905f5260205f20905b81548152906001019060200180831161166757829003601f168201915b5050505050815260200160048201805461169d906129ba565b80601f01602080910402602001604051908101604052809291908181526020018280546116c9906129ba565b80156117145780601f106116eb57610100808354040283529160200191611714565b820191905f5260205f20905b8154815290600101906020018083116116f757829003601f168201915b5050505050815260200160058201805461172d906129ba565b80601f0160208091040260200160405190810160405280929190818152602001828054611759906129ba565b80156117a45780601f1061177b576101008083540402835291602001916117a4565b820191905f5260205f20905b81548152906001019060200180831161178757829003601f168201915b505050505081526020016006820154815250509050919050565b60055f9054906101000a900460ff1661180c576040517f08c379a000000000000000000000000000000000000000000000000000000000815260040161180390612e02565b60405180910390fd5b805f60015f8381526020019081526020015f205f01541415801561188f57505f73ffffffffffffffffffffffffffffffffffffffff1660015f8381526020019081526020015f206001015f9054906101000a900473ffffffffffffffffffffffffffffffffffffffff1673ffffffffffffffffffffffffffffffffffffffff1614155b80156118f957505f73ffffffffffffffffffffffffffffffffffffffff1660015f8381526020019081526020015f206002015f9054906101000a900473ffffffffffffffffffffffffffffffffffffffff1673ffffffffffffffffffffffffffffffffffffffff16145b611938576040517f08c379a000000000000000000000000000000000000000000000000000000000815260040161192f90612e6a565b60405180910390fd5b5f60015f8481526020019081526020015f2090508060060154341015611993576040517f08c379a000000000000000000000000000000000000000000000000000000000815260040161198a90612ed2565b60405180910390fd5b6119c0816001015f9054906101000a900473ffffffffffffffffffffffffffffffffffffffff1634611f89565b6119c8611c42565b816002015f6101000a81548173ffffffffffffffffffffffffffffffffffffffff021916908373ffffffffffffffffffffffffffffffffffffffff160217905550611a11611c42565b73ffffffffffffffffffffffffffffffffffffffff16816001015f9054906101000a900473ffffffffffffffffffffffffffffffffffffffff1673ffffffffffffffffffffffffffffffffffffffff16847f3e2a5a5ee3a24b1b9d330b0bc0946a7d0eb9c99f453f93a45348a9a8e29a94fb8460060154604051611a959190612ef0565b60405180910390a4505050565b611aaa611b26565b5f73ffffffffffffffffffffffffffffffffffffffff168173ffffffffffffffffffffffffffffffffffffffff1603611b1a575f6040517f1e4fbdf7000000000000000000000000000000000000000000000000000000008152600401611b1191906126a6565b60405180910390fd5b611b2381611c49565b50565b611b2e611c42565b73ffffffffffffffffffffffffffffffffffffffff16611b4c610c2a565b73ffffffffffffffffffffffffffffffffffffffff1614611bab57611b6f611c42565b6040517f118cdaa7000000000000000000000000000000000000000000000000000000008152600401611ba291906126a6565b60405180910390fd5b565b5f80600190505b6002548111611c39575f73ffffffffffffffffffffffffffffffffffffffff1660015f8381526020019081526020015f206002015f9054906101000a900473ffffffffffffffffffffffffffffffffffffffff1673ffffffffffffffffffffffffffffffffffffffff1603611c2c575f915050611c3f565b8080600101915050611bb4565b50600190505b90565b5f33905090565b5f805f9054906101000a900473ffffffffffffffffffffffffffffffffffffffff169050815f806101000a81548173ffffffffffffffffffffffffffffffffffffffff021916908373ffffffffffffffffffffffffffffffffffffffff1602179055508173ffffffffffffffffffffffffffffffffffffffff168173ffffffffffffffffffffffffffffffffffffffff167f8be0079c531659141344cd1fd0a4f28419497f9722a3daafe3b4186f6b6457e060405160405180910390a35050565b60605f8290505f815167ffffffffffffffff811115611d2c57611d2b612466565b5b6040519080825280601f01601f191660200182016040528015611d5e5781602001600182028036833780820191505090505b5090505f5b8251811015611eac576041838281518110611d8157611d80612ad8565b5b602001015160f81c60f81b60f81c60ff1610158015611dc45750605a838281518110611db057611daf612ad8565b5b602001015160f81c60f81b60f81c60ff1611155b15611e3f576020838281518110611dde57611ddd612ad8565b5b602001015160f81c60f81b60f81c611df69190612f15565b60f81b828281518110611e0c57611e0b612ad8565b5b60200101907effffffffffffffffffffffffffffffffffffffffffffffffffffffffffffff191690815f1a905350611e9f565b828181518110611e5257611e51612ad8565b5b602001015160f81c60f81b828281518110611e7057611e6f612ad8565b5b60200101907effffffffffffffffffffffffffffffffffffffffffffffffffffffffffffff191690815f1a9053505b8080600101915050611d63565b508092505050919050565b5f808390505f8390508051825114611ed3575f92505050611f83565b5f5b8251811015611f7b57818181518110611ef157611ef0612ad8565b5b602001015160f81c60f81b7effffffffffffffffffffffffffffffffffffffffffffffffffffffffffffff1916838281518110611f3157611f30612ad8565b5b602001015160f81c60f81b7effffffffffffffffffffffffffffffffffffffffffffffffffffffffffffff191614611f6e575f9350505050611f83565b8080600101915050611ed5565b506001925050505b92915050565b80471015611fce57306040517fcd786059000000000000000000000000000000000000000000000000000000008152600401611fc591906126a6565b60405180910390fd5b5f8273ffffffffffffffffffffffffffffffffffffffff1682604051611ff390612f76565b5f6040518083038185875af1925050503d805f811461202d576040519150601f19603f3d011682016040523d82523d5f602084013e612032565b606091505b505090508061206d576040517f1425ea4200000000000000000000000000000000000000000000000000000000815260040160405180910390fd5b505050565b6040518060e001604052805f81526020015f73ffffffffffffffffffffffffffffffffffffffff1681526020015f73ffffffffffffffffffffffffffffffffffffffff1681526020016060815260200160608152602001606081526020015f81525090565b5080546120e3906129ba565b5f825580601f106120f45750612111565b601f0160209004905f5260205f20908101906121109190612114565b5b50565b5b8082111561212b575f815f905550600101612115565b5090565b5f81519050919050565b5f82825260208201905092915050565b5f5b8381101561216657808201518184015260208101905061214b565b5f8484015250505050565b5f601f19601f8301169050919050565b5f61218b8261212f565b6121958185612139565b93506121a5818560208601612149565b6121ae81612171565b840191505092915050565b5f6020820190508181035f8301526121d18184612181565b905092915050565b5f8115159050919050565b6121ed816121d9565b82525050565b5f6020820190506122065f8301846121e4565b92915050565b5f81519050919050565b5f82825260208201905092915050565b5f819050602082019050919050565b5f819050919050565b61224781612235565b82525050565b5f73ffffffffffffffffffffffffffffffffffffffff82169050919050565b5f6122768261224d565b9050919050565b6122868161226c565b82525050565b5f6122968261224d565b9050919050565b6122a68161228c565b82525050565b5f82825260208201905092915050565b5f6122c68261212f565b6122d081856122ac565b93506122e0818560208601612149565b6122e981612171565b840191505092915050565b5f60e083015f8301516123095f86018261223e565b50602083015161231c602086018261227d565b50604083015161232f604086018261229d565b506060830151848203606086015261234782826122bc565b9150506080830151848203608086015261236182826122bc565b91505060a083015184820360a086015261237b82826122bc565b91505060c083015161239060c086018261223e565b508091505092915050565b5f6123a683836122f4565b905092915050565b5f602082019050919050565b5f6123c48261220c565b6123ce8185612216565b9350836020820285016123e085612226565b805f5b8581101561241b57848403895281516123fc858261239b565b9450612407836123ae565b925060208a019950506001810190506123e3565b50829750879550505050505092915050565b5f6020820190508181035f83015261244581846123ba565b905092915050565b5f604051905090565b5f80fd5b5f80fd5b5f80fd5b5f80fd5b7f4e487b71000000000000000000000000000000000000000000000000000000005f52604160045260245ffd5b61249c82612171565b810181811067ffffffffffffffff821117156124bb576124ba612466565b5b80604052505050565b5f6124cd61244d565b90506124d98282612493565b919050565b5f67ffffffffffffffff8211156124f8576124f7612466565b5b61250182612171565b9050602081019050919050565b828183375f83830152505050565b5f61252e612529846124de565b6124c4565b90508281526020810184848401111561254a57612549612462565b5b61255584828561250e565b509392505050565b5f82601f8301126125715761257061245e565b5b813561258184826020860161251c565b91505092915050565b61259381612235565b811461259d575f80fd5b50565b5f813590506125ae8161258a565b92915050565b5f805f80608085870312156125cc576125cb612456565b5b5f85013567ffffffffffffffff8111156125e9576125e861245a565b5b6125f58782880161255d565b945050602085013567ffffffffffffffff8111156126165761261561245a565b5b6126228782880161255d565b935050604085013567ffffffffffffffff8111156126435761264261245a565b5b61264f8782880161255d565b9250506060612660878288016125a0565b91505092959194509250565b5f6020828403121561268157612680612456565b5b5f61268e848285016125a0565b91505092915050565b6126a08161228c565b82525050565b5f6020820190506126b95f830184612697565b92915050565b5f805f805f60a086880312156126d8576126d7612456565b5b5f6126e5888289016125a0565b955050602086013567ffffffffffffffff8111156127065761270561245a565b5b6127128882890161255d565b945050604086013567ffffffffffffffff8111156127335761273261245a565b5b61273f8882890161255d565b935050606086013567ffffffffffffffff8111156127605761275f61245a565b5b61276c8882890161255d565b925050608061277d888289016125a0565b9150509295509295909350565b5f6020828403121561279f5761279e612456565b5b5f82013567ffffffffffffffff8111156127bc576127bb61245a565b5b6127c88482850161255d565b91505092915050565b6127da81612235565b82525050565b6127e98161226c565b82525050565b5f60e0820190506128025f83018a6127d1565b61280f60208301896127e0565b61281c6040830188612697565b818103606083015261282e8187612181565b905081810360808301526128428186612181565b905081810360a08301526128568185612181565b905061286560c08301846127d1565b98975050505050505050565b5f60e083015f8301516128865f86018261223e565b506020830151612899602086018261227d565b5060408301516128ac604086018261229d565b50606083015184820360608601526128c482826122bc565b915050608083015184820360808601526128de82826122bc565b91505060a083015184820360a08601526128f882826122bc565b91505060c083015161290d60c086018261223e565b508091505092915050565b5f6020820190508181035f8301526129308184612871565b905092915050565b6129418161228c565b811461294b575f80fd5b50565b5f8135905061295c81612938565b92915050565b5f6020828403121561297757612976612456565b5b5f6129848482850161294e565b91505092915050565b7f4e487b71000000000000000000000000000000000000000000000000000000005f52602260045260245ffd5b5f60028204905060018216806129d157607f821691505b6020821081036129e4576129e361298d565b5b50919050565b7f4e6f7420616c6c206974656d7320696e2074686973206d61726b6574706c61635f8201527f652068617665206265656e20736f6c642e000000000000000000000000000000602082015250565b5f612a44603183612139565b9150612a4f826129ea565b604082019050919050565b5f6020820190508181035f830152612a7181612a38565b9050919050565b7f4e487b71000000000000000000000000000000000000000000000000000000005f52601160045260245ffd5b5f612aaf82612235565b9150612aba83612235565b9250828203905081811115612ad257612ad1612a78565b5b92915050565b7f4e487b71000000000000000000000000000000000000000000000000000000005f52603260045260245ffd5b5f612b0f82612235565b91507fffffffffffffffffffffffffffffffffffffffffffffffffffffffffffffffff8203612b4157612b40612a78565b5b600182019050919050565b5f819050815f5260205f209050919050565b5f6020601f8301049050919050565b5f82821b905092915050565b5f60088302612ba87fffffffffffffffffffffffffffffffffffffffffffffffffffffffffffffffff82612b6d565b612bb28683612b6d565b95508019841693508086168417925050509392505050565b5f819050919050565b5f612bed612be8612be384612235565b612bca565b612235565b9050919050565b5f819050919050565b612c0683612bd3565b612c1a612c1282612bf4565b848454612b79565b825550505050565b5f90565b612c2e612c22565b612c39818484612bfd565b505050565b5b81811015612c5c57612c515f82612c26565b600181019050612c3f565b5050565b601f821115612ca157612c7281612b4c565b612c7b84612b5e565b81016020851015612c8a578190505b612c9e612c9685612b5e565b830182612c3e565b50505b505050565b5f82821c905092915050565b5f612cc15f1984600802612ca6565b1980831691505092915050565b5f612cd98383612cb2565b9150826002028217905092915050565b612cf28261212f565b67ffffffffffffffff811115612d0b57612d0a612466565b5b612d1582546129ba565b612d20828285612c60565b5f60209050601f831160018114612d51575f8415612d3f578287015190505b612d498582612cce565b865550612db0565b601f198416612d5f86612b4c565b5f5b82811015612d8657848901518255600182019150602085019450602081019050612d61565b86831015612da35784890151612d9f601f891682612cb2565b8355505b6001600288020188555050505b505050505050565b7f4d61726b6574706c61636520697320636c6f7365642e000000000000000000005f82015250565b5f612dec601683612139565b9150612df782612db8565b602082019050919050565b5f6020820190508181035f830152612e1981612de0565b9050919050565b7f4974656d206e6f7420617661696c61626c652e000000000000000000000000005f82015250565b5f612e54601383612139565b9150612e5f82612e20565b602082019050919050565b5f6020820190508181035f830152612e8181612e48565b9050919050565b7f4e6f7420656e6f7567682045746865722070726f76696465642e0000000000005f82015250565b5f612ebc601a83612139565b9150612ec782612e88565b602082019050919050565b5f6020820190508181035f830152612ee981612eb0565b9050919050565b5f602082019050612f035f8301846127d1565b92915050565b5f60ff82169050919050565b5f612f1f82612f09565b9150612f2a83612f09565b9250828201905060ff811115612f4357612f42612a78565b5b92915050565b5f81905092915050565b50565b5f612f615f83612f49565b9150612f6c82612f53565b5f82019050919050565b5f612f8082612f56565b915081905091905056fea26469706673582212205b3d05c1f36a21f906358b82e9973c6f819849b05ed5cbd63e7f34c3699615cc64736f6c63430008150033",
  "immutableReferences": {},
  "source": "// SPDX-License-Identifier: MIT\npragma solidity ^0.8.20;\n\nimport \"@openzeppelin/contracts/access/Ownable.sol\";\nimport \"@openzeppelin/contracts/utils/Address.sol\";\nimport \"../libraries/StringUtils.sol\";\n\n// TODO: add PaymentSplitter for marketplace owner\ncontract Marketplace is Ownable {\n    mapping(uint => Item) public items;\n    uint private itemCount;\n    string public name;\n    string public imageSrc;\n    bool public isOpen;\n\n    struct Item {\n        uint id;\n        address payable seller;\n        address soldTo;\n        string name;\n        string imageSrc;\n        string description;\n        uint price;\n    }\n\n    modifier itemAvailable(uint id_) {\n        require(\n            items[id_].id != 0 &&\n                items[id_].seller != address(0) &&\n                items[id_].soldTo == address(0),\n            \"Item not available.\"\n        );\n        _;\n    }\n\n    modifier marketplaceOpen() {\n        require(isOpen, \"Marketplace is closed.\");\n        _;\n    }\n\n    event ItemAdded(uint indexed id, address indexed seller);\n\n    event ItemUpdated(uint indexed id, address indexed seller);\n\n    event ItemPurchased(\n        uint indexed id,\n        address indexed seller,\n        address indexed buyer,\n        uint price\n    );\n\n    event ItemRemoved(uint indexed id);\n\n    event MarketplaceClosed(address indexed owner, address indexed marketplace);\n\n    constructor(\n        address owner_,\n        string memory name_,\n        string memory imageSrc_\n    ) Ownable(owner_) {\n        name = name_;\n        imageSrc = imageSrc_;\n        isOpen = true;\n    }\n\n    function addItem(\n        string memory name_,\n        string memory imageSrc_,\n        string memory description_,\n        uint price_\n    ) public onlyOwner {\n        itemCount++;\n        items[itemCount] = Item(\n            itemCount,\n            payable(_msgSender()),\n            address(0),\n            name_,\n            imageSrc_,\n            description_,\n            price_\n        );\n        emit ItemAdded(itemCount, _msgSender());\n    }\n\n    // TODO: request purchase!\n    // TODO: price calculation\n    function purchaseItem(\n        uint id_\n    ) public payable marketplaceOpen itemAvailable(id_) {\n        Item storage item = items[id_];\n        require(msg.value >= item.price, \"Not enough Ether provided.\");\n        Address.sendValue(item.seller, msg.value);\n        item.soldTo = _msgSender();\n        emit ItemPurchased(id_, item.seller, _msgSender(), item.price);\n    }\n\n    function removeItem(\n        uint id_\n    ) public marketplaceOpen onlyOwner itemAvailable(id_) {\n        delete items[id_];\n        emit ItemRemoved(id_);\n    }\n\n    function updateItem(\n        uint id_,\n        string memory name_,\n        string memory imageSrc_,\n        string memory description_,\n        uint price_\n    ) public marketplaceOpen onlyOwner itemAvailable(id_) {\n        Item storage item = items[id_];\n        item.name = name_;\n        item.imageSrc = imageSrc_;\n        item.description = description_;\n        item.price = price_;\n        emit ItemUpdated(id_, address(item.seller));\n    }\n\n    function getAllItems() public view returns (Item[] memory) {\n        Item[] memory _items = new Item[](itemCount);\n        for (uint i = 1; i <= itemCount; ) {\n            _items[i - 1] = items[i];\n            unchecked {\n                i++;\n            }\n        }\n        return _items;\n    }\n\n    function getItemById(uint id_) public view returns (Item memory) {\n        return items[id_];\n    }\n\n    function getItemsByName(\n        string memory name_\n    ) public view returns (Item[] memory) {\n        string memory lowerName = StringUtils.toLowerCase(name_);\n        Item[] memory matchingItems = new Item[](itemCount);\n        uint matchingItemCount = 0;\n\n        for (uint i = 1; i <= itemCount; ) {\n            string memory lowerItemName = StringUtils.toLowerCase(items[i].name);\n            if (StringUtils.isEqual(lowerItemName, lowerName)) {\n                matchingItems[matchingItemCount] = items[i];\n                unchecked {\n                    matchingItemCount++;\n                }\n            }\n            unchecked {\n                i++;\n            }\n        }\n        return matchingItems;\n    }\n\n    function close() public onlyOwner {\n        require(\n            allItemsSold(),\n            \"Not all items in this marketplace have been sold.\"\n        );\n        isOpen = false;\n        emit MarketplaceClosed(_msgSender(), address(this));\n    }\n\n    function allItemsSold() internal view returns (bool) {\n        for (uint i = 1; i <= itemCount; ) {\n            if (items[i].soldTo == address(0)) {\n                return false;\n            }\n            unchecked {\n                i++;\n            }\n        }\n        return true;\n    }\n}\n",
  "sourcePath": "/workspaces/blockchain-gaming-marketplace-contract/contracts/Marketplace.sol",
  "compiler": {
    "name": "solc",
    "version": "0.8.21+commit.d9974bed.Emscripten.clang"
  },
  "schemaVersion": "3.4.16",
  "updatedAt": "2024-02-03T10:32:36.633Z",
  "devdoc": {
    "errors": {
      "AddressInsufficientBalance(address)": [
        {
          "details": "The ETH balance of the account is not enough to perform the operation."
        }
      ],
      "FailedInnerCall()": [
        {
          "details": "A call to an address target failed. The target may have reverted."
        }
      ],
      "OwnableInvalidOwner(address)": [
        {
          "details": "The owner is not a valid owner account. (eg. `address(0)`)"
        }
      ],
      "OwnableUnauthorizedAccount(address)": [
        {
          "details": "The caller account is not authorized to perform an operation."
        }
      ]
    },
    "kind": "dev",
    "methods": {
      "owner()": {
        "details": "Returns the address of the current owner."
      },
      "renounceOwnership()": {
        "details": "Leaves the contract without owner. It will not be possible to call `onlyOwner` functions. Can only be called by the current owner. NOTE: Renouncing ownership will leave the contract without an owner, thereby disabling any functionality that is only available to the owner."
      },
      "transferOwnership(address)": {
        "details": "Transfers ownership of the contract to a new account (`newOwner`). Can only be called by the current owner."
      }
    },
    "version": 1
  },
  "userdoc": {
    "kind": "user",
    "methods": {},
    "version": 1
  }
}