{
  "contractName": "Marketplace",
  "abi": [
    {
      "inputs": [
        {
          "internalType": "address",
          "name": "owner_",
          "type": "address"
        },
        {
          "internalType": "string",
          "name": "name_",
          "type": "string"
        },
        {
          "internalType": "string",
          "name": "imageSrc_",
          "type": "string"
        },
        {
          "internalType": "address[]",
          "name": "authorisedAddresses_",
          "type": "address[]"
        }
      ],
      "stateMutability": "nonpayable",
      "type": "constructor"
    },
    {
      "inputs": [],
      "name": "AccessControlBadConfirmation",
      "type": "error"
    },
    {
      "inputs": [
        {
          "internalType": "address",
          "name": "account",
          "type": "address"
        },
        {
          "internalType": "bytes32",
          "name": "neededRole",
          "type": "bytes32"
        }
      ],
      "name": "AccessControlUnauthorizedAccount",
      "type": "error"
    },
    {
      "inputs": [
        {
          "internalType": "address",
          "name": "account",
          "type": "address"
        }
      ],
      "name": "AddressInsufficientBalance",
      "type": "error"
    },
    {
      "inputs": [],
      "name": "FailedInnerCall",
      "type": "error"
    },
    {
      "anonymous": false,
      "inputs": [
        {
          "indexed": true,
          "internalType": "uint256",
          "name": "id",
          "type": "uint256"
        },
        {
          "indexed": true,
          "internalType": "address",
          "name": "seller",
          "type": "address"
        }
      ],
      "name": "ItemAdded",
      "type": "event"
    },
    {
      "anonymous": false,
      "inputs": [
        {
          "indexed": true,
          "internalType": "uint256",
          "name": "id",
          "type": "uint256"
        },
        {
          "indexed": true,
          "internalType": "address",
          "name": "seller",
          "type": "address"
        },
        {
          "indexed": true,
          "internalType": "address",
          "name": "buyer",
          "type": "address"
        },
        {
          "indexed": false,
          "internalType": "uint256",
          "name": "price",
          "type": "uint256"
        }
      ],
      "name": "ItemPurchased",
      "type": "event"
    },
    {
      "anonymous": false,
      "inputs": [
        {
          "indexed": true,
          "internalType": "uint256",
          "name": "id",
          "type": "uint256"
        }
      ],
      "name": "ItemRemoved",
      "type": "event"
    },
    {
      "anonymous": false,
      "inputs": [
        {
          "indexed": true,
          "internalType": "uint256",
          "name": "id",
          "type": "uint256"
        },
        {
          "indexed": true,
          "internalType": "address",
          "name": "seller",
          "type": "address"
        }
      ],
      "name": "ItemUpdated",
      "type": "event"
    },
    {
      "anonymous": false,
      "inputs": [
        {
          "indexed": true,
          "internalType": "address",
          "name": "owner",
          "type": "address"
        },
        {
          "indexed": true,
          "internalType": "address",
          "name": "marketplace",
          "type": "address"
        }
      ],
      "name": "MarketplaceClosed",
      "type": "event"
    },
    {
      "anonymous": false,
      "inputs": [
        {
          "indexed": true,
          "internalType": "bytes32",
          "name": "role",
          "type": "bytes32"
        },
        {
          "indexed": true,
          "internalType": "bytes32",
          "name": "previousAdminRole",
          "type": "bytes32"
        },
        {
          "indexed": true,
          "internalType": "bytes32",
          "name": "newAdminRole",
          "type": "bytes32"
        }
      ],
      "name": "RoleAdminChanged",
      "type": "event"
    },
    {
      "anonymous": false,
      "inputs": [
        {
          "indexed": true,
          "internalType": "bytes32",
          "name": "role",
          "type": "bytes32"
        },
        {
          "indexed": true,
          "internalType": "address",
          "name": "account",
          "type": "address"
        },
        {
          "indexed": true,
          "internalType": "address",
          "name": "sender",
          "type": "address"
        }
      ],
      "name": "RoleGranted",
      "type": "event"
    },
    {
      "anonymous": false,
      "inputs": [
        {
          "indexed": true,
          "internalType": "bytes32",
          "name": "role",
          "type": "bytes32"
        },
        {
          "indexed": true,
          "internalType": "address",
          "name": "account",
          "type": "address"
        },
        {
          "indexed": true,
          "internalType": "address",
          "name": "sender",
          "type": "address"
        }
      ],
      "name": "RoleRevoked",
      "type": "event"
    },
    {
      "inputs": [],
      "name": "AUTHORISED_ROLE",
      "outputs": [
        {
          "internalType": "bytes32",
          "name": "",
          "type": "bytes32"
        }
      ],
      "stateMutability": "view",
      "type": "function",
      "constant": true
    },
    {
      "inputs": [],
      "name": "DEFAULT_ADMIN_ROLE",
      "outputs": [
        {
          "internalType": "bytes32",
          "name": "",
          "type": "bytes32"
        }
      ],
      "stateMutability": "view",
      "type": "function",
      "constant": true
    },
    {
      "inputs": [
        {
          "internalType": "bytes32",
          "name": "role",
          "type": "bytes32"
        }
      ],
      "name": "getRoleAdmin",
      "outputs": [
        {
          "internalType": "bytes32",
          "name": "",
          "type": "bytes32"
        }
      ],
      "stateMutability": "view",
      "type": "function",
      "constant": true
    },
    {
      "inputs": [
        {
          "internalType": "bytes32",
          "name": "role",
          "type": "bytes32"
        },
        {
          "internalType": "uint256",
          "name": "index",
          "type": "uint256"
        }
      ],
      "name": "getRoleMember",
      "outputs": [
        {
          "internalType": "address",
          "name": "",
          "type": "address"
        }
      ],
      "stateMutability": "view",
      "type": "function",
      "constant": true
    },
    {
      "inputs": [
        {
          "internalType": "bytes32",
          "name": "role",
          "type": "bytes32"
        }
      ],
      "name": "getRoleMemberCount",
      "outputs": [
        {
          "internalType": "uint256",
          "name": "",
          "type": "uint256"
        }
      ],
      "stateMutability": "view",
      "type": "function",
      "constant": true
    },
    {
      "inputs": [
        {
          "internalType": "bytes32",
          "name": "role",
          "type": "bytes32"
        },
        {
          "internalType": "address",
          "name": "account",
          "type": "address"
        }
      ],
      "name": "grantRole",
      "outputs": [],
      "stateMutability": "nonpayable",
      "type": "function"
    },
    {
      "inputs": [
        {
          "internalType": "bytes32",
          "name": "role",
          "type": "bytes32"
        },
        {
          "internalType": "address",
          "name": "account",
          "type": "address"
        }
      ],
      "name": "hasRole",
      "outputs": [
        {
          "internalType": "bool",
          "name": "",
          "type": "bool"
        }
      ],
      "stateMutability": "view",
      "type": "function",
      "constant": true
    },
    {
      "inputs": [],
      "name": "imageSrc",
      "outputs": [
        {
          "internalType": "string",
          "name": "",
          "type": "string"
        }
      ],
      "stateMutability": "view",
      "type": "function",
      "constant": true
    },
    {
      "inputs": [],
      "name": "isOpen",
      "outputs": [
        {
          "internalType": "bool",
          "name": "",
          "type": "bool"
        }
      ],
      "stateMutability": "view",
      "type": "function",
      "constant": true
    },
    {
      "inputs": [
        {
          "internalType": "uint256",
          "name": "",
          "type": "uint256"
        }
      ],
      "name": "items",
      "outputs": [
        {
          "internalType": "uint256",
          "name": "id",
          "type": "uint256"
        },
        {
          "internalType": "address payable",
          "name": "seller",
          "type": "address"
        },
        {
          "internalType": "address",
          "name": "soldTo",
          "type": "address"
        },
        {
          "internalType": "string",
          "name": "name",
          "type": "string"
        },
        {
          "internalType": "string",
          "name": "imageSrc",
          "type": "string"
        },
        {
          "internalType": "string",
          "name": "description",
          "type": "string"
        },
        {
          "internalType": "uint256",
          "name": "price",
          "type": "uint256"
        }
      ],
      "stateMutability": "view",
      "type": "function",
      "constant": true
    },
    {
      "inputs": [],
      "name": "name",
      "outputs": [
        {
          "internalType": "string",
          "name": "",
          "type": "string"
        }
      ],
      "stateMutability": "view",
      "type": "function",
      "constant": true
    },
    {
      "inputs": [
        {
          "internalType": "bytes32",
          "name": "role",
          "type": "bytes32"
        },
        {
          "internalType": "address",
          "name": "callerConfirmation",
          "type": "address"
        }
      ],
      "name": "renounceRole",
      "outputs": [],
      "stateMutability": "nonpayable",
      "type": "function"
    },
    {
      "inputs": [
        {
          "internalType": "bytes32",
          "name": "role",
          "type": "bytes32"
        },
        {
          "internalType": "address",
          "name": "account",
          "type": "address"
        }
      ],
      "name": "revokeRole",
      "outputs": [],
      "stateMutability": "nonpayable",
      "type": "function"
    },
    {
      "inputs": [
        {
          "internalType": "bytes4",
          "name": "interfaceId",
          "type": "bytes4"
        }
      ],
      "name": "supportsInterface",
      "outputs": [
        {
          "internalType": "bool",
          "name": "",
          "type": "bool"
        }
      ],
      "stateMutability": "view",
      "type": "function",
      "constant": true
    },
    {
      "inputs": [
        {
          "internalType": "address[]",
          "name": "authorisedAddresses_",
          "type": "address[]"
        }
      ],
      "name": "addAuthorisedAddresses",
      "outputs": [],
      "stateMutability": "nonpayable",
      "type": "function"
    },
    {
      "inputs": [
        {
          "internalType": "address[]",
          "name": "authorisedAddresses_",
          "type": "address[]"
        }
      ],
      "name": "removeAuthorisedAddresses",
      "outputs": [],
      "stateMutability": "nonpayable",
      "type": "function"
    },
    {
      "inputs": [
        {
          "internalType": "string",
          "name": "name_",
          "type": "string"
        },
        {
          "internalType": "string",
          "name": "imageSrc_",
          "type": "string"
        },
        {
          "internalType": "string",
          "name": "description_",
          "type": "string"
        },
        {
          "internalType": "uint256",
          "name": "price_",
          "type": "uint256"
        }
      ],
      "name": "addItem",
      "outputs": [],
      "stateMutability": "nonpayable",
      "type": "function"
    },
    {
      "inputs": [
        {
          "internalType": "uint256",
          "name": "id_",
          "type": "uint256"
        }
      ],
      "name": "purchaseItem",
      "outputs": [],
      "stateMutability": "payable",
      "type": "function",
      "payable": true
    },
    {
      "inputs": [
        {
          "internalType": "uint256",
          "name": "id_",
          "type": "uint256"
        }
      ],
      "name": "removeItem",
      "outputs": [],
      "stateMutability": "nonpayable",
      "type": "function"
    },
    {
      "inputs": [
        {
          "internalType": "uint256",
          "name": "id_",
          "type": "uint256"
        },
        {
          "internalType": "string",
          "name": "name_",
          "type": "string"
        },
        {
          "internalType": "string",
          "name": "imageSrc_",
          "type": "string"
        },
        {
          "internalType": "string",
          "name": "description_",
          "type": "string"
        },
        {
          "internalType": "uint256",
          "name": "price_",
          "type": "uint256"
        }
      ],
      "name": "updateItem",
      "outputs": [],
      "stateMutability": "nonpayable",
      "type": "function"
    },
    {
      "inputs": [],
      "name": "getAllItems",
      "outputs": [
        {
          "components": [
            {
              "internalType": "uint256",
              "name": "id",
              "type": "uint256"
            },
            {
              "internalType": "address payable",
              "name": "seller",
              "type": "address"
            },
            {
              "internalType": "address",
              "name": "soldTo",
              "type": "address"
            },
            {
              "internalType": "string",
              "name": "name",
              "type": "string"
            },
            {
              "internalType": "string",
              "name": "imageSrc",
              "type": "string"
            },
            {
              "internalType": "string",
              "name": "description",
              "type": "string"
            },
            {
              "internalType": "uint256",
              "name": "price",
              "type": "uint256"
            }
          ],
          "internalType": "struct Marketplace.Item[]",
          "name": "",
          "type": "tuple[]"
        }
      ],
      "stateMutability": "view",
      "type": "function",
      "constant": true
    },
    {
      "inputs": [
        {
          "internalType": "uint256",
          "name": "id_",
          "type": "uint256"
        }
      ],
      "name": "getItemById",
      "outputs": [
        {
          "components": [
            {
              "internalType": "uint256",
              "name": "id",
              "type": "uint256"
            },
            {
              "internalType": "address payable",
              "name": "seller",
              "type": "address"
            },
            {
              "internalType": "address",
              "name": "soldTo",
              "type": "address"
            },
            {
              "internalType": "string",
              "name": "name",
              "type": "string"
            },
            {
              "internalType": "string",
              "name": "imageSrc",
              "type": "string"
            },
            {
              "internalType": "string",
              "name": "description",
              "type": "string"
            },
            {
              "internalType": "uint256",
              "name": "price",
              "type": "uint256"
            }
          ],
          "internalType": "struct Marketplace.Item",
          "name": "",
          "type": "tuple"
        }
      ],
      "stateMutability": "view",
      "type": "function",
      "constant": true
    },
    {
      "inputs": [
        {
          "internalType": "address",
          "name": "buyer_",
          "type": "address"
        }
      ],
      "name": "getItemsByBuyer",
      "outputs": [
        {
          "components": [
            {
              "internalType": "uint256",
              "name": "id",
              "type": "uint256"
            },
            {
              "internalType": "address payable",
              "name": "seller",
              "type": "address"
            },
            {
              "internalType": "address",
              "name": "soldTo",
              "type": "address"
            },
            {
              "internalType": "string",
              "name": "name",
              "type": "string"
            },
            {
              "internalType": "string",
              "name": "imageSrc",
              "type": "string"
            },
            {
              "internalType": "string",
              "name": "description",
              "type": "string"
            },
            {
              "internalType": "uint256",
              "name": "price",
              "type": "uint256"
            }
          ],
          "internalType": "struct Marketplace.Item[]",
          "name": "",
          "type": "tuple[]"
        }
      ],
      "stateMutability": "view",
      "type": "function",
      "constant": true
    },
    {
      "inputs": [],
      "name": "close",
      "outputs": [],
      "stateMutability": "nonpayable",
      "type": "function"
    },
    {
      "inputs": [],
      "name": "getOwner",
      "outputs": [
        {
          "internalType": "address",
          "name": "",
          "type": "address"
        }
      ],
      "stateMutability": "view",
      "type": "function",
      "constant": true
    }
  ],
  "bytecode": "0x608060405234801562000010575f80fd5b506040516200463d3803806200463d833981810160405281019062000036919062000748565b826004908162000047919062000a4b565b50816005908162000059919062000a4b565b506200006e5f801b85620000a360201b60201c565b6200007f81620000ba60201b60201c565b600160065f6101000a81548160ff0219169083151502179055505050505062000bb2565b620000b582826200013c60201b60201c565b505050565b5f801b620000ce816200018a60201b60201c565b5f5b82518110156200013757620001297f45540da1931f496e4f3816a2dc871d2df367bc105b607e7ab8db3f2f22ef1cc784838151811062000115576200011462000b2f565b5b6020026020010151620001ae60201b60201c565b8080600101915050620000d0565b505050565b5f80620001508484620001e860201b60201c565b9050801562000180576200017e8360015f8781526020019081526020015f20620002e360201b90919060201c565b505b8091505092915050565b620001ab816200019f6200031860201b60201c565b6200031f60201b60201c565b50565b620001bf826200037b60201b60201c565b620001d0816200018a60201b60201c565b620001e283836200013c60201b60201c565b50505050565b5f620001fb83836200039760201b60201c565b620002d95760015f808581526020019081526020015f205f015f8473ffffffffffffffffffffffffffffffffffffffff1673ffffffffffffffffffffffffffffffffffffffff1681526020019081526020015f205f6101000a81548160ff021916908315150217905550620002756200031860201b60201c565b73ffffffffffffffffffffffffffffffffffffffff168273ffffffffffffffffffffffffffffffffffffffff16847f2f8788117e7eff1d82e926ec794901d17c78024a50270940304540a733656f0d60405160405180910390a460019050620002dd565b5f90505b92915050565b5f62000310835f018373ffffffffffffffffffffffffffffffffffffffff165f1b620003fa60201b60201c565b905092915050565b5f33905090565b6200033182826200039760201b60201c565b620003775780826040517fe2517d3f0000000000000000000000000000000000000000000000000000000081526004016200036e92919062000b87565b60405180910390fd5b5050565b5f805f8381526020019081526020015f20600101549050919050565b5f805f8481526020019081526020015f205f015f8373ffffffffffffffffffffffffffffffffffffffff1673ffffffffffffffffffffffffffffffffffffffff1681526020019081526020015f205f9054906101000a900460ff16905092915050565b5f6200040d83836200046b60201b60201c565b6200046157825f0182908060018154018082558091505060019003905f5260205f20015f9091909190915055825f0180549050836001015f8481526020019081526020015f20819055506001905062000465565b5f90505b92915050565b5f80836001015f8481526020019081526020015f20541415905092915050565b5f604051905090565b5f80fd5b5f80fd5b5f73ffffffffffffffffffffffffffffffffffffffff82169050919050565b5f620004c7826200049c565b9050919050565b620004d981620004bb565b8114620004e4575f80fd5b50565b5f81519050620004f781620004ce565b92915050565b5f80fd5b5f80fd5b5f601f19601f8301169050919050565b7f4e487b71000000000000000000000000000000000000000000000000000000005f52604160045260245ffd5b6200054d8262000505565b810181811067ffffffffffffffff821117156200056f576200056e62000515565b5b80604052505050565b5f620005836200048b565b905062000591828262000542565b919050565b5f67ffffffffffffffff821115620005b357620005b262000515565b5b620005be8262000505565b9050602081019050919050565b5f5b83811015620005ea578082015181840152602081019050620005cd565b5f8484015250505050565b5f6200060b620006058462000596565b62000578565b9050828152602081018484840111156200062a576200062962000501565b5b62000637848285620005cb565b509392505050565b5f82601f830112620006565762000655620004fd565b5b815162000668848260208601620005f5565b91505092915050565b5f67ffffffffffffffff8211156200068e576200068d62000515565b5b602082029050602081019050919050565b5f80fd5b5f620006b9620006b38462000671565b62000578565b90508083825260208201905060208402830185811115620006df57620006de6200069f565b5b835b818110156200070c5780620006f78882620004e7565b845260208401935050602081019050620006e1565b5050509392505050565b5f82601f8301126200072d576200072c620004fd565b5b81516200073f848260208601620006a3565b91505092915050565b5f805f806080858703121562000763576200076262000494565b5b5f6200077287828801620004e7565b945050602085015167ffffffffffffffff81111562000796576200079562000498565b5b620007a4878288016200063f565b935050604085015167ffffffffffffffff811115620007c857620007c762000498565b5b620007d6878288016200063f565b925050606085015167ffffffffffffffff811115620007fa57620007f962000498565b5b620008088782880162000716565b91505092959194509250565b5f81519050919050565b7f4e487b71000000000000000000000000000000000000000000000000000000005f52602260045260245ffd5b5f60028204905060018216806200086357607f821691505b6020821081036200087957620008786200081e565b5b50919050565b5f819050815f5260205f209050919050565b5f6020601f8301049050919050565b5f82821b905092915050565b5f60088302620008dd7fffffffffffffffffffffffffffffffffffffffffffffffffffffffffffffffff82620008a0565b620008e98683620008a0565b95508019841693508086168417925050509392505050565b5f819050919050565b5f819050919050565b5f620009336200092d620009278462000901565b6200090a565b62000901565b9050919050565b5f819050919050565b6200094e8362000913565b620009666200095d826200093a565b848454620008ac565b825550505050565b5f90565b6200097c6200096e565b6200098981848462000943565b505050565b5b81811015620009b057620009a45f8262000972565b6001810190506200098f565b5050565b601f821115620009ff57620009c9816200087f565b620009d48462000891565b81016020851015620009e4578190505b620009fc620009f38562000891565b8301826200098e565b50505b505050565b5f82821c905092915050565b5f62000a215f198460080262000a04565b1980831691505092915050565b5f62000a3b838362000a10565b9150826002028217905092915050565b62000a568262000814565b67ffffffffffffffff81111562000a725762000a7162000515565b5b62000a7e82546200084b565b62000a8b828285620009b4565b5f60209050601f83116001811462000ac1575f841562000aac578287015190505b62000ab8858262000a2e565b86555062000b27565b601f19841662000ad1866200087f565b5f5b8281101562000afa5784890151825560018201915060208501945060208101905062000ad3565b8683101562000b1a578489015162000b16601f89168262000a10565b8355505b6001600288020188555050505b505050505050565b7f4e487b71000000000000000000000000000000000000000000000000000000005f52603260045260245ffd5b62000b6781620004bb565b82525050565b5f819050919050565b62000b818162000b6d565b82525050565b5f60408201905062000b9c5f83018562000b5c565b62000bab602083018462000b76565b9392505050565b613a7d8062000bc05f395ff3fe608060405260043610610155575f3560e01c806391d14854116100c0578063b7d5347411610079578063b7d5347414610473578063bf465465146104af578063bfb231d2146104d9578063ca15c8731461051b578063cd2f071014610557578063d38ea5bf14610593578063d547741f146105af57610155565b806391d148541461036b57806393a12415146103a757806399e07caf146103d15780639d152618146103f9578063a0142e0014610421578063a217fddf1461044957610155565b806347535d7b1161011257806347535d7b146102615780634ba1d6aa1461028b5780636265db2f146102b557806371329171146102dd578063893d20e8146103055780639010d07c1461032f57610155565b806301ffc9a71461015957806306fdde0314610195578063248a9ca3146101bf5780632f2ff15d146101fb57806336568abe1461022357806343d726d61461024b575b5f80fd5b348015610164575f80fd5b5061017f600480360381019061017a919061294f565b6105d7565b60405161018c9190612994565b60405180910390f35b3480156101a0575f80fd5b506101a9610650565b6040516101b69190612a37565b60405180910390f35b3480156101ca575f80fd5b506101e560048036038101906101e09190612a8a565b6106dc565b6040516101f29190612ac4565b60405180910390f35b348015610206575f80fd5b50610221600480360381019061021c9190612b37565b6106f8565b005b34801561022e575f80fd5b5061024960048036038101906102449190612b37565b61071a565b005b348015610256575f80fd5b5061025f610795565b005b34801561026c575f80fd5b50610275610865565b6040516102829190612994565b60405180910390f35b348015610296575f80fd5b5061029f610877565b6040516102ac9190612d66565b60405180910390f35b3480156102c0575f80fd5b506102db60048036038101906102d69190612edc565b610ba9565b005b3480156102e8575f80fd5b5061030360048036038101906102fe9190612f94565b610dd8565b005b348015610310575f80fd5b5061031961102a565b6040516103269190612fce565b60405180910390f35b34801561033a575f80fd5b5061035560048036038101906103509190612fe7565b61103c565b6040516103629190612fce565b60405180910390f35b348015610376575f80fd5b50610391600480360381019061038c9190612b37565b611068565b60405161039e9190612994565b60405180910390f35b3480156103b2575f80fd5b506103bb6110cb565b6040516103c89190612ac4565b60405180910390f35b3480156103dc575f80fd5b506103f760048036038101906103f29190613025565b6110ef565b005b348015610404575f80fd5b5061041f600480360381019061041a91906131b4565b611339565b005b34801561042c575f80fd5b50610447600480360381019061044291906131b4565b6113a6565b005b348015610454575f80fd5b5061045d611413565b60405161046a9190612ac4565b60405180910390f35b34801561047e575f80fd5b50610499600480360381019061049491906131fb565b611419565b6040516104a69190612d66565b60405180910390f35b3480156104ba575f80fd5b506104c36117b2565b6040516104d09190612a37565b60405180910390f35b3480156104e4575f80fd5b506104ff60048036038101906104fa9190612f94565b61183e565b6040516105129796959493929190613244565b60405180910390f35b348015610526575f80fd5b50610541600480360381019061053c9190612a8a565b611a4c565b60405161054e91906132c6565b60405180910390f35b348015610562575f80fd5b5061057d60048036038101906105789190612f94565b611a6d565b60405161058a9190613386565b60405180910390f35b6105ad60048036038101906105a89190612f94565b611d05565b005b3480156105ba575f80fd5b506105d560048036038101906105d09190612b37565b6120a9565b005b5f7f5a05180f000000000000000000000000000000000000000000000000000000007bffffffffffffffffffffffffffffffffffffffffffffffffffffffff1916827bffffffffffffffffffffffffffffffffffffffffffffffffffffffff191614806106495750610648826120cb565b5b9050919050565b6004805461065d906133d3565b80601f0160208091040260200160405190810160405280929190818152602001828054610689906133d3565b80156106d45780601f106106ab576101008083540402835291602001916106d4565b820191905f5260205f20905b8154815290600101906020018083116106b757829003601f168201915b505050505081565b5f805f8381526020019081526020015f20600101549050919050565b610701826106dc565b61070a81612144565b6107148383612158565b50505050565b61072261219b565b73ffffffffffffffffffffffffffffffffffffffff168173ffffffffffffffffffffffffffffffffffffffff1614610786576040517f6697b23200000000000000000000000000000000000000000000000000000000815260040160405180910390fd5b61079082826121a2565b505050565b5f801b6107a181612144565b6107a96121e5565b6107e8576040517f08c379a00000000000000000000000000000000000000000000000000000000081526004016107df90613473565b60405180910390fd5b5f60065f6101000a81548160ff0219169083151502179055503073ffffffffffffffffffffffffffffffffffffffff1661082061219b565b73ffffffffffffffffffffffffffffffffffffffff167f83d0180088be204f97ef95ce34f9ba21504932c1ebd4f2ff64bd0df8cf70f32860405160405180910390a350565b60065f9054906101000a900460ff1681565b60605f60035467ffffffffffffffff81111561089657610895612d8e565b5b6040519080825280602002602001820160405280156108cf57816020015b6108bc61282c565b8152602001906001900390816108b45790505b5090505f600190505b6003548111610ba15760025f8281526020019081526020015f206040518060e00160405290815f8201548152602001600182015f9054906101000a900473ffffffffffffffffffffffffffffffffffffffff1673ffffffffffffffffffffffffffffffffffffffff1673ffffffffffffffffffffffffffffffffffffffff168152602001600282015f9054906101000a900473ffffffffffffffffffffffffffffffffffffffff1673ffffffffffffffffffffffffffffffffffffffff1673ffffffffffffffffffffffffffffffffffffffff1681526020016003820180546109c0906133d3565b80601f01602080910402602001604051908101604052809291908181526020018280546109ec906133d3565b8015610a375780601f10610a0e57610100808354040283529160200191610a37565b820191905f5260205f20905b815481529060010190602001808311610a1a57829003601f168201915b50505050508152602001600482018054610a50906133d3565b80601f0160208091040260200160405190810160405280929190818152602001828054610a7c906133d3565b8015610ac75780601f10610a9e57610100808354040283529160200191610ac7565b820191905f5260205f20905b815481529060010190602001808311610aaa57829003601f168201915b50505050508152602001600582018054610ae0906133d3565b80601f0160208091040260200160405190810160405280929190818152602001828054610b0c906133d3565b8015610b575780601f10610b2e57610100808354040283529160200191610b57565b820191905f5260205f20905b815481529060010190602001808311610b3a57829003601f168201915b5050505050815260200160068201548152505082600183610b7891906134be565b81518110610b8957610b886134f1565b5b602002602001018190525080806001019150506108d8565b508091505090565b5f801b610bb581612144565b60065f9054906101000a900460ff16610c03576040517f08c379a0000000000000000000000000000000000000000000000000000000008152600401610bfa90613568565b60405180910390fd5b60035f815480929190610c1590613586565b91905055506040518060e001604052806003548152602001610c3561219b565b73ffffffffffffffffffffffffffffffffffffffff1681526020015f73ffffffffffffffffffffffffffffffffffffffff168152602001868152602001858152602001848152602001600184610c8b91906135cd565b81525060025f60035481526020019081526020015f205f820151815f01556020820151816001015f6101000a81548173ffffffffffffffffffffffffffffffffffffffff021916908373ffffffffffffffffffffffffffffffffffffffff1602179055506040820151816002015f6101000a81548173ffffffffffffffffffffffffffffffffffffffff021916908373ffffffffffffffffffffffffffffffffffffffff1602179055506060820151816003019081610d4a91906137ab565b506080820151816004019081610d6091906137ab565b5060a0820151816005019081610d7691906137ab565b5060c08201518160060155905050610d8c61219b565b73ffffffffffffffffffffffffffffffffffffffff166003547f6375005112faeb3c31f129d3aa24c423df50ca6f7c78b0490c6f4b691feac38a60405160405180910390a35050505050565b5f801b610de481612144565b60065f9054906101000a900460ff16610e32576040517f08c379a0000000000000000000000000000000000000000000000000000000008152600401610e2990613568565b60405180910390fd5b815f60025f8381526020019081526020015f205f015414158015610eb557505f73ffffffffffffffffffffffffffffffffffffffff1660025f8381526020019081526020015f206001015f9054906101000a900473ffffffffffffffffffffffffffffffffffffffff1673ffffffffffffffffffffffffffffffffffffffff1614155b8015610f1f57505f73ffffffffffffffffffffffffffffffffffffffff1660025f8381526020019081526020015f206002015f9054906101000a900473ffffffffffffffffffffffffffffffffffffffff1673ffffffffffffffffffffffffffffffffffffffff16145b610f5e576040517f08c379a0000000000000000000000000000000000000000000000000000000008152600401610f55906138c4565b60405180910390fd5b60025f8481526020019081526020015f205f8082015f9055600182015f6101000a81549073ffffffffffffffffffffffffffffffffffffffff0219169055600282015f6101000a81549073ffffffffffffffffffffffffffffffffffffffff0219169055600382015f610fd19190612891565b600482015f610fe09190612891565b600582015f610fef9190612891565b600682015f90555050827fa54eda4149a0fb9258911733973ecf1f6762357ed371fc6d1e63123bbce23bed60405160405180910390a2505050565b5f6110375f801b5f61103c565b905090565b5f6110608260015f8681526020019081526020015f2061227a90919063ffffffff16565b905092915050565b5f805f8481526020019081526020015f205f015f8373ffffffffffffffffffffffffffffffffffffffff1673ffffffffffffffffffffffffffffffffffffffff1681526020019081526020015f205f9054906101000a900460ff16905092915050565b7f45540da1931f496e4f3816a2dc871d2df367bc105b607e7ab8db3f2f22ef1cc781565b5f801b6110fb81612144565b60065f9054906101000a900460ff16611149576040517f08c379a000000000000000000000000000000000000000000000000000000000815260040161114090613568565b60405180910390fd5b855f60025f8381526020019081526020015f205f0154141580156111cc57505f73ffffffffffffffffffffffffffffffffffffffff1660025f8381526020019081526020015f206001015f9054906101000a900473ffffffffffffffffffffffffffffffffffffffff1673ffffffffffffffffffffffffffffffffffffffff1614155b801561123657505f73ffffffffffffffffffffffffffffffffffffffff1660025f8381526020019081526020015f206002015f9054906101000a900473ffffffffffffffffffffffffffffffffffffffff1673ffffffffffffffffffffffffffffffffffffffff16145b611275576040517f08c379a000000000000000000000000000000000000000000000000000000000815260040161126c906138c4565b60405180910390fd5b5f60025f8981526020019081526020015f2090508681600301908161129a91906137ab565b50858160040190816112ac91906137ab565b50848160050190816112be91906137ab565b50838160060181905550806001015f9054906101000a900473ffffffffffffffffffffffffffffffffffffffff1673ffffffffffffffffffffffffffffffffffffffff16887f38f487ae24444315197e622aa97fa1b715d2061149fedf9e29b0d2f80f773a1d60405160405180910390a35050505050505050565b5f801b61134581612144565b5f5b82518110156113a1576113947f45540da1931f496e4f3816a2dc871d2df367bc105b607e7ab8db3f2f22ef1cc7848381518110611387576113866134f1565b5b60200260200101516106f8565b8080600101915050611347565b505050565b5f801b6113b281612144565b5f5b825181101561140e576114017f45540da1931f496e4f3816a2dc871d2df367bc105b607e7ab8db3f2f22ef1cc78483815181106113f4576113f36134f1565b5b60200260200101516120a9565b80806001019150506113b4565b505050565b5f801b81565b60605f60035467ffffffffffffffff81111561143857611437612d8e565b5b60405190808252806020026020018201604052801561147157816020015b61145e61282c565b8152602001906001900390816114565790505b5090505f80600190505b60035481116117a7578473ffffffffffffffffffffffffffffffffffffffff1660025f8381526020019081526020015f206002015f9054906101000a900473ffffffffffffffffffffffffffffffffffffffff1673ffffffffffffffffffffffffffffffffffffffff160361179a5760025f8281526020019081526020015f206040518060e00160405290815f8201548152602001600182015f9054906101000a900473ffffffffffffffffffffffffffffffffffffffff1673ffffffffffffffffffffffffffffffffffffffff1673ffffffffffffffffffffffffffffffffffffffff168152602001600282015f9054906101000a900473ffffffffffffffffffffffffffffffffffffffff1673ffffffffffffffffffffffffffffffffffffffff1673ffffffffffffffffffffffffffffffffffffffff1681526020016003820180546115c9906133d3565b80601f01602080910402602001604051908101604052809291908181526020018280546115f5906133d3565b80156116405780601f1061161757610100808354040283529160200191611640565b820191905f5260205f20905b81548152906001019060200180831161162357829003601f168201915b50505050508152602001600482018054611659906133d3565b80601f0160208091040260200160405190810160405280929190818152602001828054611685906133d3565b80156116d05780601f106116a7576101008083540402835291602001916116d0565b820191905f5260205f20905b8154815290600101906020018083116116b357829003601f168201915b505050505081526020016005820180546116e9906133d3565b80601f0160208091040260200160405190810160405280929190818152602001828054611715906133d3565b80156117605780601f1061173757610100808354040283529160200191611760565b820191905f5260205f20905b81548152906001019060200180831161174357829003601f168201915b50505050508152602001600682015481525050838381518110611786576117856134f1565b5b602002602001018190525081806001019250505b808060010191505061147b565b508192505050919050565b600580546117bf906133d3565b80601f01602080910402602001604051908101604052809291908181526020018280546117eb906133d3565b80156118365780601f1061180d57610100808354040283529160200191611836565b820191905f5260205f20905b81548152906001019060200180831161181957829003601f168201915b505050505081565b6002602052805f5260405f205f91509050805f015490806001015f9054906101000a900473ffffffffffffffffffffffffffffffffffffffff1690806002015f9054906101000a900473ffffffffffffffffffffffffffffffffffffffff16908060030180546118ad906133d3565b80601f01602080910402602001604051908101604052809291908181526020018280546118d9906133d3565b80156119245780601f106118fb57610100808354040283529160200191611924565b820191905f5260205f20905b81548152906001019060200180831161190757829003601f168201915b505050505090806004018054611939906133d3565b80601f0160208091040260200160405190810160405280929190818152602001828054611965906133d3565b80156119b05780601f10611987576101008083540402835291602001916119b0565b820191905f5260205f20905b81548152906001019060200180831161199357829003601f168201915b5050505050908060050180546119c5906133d3565b80601f01602080910402602001604051908101604052809291908181526020018280546119f1906133d3565b8015611a3c5780601f10611a1357610100808354040283529160200191611a3c565b820191905f5260205f20905b815481529060010190602001808311611a1f57829003601f168201915b5050505050908060060154905087565b5f611a6660015f8481526020019081526020015f20612291565b9050919050565b611a7561282c565b60025f8381526020019081526020015f206040518060e00160405290815f8201548152602001600182015f9054906101000a900473ffffffffffffffffffffffffffffffffffffffff1673ffffffffffffffffffffffffffffffffffffffff1673ffffffffffffffffffffffffffffffffffffffff168152602001600282015f9054906101000a900473ffffffffffffffffffffffffffffffffffffffff1673ffffffffffffffffffffffffffffffffffffffff1673ffffffffffffffffffffffffffffffffffffffff168152602001600382018054611b54906133d3565b80601f0160208091040260200160405190810160405280929190818152602001828054611b80906133d3565b8015611bcb5780601f10611ba257610100808354040283529160200191611bcb565b820191905f5260205f20905b815481529060010190602001808311611bae57829003601f168201915b50505050508152602001600482018054611be4906133d3565b80601f0160208091040260200160405190810160405280929190818152602001828054611c10906133d3565b8015611c5b5780601f10611c3257610100808354040283529160200191611c5b565b820191905f5260205f20905b815481529060010190602001808311611c3e57829003601f168201915b50505050508152602001600582018054611c74906133d3565b80601f0160208091040260200160405190810160405280929190818152602001828054611ca0906133d3565b8015611ceb5780601f10611cc257610100808354040283529160200191611ceb565b820191905f5260205f20905b815481529060010190602001808311611cce57829003601f168201915b505050505081526020016006820154815250509050919050565b611d0d61219b565b611d195f801b82611068565b80611d4a5750611d497f45540da1931f496e4f3816a2dc871d2df367bc105b607e7ab8db3f2f22ef1cc782611068565b5b611d89576040517f08c379a0000000000000000000000000000000000000000000000000000000008152600401611d809061392c565b60405180910390fd5b60065f9054906101000a900460ff16611dd7576040517f08c379a0000000000000000000000000000000000000000000000000000000008152600401611dce90613568565b60405180910390fd5b815f60025f8381526020019081526020015f205f015414158015611e5a57505f73ffffffffffffffffffffffffffffffffffffffff1660025f8381526020019081526020015f206001015f9054906101000a900473ffffffffffffffffffffffffffffffffffffffff1673ffffffffffffffffffffffffffffffffffffffff1614155b8015611ec457505f73ffffffffffffffffffffffffffffffffffffffff1660025f8381526020019081526020015f206002015f9054906101000a900473ffffffffffffffffffffffffffffffffffffffff1673ffffffffffffffffffffffffffffffffffffffff16145b611f03576040517f08c379a0000000000000000000000000000000000000000000000000000000008152600401611efa906138c4565b60405180910390fd5b60025f8481526020019081526020015f2060060154341015611f5a576040517f08c379a0000000000000000000000000000000000000000000000000000000008152600401611f5190613994565b60405180910390fd5b611f9760025f8581526020019081526020015f206001015f9054906101000a900473ffffffffffffffffffffffffffffffffffffffff16346122a4565b611f9f61219b565b60025f8581526020019081526020015f206002015f6101000a81548173ffffffffffffffffffffffffffffffffffffffff021916908373ffffffffffffffffffffffffffffffffffffffff160217905550611ff861219b565b73ffffffffffffffffffffffffffffffffffffffff1660025f8581526020019081526020015f206001015f9054906101000a900473ffffffffffffffffffffffffffffffffffffffff1673ffffffffffffffffffffffffffffffffffffffff16847f3e2a5a5ee3a24b1b9d330b0bc0946a7d0eb9c99f453f93a45348a9a8e29a94fb60025f8881526020019081526020015f206006015460405161209c91906132c6565b60405180910390a4505050565b6120b2826106dc565b6120bb81612144565b6120c583836121a2565b50505050565b5f7f7965db0b000000000000000000000000000000000000000000000000000000007bffffffffffffffffffffffffffffffffffffffffffffffffffffffff1916827bffffffffffffffffffffffffffffffffffffffffffffffffffffffff1916148061213d575061213c8261238d565b5b9050919050565b6121558161215061219b565b6123f6565b50565b5f806121648484612447565b905080156121915761218f8360015f8781526020019081526020015f2061253090919063ffffffff16565b505b8091505092915050565b5f33905090565b5f806121ae848461255d565b905080156121db576121d98360015f8781526020019081526020015f2061264690919063ffffffff16565b505b8091505092915050565b5f80600190505b6003548111612271575f73ffffffffffffffffffffffffffffffffffffffff1660025f8381526020019081526020015f206002015f9054906101000a900473ffffffffffffffffffffffffffffffffffffffff1673ffffffffffffffffffffffffffffffffffffffff1603612264575f915050612277565b80806001019150506121ec565b50600190505b90565b5f612287835f0183612673565b5f1c905092915050565b5f61229d825f0161269a565b9050919050565b804710156122e957306040517fcd7860590000000000000000000000000000000000000000000000000000000081526004016122e09190612fce565b60405180910390fd5b5f8273ffffffffffffffffffffffffffffffffffffffff168260405161230e906139df565b5f6040518083038185875af1925050503d805f8114612348576040519150601f19603f3d011682016040523d82523d5f602084013e61234d565b606091505b5050905080612388576040517f1425ea4200000000000000000000000000000000000000000000000000000000815260040160405180910390fd5b505050565b5f7f01ffc9a7000000000000000000000000000000000000000000000000000000007bffffffffffffffffffffffffffffffffffffffffffffffffffffffff1916827bffffffffffffffffffffffffffffffffffffffffffffffffffffffff1916149050919050565b6124008282611068565b6124435780826040517fe2517d3f00000000000000000000000000000000000000000000000000000000815260040161243a9291906139f3565b60405180910390fd5b5050565b5f6124528383611068565b6125265760015f808581526020019081526020015f205f015f8473ffffffffffffffffffffffffffffffffffffffff1673ffffffffffffffffffffffffffffffffffffffff1681526020019081526020015f205f6101000a81548160ff0219169083151502179055506124c361219b565b73ffffffffffffffffffffffffffffffffffffffff168273ffffffffffffffffffffffffffffffffffffffff16847f2f8788117e7eff1d82e926ec794901d17c78024a50270940304540a733656f0d60405160405180910390a46001905061252a565b5f90505b92915050565b5f612555835f018373ffffffffffffffffffffffffffffffffffffffff165f1b6126a9565b905092915050565b5f6125688383611068565b1561263c575f805f8581526020019081526020015f205f015f8473ffffffffffffffffffffffffffffffffffffffff1673ffffffffffffffffffffffffffffffffffffffff1681526020019081526020015f205f6101000a81548160ff0219169083151502179055506125d961219b565b73ffffffffffffffffffffffffffffffffffffffff168273ffffffffffffffffffffffffffffffffffffffff16847ff6391f5c32d9c69d2a47ea670b442974b53935d1edc7fd64eb21e047a839171b60405160405180910390a460019050612640565b5f90505b92915050565b5f61266b835f018373ffffffffffffffffffffffffffffffffffffffff165f1b612710565b905092915050565b5f825f018281548110612689576126886134f1565b5b905f5260205f200154905092915050565b5f815f01805490509050919050565b5f6126b4838361280c565b61270657825f0182908060018154018082558091505060019003905f5260205f20015f9091909190915055825f0180549050836001015f8481526020019081526020015f20819055506001905061270a565b5f90505b92915050565b5f80836001015f8481526020019081526020015f205490505f8114612801575f60018261273d91906134be565b90505f6001865f018054905061275391906134be565b90508082146127b9575f865f018281548110612772576127716134f1565b5b905f5260205f200154905080875f018481548110612793576127926134f1565b5b905f5260205f20018190555083876001015f8381526020019081526020015f2081905550505b855f018054806127cc576127cb613a1a565b5b600190038181905f5260205f20015f90559055856001015f8681526020019081526020015f205f905560019350505050612806565b5f9150505b92915050565b5f80836001015f8481526020019081526020015f20541415905092915050565b6040518060e001604052805f81526020015f73ffffffffffffffffffffffffffffffffffffffff1681526020015f73ffffffffffffffffffffffffffffffffffffffff1681526020016060815260200160608152602001606081526020015f81525090565b50805461289d906133d3565b5f825580601f106128ae57506128cb565b601f0160209004905f5260205f20908101906128ca91906128ce565b5b50565b5b808211156128e5575f815f9055506001016128cf565b5090565b5f604051905090565b5f80fd5b5f80fd5b5f7fffffffff0000000000000000000000000000000000000000000000000000000082169050919050565b61292e816128fa565b8114612938575f80fd5b50565b5f8135905061294981612925565b92915050565b5f60208284031215612964576129636128f2565b5b5f6129718482850161293b565b91505092915050565b5f8115159050919050565b61298e8161297a565b82525050565b5f6020820190506129a75f830184612985565b92915050565b5f81519050919050565b5f82825260208201905092915050565b5f5b838110156129e45780820151818401526020810190506129c9565b5f8484015250505050565b5f601f19601f8301169050919050565b5f612a09826129ad565b612a1381856129b7565b9350612a238185602086016129c7565b612a2c816129ef565b840191505092915050565b5f6020820190508181035f830152612a4f81846129ff565b905092915050565b5f819050919050565b612a6981612a57565b8114612a73575f80fd5b50565b5f81359050612a8481612a60565b92915050565b5f60208284031215612a9f57612a9e6128f2565b5b5f612aac84828501612a76565b91505092915050565b612abe81612a57565b82525050565b5f602082019050612ad75f830184612ab5565b92915050565b5f73ffffffffffffffffffffffffffffffffffffffff82169050919050565b5f612b0682612add565b9050919050565b612b1681612afc565b8114612b20575f80fd5b50565b5f81359050612b3181612b0d565b92915050565b5f8060408385031215612b4d57612b4c6128f2565b5b5f612b5a85828601612a76565b9250506020612b6b85828601612b23565b9150509250929050565b5f81519050919050565b5f82825260208201905092915050565b5f819050602082019050919050565b5f819050919050565b612bb081612b9e565b82525050565b5f612bc082612add565b9050919050565b612bd081612bb6565b82525050565b612bdf81612afc565b82525050565b5f82825260208201905092915050565b5f612bff826129ad565b612c098185612be5565b9350612c198185602086016129c7565b612c22816129ef565b840191505092915050565b5f60e083015f830151612c425f860182612ba7565b506020830151612c556020860182612bc7565b506040830151612c686040860182612bd6565b5060608301518482036060860152612c808282612bf5565b91505060808301518482036080860152612c9a8282612bf5565b91505060a083015184820360a0860152612cb48282612bf5565b91505060c0830151612cc960c0860182612ba7565b508091505092915050565b5f612cdf8383612c2d565b905092915050565b5f602082019050919050565b5f612cfd82612b75565b612d078185612b7f565b935083602082028501612d1985612b8f565b805f5b85811015612d545784840389528151612d358582612cd4565b9450612d4083612ce7565b925060208a01995050600181019050612d1c565b50829750879550505050505092915050565b5f6020820190508181035f830152612d7e8184612cf3565b905092915050565b5f80fd5b5f80fd5b7f4e487b71000000000000000000000000000000000000000000000000000000005f52604160045260245ffd5b612dc4826129ef565b810181811067ffffffffffffffff82111715612de357612de2612d8e565b5b80604052505050565b5f612df56128e9565b9050612e018282612dbb565b919050565b5f67ffffffffffffffff821115612e2057612e1f612d8e565b5b612e29826129ef565b9050602081019050919050565b828183375f83830152505050565b5f612e56612e5184612e06565b612dec565b905082815260208101848484011115612e7257612e71612d8a565b5b612e7d848285612e36565b509392505050565b5f82601f830112612e9957612e98612d86565b5b8135612ea9848260208601612e44565b91505092915050565b612ebb81612b9e565b8114612ec5575f80fd5b50565b5f81359050612ed681612eb2565b92915050565b5f805f8060808587031215612ef457612ef36128f2565b5b5f85013567ffffffffffffffff811115612f1157612f106128f6565b5b612f1d87828801612e85565b945050602085013567ffffffffffffffff811115612f3e57612f3d6128f6565b5b612f4a87828801612e85565b935050604085013567ffffffffffffffff811115612f6b57612f6a6128f6565b5b612f7787828801612e85565b9250506060612f8887828801612ec8565b91505092959194509250565b5f60208284031215612fa957612fa86128f2565b5b5f612fb684828501612ec8565b91505092915050565b612fc881612afc565b82525050565b5f602082019050612fe15f830184612fbf565b92915050565b5f8060408385031215612ffd57612ffc6128f2565b5b5f61300a85828601612a76565b925050602061301b85828601612ec8565b9150509250929050565b5f805f805f60a0868803121561303e5761303d6128f2565b5b5f61304b88828901612ec8565b955050602086013567ffffffffffffffff81111561306c5761306b6128f6565b5b61307888828901612e85565b945050604086013567ffffffffffffffff811115613099576130986128f6565b5b6130a588828901612e85565b935050606086013567ffffffffffffffff8111156130c6576130c56128f6565b5b6130d288828901612e85565b92505060806130e388828901612ec8565b9150509295509295909350565b5f67ffffffffffffffff82111561310a57613109612d8e565b5b602082029050602081019050919050565b5f80fd5b5f61313161312c846130f0565b612dec565b905080838252602082019050602084028301858111156131545761315361311b565b5b835b8181101561317d57806131698882612b23565b845260208401935050602081019050613156565b5050509392505050565b5f82601f83011261319b5761319a612d86565b5b81356131ab84826020860161311f565b91505092915050565b5f602082840312156131c9576131c86128f2565b5b5f82013567ffffffffffffffff8111156131e6576131e56128f6565b5b6131f284828501613187565b91505092915050565b5f602082840312156132105761320f6128f2565b5b5f61321d84828501612b23565b91505092915050565b61322f81612b9e565b82525050565b61323e81612bb6565b82525050565b5f60e0820190506132575f83018a613226565b6132646020830189613235565b6132716040830188612fbf565b818103606083015261328381876129ff565b9050818103608083015261329781866129ff565b905081810360a08301526132ab81856129ff565b90506132ba60c0830184613226565b98975050505050505050565b5f6020820190506132d95f830184613226565b92915050565b5f60e083015f8301516132f45f860182612ba7565b5060208301516133076020860182612bc7565b50604083015161331a6040860182612bd6565b50606083015184820360608601526133328282612bf5565b9150506080830151848203608086015261334c8282612bf5565b91505060a083015184820360a08601526133668282612bf5565b91505060c083015161337b60c0860182612ba7565b508091505092915050565b5f6020820190508181035f83015261339e81846132df565b905092915050565b7f4e487b71000000000000000000000000000000000000000000000000000000005f52602260045260245ffd5b5f60028204905060018216806133ea57607f821691505b6020821081036133fd576133fc6133a6565b5b50919050565b7f4e6f7420616c6c206974656d7320696e2074686973206d61726b6574706c61635f8201527f652068617665206265656e20736f6c642e000000000000000000000000000000602082015250565b5f61345d6031836129b7565b915061346882613403565b604082019050919050565b5f6020820190508181035f83015261348a81613451565b9050919050565b7f4e487b71000000000000000000000000000000000000000000000000000000005f52601160045260245ffd5b5f6134c882612b9e565b91506134d383612b9e565b92508282039050818111156134eb576134ea613491565b5b92915050565b7f4e487b71000000000000000000000000000000000000000000000000000000005f52603260045260245ffd5b7f4d61726b6574706c61636520697320636c6f7365642e000000000000000000005f82015250565b5f6135526016836129b7565b915061355d8261351e565b602082019050919050565b5f6020820190508181035f83015261357f81613546565b9050919050565b5f61359082612b9e565b91507fffffffffffffffffffffffffffffffffffffffffffffffffffffffffffffffff82036135c2576135c1613491565b5b600182019050919050565b5f6135d782612b9e565b91506135e283612b9e565b92508282026135f081612b9e565b9150828204841483151761360757613606613491565b5b5092915050565b5f819050815f5260205f209050919050565b5f6020601f8301049050919050565b5f82821b905092915050565b5f6008830261366a7fffffffffffffffffffffffffffffffffffffffffffffffffffffffffffffffff8261362f565b613674868361362f565b95508019841693508086168417925050509392505050565b5f819050919050565b5f6136af6136aa6136a584612b9e565b61368c565b612b9e565b9050919050565b5f819050919050565b6136c883613695565b6136dc6136d4826136b6565b84845461363b565b825550505050565b5f90565b6136f06136e4565b6136fb8184846136bf565b505050565b5b8181101561371e576137135f826136e8565b600181019050613701565b5050565b601f821115613763576137348161360e565b61373d84613620565b8101602085101561374c578190505b61376061375885613620565b830182613700565b50505b505050565b5f82821c905092915050565b5f6137835f1984600802613768565b1980831691505092915050565b5f61379b8383613774565b9150826002028217905092915050565b6137b4826129ad565b67ffffffffffffffff8111156137cd576137cc612d8e565b5b6137d782546133d3565b6137e2828285613722565b5f60209050601f831160018114613813575f8415613801578287015190505b61380b8582613790565b865550613872565b601f1984166138218661360e565b5f5b8281101561384857848901518255600182019150602085019450602081019050613823565b868310156138655784890151613861601f891682613774565b8355505b6001600288020188555050505b505050505050565b7f4974656d206e6f7420617661696c61626c652e000000000000000000000000005f82015250565b5f6138ae6013836129b7565b91506138b98261387a565b602082019050919050565b5f6020820190508181035f8301526138db816138a2565b9050919050565b7f496e73756666696369656e7420726f6c650000000000000000000000000000005f82015250565b5f6139166011836129b7565b9150613921826138e2565b602082019050919050565b5f6020820190508181035f8301526139438161390a565b9050919050565b7f4e6f7420656e6f7567682045746865722070726f76696465642e0000000000005f82015250565b5f61397e601a836129b7565b91506139898261394a565b602082019050919050565b5f6020820190508181035f8301526139ab81613972565b9050919050565b5f81905092915050565b50565b5f6139ca5f836139b2565b91506139d5826139bc565b5f82019050919050565b5f6139e9826139bf565b9150819050919050565b5f604082019050613a065f830185612fbf565b613a136020830184612ab5565b9392505050565b7f4e487b71000000000000000000000000000000000000000000000000000000005f52603160045260245ffdfea264697066735822122029713d3a1db605dee9e1f2f5fb9cd571af2a11d75b70e1bc0aab7d0481a7df7964736f6c63430008140033",
  "immutableReferences": {},
  "source": "// SPDX-License-Identifier: MIT\npragma solidity ^0.8.20;\n\nimport \"@openzeppelin/contracts/access/extensions/AccessControlEnumerable.sol\";\nimport \"@openzeppelin/contracts/utils/Address.sol\";\n\ncontract Marketplace is AccessControlEnumerable {\n    //bytes32 public constant OWNER_ROLE = keccak256(\"OWNER_ROLE\");\n    bytes32 public constant AUTHORISED_ROLE = keccak256(\"AUTHORISED_ROLE\");\n\n    mapping(uint => Item) public items;\n    uint private itemCount;\n    string public name;\n    string public imageSrc;\n    bool public isOpen;\n\n    struct Item {\n        uint id;\n        address payable seller;\n        address soldTo;\n        string name;\n        string imageSrc;\n        string description;\n        uint price;\n    }\n\n    modifier sufficientRole(address address_) {\n        require(\n            hasRole(DEFAULT_ADMIN_ROLE, address_) ||\n                hasRole(AUTHORISED_ROLE, address_),\n            \"Insufficient role\"\n        );\n        _;\n    }\n\n    modifier itemAvailable(uint id_) {\n        require(\n            items[id_].id != 0 &&\n                items[id_].seller != address(0) &&\n                items[id_].soldTo == address(0),\n            \"Item not available.\"\n        );\n        _;\n    }\n\n    modifier marketplaceOpen() {\n        require(isOpen, \"Marketplace is closed.\");\n        _;\n    }\n\n    event ItemAdded(uint indexed id, address indexed seller);\n\n    event ItemUpdated(uint indexed id, address indexed seller);\n\n    event ItemPurchased(\n        uint indexed id,\n        address indexed seller,\n        address indexed buyer,\n        uint price\n    );\n\n    event ItemRemoved(uint indexed id);\n\n    event MarketplaceClosed(address indexed owner, address indexed marketplace);\n\n    constructor(\n        address owner_,\n        string memory name_,\n        string memory imageSrc_,\n        address[] memory authorisedAddresses_\n    ) {\n        name = name_;\n        imageSrc = imageSrc_;\n        _setupRole(DEFAULT_ADMIN_ROLE, owner_);\n        //grantRole(DEFAULT_ADMIN_ROLE, msg.sender);\n        addAuthorisedAddresses(authorisedAddresses_);\n        isOpen = true;\n    }\n\n    function addAuthorisedAddresses(\n        address[] memory authorisedAddresses_\n    ) public onlyRole(DEFAULT_ADMIN_ROLE) {\n        for (uint i = 0; i < authorisedAddresses_.length; ) {\n            grantRole(AUTHORISED_ROLE, authorisedAddresses_[i]);\n            unchecked {\n                i++;\n            }\n        }\n    }\n\n    function removeAuthorisedAddresses(\n        address[] memory authorisedAddresses_\n    ) public onlyRole(DEFAULT_ADMIN_ROLE) {\n        for (uint i = 0; i < authorisedAddresses_.length; ) {\n            revokeRole(AUTHORISED_ROLE, authorisedAddresses_[i]);\n            unchecked {\n                i++;\n            }\n        }\n    }\n\n    function addItem(\n        string memory name_,\n        string memory imageSrc_,\n        string memory description_,\n        uint price_\n    ) public onlyRole(DEFAULT_ADMIN_ROLE) marketplaceOpen {\n        itemCount++;\n        items[itemCount] = Item(\n            itemCount,\n            payable(_msgSender()),\n            address(0),\n            name_,\n            imageSrc_,\n            description_,\n            price_ * 1 wei\n        );\n        emit ItemAdded(itemCount, _msgSender());\n    }\n\n    function purchaseItem(\n        uint id_\n    )\n        public\n        payable\n        sufficientRole(_msgSender())\n        marketplaceOpen\n        itemAvailable(id_)\n    {\n        require(msg.value >= items[id_].price, \"Not enough Ether provided.\");\n        Address.sendValue(items[id_].seller, msg.value);\n        items[id_].soldTo = _msgSender();\n        emit ItemPurchased(\n            id_,\n            items[id_].seller,\n            _msgSender(),\n            items[id_].price\n        );\n    }\n\n    function removeItem(\n        uint id_\n    ) public onlyRole(DEFAULT_ADMIN_ROLE) marketplaceOpen itemAvailable(id_) {\n        delete items[id_];\n        emit ItemRemoved(id_);\n    }\n\n    function updateItem(\n        uint id_,\n        string memory name_,\n        string memory imageSrc_,\n        string memory description_,\n        uint price_\n    ) public onlyRole(DEFAULT_ADMIN_ROLE) marketplaceOpen itemAvailable(id_) {\n        Item storage item = items[id_];\n        item.name = name_;\n        item.imageSrc = imageSrc_;\n        item.description = description_;\n        item.price = price_;\n        emit ItemUpdated(id_, address(item.seller));\n    }\n\n    function getAllItems() public view returns (Item[] memory) {\n        Item[] memory _items = new Item[](itemCount);\n        for (uint i = 1; i <= itemCount; ) {\n            _items[i - 1] = items[i];\n            unchecked {\n                i++;\n            }\n        }\n        return _items;\n    }\n\n    function getItemById(uint id_) public view returns (Item memory) {\n        return items[id_];\n    }\n\n    function getItemsByBuyer(\n        address buyer_\n    ) public view returns (Item[] memory) {\n        Item[] memory filteredItems = new Item[](itemCount);\n        uint filteredItemCount = 0;\n        for (uint i = 1; i <= itemCount; ) {\n            if (items[i].soldTo == buyer_) {\n                filteredItems[filteredItemCount] = items[i];\n                unchecked {\n                    filteredItemCount++;\n                }\n            }\n            unchecked {\n                i++;\n            }\n        }\n        return filteredItems;\n    }\n\n    function close() public onlyRole(DEFAULT_ADMIN_ROLE) {\n        require(\n            allItemsSold(),\n            \"Not all items in this marketplace have been sold.\"\n        );\n        isOpen = false;\n        emit MarketplaceClosed(_msgSender(), address(this));\n    }\n\n    function allItemsSold() internal view returns (bool) {\n        for (uint i = 1; i <= itemCount; ) {\n            if (items[i].soldTo == address(0)) {\n                return false;\n            }\n            unchecked {\n                i++;\n            }\n        }\n        return true;\n    }\n\n    function getOwner() public view returns (address) {\n        return getRoleMember(DEFAULT_ADMIN_ROLE, 0);\n    }\n\n    function _setupRole(bytes32 role, address account) internal {\n        _grantRole(role, account);\n    }\n}\n",
  "sourcePath": "/workspaces/blockchain-gaming-marketplace-contract/contracts/Marketplace.sol",
  "compiler": {
    "name": "solc",
    "version": "0.8.20+commit.a1b79de6.Emscripten.clang"
  },
  "schemaVersion": "3.4.16",
  "updatedAt": "2024-02-07T21:32:33.536Z",
  "networkType": "ethereum",
  "devdoc": {
    "errors": {
      "AccessControlBadConfirmation()": [
        {
          "details": "The caller of a function is not the expected one. NOTE: Don't confuse with {AccessControlUnauthorizedAccount}."
        }
      ],
      "AccessControlUnauthorizedAccount(address,bytes32)": [
        {
          "details": "The `account` is missing a role."
        }
      ],
      "AddressInsufficientBalance(address)": [
        {
          "details": "The ETH balance of the account is not enough to perform the operation."
        }
      ],
      "FailedInnerCall()": [
        {
          "details": "A call to an address target failed. The target may have reverted."
        }
      ]
    },
    "events": {
      "RoleAdminChanged(bytes32,bytes32,bytes32)": {
        "details": "Emitted when `newAdminRole` is set as ``role``'s admin role, replacing `previousAdminRole` `DEFAULT_ADMIN_ROLE` is the starting admin for all roles, despite {RoleAdminChanged} not being emitted signaling this."
      },
      "RoleGranted(bytes32,address,address)": {
        "details": "Emitted when `account` is granted `role`. `sender` is the account that originated the contract call, an admin role bearer except when using {AccessControl-_setupRole}."
      },
      "RoleRevoked(bytes32,address,address)": {
        "details": "Emitted when `account` is revoked `role`. `sender` is the account that originated the contract call:   - if using `revokeRole`, it is the admin role bearer   - if using `renounceRole`, it is the role bearer (i.e. `account`)"
      }
    },
    "kind": "dev",
    "methods": {
      "getRoleAdmin(bytes32)": {
        "details": "Returns the admin role that controls `role`. See {grantRole} and {revokeRole}. To change a role's admin, use {_setRoleAdmin}."
      },
      "getRoleMember(bytes32,uint256)": {
        "details": "Returns one of the accounts that have `role`. `index` must be a value between 0 and {getRoleMemberCount}, non-inclusive. Role bearers are not sorted in any particular way, and their ordering may change at any point. WARNING: When using {getRoleMember} and {getRoleMemberCount}, make sure you perform all queries on the same block. See the following https://forum.openzeppelin.com/t/iterating-over-elements-on-enumerableset-in-openzeppelin-contracts/2296[forum post] for more information."
      },
      "getRoleMemberCount(bytes32)": {
        "details": "Returns the number of accounts that have `role`. Can be used together with {getRoleMember} to enumerate all bearers of a role."
      },
      "grantRole(bytes32,address)": {
        "details": "Grants `role` to `account`. If `account` had not been already granted `role`, emits a {RoleGranted} event. Requirements: - the caller must have ``role``'s admin role. May emit a {RoleGranted} event."
      },
      "hasRole(bytes32,address)": {
        "details": "Returns `true` if `account` has been granted `role`."
      },
      "renounceRole(bytes32,address)": {
        "details": "Revokes `role` from the calling account. Roles are often managed via {grantRole} and {revokeRole}: this function's purpose is to provide a mechanism for accounts to lose their privileges if they are compromised (such as when a trusted device is misplaced). If the calling account had been revoked `role`, emits a {RoleRevoked} event. Requirements: - the caller must be `callerConfirmation`. May emit a {RoleRevoked} event."
      },
      "revokeRole(bytes32,address)": {
        "details": "Revokes `role` from `account`. If `account` had been granted `role`, emits a {RoleRevoked} event. Requirements: - the caller must have ``role``'s admin role. May emit a {RoleRevoked} event."
      },
      "supportsInterface(bytes4)": {
        "details": "See {IERC165-supportsInterface}."
      }
    },
    "version": 1
  },
  "userdoc": {
    "kind": "user",
    "methods": {},
    "version": 1
  }
}