{
  "contractName": "Marketplace",
  "abi": [
    {
      "inputs": [
        {
          "internalType": "string",
          "name": "name_",
          "type": "string"
        },
        {
          "internalType": "string",
          "name": "imageSrc_",
          "type": "string"
        }
      ],
      "stateMutability": "nonpayable",
      "type": "constructor"
    },
    {
      "inputs": [
        {
          "internalType": "address",
          "name": "account",
          "type": "address"
        }
      ],
      "name": "AddressInsufficientBalance",
      "type": "error"
    },
    {
      "inputs": [],
      "name": "FailedInnerCall",
      "type": "error"
    },
    {
      "inputs": [
        {
          "internalType": "address",
          "name": "owner",
          "type": "address"
        }
      ],
      "name": "OwnableInvalidOwner",
      "type": "error"
    },
    {
      "inputs": [
        {
          "internalType": "address",
          "name": "account",
          "type": "address"
        }
      ],
      "name": "OwnableUnauthorizedAccount",
      "type": "error"
    },
    {
      "anonymous": false,
      "inputs": [
        {
          "indexed": true,
          "internalType": "address",
          "name": "previousOwner",
          "type": "address"
        },
        {
          "indexed": true,
          "internalType": "address",
          "name": "newOwner",
          "type": "address"
        }
      ],
      "name": "OwnershipTransferred",
      "type": "event"
    },
    {
      "inputs": [],
      "name": "imageSrc",
      "outputs": [
        {
          "internalType": "string",
          "name": "",
          "type": "string"
        }
      ],
      "stateMutability": "view",
      "type": "function",
      "constant": true
    },
    {
      "inputs": [],
      "name": "isOpen",
      "outputs": [
        {
          "internalType": "bool",
          "name": "",
          "type": "bool"
        }
      ],
      "stateMutability": "view",
      "type": "function",
      "constant": true
    },
    {
      "inputs": [
        {
          "internalType": "uint256",
          "name": "",
          "type": "uint256"
        }
      ],
      "name": "items",
      "outputs": [
        {
          "internalType": "uint256",
          "name": "id",
          "type": "uint256"
        },
        {
          "internalType": "address payable",
          "name": "seller",
          "type": "address"
        },
        {
          "internalType": "address",
          "name": "soldTo",
          "type": "address"
        },
        {
          "internalType": "string",
          "name": "name",
          "type": "string"
        },
        {
          "internalType": "string",
          "name": "imageSrc",
          "type": "string"
        },
        {
          "internalType": "uint256",
          "name": "price",
          "type": "uint256"
        },
        {
          "internalType": "bool",
          "name": "sold",
          "type": "bool"
        }
      ],
      "stateMutability": "view",
      "type": "function",
      "constant": true
    },
    {
      "inputs": [],
      "name": "name",
      "outputs": [
        {
          "internalType": "string",
          "name": "",
          "type": "string"
        }
      ],
      "stateMutability": "view",
      "type": "function",
      "constant": true
    },
    {
      "inputs": [],
      "name": "owner",
      "outputs": [
        {
          "internalType": "address",
          "name": "",
          "type": "address"
        }
      ],
      "stateMutability": "view",
      "type": "function",
      "constant": true
    },
    {
      "inputs": [],
      "name": "renounceOwnership",
      "outputs": [],
      "stateMutability": "nonpayable",
      "type": "function"
    },
    {
      "inputs": [
        {
          "internalType": "address",
          "name": "newOwner",
          "type": "address"
        }
      ],
      "name": "transferOwnership",
      "outputs": [],
      "stateMutability": "nonpayable",
      "type": "function"
    },
    {
      "inputs": [
        {
          "internalType": "string",
          "name": "name_",
          "type": "string"
        },
        {
          "internalType": "string",
          "name": "imageSrc_",
          "type": "string"
        },
        {
          "internalType": "uint256",
          "name": "price_",
          "type": "uint256"
        }
      ],
      "name": "addItem",
      "outputs": [],
      "stateMutability": "nonpayable",
      "type": "function"
    },
    {
      "inputs": [
        {
          "internalType": "uint256",
          "name": "id_",
          "type": "uint256"
        }
      ],
      "name": "purchaseItem",
      "outputs": [],
      "stateMutability": "payable",
      "type": "function",
      "payable": true
    },
    {
      "inputs": [
        {
          "internalType": "uint256",
          "name": "id_",
          "type": "uint256"
        }
      ],
      "name": "removeItem",
      "outputs": [],
      "stateMutability": "nonpayable",
      "type": "function"
    },
    {
      "inputs": [
        {
          "internalType": "uint256",
          "name": "id_",
          "type": "uint256"
        },
        {
          "internalType": "string",
          "name": "name_",
          "type": "string"
        },
        {
          "internalType": "string",
          "name": "imageSrc_",
          "type": "string"
        },
        {
          "internalType": "uint256",
          "name": "price_",
          "type": "uint256"
        }
      ],
      "name": "updateItem",
      "outputs": [],
      "stateMutability": "nonpayable",
      "type": "function"
    },
    {
      "inputs": [],
      "name": "getAllItems",
      "outputs": [
        {
          "components": [
            {
              "internalType": "uint256",
              "name": "id",
              "type": "uint256"
            },
            {
              "internalType": "address payable",
              "name": "seller",
              "type": "address"
            },
            {
              "internalType": "address",
              "name": "soldTo",
              "type": "address"
            },
            {
              "internalType": "string",
              "name": "name",
              "type": "string"
            },
            {
              "internalType": "string",
              "name": "imageSrc",
              "type": "string"
            },
            {
              "internalType": "uint256",
              "name": "price",
              "type": "uint256"
            },
            {
              "internalType": "bool",
              "name": "sold",
              "type": "bool"
            }
          ],
          "internalType": "struct Marketplace.Item[]",
          "name": "",
          "type": "tuple[]"
        }
      ],
      "stateMutability": "view",
      "type": "function",
      "constant": true
    },
    {
      "inputs": [
        {
          "internalType": "uint256",
          "name": "id_",
          "type": "uint256"
        }
      ],
      "name": "getItemById",
      "outputs": [
        {
          "components": [
            {
              "internalType": "uint256",
              "name": "id",
              "type": "uint256"
            },
            {
              "internalType": "address payable",
              "name": "seller",
              "type": "address"
            },
            {
              "internalType": "address",
              "name": "soldTo",
              "type": "address"
            },
            {
              "internalType": "string",
              "name": "name",
              "type": "string"
            },
            {
              "internalType": "string",
              "name": "imageSrc",
              "type": "string"
            },
            {
              "internalType": "uint256",
              "name": "price",
              "type": "uint256"
            },
            {
              "internalType": "bool",
              "name": "sold",
              "type": "bool"
            }
          ],
          "internalType": "struct Marketplace.Item",
          "name": "",
          "type": "tuple"
        }
      ],
      "stateMutability": "view",
      "type": "function",
      "constant": true
    },
    {
      "inputs": [
        {
          "internalType": "string",
          "name": "name_",
          "type": "string"
        }
      ],
      "name": "getItemByName",
      "outputs": [
        {
          "components": [
            {
              "internalType": "uint256",
              "name": "id",
              "type": "uint256"
            },
            {
              "internalType": "address payable",
              "name": "seller",
              "type": "address"
            },
            {
              "internalType": "address",
              "name": "soldTo",
              "type": "address"
            },
            {
              "internalType": "string",
              "name": "name",
              "type": "string"
            },
            {
              "internalType": "string",
              "name": "imageSrc",
              "type": "string"
            },
            {
              "internalType": "uint256",
              "name": "price",
              "type": "uint256"
            },
            {
              "internalType": "bool",
              "name": "sold",
              "type": "bool"
            }
          ],
          "internalType": "struct Marketplace.Item",
          "name": "",
          "type": "tuple"
        }
      ],
      "stateMutability": "view",
      "type": "function",
      "constant": true
    },
    {
      "inputs": [],
      "name": "close",
      "outputs": [],
      "stateMutability": "nonpayable",
      "type": "function"
    }
  ],
  "bytecode": "0x608060405234801562000010575f80fd5b5060405162002d7738038062002d7783398181016040528101906200003691906200035e565b620000466200011160201b60201c565b5f73ffffffffffffffffffffffffffffffffffffffff168173ffffffffffffffffffffffffffffffffffffffff1603620000b9575f6040517f1e4fbdf7000000000000000000000000000000000000000000000000000000008152600401620000b0919062000424565b60405180910390fd5b620000ca816200011860201b60201c565b508160039081620000dc919062000676565b508060049081620000ee919062000676565b50600160055f6101000a81548160ff02191690831515021790555050506200075a565b5f33905090565b5f805f9054906101000a900473ffffffffffffffffffffffffffffffffffffffff169050815f806101000a81548173ffffffffffffffffffffffffffffffffffffffff021916908373ffffffffffffffffffffffffffffffffffffffff1602179055508173ffffffffffffffffffffffffffffffffffffffff168173ffffffffffffffffffffffffffffffffffffffff167f8be0079c531659141344cd1fd0a4f28419497f9722a3daafe3b4186f6b6457e060405160405180910390a35050565b5f604051905090565b5f80fd5b5f80fd5b5f80fd5b5f80fd5b5f601f19601f8301169050919050565b7f4e487b71000000000000000000000000000000000000000000000000000000005f52604160045260245ffd5b6200023a82620001f2565b810181811067ffffffffffffffff821117156200025c576200025b62000202565b5b80604052505050565b5f62000270620001d9565b90506200027e82826200022f565b919050565b5f67ffffffffffffffff821115620002a0576200029f62000202565b5b620002ab82620001f2565b9050602081019050919050565b5f5b83811015620002d7578082015181840152602081019050620002ba565b5f8484015250505050565b5f620002f8620002f28462000283565b62000265565b905082815260208101848484011115620003175762000316620001ee565b5b62000324848285620002b8565b509392505050565b5f82601f830112620003435762000342620001ea565b5b815162000355848260208601620002e2565b91505092915050565b5f8060408385031215620003775762000376620001e2565b5b5f83015167ffffffffffffffff811115620003975762000396620001e6565b5b620003a5858286016200032c565b925050602083015167ffffffffffffffff811115620003c957620003c8620001e6565b5b620003d7858286016200032c565b9150509250929050565b5f73ffffffffffffffffffffffffffffffffffffffff82169050919050565b5f6200040c82620003e1565b9050919050565b6200041e8162000400565b82525050565b5f602082019050620004395f83018462000413565b92915050565b5f81519050919050565b7f4e487b71000000000000000000000000000000000000000000000000000000005f52602260045260245ffd5b5f60028204905060018216806200048e57607f821691505b602082108103620004a457620004a362000449565b5b50919050565b5f819050815f5260205f209050919050565b5f6020601f8301049050919050565b5f82821b905092915050565b5f60088302620005087fffffffffffffffffffffffffffffffffffffffffffffffffffffffffffffffff82620004cb565b620005148683620004cb565b95508019841693508086168417925050509392505050565b5f819050919050565b5f819050919050565b5f6200055e6200055862000552846200052c565b62000535565b6200052c565b9050919050565b5f819050919050565b62000579836200053e565b62000591620005888262000565565b848454620004d7565b825550505050565b5f90565b620005a762000599565b620005b48184846200056e565b505050565b5b81811015620005db57620005cf5f826200059d565b600181019050620005ba565b5050565b601f8211156200062a57620005f481620004aa565b620005ff84620004bc565b810160208510156200060f578190505b620006276200061e85620004bc565b830182620005b9565b50505b505050565b5f82821c905092915050565b5f6200064c5f19846008026200062f565b1980831691505092915050565b5f6200066683836200063b565b9150826002028217905092915050565b62000681826200043f565b67ffffffffffffffff8111156200069d576200069c62000202565b5b620006a9825462000476565b620006b6828285620005df565b5f60209050601f831160018114620006ec575f8415620006d7578287015190505b620006e3858262000659565b86555062000752565b601f198416620006fc86620004aa565b5f5b828110156200072557848901518255600182019150602085019450602081019050620006fe565b8683101562000745578489015162000741601f8916826200063b565b8355505b6001600288020188555050505b505050505050565b61260f80620007685f395ff3fe6080604052600436106100e7575f3560e01c8063715018a611610089578063cd2f071011610058578063cd2f0710146102a3578063d38ea5bf146102df578063f2fde38b146102fb578063f7d85c0514610323576100e7565b8063715018a6146101f75780638da5cb5b1461020d578063bf46546514610237578063bfb231d214610261576100e7565b806347535d7b116100c557806347535d7b146101535780634ba1d6aa1461017d57806364432eb8146101a757806371329171146101cf576100e7565b806306a6034f146100eb57806306fdde031461011357806343d726d61461013d575b5f80fd5b3480156100f6575f80fd5b50610111600480360381019061010c91906118d6565b61035f565b005b34801561011e575f80fd5b50610127610431565b60405161013491906119ec565b60405180910390f35b348015610148575f80fd5b506101516104bd565b005b34801561015e575f80fd5b50610167610527565b6040516101749190611a26565b60405180910390f35b348015610188575f80fd5b50610191610539565b60405161019e9190611c5f565b60405180910390f35b3480156101b2575f80fd5b506101cd60048036038101906101c89190611c7f565b6107f5565b005b3480156101da575f80fd5b506101f560048036038101906101f09190611d07565b610982565b005b348015610202575f80fd5b5061020b610aad565b005b348015610218575f80fd5b50610221610ac0565b60405161022e9190611d41565b60405180910390f35b348015610242575f80fd5b5061024b610ae7565b60405161025891906119ec565b60405180910390f35b34801561026c575f80fd5b5061028760048036038101906102829190611d07565b610b73565b60405161029a9796959493929190611d78565b60405180910390f35b3480156102ae575f80fd5b506102c960048036038101906102c49190611d07565b610d07565b6040516102d69190611e93565b60405180910390f35b6102f960048036038101906102f49190611d07565b610f29565b005b348015610306575f80fd5b50610321600480360381019061031c9190611edd565b61109c565b005b34801561032e575f80fd5b5061034960048036038101906103449190611f08565b611120565b6040516103569190611e93565b60405180910390f35b61036761140c565b835f60015f8381526020019081526020015f205f0154141580156103a9575060015f8281526020019081526020015f206006015f9054906101000a900460ff16155b6103e8576040517f08c379a00000000000000000000000000000000000000000000000000000000081526004016103df90611f99565b60405180910390fd5b5f60015f8781526020019081526020015f2090508481600301908161040d91906121b1565b508381600401908161041f91906121b1565b50828160050181905550505050505050565b6003805461043e90611fe4565b80601f016020809104026020016040519081016040528092919081815260200182805461046a90611fe4565b80156104b55780601f1061048c576101008083540402835291602001916104b5565b820191905f5260205f20905b81548152906001019060200180831161049857829003601f168201915b505050505081565b6104c561140c565b6104cd611493565b61050c576040517f08c379a0000000000000000000000000000000000000000000000000000000008152600401610503906122f0565b60405180910390fd5b5f60055f6101000a81548160ff021916908315150217905550565b60055f9054906101000a900460ff1681565b60605f60025467ffffffffffffffff811115610558576105576117b2565b5b60405190808252806020026020018201604052801561059157816020015b61057e611698565b8152602001906001900390816105765790505b5090505f600190505b60025481116107ed5760015f8281526020019081526020015f206040518060e00160405290815f8201548152602001600182015f9054906101000a900473ffffffffffffffffffffffffffffffffffffffff1673ffffffffffffffffffffffffffffffffffffffff1673ffffffffffffffffffffffffffffffffffffffff168152602001600282015f9054906101000a900473ffffffffffffffffffffffffffffffffffffffff1673ffffffffffffffffffffffffffffffffffffffff1673ffffffffffffffffffffffffffffffffffffffff16815260200160038201805461068290611fe4565b80601f01602080910402602001604051908101604052809291908181526020018280546106ae90611fe4565b80156106f95780601f106106d0576101008083540402835291602001916106f9565b820191905f5260205f20905b8154815290600101906020018083116106dc57829003601f168201915b5050505050815260200160048201805461071290611fe4565b80601f016020809104026020016040519081016040528092919081815260200182805461073e90611fe4565b80156107895780601f1061076057610100808354040283529160200191610789565b820191905f5260205f20905b81548152906001019060200180831161076c57829003601f168201915b5050505050815260200160058201548152602001600682015f9054906101000a900460ff161515151581525050826001836107c4919061233b565b815181106107d5576107d461236e565b5b6020026020010181905250808060010191505061059a565b508091505090565b6107fd61140c565b60025f81548092919061080f9061239b565b91905055506040518060e00160405280600254815260200161082f6114e7565b73ffffffffffffffffffffffffffffffffffffffff1681526020015f73ffffffffffffffffffffffffffffffffffffffff1681526020018481526020018381526020018281526020015f151581525060015f60025481526020019081526020015f205f820151815f01556020820151816001015f6101000a81548173ffffffffffffffffffffffffffffffffffffffff021916908373ffffffffffffffffffffffffffffffffffffffff1602179055506040820151816002015f6101000a81548173ffffffffffffffffffffffffffffffffffffffff021916908373ffffffffffffffffffffffffffffffffffffffff160217905550606082015181600301908161093a91906121b1565b50608082015181600401908161095091906121b1565b5060a0820151816005015560c0820151816006015f6101000a81548160ff021916908315150217905550905050505050565b61098a61140c565b805f60015f8381526020019081526020015f205f0154141580156109cc575060015f8281526020019081526020015f206006015f9054906101000a900460ff16155b610a0b576040517f08c379a0000000000000000000000000000000000000000000000000000000008152600401610a0290611f99565b60405180910390fd5b60015f8381526020019081526020015f205f8082015f9055600182015f6101000a81549073ffffffffffffffffffffffffffffffffffffffff0219169055600282015f6101000a81549073ffffffffffffffffffffffffffffffffffffffff0219169055600382015f610a7e91906116fe565b600482015f610a8d91906116fe565b600582015f9055600682015f6101000a81549060ff021916905550505050565b610ab561140c565b610abe5f6114ee565b565b5f805f9054906101000a900473ffffffffffffffffffffffffffffffffffffffff16905090565b60048054610af490611fe4565b80601f0160208091040260200160405190810160405280929190818152602001828054610b2090611fe4565b8015610b6b5780601f10610b4257610100808354040283529160200191610b6b565b820191905f5260205f20905b815481529060010190602001808311610b4e57829003601f168201915b505050505081565b6001602052805f5260405f205f91509050805f015490806001015f9054906101000a900473ffffffffffffffffffffffffffffffffffffffff1690806002015f9054906101000a900473ffffffffffffffffffffffffffffffffffffffff1690806003018054610be290611fe4565b80601f0160208091040260200160405190810160405280929190818152602001828054610c0e90611fe4565b8015610c595780601f10610c3057610100808354040283529160200191610c59565b820191905f5260205f20905b815481529060010190602001808311610c3c57829003601f168201915b505050505090806004018054610c6e90611fe4565b80601f0160208091040260200160405190810160405280929190818152602001828054610c9a90611fe4565b8015610ce55780601f10610cbc57610100808354040283529160200191610ce5565b820191905f5260205f20905b815481529060010190602001808311610cc857829003601f168201915b505050505090806005015490806006015f9054906101000a900460ff16905087565b610d0f611698565b60015f8381526020019081526020015f206040518060e00160405290815f8201548152602001600182015f9054906101000a900473ffffffffffffffffffffffffffffffffffffffff1673ffffffffffffffffffffffffffffffffffffffff1673ffffffffffffffffffffffffffffffffffffffff168152602001600282015f9054906101000a900473ffffffffffffffffffffffffffffffffffffffff1673ffffffffffffffffffffffffffffffffffffffff1673ffffffffffffffffffffffffffffffffffffffff168152602001600382018054610dee90611fe4565b80601f0160208091040260200160405190810160405280929190818152602001828054610e1a90611fe4565b8015610e655780601f10610e3c57610100808354040283529160200191610e65565b820191905f5260205f20905b815481529060010190602001808311610e4857829003601f168201915b50505050508152602001600482018054610e7e90611fe4565b80601f0160208091040260200160405190810160405280929190818152602001828054610eaa90611fe4565b8015610ef55780601f10610ecc57610100808354040283529160200191610ef5565b820191905f5260205f20905b815481529060010190602001808311610ed857829003601f168201915b5050505050815260200160058201548152602001600682015f9054906101000a900460ff1615151515815250509050919050565b805f60015f8381526020019081526020015f205f015414158015610f6b575060015f8281526020019081526020015f206006015f9054906101000a900460ff16155b610faa576040517f08c379a0000000000000000000000000000000000000000000000000000000008152600401610fa190611f99565b60405180910390fd5b5f60015f8481526020019081526020015f2090508060050154341015611005576040517f08c379a0000000000000000000000000000000000000000000000000000000008152600401610ffc9061242c565b60405180910390fd5b611032816001015f9054906101000a900473ffffffffffffffffffffffffffffffffffffffff16346115af565b6001816006015f6101000a81548160ff0219169083151502179055506110566114e7565b816002015f6101000a81548173ffffffffffffffffffffffffffffffffffffffff021916908373ffffffffffffffffffffffffffffffffffffffff160217905550505050565b6110a461140c565b5f73ffffffffffffffffffffffffffffffffffffffff168173ffffffffffffffffffffffffffffffffffffffff1603611114575f6040517f1e4fbdf700000000000000000000000000000000000000000000000000000000815260040161110b9190611d41565b60405180910390fd5b61111d816114ee565b50565b611128611698565b5f600190505b60025481116113cb57826040516020016111489190612484565b6040516020818303038152906040528051906020012060015f8381526020019081526020015f20600301604051602001611182919061251a565b60405160208183030381529060405280519060200120036113b85760015f8281526020019081526020015f206040518060e00160405290815f8201548152602001600182015f9054906101000a900473ffffffffffffffffffffffffffffffffffffffff1673ffffffffffffffffffffffffffffffffffffffff1673ffffffffffffffffffffffffffffffffffffffff168152602001600282015f9054906101000a900473ffffffffffffffffffffffffffffffffffffffff1673ffffffffffffffffffffffffffffffffffffffff1673ffffffffffffffffffffffffffffffffffffffff16815260200160038201805461127c90611fe4565b80601f01602080910402602001604051908101604052809291908181526020018280546112a890611fe4565b80156112f35780601f106112ca576101008083540402835291602001916112f3565b820191905f5260205f20905b8154815290600101906020018083116112d657829003601f168201915b5050505050815260200160048201805461130c90611fe4565b80601f016020809104026020016040519081016040528092919081815260200182805461133890611fe4565b80156113835780601f1061135a57610100808354040283529160200191611383565b820191905f5260205f20905b81548152906001019060200180831161136657829003601f168201915b5050505050815260200160058201548152602001600682015f9054906101000a900460ff161515151581525050915050611407565b80806113c39061239b565b91505061112e565b506040517f08c379a00000000000000000000000000000000000000000000000000000000081526004016113fe9061257a565b60405180910390fd5b919050565b6114146114e7565b73ffffffffffffffffffffffffffffffffffffffff16611432610ac0565b73ffffffffffffffffffffffffffffffffffffffff1614611491576114556114e7565b6040517f118cdaa70000000000000000000000000000000000000000000000000000000081526004016114889190611d41565b60405180910390fd5b565b5f80600190505b60025481116114de5760015f8281526020019081526020015f206006015f9054906101000a900460ff166114d1575f9150506114e4565b808060010191505061149a565b50600190505b90565b5f33905090565b5f805f9054906101000a900473ffffffffffffffffffffffffffffffffffffffff169050815f806101000a81548173ffffffffffffffffffffffffffffffffffffffff021916908373ffffffffffffffffffffffffffffffffffffffff1602179055508173ffffffffffffffffffffffffffffffffffffffff168173ffffffffffffffffffffffffffffffffffffffff167f8be0079c531659141344cd1fd0a4f28419497f9722a3daafe3b4186f6b6457e060405160405180910390a35050565b804710156115f457306040517fcd7860590000000000000000000000000000000000000000000000000000000081526004016115eb9190611d41565b60405180910390fd5b5f8273ffffffffffffffffffffffffffffffffffffffff1682604051611619906125c5565b5f6040518083038185875af1925050503d805f8114611653576040519150601f19603f3d011682016040523d82523d5f602084013e611658565b606091505b5050905080611693576040517f1425ea4200000000000000000000000000000000000000000000000000000000815260040160405180910390fd5b505050565b6040518060e001604052805f81526020015f73ffffffffffffffffffffffffffffffffffffffff1681526020015f73ffffffffffffffffffffffffffffffffffffffff16815260200160608152602001606081526020015f81526020015f151581525090565b50805461170a90611fe4565b5f825580601f1061171b5750611738565b601f0160209004905f5260205f2090810190611737919061173b565b5b50565b5b80821115611752575f815f90555060010161173c565b5090565b5f604051905090565b5f80fd5b5f80fd5b5f819050919050565b61177981611767565b8114611783575f80fd5b50565b5f8135905061179481611770565b92915050565b5f80fd5b5f80fd5b5f601f19601f8301169050919050565b7f4e487b71000000000000000000000000000000000000000000000000000000005f52604160045260245ffd5b6117e8826117a2565b810181811067ffffffffffffffff82111715611807576118066117b2565b5b80604052505050565b5f611819611756565b905061182582826117df565b919050565b5f67ffffffffffffffff821115611844576118436117b2565b5b61184d826117a2565b9050602081019050919050565b828183375f83830152505050565b5f61187a6118758461182a565b611810565b9050828152602081018484840111156118965761189561179e565b5b6118a184828561185a565b509392505050565b5f82601f8301126118bd576118bc61179a565b5b81356118cd848260208601611868565b91505092915050565b5f805f80608085870312156118ee576118ed61175f565b5b5f6118fb87828801611786565b945050602085013567ffffffffffffffff81111561191c5761191b611763565b5b611928878288016118a9565b935050604085013567ffffffffffffffff81111561194957611948611763565b5b611955878288016118a9565b925050606061196687828801611786565b91505092959194509250565b5f81519050919050565b5f82825260208201905092915050565b5f5b838110156119a957808201518184015260208101905061198e565b5f8484015250505050565b5f6119be82611972565b6119c8818561197c565b93506119d881856020860161198c565b6119e1816117a2565b840191505092915050565b5f6020820190508181035f830152611a0481846119b4565b905092915050565b5f8115159050919050565b611a2081611a0c565b82525050565b5f602082019050611a395f830184611a17565b92915050565b5f81519050919050565b5f82825260208201905092915050565b5f819050602082019050919050565b611a7181611767565b82525050565b5f73ffffffffffffffffffffffffffffffffffffffff82169050919050565b5f611aa082611a77565b9050919050565b611ab081611a96565b82525050565b5f611ac082611a77565b9050919050565b611ad081611ab6565b82525050565b5f82825260208201905092915050565b5f611af082611972565b611afa8185611ad6565b9350611b0a81856020860161198c565b611b13816117a2565b840191505092915050565b611b2781611a0c565b82525050565b5f60e083015f830151611b425f860182611a68565b506020830151611b556020860182611aa7565b506040830151611b686040860182611ac7565b5060608301518482036060860152611b808282611ae6565b91505060808301518482036080860152611b9a8282611ae6565b91505060a0830151611baf60a0860182611a68565b5060c0830151611bc260c0860182611b1e565b508091505092915050565b5f611bd88383611b2d565b905092915050565b5f602082019050919050565b5f611bf682611a3f565b611c008185611a49565b935083602082028501611c1285611a59565b805f5b85811015611c4d5784840389528151611c2e8582611bcd565b9450611c3983611be0565b925060208a01995050600181019050611c15565b50829750879550505050505092915050565b5f6020820190508181035f830152611c778184611bec565b905092915050565b5f805f60608486031215611c9657611c9561175f565b5b5f84013567ffffffffffffffff811115611cb357611cb2611763565b5b611cbf868287016118a9565b935050602084013567ffffffffffffffff811115611ce057611cdf611763565b5b611cec868287016118a9565b9250506040611cfd86828701611786565b9150509250925092565b5f60208284031215611d1c57611d1b61175f565b5b5f611d2984828501611786565b91505092915050565b611d3b81611ab6565b82525050565b5f602082019050611d545f830184611d32565b92915050565b611d6381611767565b82525050565b611d7281611a96565b82525050565b5f60e082019050611d8b5f83018a611d5a565b611d986020830189611d69565b611da56040830188611d32565b8181036060830152611db781876119b4565b90508181036080830152611dcb81866119b4565b9050611dda60a0830185611d5a565b611de760c0830184611a17565b98975050505050505050565b5f60e083015f830151611e085f860182611a68565b506020830151611e1b6020860182611aa7565b506040830151611e2e6040860182611ac7565b5060608301518482036060860152611e468282611ae6565b91505060808301518482036080860152611e608282611ae6565b91505060a0830151611e7560a0860182611a68565b5060c0830151611e8860c0860182611b1e565b508091505092915050565b5f6020820190508181035f830152611eab8184611df3565b905092915050565b611ebc81611ab6565b8114611ec6575f80fd5b50565b5f81359050611ed781611eb3565b92915050565b5f60208284031215611ef257611ef161175f565b5b5f611eff84828501611ec9565b91505092915050565b5f60208284031215611f1d57611f1c61175f565b5b5f82013567ffffffffffffffff811115611f3a57611f39611763565b5b611f46848285016118a9565b91505092915050565b7f4974656d206e6f7420617661696c61626c652e000000000000000000000000005f82015250565b5f611f8360138361197c565b9150611f8e82611f4f565b602082019050919050565b5f6020820190508181035f830152611fb081611f77565b9050919050565b7f4e487b71000000000000000000000000000000000000000000000000000000005f52602260045260245ffd5b5f6002820490506001821680611ffb57607f821691505b60208210810361200e5761200d611fb7565b5b50919050565b5f819050815f5260205f209050919050565b5f6020601f8301049050919050565b5f82821b905092915050565b5f600883026120707fffffffffffffffffffffffffffffffffffffffffffffffffffffffffffffffff82612035565b61207a8683612035565b95508019841693508086168417925050509392505050565b5f819050919050565b5f6120b56120b06120ab84611767565b612092565b611767565b9050919050565b5f819050919050565b6120ce8361209b565b6120e26120da826120bc565b848454612041565b825550505050565b5f90565b6120f66120ea565b6121018184846120c5565b505050565b5b81811015612124576121195f826120ee565b600181019050612107565b5050565b601f8211156121695761213a81612014565b61214384612026565b81016020851015612152578190505b61216661215e85612026565b830182612106565b50505b505050565b5f82821c905092915050565b5f6121895f198460080261216e565b1980831691505092915050565b5f6121a1838361217a565b9150826002028217905092915050565b6121ba82611972565b67ffffffffffffffff8111156121d3576121d26117b2565b5b6121dd8254611fe4565b6121e8828285612128565b5f60209050601f831160018114612219575f8415612207578287015190505b6122118582612196565b865550612278565b601f19841661222786612014565b5f5b8281101561224e57848901518255600182019150602085019450602081019050612229565b8683101561226b5784890151612267601f89168261217a565b8355505b6001600288020188555050505b505050505050565b7f4e6f7420616c6c206974656d7320696e2074686973206d61726b6574706c61635f8201527f652068617665206265656e20736f6c642e000000000000000000000000000000602082015250565b5f6122da60318361197c565b91506122e582612280565b604082019050919050565b5f6020820190508181035f830152612307816122ce565b9050919050565b7f4e487b71000000000000000000000000000000000000000000000000000000005f52601160045260245ffd5b5f61234582611767565b915061235083611767565b92508282039050818111156123685761236761230e565b5b92915050565b7f4e487b71000000000000000000000000000000000000000000000000000000005f52603260045260245ffd5b5f6123a582611767565b91507fffffffffffffffffffffffffffffffffffffffffffffffffffffffffffffffff82036123d7576123d661230e565b5b600182019050919050565b7f4e6f7420656e6f7567682045746865722070726f76696465642e0000000000005f82015250565b5f612416601a8361197c565b9150612421826123e2565b602082019050919050565b5f6020820190508181035f8301526124438161240a565b9050919050565b5f81905092915050565b5f61245e82611972565b612468818561244a565b935061247881856020860161198c565b80840191505092915050565b5f61248f8284612454565b915081905092915050565b5f81546124a681611fe4565b6124b0818661244a565b9450600182165f81146124ca57600181146124df57612511565b60ff1983168652811515820286019350612511565b6124e885612014565b5f5b83811015612509578154818901526001820191506020810190506124ea565b838801955050505b50505092915050565b5f612525828461249a565b915081905092915050565b7f4974656d206e6f7420666f756e642e00000000000000000000000000000000005f82015250565b5f612564600f8361197c565b915061256f82612530565b602082019050919050565b5f6020820190508181035f83015261259181612558565b9050919050565b5f81905092915050565b50565b5f6125b05f83612598565b91506125bb826125a2565b5f82019050919050565b5f6125cf826125a5565b915081905091905056fea26469706673582212208248cb2b4bafa1521b4acb7a96029fd8538fc26aad52abf74c8cd1c5c4c3c48464736f6c63430008150033",
  "immutableReferences": {},
  "source": "// SPDX-License-Identifier: MIT\npragma solidity ^0.8.20;\n\nimport \"@openzeppelin/contracts/access/Ownable.sol\";\nimport \"@openzeppelin/contracts/utils/Address.sol\";\n\ncontract Marketplace is Ownable {\n    mapping(uint => Item) public items;\n    uint private itemCount;\n    string public name;\n    string public imageSrc;\n    bool public isOpen; //private?\n    \n    struct Item {\n        uint id; // id required?\n        address payable seller;\n        address soldTo;\n        string name;\n        string imageSrc;\n        uint price;\n        bool sold;\n        // description?\n    }\n\n    // EVENTS!!!!\n    // transfer ownership of marketplace possible??\n\n    modifier itemAvailable(uint id_) {\n        require(items[id_].id != 0 && !items[id_].sold, \"Item not available.\");\n        _;\n    }\n\n    constructor(string memory name_, string memory imageSrc_) Ownable(_msgSender()) {\n        name = name_;\n        imageSrc = imageSrc_;\n        isOpen = true;\n    }\n\n    function addItem(string memory name_, string memory imageSrc_, uint price_) public onlyOwner {\n        itemCount++;\n        items[itemCount] = Item(\n            itemCount,\n            payable(_msgSender()),\n            address(0),\n            name_,\n            imageSrc_,\n            price_,\n            false\n        );\n    }\n\n    // TODO: request purchase!\n    function purchaseItem(uint id_) public payable itemAvailable(id_) {\n        Item storage item = items[id_];\n        require(msg.value >= item.price, \"Not enough Ether provided.\");\n        Address.sendValue(item.seller, msg.value);\n        item.sold = true;\n        item.soldTo = _msgSender();\n    }\n\n    function removeItem(uint id_) public onlyOwner itemAvailable(id_) {\n        delete items[id_];\n    }\n\n    function updateItem(uint id_, string memory name_, string memory imageSrc_,uint price_) public onlyOwner itemAvailable(id_) {\n        Item storage item = items[id_];\n        item.name = name_;\n        item.imageSrc = imageSrc_;\n        item.price = price_;\n    }\n\n    function getAllItems() public view returns (Item[] memory) {\n        Item[] memory _items = new Item[](itemCount);\n        for (uint i = 1; i <= itemCount;) {\n            _items[i - 1] = items[i];\n            unchecked { i++; }\n        }\n        return _items;\n    }\n\n    function getItemById(uint id_) public view returns (Item memory) {\n        return items[id_];\n    }\n\n    // not case-insensitive\n    function getItemByName(string memory name_) public view returns (Item memory) {\n        for (uint i = 1; i <= itemCount; i++) {\n            if (keccak256(abi.encodePacked(items[i].name)) == keccak256(abi.encodePacked(name_))) {\n                return items[i];\n            }\n        }\n        revert(\"Item not found.\");\n    }\n    // helper function for case-insensitive search\n    function toLowerCase(string memory str) internal pure returns (string memory) {\n    bytes memory bStr = bytes(str);\n    bytes memory bLower = new bytes(bStr.length);\n    for (uint i = 0; i < bStr.length; i++) {\n        // Uppercase character ASCII range 65 to 90\n        if ((uint8(bStr[i]) >= 65) && (uint8(bStr[i]) <= 90)) {\n            // Convert to lowercase by adding 32 to ASCII value\n            bLower[i] = bytes1(uint8(bStr[i]) + 32);\n        } else {\n            bLower[i] = bStr[i];\n        }\n    }\n    return string(bLower);\n}\n\n    // TODO: check if market is open on all functions\n    function close() public onlyOwner {\n        // required when MarketplaceRegistry.sol is implemented???\n        require(\n            allItemsSold(),\n            \"Not all items in this marketplace have been sold.\"\n        );\n        isOpen = false;\n    }\n\n    function allItemsSold() internal view returns (bool) {\n        for (uint i = 1; i <= itemCount;) {\n            if (!items[i].sold) {\n                return false;\n            }\n            unchecked { i++; }\n        }\n        return true;\n    }\n}\n",
  "sourcePath": "/workspaces/blockchain-gaming-marketplace-contract/contracts/Marketplace.sol",
  "compiler": {
    "name": "solc",
    "version": "0.8.21+commit.d9974bed.Emscripten.clang"
  },
  "schemaVersion": "3.4.16",
  "updatedAt": "2024-01-30T16:56:48.963Z",
  "networkType": "ethereum",
  "devdoc": {
    "errors": {
      "AddressInsufficientBalance(address)": [
        {
          "details": "The ETH balance of the account is not enough to perform the operation."
        }
      ],
      "FailedInnerCall()": [
        {
          "details": "A call to an address target failed. The target may have reverted."
        }
      ],
      "OwnableInvalidOwner(address)": [
        {
          "details": "The owner is not a valid owner account. (eg. `address(0)`)"
        }
      ],
      "OwnableUnauthorizedAccount(address)": [
        {
          "details": "The caller account is not authorized to perform an operation."
        }
      ]
    },
    "kind": "dev",
    "methods": {
      "owner()": {
        "details": "Returns the address of the current owner."
      },
      "renounceOwnership()": {
        "details": "Leaves the contract without owner. It will not be possible to call `onlyOwner` functions. Can only be called by the current owner. NOTE: Renouncing ownership will leave the contract without an owner, thereby disabling any functionality that is only available to the owner."
      },
      "transferOwnership(address)": {
        "details": "Transfers ownership of the contract to a new account (`newOwner`). Can only be called by the current owner."
      }
    },
    "version": 1
  },
  "userdoc": {
    "kind": "user",
    "methods": {},
    "version": 1
  }
}