{
  "contractName": "MarketplaceFactory",
  "abi": [
    {
      "anonymous": false,
      "inputs": [
        {
          "indexed": true,
          "internalType": "address",
          "name": "owner",
          "type": "address"
        },
        {
          "indexed": true,
          "internalType": "address",
          "name": "marketplaceAddress",
          "type": "address"
        }
      ],
      "name": "MarketplaceCreated",
      "type": "event"
    },
    {
      "anonymous": false,
      "inputs": [
        {
          "indexed": false,
          "internalType": "address",
          "name": "sender",
          "type": "address"
        },
        {
          "indexed": false,
          "internalType": "uint256",
          "name": "amount",
          "type": "uint256"
        }
      ],
      "name": "Received",
      "type": "event"
    },
    {
      "inputs": [
        {
          "internalType": "address",
          "name": "",
          "type": "address"
        },
        {
          "internalType": "uint256",
          "name": "",
          "type": "uint256"
        }
      ],
      "name": "marketplaceToOwner",
      "outputs": [
        {
          "internalType": "address",
          "name": "",
          "type": "address"
        }
      ],
      "stateMutability": "view",
      "type": "function",
      "constant": true
    },
    {
      "inputs": [
        {
          "internalType": "uint256",
          "name": "",
          "type": "uint256"
        }
      ],
      "name": "marketplaces",
      "outputs": [
        {
          "internalType": "address",
          "name": "",
          "type": "address"
        }
      ],
      "stateMutability": "view",
      "type": "function",
      "constant": true
    },
    {
      "stateMutability": "payable",
      "type": "receive",
      "payable": true
    },
    {
      "inputs": [
        {
          "internalType": "address",
          "name": "buyer_",
          "type": "address"
        }
      ],
      "name": "getMarketplacesWithBoughtItems",
      "outputs": [
        {
          "internalType": "address[]",
          "name": "",
          "type": "address[]"
        }
      ],
      "stateMutability": "view",
      "type": "function",
      "constant": true
    },
    {
      "inputs": [
        {
          "internalType": "string",
          "name": "name_",
          "type": "string"
        },
        {
          "internalType": "string",
          "name": "imageSrc_",
          "type": "string"
        }
      ],
      "name": "createMarketplace",
      "outputs": [],
      "stateMutability": "nonpayable",
      "type": "function"
    },
    {
      "inputs": [
        {
          "internalType": "address",
          "name": "marketplaceAddress",
          "type": "address"
        }
      ],
      "name": "getMarketplaceByAddress",
      "outputs": [
        {
          "internalType": "contract Marketplace",
          "name": "",
          "type": "address"
        }
      ],
      "stateMutability": "view",
      "type": "function",
      "constant": true
    },
    {
      "inputs": [
        {
          "internalType": "address",
          "name": "owner",
          "type": "address"
        }
      ],
      "name": "getMarketplacesByOwner",
      "outputs": [
        {
          "internalType": "address[]",
          "name": "",
          "type": "address[]"
        }
      ],
      "stateMutability": "view",
      "type": "function",
      "constant": true
    },
    {
      "inputs": [],
      "name": "getMarketplaces",
      "outputs": [
        {
          "internalType": "address[]",
          "name": "",
          "type": "address[]"
        }
      ],
      "stateMutability": "view",
      "type": "function",
      "constant": true
    },
    {
      "inputs": [
        {
          "internalType": "string",
          "name": "name_",
          "type": "string"
        }
      ],
      "name": "getMarketplacesByName",
      "outputs": [
        {
          "internalType": "address[]",
          "name": "",
          "type": "address[]"
        }
      ],
      "stateMutability": "view",
      "type": "function",
      "constant": true
    }
  ],
  "bytecode": "0x608060405234801561000f575f80fd5b50615f988061001d5f395ff3fe60806040526004361062000078575f3560e01c806308ffd96d14620000bf578063280ed6e414620001025780632b64deec14620001455780632d9b1160146200018857806355f8f86714620001b757806356ffb0c414620001fa57806380ec4f8e1462000227578063fee410fe146200026a57620000bb565b36620000bb577f88a5966d370b9919b20f3e2c13ff65706f196a4e32cc2c12bf57088f885258743334604051620000b192919062000e0a565b60405180910390a1005b5f80fd5b348015620000cb575f80fd5b50620000ea6004803603810190620000e4919062000e75565b620002ad565b604051620000f9919062000f0c565b60405180910390f35b3480156200010e575f80fd5b506200012d60048036038101906200012791906200107f565b62000396565b6040516200013c919062001195565b60405180910390f35b34801562000151575f80fd5b506200017060048036038101906200016a9190620011e6565b6200059b565b6040516200017f919062001216565b60405180910390f35b34801562000194575f80fd5b506200019f620005d6565b604051620001ae919062001195565b60405180910390f35b348015620001c3575f80fd5b50620001e26004803603810190620001dc919062000e75565b62000662565b604051620001f1919062001195565b60405180910390f35b34801562000206575f80fd5b506200022560048036038101906200021f919062001231565b6200072c565b005b34801562000233575f80fd5b506200025260048036038101906200024c919062000e75565b620008c2565b60405162000261919062001195565b60405180910390f35b34801562000276575f80fd5b506200029560048036038101906200028f9190620012b4565b62000aae565b604051620002a4919062001216565b60405180910390f35b5f8073ffffffffffffffffffffffffffffffffffffffff168273ffffffffffffffffffffffffffffffffffffffff1663893d20e86040518163ffffffff1660e01b8152600401602060405180830381865afa1580156200030f573d5f803e3d5ffd5b505050506040513d601f19601f820116820180604052508101906200033591906200130f565b73ffffffffffffffffffffffffffffffffffffffff16036200038e576040517f08c379a000000000000000000000000000000000000000000000000000000000815260040162000385906200139d565b60405180910390fd5b819050919050565b60605f620003a48362000af7565b90505f808054905090505f8167ffffffffffffffff811115620003cc57620003cb62000f3f565b5b604051908082528060200260200182016040528015620003fb5781602001602082028036833780820191505090505b5090505f805b838110156200058e575f620004535f8381548110620004255762000424620013bd565b5b905f5260205f20015f9054906101000a900473ffffffffffffffffffffffffffffffffffffffff16620002ad565b73ffffffffffffffffffffffffffffffffffffffff166306fdde036040518163ffffffff1660e01b81526004015f60405180830381865afa1580156200049b573d5f803e3d5ffd5b505050506040513d5f823e3d601f19601f82011682018060405250810190620004c5919062001490565b90505f620004d38262000af7565b9050620004e1818862000cc1565b156200057e575f8381548110620004fd57620004fc620013bd565b5b905f5260205f20015f9054906101000a900473ffffffffffffffffffffffffffffffffffffffff168585815181106200053b576200053a620013bd565b5b602002602001019073ffffffffffffffffffffffffffffffffffffffff16908173ffffffffffffffffffffffffffffffffffffffff168152505083806001019450505b8280600101935050505062000401565b5081945050505050919050565b5f8181548110620005aa575f80fd5b905f5260205f20015f915054906101000a900473ffffffffffffffffffffffffffffffffffffffff1681565b60605f8054806020026020016040519081016040528092919081815260200182805480156200065857602002820191905f5260205f20905b815f9054906101000a900473ffffffffffffffffffffffffffffffffffffffff1673ffffffffffffffffffffffffffffffffffffffff16815260200190600101908083116200060e575b5050505050905090565b606060015f8373ffffffffffffffffffffffffffffffffffffffff1673ffffffffffffffffffffffffffffffffffffffff1681526020019081526020015f208054806020026020016040519081016040528092919081815260200182805480156200072057602002820191905f5260205f20905b815f9054906101000a900473ffffffffffffffffffffffffffffffffffffffff1673ffffffffffffffffffffffffffffffffffffffff1681526020019060010190808311620006d6575b50505050509050919050565b5f3383836040516200073e9062000d9f565b6200074c9392919062001529565b604051809103905ff08015801562000766573d5f803e3d5ffd5b5090505f81908060018154018082558091505060019003905f5260205f20015f9091909190916101000a81548173ffffffffffffffffffffffffffffffffffffffff021916908373ffffffffffffffffffffffffffffffffffffffff16021790555060015f3373ffffffffffffffffffffffffffffffffffffffff1673ffffffffffffffffffffffffffffffffffffffff1681526020019081526020015f2081908060018154018082558091505060019003905f5260205f20015f9091909190916101000a81548173ffffffffffffffffffffffffffffffffffffffff021916908373ffffffffffffffffffffffffffffffffffffffff1602179055508073ffffffffffffffffffffffffffffffffffffffff163373ffffffffffffffffffffffffffffffffffffffff167f78010b8cae0062225520b4aa47329ab06c3e4b5797cd884ef8bc360f90ecce5860405160405180910390a3505050565b60605f808054905090505f8167ffffffffffffffff811115620008ea57620008e962000f3f565b5b604051908082528060200260200182016040528015620009195781602001602082028036833780820191505090505b5090505f805b8381101562000aa2575f620009715f8381548110620009435762000942620013bd565b5b905f5260205f20015f9054906101000a900473ffffffffffffffffffffffffffffffffffffffff16620002ad565b90505f8173ffffffffffffffffffffffffffffffffffffffff1663b7d53474896040518263ffffffff1660e01b8152600401620009af919062001216565b5f60405180830381865afa158015620009ca573d5f803e3d5ffd5b505050506040513d5f823e3d601f19601f82011682018060405250810190620009f49190620017eb565b51111562000a93575f828154811062000a125762000a11620013bd565b5b905f5260205f20015f9054906101000a900473ffffffffffffffffffffffffffffffffffffffff1684848151811062000a505762000a4f620013bd565b5b602002602001019073ffffffffffffffffffffffffffffffffffffffff16908173ffffffffffffffffffffffffffffffffffffffff168152505082806001019350505b8180600101925050506200091f565b50819350505050919050565b6001602052815f5260405f20818154811062000ac8575f80fd5b905f5260205f20015f915091509054906101000a900473ffffffffffffffffffffffffffffffffffffffff1681565b60605f8290505f815167ffffffffffffffff81111562000b1c5762000b1b62000f3f565b5b6040519080825280601f01601f19166020018201604052801562000b4f5781602001600182028036833780820191505090505b5090505f5b825181101562000cb657604183828151811062000b765762000b75620013bd565b5b602001015160f81c60f81b60f81c60ff161015801562000bbd5750605a83828151811062000ba95762000ba8620013bd565b5b602001015160f81c60f81b60f81c60ff1611155b1562000c4257602083828151811062000bdb5762000bda620013bd565b5b602001015160f81c60f81b60f81c62000bf5919062001873565b60f81b82828151811062000c0e5762000c0d620013bd565b5b60200101907effffffffffffffffffffffffffffffffffffffffffffffffffffffffffffff191690815f1a90535062000ca8565b82818151811062000c585762000c57620013bd565b5b602001015160f81c60f81b82828151811062000c795762000c78620013bd565b5b60200101907effffffffffffffffffffffffffffffffffffffffffffffffffffffffffffff191690815f1a9053505b808060010191505062000b54565b508092505050919050565b5f808390505f839050805182511462000cdf575f9250505062000d99565b5f5b825181101562000d915781818151811062000d015762000d00620013bd565b5b602001015160f81c60f81b7effffffffffffffffffffffffffffffffffffffffffffffffffffffffffffff191683828151811062000d445762000d43620013bd565b5b602001015160f81c60f81b7effffffffffffffffffffffffffffffffffffffffffffffffffffffffffffff19161462000d83575f935050505062000d99565b808060010191505062000ce1565b506001925050505b92915050565b6146b480620018af83390190565b5f73ffffffffffffffffffffffffffffffffffffffff82169050919050565b5f62000dd88262000dad565b9050919050565b62000dea8162000dcc565b82525050565b5f819050919050565b62000e048162000df0565b82525050565b5f60408201905062000e1f5f83018562000ddf565b62000e2e602083018462000df9565b9392505050565b5f604051905090565b5f80fd5b5f80fd5b62000e518162000dcc565b811462000e5c575f80fd5b50565b5f8135905062000e6f8162000e46565b92915050565b5f6020828403121562000e8d5762000e8c62000e3e565b5b5f62000e9c8482850162000e5f565b91505092915050565b5f819050919050565b5f62000ece62000ec862000ec28462000dad565b62000ea5565b62000dad565b9050919050565b5f62000ee18262000eae565b9050919050565b5f62000ef48262000ed5565b9050919050565b62000f068162000ee8565b82525050565b5f60208201905062000f215f83018462000efb565b92915050565b5f80fd5b5f80fd5b5f601f19601f8301169050919050565b7f4e487b71000000000000000000000000000000000000000000000000000000005f52604160045260245ffd5b62000f778262000f2f565b810181811067ffffffffffffffff8211171562000f995762000f9862000f3f565b5b80604052505050565b5f62000fad62000e35565b905062000fbb828262000f6c565b919050565b5f67ffffffffffffffff82111562000fdd5762000fdc62000f3f565b5b62000fe88262000f2f565b9050602081019050919050565b828183375f83830152505050565b5f62001019620010138462000fc0565b62000fa2565b90508281526020810184848401111562001038576200103762000f2b565b5b6200104584828562000ff5565b509392505050565b5f82601f83011262001064576200106362000f27565b5b81356200107684826020860162001003565b91505092915050565b5f6020828403121562001097576200109662000e3e565b5b5f82013567ffffffffffffffff811115620010b757620010b662000e42565b5b620010c5848285016200104d565b91505092915050565b5f81519050919050565b5f82825260208201905092915050565b5f819050602082019050919050565b620011028162000dcc565b82525050565b5f620011158383620010f7565b60208301905092915050565b5f602082019050919050565b5f6200113982620010ce565b620011458185620010d8565b93506200115283620010e8565b805f5b83811015620011885781516200116c888262001108565b9750620011798362001121565b92505060018101905062001155565b5085935050505092915050565b5f6020820190508181035f830152620011af81846200112d565b905092915050565b620011c28162000df0565b8114620011cd575f80fd5b50565b5f81359050620011e081620011b7565b92915050565b5f60208284031215620011fe57620011fd62000e3e565b5b5f6200120d84828501620011d0565b91505092915050565b5f6020820190506200122b5f83018462000ddf565b92915050565b5f80604083850312156200124a576200124962000e3e565b5b5f83013567ffffffffffffffff8111156200126a576200126962000e42565b5b62001278858286016200104d565b925050602083013567ffffffffffffffff8111156200129c576200129b62000e42565b5b620012aa858286016200104d565b9150509250929050565b5f8060408385031215620012cd57620012cc62000e3e565b5b5f620012dc8582860162000e5f565b9250506020620012ef85828601620011d0565b9150509250929050565b5f81519050620013098162000e46565b92915050565b5f6020828403121562001327576200132662000e3e565b5b5f6200133684828501620012f9565b91505092915050565b5f82825260208201905092915050565b7f4d61726b6574706c61636520646f6573206e6f742065786973740000000000005f82015250565b5f62001385601a836200133f565b915062001392826200134f565b602082019050919050565b5f6020820190508181035f830152620013b68162001377565b9050919050565b7f4e487b71000000000000000000000000000000000000000000000000000000005f52603260045260245ffd5b5f5b8381101562001409578082015181840152602081019050620013ec565b5f8484015250505050565b5f6200142a620014248462000fc0565b62000fa2565b90508281526020810184848401111562001449576200144862000f2b565b5b62001456848285620013ea565b509392505050565b5f82601f83011262001475576200147462000f27565b5b81516200148784826020860162001414565b91505092915050565b5f60208284031215620014a857620014a762000e3e565b5b5f82015167ffffffffffffffff811115620014c857620014c762000e42565b5b620014d6848285016200145e565b91505092915050565b5f81519050919050565b5f620014f582620014df565b6200150181856200133f565b935062001513818560208601620013ea565b6200151e8162000f2f565b840191505092915050565b5f6060820190506200153e5f83018662000ddf565b8181036020830152620015528185620014e9565b90508181036040830152620015688184620014e9565b9050949350505050565b5f67ffffffffffffffff8211156200158f576200158e62000f3f565b5b602082029050602081019050919050565b5f80fd5b5f80fd5b5f80fd5b5f81519050620015bc81620011b7565b92915050565b5f620015ce8262000dad565b9050919050565b620015e081620015c2565b8114620015eb575f80fd5b50565b5f81519050620015fe81620015d5565b92915050565b5f60e082840312156200161c576200161b620015a4565b5b6200162860e062000fa2565b90505f6200163984828501620015ac565b5f8301525060206200164e84828501620015ee565b60208301525060406200166484828501620012f9565b604083015250606082015167ffffffffffffffff8111156200168b576200168a620015a8565b5b62001699848285016200145e565b606083015250608082015167ffffffffffffffff811115620016c057620016bf620015a8565b5b620016ce848285016200145e565b60808301525060a082015167ffffffffffffffff811115620016f557620016f4620015a8565b5b62001703848285016200145e565b60a08301525060c06200171984828501620015ac565b60c08301525092915050565b5f6200173b620017358462001572565b62000fa2565b90508083825260208201905060208402830185811115620017615762001760620015a0565b5b835b81811015620017af57805167ffffffffffffffff8111156200178a576200178962000f27565b5b80860162001799898262001604565b8552602085019450505060208101905062001763565b5050509392505050565b5f82601f830112620017d057620017cf62000f27565b5b8151620017e284826020860162001725565b91505092915050565b5f6020828403121562001803576200180262000e3e565b5b5f82015167ffffffffffffffff81111562001823576200182262000e42565b5b6200183184828501620017b9565b91505092915050565b5f60ff82169050919050565b7f4e487b71000000000000000000000000000000000000000000000000000000005f52601160045260245ffd5b5f6200187f826200183a565b91506200188c836200183a565b9250828201905060ff811115620018a857620018a762001846565b5b9291505056fe608060405234801562000010575f80fd5b50604051620046b4380380620046b4833981810160405281019062000036919062000507565b8160049081620000479190620007d5565b508060059081620000599190620007d5565b506200006e5f801b846200009160201b60201c565b600160065f6101000a81548160ff021916908315150217905550505050620008b9565b620000a38282620000a860201b60201c565b505050565b5f80620000bc8484620000f660201b60201c565b90508015620000ec57620000ea8360015f8781526020019081526020015f20620001f160201b90919060201c565b505b8091505092915050565b5f6200010983836200022660201b60201c565b620001e75760015f808581526020019081526020015f205f015f8473ffffffffffffffffffffffffffffffffffffffff1673ffffffffffffffffffffffffffffffffffffffff1681526020019081526020015f205f6101000a81548160ff021916908315150217905550620001836200028960201b60201c565b73ffffffffffffffffffffffffffffffffffffffff168273ffffffffffffffffffffffffffffffffffffffff16847f2f8788117e7eff1d82e926ec794901d17c78024a50270940304540a733656f0d60405160405180910390a460019050620001eb565b5f90505b92915050565b5f6200021e835f018373ffffffffffffffffffffffffffffffffffffffff165f1b6200029060201b60201c565b905092915050565b5f805f8481526020019081526020015f205f015f8373ffffffffffffffffffffffffffffffffffffffff1673ffffffffffffffffffffffffffffffffffffffff1681526020019081526020015f205f9054906101000a900460ff16905092915050565b5f33905090565b5f620002a383836200030160201b60201c565b620002f757825f0182908060018154018082558091505060019003905f5260205f20015f9091909190915055825f0180549050836001015f8481526020019081526020015f208190555060019050620002fb565b5f90505b92915050565b5f80836001015f8481526020019081526020015f20541415905092915050565b5f604051905090565b5f80fd5b5f80fd5b5f73ffffffffffffffffffffffffffffffffffffffff82169050919050565b5f6200035d8262000332565b9050919050565b6200036f8162000351565b81146200037a575f80fd5b50565b5f815190506200038d8162000364565b92915050565b5f80fd5b5f80fd5b5f601f19601f8301169050919050565b7f4e487b71000000000000000000000000000000000000000000000000000000005f52604160045260245ffd5b620003e3826200039b565b810181811067ffffffffffffffff82111715620004055762000404620003ab565b5b80604052505050565b5f6200041962000321565b9050620004278282620003d8565b919050565b5f67ffffffffffffffff821115620004495762000448620003ab565b5b62000454826200039b565b9050602081019050919050565b5f5b838110156200048057808201518184015260208101905062000463565b5f8484015250505050565b5f620004a16200049b846200042c565b6200040e565b905082815260208101848484011115620004c057620004bf62000397565b5b620004cd84828562000461565b509392505050565b5f82601f830112620004ec57620004eb62000393565b5b8151620004fe8482602086016200048b565b91505092915050565b5f805f606084860312156200052157620005206200032a565b5b5f62000530868287016200037d565b935050602084015167ffffffffffffffff8111156200055457620005536200032e565b5b6200056286828701620004d5565b925050604084015167ffffffffffffffff8111156200058657620005856200032e565b5b6200059486828701620004d5565b9150509250925092565b5f81519050919050565b7f4e487b71000000000000000000000000000000000000000000000000000000005f52602260045260245ffd5b5f6002820490506001821680620005ed57607f821691505b602082108103620006035762000602620005a8565b5b50919050565b5f819050815f5260205f209050919050565b5f6020601f8301049050919050565b5f82821b905092915050565b5f60088302620006677fffffffffffffffffffffffffffffffffffffffffffffffffffffffffffffffff826200062a565b6200067386836200062a565b95508019841693508086168417925050509392505050565b5f819050919050565b5f819050919050565b5f620006bd620006b7620006b1846200068b565b62000694565b6200068b565b9050919050565b5f819050919050565b620006d8836200069d565b620006f0620006e782620006c4565b84845462000636565b825550505050565b5f90565b62000706620006f8565b62000713818484620006cd565b505050565b5b818110156200073a576200072e5f82620006fc565b60018101905062000719565b5050565b601f8211156200078957620007538162000609565b6200075e846200061b565b810160208510156200076e578190505b620007866200077d856200061b565b83018262000718565b50505b505050565b5f82821c905092915050565b5f620007ab5f19846008026200078e565b1980831691505092915050565b5f620007c583836200079a565b9150826002028217905092915050565b620007e0826200059e565b67ffffffffffffffff811115620007fc57620007fb620003ab565b5b620008088254620005d5565b620008158282856200073e565b5f60209050601f8311600181146200084b575f841562000836578287015190505b620008428582620007b8565b865550620008b1565b601f1984166200085b8662000609565b5f5b8281101562000884578489015182556001820191506020850194506020810190506200085d565b86831015620008a45784890151620008a0601f8916826200079a565b8355505b6001600288020188555050505b505050505050565b613ded80620008c75f395ff3fe608060405260043610610155575f3560e01c806391d14854116100c0578063b7d5347411610079578063b7d5347414610473578063bf465465146104af578063bfb231d2146104d9578063ca15c8731461051b578063cd2f071014610557578063d38ea5bf14610593578063d547741f146105af57610155565b806391d148541461036b57806393a12415146103a757806399e07caf146103d15780639d152618146103f9578063a0142e0014610421578063a217fddf1461044957610155565b806347535d7b1161011257806347535d7b146102615780634ba1d6aa1461028b5780636265db2f146102b557806371329171146102dd578063893d20e8146103055780639010d07c1461032f57610155565b806301ffc9a71461015957806306fdde0314610195578063248a9ca3146101bf5780632f2ff15d146101fb57806336568abe1461022357806343d726d61461024b575b5f80fd5b348015610164575f80fd5b5061017f600480360381019061017a9190612bf8565b6105d7565b60405161018c9190612c3d565b60405180910390f35b3480156101a0575f80fd5b506101a9610650565b6040516101b69190612ce0565b60405180910390f35b3480156101ca575f80fd5b506101e560048036038101906101e09190612d33565b6106dc565b6040516101f29190612d6d565b60405180910390f35b348015610206575f80fd5b50610221600480360381019061021c9190612de0565b6106f8565b005b34801561022e575f80fd5b5061024960048036038101906102449190612de0565b61071a565b005b348015610256575f80fd5b5061025f610795565b005b34801561026c575f80fd5b50610275610865565b6040516102829190612c3d565b60405180910390f35b348015610296575f80fd5b5061029f610877565b6040516102ac919061300f565b60405180910390f35b3480156102c0575f80fd5b506102db60048036038101906102d69190613185565b610ba9565b005b3480156102e8575f80fd5b5061030360048036038101906102fe919061323d565b610dd8565b005b348015610310575f80fd5b5061031961102a565b6040516103269190613277565b60405180910390f35b34801561033a575f80fd5b5061035560048036038101906103509190613290565b61103c565b6040516103629190613277565b60405180910390f35b348015610376575f80fd5b50610391600480360381019061038c9190612de0565b611068565b60405161039e9190612c3d565b60405180910390f35b3480156103b2575f80fd5b506103bb6110cb565b6040516103c89190612d6d565b60405180910390f35b3480156103dc575f80fd5b506103f760048036038101906103f291906132ce565b6110ef565b005b348015610404575f80fd5b5061041f600480360381019061041a919061345d565b611522565b005b34801561042c575f80fd5b506104476004803603810190610442919061345d565b6115ef565b005b348015610454575f80fd5b5061045d6116bc565b60405161046a9190612d6d565b60405180910390f35b34801561047e575f80fd5b50610499600480360381019061049491906134a4565b6116c2565b6040516104a6919061300f565b60405180910390f35b3480156104ba575f80fd5b506104c3611a5b565b6040516104d09190612ce0565b60405180910390f35b3480156104e4575f80fd5b506104ff60048036038101906104fa919061323d565b611ae7565b60405161051297969594939291906134ed565b60405180910390f35b348015610526575f80fd5b50610541600480360381019061053c9190612d33565b611cf5565b60405161054e919061356f565b60405180910390f35b348015610562575f80fd5b5061057d6004803603810190610578919061323d565b611d16565b60405161058a919061362f565b60405180910390f35b6105ad60048036038101906105a8919061323d565b611fae565b005b3480156105ba575f80fd5b506105d560048036038101906105d09190612de0565b612352565b005b5f7f5a05180f000000000000000000000000000000000000000000000000000000007bffffffffffffffffffffffffffffffffffffffffffffffffffffffff1916827bffffffffffffffffffffffffffffffffffffffffffffffffffffffff19161480610649575061064882612374565b5b9050919050565b6004805461065d9061367c565b80601f01602080910402602001604051908101604052809291908181526020018280546106899061367c565b80156106d45780601f106106ab576101008083540402835291602001916106d4565b820191905f5260205f20905b8154815290600101906020018083116106b757829003601f168201915b505050505081565b5f805f8381526020019081526020015f20600101549050919050565b610701826106dc565b61070a816123ed565b6107148383612401565b50505050565b610722612444565b73ffffffffffffffffffffffffffffffffffffffff168173ffffffffffffffffffffffffffffffffffffffff1614610786576040517f6697b23200000000000000000000000000000000000000000000000000000000815260040160405180910390fd5b610790828261244b565b505050565b5f801b6107a1816123ed565b6107a961248e565b6107e8576040517f08c379a00000000000000000000000000000000000000000000000000000000081526004016107df9061371c565b60405180910390fd5b5f60065f6101000a81548160ff0219169083151502179055503073ffffffffffffffffffffffffffffffffffffffff16610820612444565b73ffffffffffffffffffffffffffffffffffffffff167f83d0180088be204f97ef95ce34f9ba21504932c1ebd4f2ff64bd0df8cf70f32860405160405180910390a350565b60065f9054906101000a900460ff1681565b60605f60035467ffffffffffffffff81111561089657610895613037565b5b6040519080825280602002602001820160405280156108cf57816020015b6108bc612ad5565b8152602001906001900390816108b45790505b5090505f600190505b6003548111610ba15760025f8281526020019081526020015f206040518060e00160405290815f8201548152602001600182015f9054906101000a900473ffffffffffffffffffffffffffffffffffffffff1673ffffffffffffffffffffffffffffffffffffffff1673ffffffffffffffffffffffffffffffffffffffff168152602001600282015f9054906101000a900473ffffffffffffffffffffffffffffffffffffffff1673ffffffffffffffffffffffffffffffffffffffff1673ffffffffffffffffffffffffffffffffffffffff1681526020016003820180546109c09061367c565b80601f01602080910402602001604051908101604052809291908181526020018280546109ec9061367c565b8015610a375780601f10610a0e57610100808354040283529160200191610a37565b820191905f5260205f20905b815481529060010190602001808311610a1a57829003601f168201915b50505050508152602001600482018054610a509061367c565b80601f0160208091040260200160405190810160405280929190818152602001828054610a7c9061367c565b8015610ac75780601f10610a9e57610100808354040283529160200191610ac7565b820191905f5260205f20905b815481529060010190602001808311610aaa57829003601f168201915b50505050508152602001600582018054610ae09061367c565b80601f0160208091040260200160405190810160405280929190818152602001828054610b0c9061367c565b8015610b575780601f10610b2e57610100808354040283529160200191610b57565b820191905f5260205f20905b815481529060010190602001808311610b3a57829003601f168201915b5050505050815260200160068201548152505082600183610b789190613767565b81518110610b8957610b8861379a565b5b602002602001018190525080806001019150506108d8565b508091505090565b5f801b610bb5816123ed565b60065f9054906101000a900460ff16610c03576040517f08c379a0000000000000000000000000000000000000000000000000000000008152600401610bfa90613811565b60405180910390fd5b60035f815480929190610c159061382f565b91905055506040518060e001604052806003548152602001610c35612444565b73ffffffffffffffffffffffffffffffffffffffff1681526020015f73ffffffffffffffffffffffffffffffffffffffff168152602001868152602001858152602001848152602001600184610c8b9190613876565b81525060025f60035481526020019081526020015f205f820151815f01556020820151816001015f6101000a81548173ffffffffffffffffffffffffffffffffffffffff021916908373ffffffffffffffffffffffffffffffffffffffff1602179055506040820151816002015f6101000a81548173ffffffffffffffffffffffffffffffffffffffff021916908373ffffffffffffffffffffffffffffffffffffffff1602179055506060820151816003019081610d4a9190613a54565b506080820151816004019081610d609190613a54565b5060a0820151816005019081610d769190613a54565b5060c08201518160060155905050610d8c612444565b73ffffffffffffffffffffffffffffffffffffffff166003547f6375005112faeb3c31f129d3aa24c423df50ca6f7c78b0490c6f4b691feac38a60405160405180910390a35050505050565b5f801b610de4816123ed565b60065f9054906101000a900460ff16610e32576040517f08c379a0000000000000000000000000000000000000000000000000000000008152600401610e2990613811565b60405180910390fd5b815f60025f8381526020019081526020015f205f015414158015610eb557505f73ffffffffffffffffffffffffffffffffffffffff1660025f8381526020019081526020015f206001015f9054906101000a900473ffffffffffffffffffffffffffffffffffffffff1673ffffffffffffffffffffffffffffffffffffffff1614155b8015610f1f57505f73ffffffffffffffffffffffffffffffffffffffff1660025f8381526020019081526020015f206002015f9054906101000a900473ffffffffffffffffffffffffffffffffffffffff1673ffffffffffffffffffffffffffffffffffffffff16145b610f5e576040517f08c379a0000000000000000000000000000000000000000000000000000000008152600401610f5590613b6d565b60405180910390fd5b60025f8481526020019081526020015f205f8082015f9055600182015f6101000a81549073ffffffffffffffffffffffffffffffffffffffff0219169055600282015f6101000a81549073ffffffffffffffffffffffffffffffffffffffff0219169055600382015f610fd19190612b3a565b600482015f610fe09190612b3a565b600582015f610fef9190612b3a565b600682015f90555050827fa54eda4149a0fb9258911733973ecf1f6762357ed371fc6d1e63123bbce23bed60405160405180910390a2505050565b5f6110375f801b5f61103c565b905090565b5f6110608260015f8681526020019081526020015f2061252390919063ffffffff16565b905092915050565b5f805f8481526020019081526020015f205f015f8373ffffffffffffffffffffffffffffffffffffffff1673ffffffffffffffffffffffffffffffffffffffff1681526020019081526020015f205f9054906101000a900460ff16905092915050565b7f45540da1931f496e4f3816a2dc871d2df367bc105b607e7ab8db3f2f22ef1cc781565b5f801b6110fb816123ed565b60065f9054906101000a900460ff16611149576040517f08c379a000000000000000000000000000000000000000000000000000000000815260040161114090613811565b60405180910390fd5b855f60025f8381526020019081526020015f205f0154141580156111cc57505f73ffffffffffffffffffffffffffffffffffffffff1660025f8381526020019081526020015f206001015f9054906101000a900473ffffffffffffffffffffffffffffffffffffffff1673ffffffffffffffffffffffffffffffffffffffff1614155b801561123657505f73ffffffffffffffffffffffffffffffffffffffff1660025f8381526020019081526020015f206002015f9054906101000a900473ffffffffffffffffffffffffffffffffffffffff1673ffffffffffffffffffffffffffffffffffffffff16145b611275576040517f08c379a000000000000000000000000000000000000000000000000000000000815260040161126c90613b6d565b60405180910390fd5b5f60025f8981526020019081526020015f2090505f8751146112975786611323565b8060030180546112a69061367c565b80601f01602080910402602001604051908101604052809291908181526020018280546112d29061367c565b801561131d5780601f106112f45761010080835404028352916020019161131d565b820191905f5260205f20905b81548152906001019060200180831161130057829003601f168201915b50505050505b8160030190816113339190613a54565b505f86511461134257856113ce565b8060040180546113519061367c565b80601f016020809104026020016040519081016040528092919081815260200182805461137d9061367c565b80156113c85780601f1061139f576101008083540402835291602001916113c8565b820191905f5260205f20905b8154815290600101906020018083116113ab57829003601f168201915b50505050505b8160040190816113de9190613a54565b505f8551146113ed5784611479565b8060050180546113fc9061367c565b80601f01602080910402602001604051908101604052809291908181526020018280546114289061367c565b80156114735780601f1061144a57610100808354040283529160200191611473565b820191905f5260205f20905b81548152906001019060200180831161145657829003601f168201915b50505050505b8160050190816114899190613a54565b505f84146114a35760018461149e9190613876565b6114a9565b80600601545b8160060181905550806001015f9054906101000a900473ffffffffffffffffffffffffffffffffffffffff1673ffffffffffffffffffffffffffffffffffffffff16887f38f487ae24444315197e622aa97fa1b715d2061149fedf9e29b0d2f80f773a1d60405160405180910390a35050505050505050565b5f801b61152e816123ed565b5f5b825181101561158a5761157d7f45540da1931f496e4f3816a2dc871d2df367bc105b607e7ab8db3f2f22ef1cc78483815181106115705761156f61379a565b5b60200260200101516106f8565b8080600101915050611530565b50816040516115999190613c3c565b60405180910390206115a9612444565b73ffffffffffffffffffffffffffffffffffffffff167f3fb075593fdffe7aae47e977558372899ece50b35abfa7840771acb5fa1f55e060405160405180910390a35050565b5f801b6115fb816123ed565b5f5b82518110156116575761164a7f45540da1931f496e4f3816a2dc871d2df367bc105b607e7ab8db3f2f22ef1cc784838151811061163d5761163c61379a565b5b6020026020010151612352565b80806001019150506115fd565b50816040516116669190613c3c565b6040518091039020611676612444565b73ffffffffffffffffffffffffffffffffffffffff167f27fdb27472f165ba44595057c961348082cdfa76947005a9640022ca451730b060405160405180910390a35050565b5f801b81565b60605f60035467ffffffffffffffff8111156116e1576116e0613037565b5b60405190808252806020026020018201604052801561171a57816020015b611707612ad5565b8152602001906001900390816116ff5790505b5090505f80600190505b6003548111611a50578473ffffffffffffffffffffffffffffffffffffffff1660025f8381526020019081526020015f206002015f9054906101000a900473ffffffffffffffffffffffffffffffffffffffff1673ffffffffffffffffffffffffffffffffffffffff1603611a435760025f8281526020019081526020015f206040518060e00160405290815f8201548152602001600182015f9054906101000a900473ffffffffffffffffffffffffffffffffffffffff1673ffffffffffffffffffffffffffffffffffffffff1673ffffffffffffffffffffffffffffffffffffffff168152602001600282015f9054906101000a900473ffffffffffffffffffffffffffffffffffffffff1673ffffffffffffffffffffffffffffffffffffffff1673ffffffffffffffffffffffffffffffffffffffff1681526020016003820180546118729061367c565b80601f016020809104026020016040519081016040528092919081815260200182805461189e9061367c565b80156118e95780601f106118c0576101008083540402835291602001916118e9565b820191905f5260205f20905b8154815290600101906020018083116118cc57829003601f168201915b505050505081526020016004820180546119029061367c565b80601f016020809104026020016040519081016040528092919081815260200182805461192e9061367c565b80156119795780601f1061195057610100808354040283529160200191611979565b820191905f5260205f20905b81548152906001019060200180831161195c57829003601f168201915b505050505081526020016005820180546119929061367c565b80601f01602080910402602001604051908101604052809291908181526020018280546119be9061367c565b8015611a095780601f106119e057610100808354040283529160200191611a09565b820191905f5260205f20905b8154815290600101906020018083116119ec57829003601f168201915b50505050508152602001600682015481525050838381518110611a2f57611a2e61379a565b5b602002602001018190525081806001019250505b8080600101915050611724565b508192505050919050565b60058054611a689061367c565b80601f0160208091040260200160405190810160405280929190818152602001828054611a949061367c565b8015611adf5780601f10611ab657610100808354040283529160200191611adf565b820191905f5260205f20905b815481529060010190602001808311611ac257829003601f168201915b505050505081565b6002602052805f5260405f205f91509050805f015490806001015f9054906101000a900473ffffffffffffffffffffffffffffffffffffffff1690806002015f9054906101000a900473ffffffffffffffffffffffffffffffffffffffff1690806003018054611b569061367c565b80601f0160208091040260200160405190810160405280929190818152602001828054611b829061367c565b8015611bcd5780601f10611ba457610100808354040283529160200191611bcd565b820191905f5260205f20905b815481529060010190602001808311611bb057829003601f168201915b505050505090806004018054611be29061367c565b80601f0160208091040260200160405190810160405280929190818152602001828054611c0e9061367c565b8015611c595780601f10611c3057610100808354040283529160200191611c59565b820191905f5260205f20905b815481529060010190602001808311611c3c57829003601f168201915b505050505090806005018054611c6e9061367c565b80601f0160208091040260200160405190810160405280929190818152602001828054611c9a9061367c565b8015611ce55780601f10611cbc57610100808354040283529160200191611ce5565b820191905f5260205f20905b815481529060010190602001808311611cc857829003601f168201915b5050505050908060060154905087565b5f611d0f60015f8481526020019081526020015f2061253a565b9050919050565b611d1e612ad5565b60025f8381526020019081526020015f206040518060e00160405290815f8201548152602001600182015f9054906101000a900473ffffffffffffffffffffffffffffffffffffffff1673ffffffffffffffffffffffffffffffffffffffff1673ffffffffffffffffffffffffffffffffffffffff168152602001600282015f9054906101000a900473ffffffffffffffffffffffffffffffffffffffff1673ffffffffffffffffffffffffffffffffffffffff1673ffffffffffffffffffffffffffffffffffffffff168152602001600382018054611dfd9061367c565b80601f0160208091040260200160405190810160405280929190818152602001828054611e299061367c565b8015611e745780601f10611e4b57610100808354040283529160200191611e74565b820191905f5260205f20905b815481529060010190602001808311611e5757829003601f168201915b50505050508152602001600482018054611e8d9061367c565b80601f0160208091040260200160405190810160405280929190818152602001828054611eb99061367c565b8015611f045780601f10611edb57610100808354040283529160200191611f04565b820191905f5260205f20905b815481529060010190602001808311611ee757829003601f168201915b50505050508152602001600582018054611f1d9061367c565b80601f0160208091040260200160405190810160405280929190818152602001828054611f499061367c565b8015611f945780601f10611f6b57610100808354040283529160200191611f94565b820191905f5260205f20905b815481529060010190602001808311611f7757829003601f168201915b505050505081526020016006820154815250509050919050565b611fb6612444565b611fc25f801b82611068565b80611ff35750611ff27f45540da1931f496e4f3816a2dc871d2df367bc105b607e7ab8db3f2f22ef1cc782611068565b5b612032576040517f08c379a000000000000000000000000000000000000000000000000000000000815260040161202990613c9c565b60405180910390fd5b60065f9054906101000a900460ff16612080576040517f08c379a000000000000000000000000000000000000000000000000000000000815260040161207790613811565b60405180910390fd5b815f60025f8381526020019081526020015f205f01541415801561210357505f73ffffffffffffffffffffffffffffffffffffffff1660025f8381526020019081526020015f206001015f9054906101000a900473ffffffffffffffffffffffffffffffffffffffff1673ffffffffffffffffffffffffffffffffffffffff1614155b801561216d57505f73ffffffffffffffffffffffffffffffffffffffff1660025f8381526020019081526020015f206002015f9054906101000a900473ffffffffffffffffffffffffffffffffffffffff1673ffffffffffffffffffffffffffffffffffffffff16145b6121ac576040517f08c379a00000000000000000000000000000000000000000000000000000000081526004016121a390613b6d565b60405180910390fd5b60025f8481526020019081526020015f2060060154341015612203576040517f08c379a00000000000000000000000000000000000000000000000000000000081526004016121fa90613d04565b60405180910390fd5b61224060025f8581526020019081526020015f206001015f9054906101000a900473ffffffffffffffffffffffffffffffffffffffff163461254d565b612248612444565b60025f8581526020019081526020015f206002015f6101000a81548173ffffffffffffffffffffffffffffffffffffffff021916908373ffffffffffffffffffffffffffffffffffffffff1602179055506122a1612444565b73ffffffffffffffffffffffffffffffffffffffff1660025f8581526020019081526020015f206001015f9054906101000a900473ffffffffffffffffffffffffffffffffffffffff1673ffffffffffffffffffffffffffffffffffffffff16847f3e2a5a5ee3a24b1b9d330b0bc0946a7d0eb9c99f453f93a45348a9a8e29a94fb60025f8881526020019081526020015f2060060154604051612345919061356f565b60405180910390a4505050565b61235b826106dc565b612364816123ed565b61236e838361244b565b50505050565b5f7f7965db0b000000000000000000000000000000000000000000000000000000007bffffffffffffffffffffffffffffffffffffffffffffffffffffffff1916827bffffffffffffffffffffffffffffffffffffffffffffffffffffffff191614806123e657506123e582612636565b5b9050919050565b6123fe816123f9612444565b61269f565b50565b5f8061240d84846126f0565b9050801561243a576124388360015f8781526020019081526020015f206127d990919063ffffffff16565b505b8091505092915050565b5f33905090565b5f806124578484612806565b90508015612484576124828360015f8781526020019081526020015f206128ef90919063ffffffff16565b505b8091505092915050565b5f80600190505b600354811161251a575f73ffffffffffffffffffffffffffffffffffffffff1660025f8381526020019081526020015f206002015f9054906101000a900473ffffffffffffffffffffffffffffffffffffffff1673ffffffffffffffffffffffffffffffffffffffff160361250d575f915050612520565b8080600101915050612495565b50600190505b90565b5f612530835f018361291c565b5f1c905092915050565b5f612546825f01612943565b9050919050565b8047101561259257306040517fcd7860590000000000000000000000000000000000000000000000000000000081526004016125899190613277565b60405180910390fd5b5f8273ffffffffffffffffffffffffffffffffffffffff16826040516125b790613d4f565b5f6040518083038185875af1925050503d805f81146125f1576040519150601f19603f3d011682016040523d82523d5f602084013e6125f6565b606091505b5050905080612631576040517f1425ea4200000000000000000000000000000000000000000000000000000000815260040160405180910390fd5b505050565b5f7f01ffc9a7000000000000000000000000000000000000000000000000000000007bffffffffffffffffffffffffffffffffffffffffffffffffffffffff1916827bffffffffffffffffffffffffffffffffffffffffffffffffffffffff1916149050919050565b6126a98282611068565b6126ec5780826040517fe2517d3f0000000000000000000000000000000000000000000000000000000081526004016126e3929190613d63565b60405180910390fd5b5050565b5f6126fb8383611068565b6127cf5760015f808581526020019081526020015f205f015f8473ffffffffffffffffffffffffffffffffffffffff1673ffffffffffffffffffffffffffffffffffffffff1681526020019081526020015f205f6101000a81548160ff02191690831515021790555061276c612444565b73ffffffffffffffffffffffffffffffffffffffff168273ffffffffffffffffffffffffffffffffffffffff16847f2f8788117e7eff1d82e926ec794901d17c78024a50270940304540a733656f0d60405160405180910390a4600190506127d3565b5f90505b92915050565b5f6127fe835f018373ffffffffffffffffffffffffffffffffffffffff165f1b612952565b905092915050565b5f6128118383611068565b156128e5575f805f8581526020019081526020015f205f015f8473ffffffffffffffffffffffffffffffffffffffff1673ffffffffffffffffffffffffffffffffffffffff1681526020019081526020015f205f6101000a81548160ff021916908315150217905550612882612444565b73ffffffffffffffffffffffffffffffffffffffff168273ffffffffffffffffffffffffffffffffffffffff16847ff6391f5c32d9c69d2a47ea670b442974b53935d1edc7fd64eb21e047a839171b60405160405180910390a4600190506128e9565b5f90505b92915050565b5f612914835f018373ffffffffffffffffffffffffffffffffffffffff165f1b6129b9565b905092915050565b5f825f0182815481106129325761293161379a565b5b905f5260205f200154905092915050565b5f815f01805490509050919050565b5f61295d8383612ab5565b6129af57825f0182908060018154018082558091505060019003905f5260205f20015f9091909190915055825f0180549050836001015f8481526020019081526020015f2081905550600190506129b3565b5f90505b92915050565b5f80836001015f8481526020019081526020015f205490505f8114612aaa575f6001826129e69190613767565b90505f6001865f01805490506129fc9190613767565b9050808214612a62575f865f018281548110612a1b57612a1a61379a565b5b905f5260205f200154905080875f018481548110612a3c57612a3b61379a565b5b905f5260205f20018190555083876001015f8381526020019081526020015f2081905550505b855f01805480612a7557612a74613d8a565b5b600190038181905f5260205f20015f90559055856001015f8681526020019081526020015f205f905560019350505050612aaf565b5f9150505b92915050565b5f80836001015f8481526020019081526020015f20541415905092915050565b6040518060e001604052805f81526020015f73ffffffffffffffffffffffffffffffffffffffff1681526020015f73ffffffffffffffffffffffffffffffffffffffff1681526020016060815260200160608152602001606081526020015f81525090565b508054612b469061367c565b5f825580601f10612b575750612b74565b601f0160209004905f5260205f2090810190612b739190612b77565b5b50565b5b80821115612b8e575f815f905550600101612b78565b5090565b5f604051905090565b5f80fd5b5f80fd5b5f7fffffffff0000000000000000000000000000000000000000000000000000000082169050919050565b612bd781612ba3565b8114612be1575f80fd5b50565b5f81359050612bf281612bce565b92915050565b5f60208284031215612c0d57612c0c612b9b565b5b5f612c1a84828501612be4565b91505092915050565b5f8115159050919050565b612c3781612c23565b82525050565b5f602082019050612c505f830184612c2e565b92915050565b5f81519050919050565b5f82825260208201905092915050565b5f5b83811015612c8d578082015181840152602081019050612c72565b5f8484015250505050565b5f601f19601f8301169050919050565b5f612cb282612c56565b612cbc8185612c60565b9350612ccc818560208601612c70565b612cd581612c98565b840191505092915050565b5f6020820190508181035f830152612cf88184612ca8565b905092915050565b5f819050919050565b612d1281612d00565b8114612d1c575f80fd5b50565b5f81359050612d2d81612d09565b92915050565b5f60208284031215612d4857612d47612b9b565b5b5f612d5584828501612d1f565b91505092915050565b612d6781612d00565b82525050565b5f602082019050612d805f830184612d5e565b92915050565b5f73ffffffffffffffffffffffffffffffffffffffff82169050919050565b5f612daf82612d86565b9050919050565b612dbf81612da5565b8114612dc9575f80fd5b50565b5f81359050612dda81612db6565b92915050565b5f8060408385031215612df657612df5612b9b565b5b5f612e0385828601612d1f565b9250506020612e1485828601612dcc565b9150509250929050565b5f81519050919050565b5f82825260208201905092915050565b5f819050602082019050919050565b5f819050919050565b612e5981612e47565b82525050565b5f612e6982612d86565b9050919050565b612e7981612e5f565b82525050565b612e8881612da5565b82525050565b5f82825260208201905092915050565b5f612ea882612c56565b612eb28185612e8e565b9350612ec2818560208601612c70565b612ecb81612c98565b840191505092915050565b5f60e083015f830151612eeb5f860182612e50565b506020830151612efe6020860182612e70565b506040830151612f116040860182612e7f565b5060608301518482036060860152612f298282612e9e565b91505060808301518482036080860152612f438282612e9e565b91505060a083015184820360a0860152612f5d8282612e9e565b91505060c0830151612f7260c0860182612e50565b508091505092915050565b5f612f888383612ed6565b905092915050565b5f602082019050919050565b5f612fa682612e1e565b612fb08185612e28565b935083602082028501612fc285612e38565b805f5b85811015612ffd5784840389528151612fde8582612f7d565b9450612fe983612f90565b925060208a01995050600181019050612fc5565b50829750879550505050505092915050565b5f6020820190508181035f8301526130278184612f9c565b905092915050565b5f80fd5b5f80fd5b7f4e487b71000000000000000000000000000000000000000000000000000000005f52604160045260245ffd5b61306d82612c98565b810181811067ffffffffffffffff8211171561308c5761308b613037565b5b80604052505050565b5f61309e612b92565b90506130aa8282613064565b919050565b5f67ffffffffffffffff8211156130c9576130c8613037565b5b6130d282612c98565b9050602081019050919050565b828183375f83830152505050565b5f6130ff6130fa846130af565b613095565b90508281526020810184848401111561311b5761311a613033565b5b6131268482856130df565b509392505050565b5f82601f8301126131425761314161302f565b5b81356131528482602086016130ed565b91505092915050565b61316481612e47565b811461316e575f80fd5b50565b5f8135905061317f8161315b565b92915050565b5f805f806080858703121561319d5761319c612b9b565b5b5f85013567ffffffffffffffff8111156131ba576131b9612b9f565b5b6131c68782880161312e565b945050602085013567ffffffffffffffff8111156131e7576131e6612b9f565b5b6131f38782880161312e565b935050604085013567ffffffffffffffff81111561321457613213612b9f565b5b6132208782880161312e565b925050606061323187828801613171565b91505092959194509250565b5f6020828403121561325257613251612b9b565b5b5f61325f84828501613171565b91505092915050565b61327181612da5565b82525050565b5f60208201905061328a5f830184613268565b92915050565b5f80604083850312156132a6576132a5612b9b565b5b5f6132b385828601612d1f565b92505060206132c485828601613171565b9150509250929050565b5f805f805f60a086880312156132e7576132e6612b9b565b5b5f6132f488828901613171565b955050602086013567ffffffffffffffff81111561331557613314612b9f565b5b6133218882890161312e565b945050604086013567ffffffffffffffff81111561334257613341612b9f565b5b61334e8882890161312e565b935050606086013567ffffffffffffffff81111561336f5761336e612b9f565b5b61337b8882890161312e565b925050608061338c88828901613171565b9150509295509295909350565b5f67ffffffffffffffff8211156133b3576133b2613037565b5b602082029050602081019050919050565b5f80fd5b5f6133da6133d584613399565b613095565b905080838252602082019050602084028301858111156133fd576133fc6133c4565b5b835b8181101561342657806134128882612dcc565b8452602084019350506020810190506133ff565b5050509392505050565b5f82601f8301126134445761344361302f565b5b81356134548482602086016133c8565b91505092915050565b5f6020828403121561347257613471612b9b565b5b5f82013567ffffffffffffffff81111561348f5761348e612b9f565b5b61349b84828501613430565b91505092915050565b5f602082840312156134b9576134b8612b9b565b5b5f6134c684828501612dcc565b91505092915050565b6134d881612e47565b82525050565b6134e781612e5f565b82525050565b5f60e0820190506135005f83018a6134cf565b61350d60208301896134de565b61351a6040830188613268565b818103606083015261352c8187612ca8565b905081810360808301526135408186612ca8565b905081810360a08301526135548185612ca8565b905061356360c08301846134cf565b98975050505050505050565b5f6020820190506135825f8301846134cf565b92915050565b5f60e083015f83015161359d5f860182612e50565b5060208301516135b06020860182612e70565b5060408301516135c36040860182612e7f565b50606083015184820360608601526135db8282612e9e565b915050608083015184820360808601526135f58282612e9e565b91505060a083015184820360a086015261360f8282612e9e565b91505060c083015161362460c0860182612e50565b508091505092915050565b5f6020820190508181035f8301526136478184613588565b905092915050565b7f4e487b71000000000000000000000000000000000000000000000000000000005f52602260045260245ffd5b5f600282049050600182168061369357607f821691505b6020821081036136a6576136a561364f565b5b50919050565b7f4e6f7420616c6c206974656d7320696e2074686973206d61726b6574706c61635f8201527f652068617665206265656e20736f6c642e000000000000000000000000000000602082015250565b5f613706603183612c60565b9150613711826136ac565b604082019050919050565b5f6020820190508181035f830152613733816136fa565b9050919050565b7f4e487b71000000000000000000000000000000000000000000000000000000005f52601160045260245ffd5b5f61377182612e47565b915061377c83612e47565b92508282039050818111156137945761379361373a565b5b92915050565b7f4e487b71000000000000000000000000000000000000000000000000000000005f52603260045260245ffd5b7f4d61726b6574706c61636520697320636c6f7365642e000000000000000000005f82015250565b5f6137fb601683612c60565b9150613806826137c7565b602082019050919050565b5f6020820190508181035f830152613828816137ef565b9050919050565b5f61383982612e47565b91507fffffffffffffffffffffffffffffffffffffffffffffffffffffffffffffffff820361386b5761386a61373a565b5b600182019050919050565b5f61388082612e47565b915061388b83612e47565b925082820261389981612e47565b915082820484148315176138b0576138af61373a565b5b5092915050565b5f819050815f5260205f209050919050565b5f6020601f8301049050919050565b5f82821b905092915050565b5f600883026139137fffffffffffffffffffffffffffffffffffffffffffffffffffffffffffffffff826138d8565b61391d86836138d8565b95508019841693508086168417925050509392505050565b5f819050919050565b5f61395861395361394e84612e47565b613935565b612e47565b9050919050565b5f819050919050565b6139718361393e565b61398561397d8261395f565b8484546138e4565b825550505050565b5f90565b61399961398d565b6139a4818484613968565b505050565b5b818110156139c7576139bc5f82613991565b6001810190506139aa565b5050565b601f821115613a0c576139dd816138b7565b6139e6846138c9565b810160208510156139f5578190505b613a09613a01856138c9565b8301826139a9565b50505b505050565b5f82821c905092915050565b5f613a2c5f1984600802613a11565b1980831691505092915050565b5f613a448383613a1d565b9150826002028217905092915050565b613a5d82612c56565b67ffffffffffffffff811115613a7657613a75613037565b5b613a80825461367c565b613a8b8282856139cb565b5f60209050601f831160018114613abc575f8415613aaa578287015190505b613ab48582613a39565b865550613b1b565b601f198416613aca866138b7565b5f5b82811015613af157848901518255600182019150602085019450602081019050613acc565b86831015613b0e5784890151613b0a601f891682613a1d565b8355505b6001600288020188555050505b505050505050565b7f4974656d206e6f7420617661696c61626c652e000000000000000000000000005f82015250565b5f613b57601383612c60565b9150613b6282613b23565b602082019050919050565b5f6020820190508181035f830152613b8481613b4b565b9050919050565b5f81519050919050565b5f81905092915050565b5f819050602082019050919050565b613bb781612da5565b82525050565b5f613bc88383613bae565b60208301905092915050565b5f602082019050919050565b5f613bea82613b8b565b613bf48185613b95565b9350613bff83613b9f565b805f5b83811015613c2f578151613c168882613bbd565b9750613c2183613bd4565b925050600181019050613c02565b5085935050505092915050565b5f613c478284613be0565b915081905092915050565b7f496e73756666696369656e7420726f6c650000000000000000000000000000005f82015250565b5f613c86601183612c60565b9150613c9182613c52565b602082019050919050565b5f6020820190508181035f830152613cb381613c7a565b9050919050565b7f4e6f7420656e6f7567682045746865722070726f76696465642e0000000000005f82015250565b5f613cee601a83612c60565b9150613cf982613cba565b602082019050919050565b5f6020820190508181035f830152613d1b81613ce2565b9050919050565b5f81905092915050565b50565b5f613d3a5f83613d22565b9150613d4582613d2c565b5f82019050919050565b5f613d5982613d2f565b9150819050919050565b5f604082019050613d765f830185613268565b613d836020830184612d5e565b9392505050565b7f4e487b71000000000000000000000000000000000000000000000000000000005f52603160045260245ffdfea2646970667358221220dd1f2d77d0145101b97e001f9bf9e39e591a294ecb2028eacb826c2983dd8f5264736f6c63430008140033a26469706673582212201b35eace4145520b13274d92612b098899fac180889d461b83d454e97b7cfa8364736f6c63430008140033",
  "immutableReferences": {},
  "source": "// SPDX-License-Identifier: MIT\npragma solidity ^0.8.20;\n\nimport \"./Marketplace.sol\";\nimport \"../libraries/StringUtils.sol\";\n\ncontract MarketplaceFactory {\n    address[] public marketplaces;\n    mapping(address => address[]) public marketplaceToOwner;\n\n    event MarketplaceCreated(\n        address indexed owner,\n        address indexed marketplaceAddress\n    );\n\n    event Received(address sender, uint amount);\n\n    function getMarketplacesWithBoughtItems(address buyer_)\n        public\n        view\n        returns (address[] memory)\n    {\n        uint marketplaceCount = marketplaces.length;\n        address[] memory matchingMarketplaces = new address[](marketplaceCount);\n        uint matchingItemCount = 0;\n        for (uint i = 0; i < marketplaceCount; ) {\n            Marketplace marketplace = getMarketplaceByAddress(marketplaces[i]);\n            if (marketplace.getItemsByBuyer(buyer_).length > 0) {\n                matchingMarketplaces[matchingItemCount] = marketplaces[i];\n                unchecked {\n                    matchingItemCount++;\n                }\n            }\n            unchecked {\n                i++;\n            }\n        }\n        return matchingMarketplaces;\n    }\n\n    function createMarketplace(\n        string memory name_,\n        string memory imageSrc_\n    ) public {\n        Marketplace marketplace = new Marketplace(msg.sender, name_, imageSrc_);\n        marketplaces.push(address(marketplace));\n        marketplaceToOwner[msg.sender].push(address(marketplace));\n        emit MarketplaceCreated(msg.sender, address(marketplace));\n    }\n\n    function getMarketplaceByAddress(\n        address marketplaceAddress\n    ) public view returns (Marketplace) {\n        require(Marketplace(marketplaceAddress).getOwner() != address(0), \"Marketplace does not exist\");\n        return Marketplace(marketplaceAddress);\n    }\n\n    function getMarketplacesByOwner(\n        address owner\n    ) public view returns (address[] memory) {\n        return marketplaceToOwner[owner];\n    }\n\n    function getMarketplaces() public view returns (address[] memory) {\n        return marketplaces;\n    }\n\n    function getMarketplacesByName(\n        string memory name_\n    ) public view returns (address[] memory) {\n        string memory lowerName = StringUtils.toLowerCase(name_);\n        uint marketplaceCount = marketplaces.length;\n        address[] memory matchingMarketplaces = new address[](marketplaceCount);\n        uint matchingItemCount = 0;\n\n        for (uint i = 0; i < marketplaceCount; ) {\n            string memory marketplaceName = getMarketplaceByAddress(\n                marketplaces[i]\n            ).name();\n            string memory lowerMarketplaceName = StringUtils.toLowerCase(\n                marketplaceName\n            );\n            if (StringUtils.isEqual(lowerMarketplaceName, lowerName)) {\n                matchingMarketplaces[matchingItemCount] = marketplaces[i];\n                unchecked {\n                    matchingItemCount++;\n                }\n            }\n            unchecked {\n                i++;\n            }\n        }\n        return matchingMarketplaces;\n    }\n\n    receive() external payable {\n        emit Received(msg.sender, msg.value);\n    }\n}",
  "sourcePath": "/workspaces/blockchain-gaming-marketplace-contract/contracts/MarketplaceFactory.sol",
  "compiler": {
    "name": "solc",
    "version": "0.8.20+commit.a1b79de6.Emscripten.clang"
  },
  "schemaVersion": "3.4.16",
  "updatedAt": "2024-02-08T20:12:48.072Z",
  "networkType": "ethereum",
  "devdoc": {
    "kind": "dev",
    "methods": {},
    "version": 1
  },
  "userdoc": {
    "kind": "user",
    "methods": {},
    "version": 1
  }
}