{
  "contractName": "MarketplaceFactory",
  "abi": [
    {
      "anonymous": false,
      "inputs": [
        {
          "indexed": true,
          "internalType": "address",
          "name": "owner",
          "type": "address"
        },
        {
          "indexed": true,
          "internalType": "address",
          "name": "marketplaceAddress",
          "type": "address"
        }
      ],
      "name": "MarketplaceCreated",
      "type": "event"
    },
    {
      "inputs": [
        {
          "internalType": "address",
          "name": "",
          "type": "address"
        },
        {
          "internalType": "uint256",
          "name": "",
          "type": "uint256"
        }
      ],
      "name": "marketplaceToOwner",
      "outputs": [
        {
          "internalType": "address",
          "name": "",
          "type": "address"
        }
      ],
      "stateMutability": "view",
      "type": "function",
      "constant": true
    },
    {
      "inputs": [
        {
          "internalType": "uint256",
          "name": "",
          "type": "uint256"
        }
      ],
      "name": "marketplaces",
      "outputs": [
        {
          "internalType": "address",
          "name": "",
          "type": "address"
        }
      ],
      "stateMutability": "view",
      "type": "function",
      "constant": true
    },
    {
      "inputs": [
        {
          "internalType": "address",
          "name": "buyer_",
          "type": "address"
        }
      ],
      "name": "getMarketplacesWithBoughtItems",
      "outputs": [
        {
          "internalType": "address[]",
          "name": "",
          "type": "address[]"
        }
      ],
      "stateMutability": "view",
      "type": "function",
      "constant": true
    },
    {
      "inputs": [
        {
          "internalType": "string",
          "name": "name_",
          "type": "string"
        },
        {
          "internalType": "string",
          "name": "imageSrc_",
          "type": "string"
        }
      ],
      "name": "createMarketplace",
      "outputs": [],
      "stateMutability": "nonpayable",
      "type": "function"
    },
    {
      "inputs": [
        {
          "internalType": "address",
          "name": "marketplaceAddress",
          "type": "address"
        }
      ],
      "name": "getMarketplaceByAddress",
      "outputs": [
        {
          "internalType": "contract Marketplace",
          "name": "",
          "type": "address"
        }
      ],
      "stateMutability": "view",
      "type": "function",
      "constant": true
    },
    {
      "inputs": [
        {
          "internalType": "string",
          "name": "name_",
          "type": "string"
        }
      ],
      "name": "getMarketplacesByName",
      "outputs": [
        {
          "internalType": "address[]",
          "name": "",
          "type": "address[]"
        }
      ],
      "stateMutability": "view",
      "type": "function",
      "constant": true
    }
  ],
  "bytecode": "0x608060405234801561000f575f80fd5b50615b0a8061001d5f395ff3fe608060405234801562000010575f80fd5b506004361062000068575f3560e01c806308ffd96d146200006c578063280ed6e414620000a25780632b64deec14620000d857806356ffb0c4146200010e57806380ec4f8e146200012e578063fee410fe1462000164575b5f80fd5b6200008a600480360381019062000084919062000bb6565b6200019a565b60405162000099919062000c4d565b60405180910390f35b620000c06004803603810190620000ba919062000dc0565b62000283565b604051620000cf919062000ed6565b60405180910390f35b620000f66004803603810190620000f0919062000f30565b62000488565b60405162000105919062000f71565b60405180910390f35b6200012c600480360381019062000126919062000f8c565b620004c3565b005b6200014c600480360381019062000146919062000bb6565b62000659565b6040516200015b919062000ed6565b60405180910390f35b6200018260048036038101906200017c91906200100f565b62000845565b60405162000191919062000f71565b60405180910390f35b5f8073ffffffffffffffffffffffffffffffffffffffff168273ffffffffffffffffffffffffffffffffffffffff1663893d20e86040518163ffffffff1660e01b8152600401602060405180830381865afa158015620001fc573d5f803e3d5ffd5b505050506040513d601f19601f820116820180604052508101906200022291906200106a565b73ffffffffffffffffffffffffffffffffffffffff16146200027b576040517f08c379a00000000000000000000000000000000000000000000000000000000081526004016200027290620010f8565b60405180910390fd5b819050919050565b60605f62000291836200088e565b90505f808054905090505f8167ffffffffffffffff811115620002b957620002b862000c80565b5b604051908082528060200260200182016040528015620002e85781602001602082028036833780820191505090505b5090505f805b838110156200047b575f620003405f838154811062000312576200031162001118565b5b905f5260205f20015f9054906101000a900473ffffffffffffffffffffffffffffffffffffffff166200019a565b73ffffffffffffffffffffffffffffffffffffffff166306fdde036040518163ffffffff1660e01b81526004015f60405180830381865afa15801562000388573d5f803e3d5ffd5b505050506040513d5f823e3d601f19601f82011682018060405250810190620003b29190620011eb565b90505f620003c0826200088e565b9050620003ce818862000a58565b156200046b575f8381548110620003ea57620003e962001118565b5b905f5260205f20015f9054906101000a900473ffffffffffffffffffffffffffffffffffffffff1685858151811062000428576200042762001118565b5b602002602001019073ffffffffffffffffffffffffffffffffffffffff16908173ffffffffffffffffffffffffffffffffffffffff168152505083806001019450505b82806001019350505050620002ee565b5081945050505050919050565b5f818154811062000497575f80fd5b905f5260205f20015f915054906101000a900473ffffffffffffffffffffffffffffffffffffffff1681565b5f338383604051620004d59062000b36565b620004e39392919062001284565b604051809103905ff080158015620004fd573d5f803e3d5ffd5b5090505f81908060018154018082558091505060019003905f5260205f20015f9091909190916101000a81548173ffffffffffffffffffffffffffffffffffffffff021916908373ffffffffffffffffffffffffffffffffffffffff16021790555060015f3373ffffffffffffffffffffffffffffffffffffffff1673ffffffffffffffffffffffffffffffffffffffff1681526020019081526020015f2081908060018154018082558091505060019003905f5260205f20015f9091909190916101000a81548173ffffffffffffffffffffffffffffffffffffffff021916908373ffffffffffffffffffffffffffffffffffffffff1602179055508073ffffffffffffffffffffffffffffffffffffffff163373ffffffffffffffffffffffffffffffffffffffff167f78010b8cae0062225520b4aa47329ab06c3e4b5797cd884ef8bc360f90ecce5860405160405180910390a3505050565b60605f808054905090505f8167ffffffffffffffff81111562000681576200068062000c80565b5b604051908082528060200260200182016040528015620006b05781602001602082028036833780820191505090505b5090505f805b8381101562000839575f620007085f8381548110620006da57620006d962001118565b5b905f5260205f20015f9054906101000a900473ffffffffffffffffffffffffffffffffffffffff166200019a565b90505f8173ffffffffffffffffffffffffffffffffffffffff1663b7d53474896040518263ffffffff1660e01b815260040162000746919062000f71565b5f60405180830381865afa15801562000761573d5f803e3d5ffd5b505050506040513d5f823e3d601f19601f820116820180604052508101906200078b919062001546565b5111156200082a575f8281548110620007a957620007a862001118565b5b905f5260205f20015f9054906101000a900473ffffffffffffffffffffffffffffffffffffffff16848481518110620007e757620007e662001118565b5b602002602001019073ffffffffffffffffffffffffffffffffffffffff16908173ffffffffffffffffffffffffffffffffffffffff168152505082806001019350505b818060010192505050620006b6565b50819350505050919050565b6001602052815f5260405f2081815481106200085f575f80fd5b905f5260205f20015f915091509054906101000a900473ffffffffffffffffffffffffffffffffffffffff1681565b60605f8290505f815167ffffffffffffffff811115620008b357620008b262000c80565b5b6040519080825280601f01601f191660200182016040528015620008e65781602001600182028036833780820191505090505b5090505f5b825181101562000a4d5760418382815181106200090d576200090c62001118565b5b602001015160f81c60f81b60f81c60ff1610158015620009545750605a83828151811062000940576200093f62001118565b5b602001015160f81c60f81b60f81c60ff1611155b15620009d957602083828151811062000972576200097162001118565b5b602001015160f81c60f81b60f81c6200098c9190620015ce565b60f81b828281518110620009a557620009a462001118565b5b60200101907effffffffffffffffffffffffffffffffffffffffffffffffffffffffffffff191690815f1a90535062000a3f565b828181518110620009ef57620009ee62001118565b5b602001015160f81c60f81b82828151811062000a105762000a0f62001118565b5b60200101907effffffffffffffffffffffffffffffffffffffffffffffffffffffffffffff191690815f1a9053505b8080600101915050620008eb565b508092505050919050565b5f808390505f839050805182511462000a76575f9250505062000b30565b5f5b825181101562000b285781818151811062000a985762000a9762001118565b5b602001015160f81c60f81b7effffffffffffffffffffffffffffffffffffffffffffffffffffffffffffff191683828151811062000adb5762000ada62001118565b5b602001015160f81c60f81b7effffffffffffffffffffffffffffffffffffffffffffffffffffffffffffff19161462000b1a575f935050505062000b30565b808060010191505062000a78565b506001925050505b92915050565b6144cb806200160a83390190565b5f604051905090565b5f80fd5b5f80fd5b5f73ffffffffffffffffffffffffffffffffffffffff82169050919050565b5f62000b808262000b55565b9050919050565b62000b928162000b74565b811462000b9d575f80fd5b50565b5f8135905062000bb08162000b87565b92915050565b5f6020828403121562000bce5762000bcd62000b4d565b5b5f62000bdd8482850162000ba0565b91505092915050565b5f819050919050565b5f62000c0f62000c0962000c038462000b55565b62000be6565b62000b55565b9050919050565b5f62000c228262000bef565b9050919050565b5f62000c358262000c16565b9050919050565b62000c478162000c29565b82525050565b5f60208201905062000c625f83018462000c3c565b92915050565b5f80fd5b5f80fd5b5f601f19601f8301169050919050565b7f4e487b71000000000000000000000000000000000000000000000000000000005f52604160045260245ffd5b62000cb88262000c70565b810181811067ffffffffffffffff8211171562000cda5762000cd962000c80565b5b80604052505050565b5f62000cee62000b44565b905062000cfc828262000cad565b919050565b5f67ffffffffffffffff82111562000d1e5762000d1d62000c80565b5b62000d298262000c70565b9050602081019050919050565b828183375f83830152505050565b5f62000d5a62000d548462000d01565b62000ce3565b90508281526020810184848401111562000d795762000d7862000c6c565b5b62000d8684828562000d36565b509392505050565b5f82601f83011262000da55762000da462000c68565b5b813562000db784826020860162000d44565b91505092915050565b5f6020828403121562000dd85762000dd762000b4d565b5b5f82013567ffffffffffffffff81111562000df85762000df762000b51565b5b62000e068482850162000d8e565b91505092915050565b5f81519050919050565b5f82825260208201905092915050565b5f819050602082019050919050565b62000e438162000b74565b82525050565b5f62000e56838362000e38565b60208301905092915050565b5f602082019050919050565b5f62000e7a8262000e0f565b62000e86818562000e19565b935062000e938362000e29565b805f5b8381101562000ec957815162000ead888262000e49565b975062000eba8362000e62565b92505060018101905062000e96565b5085935050505092915050565b5f6020820190508181035f83015262000ef0818462000e6e565b905092915050565b5f819050919050565b62000f0c8162000ef8565b811462000f17575f80fd5b50565b5f8135905062000f2a8162000f01565b92915050565b5f6020828403121562000f485762000f4762000b4d565b5b5f62000f578482850162000f1a565b91505092915050565b62000f6b8162000b74565b82525050565b5f60208201905062000f865f83018462000f60565b92915050565b5f806040838503121562000fa55762000fa462000b4d565b5b5f83013567ffffffffffffffff81111562000fc55762000fc462000b51565b5b62000fd38582860162000d8e565b925050602083013567ffffffffffffffff81111562000ff75762000ff662000b51565b5b620010058582860162000d8e565b9150509250929050565b5f806040838503121562001028576200102762000b4d565b5b5f620010378582860162000ba0565b92505060206200104a8582860162000f1a565b9150509250929050565b5f81519050620010648162000b87565b92915050565b5f6020828403121562001082576200108162000b4d565b5b5f620010918482850162001054565b91505092915050565b5f82825260208201905092915050565b7f4d61726b6574706c61636520646f6573206e6f742065786973740000000000005f82015250565b5f620010e0601a836200109a565b9150620010ed82620010aa565b602082019050919050565b5f6020820190508181035f8301526200111181620010d2565b9050919050565b7f4e487b71000000000000000000000000000000000000000000000000000000005f52603260045260245ffd5b5f5b838110156200116457808201518184015260208101905062001147565b5f8484015250505050565b5f620011856200117f8462000d01565b62000ce3565b905082815260208101848484011115620011a457620011a362000c6c565b5b620011b184828562001145565b509392505050565b5f82601f830112620011d057620011cf62000c68565b5b8151620011e28482602086016200116f565b91505092915050565b5f6020828403121562001203576200120262000b4d565b5b5f82015167ffffffffffffffff81111562001223576200122262000b51565b5b6200123184828501620011b9565b91505092915050565b5f81519050919050565b5f62001250826200123a565b6200125c81856200109a565b93506200126e81856020860162001145565b620012798162000c70565b840191505092915050565b5f606082019050620012995f83018662000f60565b8181036020830152620012ad818562001244565b90508181036040830152620012c3818462001244565b9050949350505050565b5f67ffffffffffffffff821115620012ea57620012e962000c80565b5b602082029050602081019050919050565b5f80fd5b5f80fd5b5f80fd5b5f81519050620013178162000f01565b92915050565b5f620013298262000b55565b9050919050565b6200133b816200131d565b811462001346575f80fd5b50565b5f81519050620013598162001330565b92915050565b5f60e08284031215620013775762001376620012ff565b5b6200138360e062000ce3565b90505f620013948482850162001307565b5f830152506020620013a98482850162001349565b6020830152506040620013bf8482850162001054565b604083015250606082015167ffffffffffffffff811115620013e657620013e562001303565b5b620013f484828501620011b9565b606083015250608082015167ffffffffffffffff8111156200141b576200141a62001303565b5b6200142984828501620011b9565b60808301525060a082015167ffffffffffffffff81111562001450576200144f62001303565b5b6200145e84828501620011b9565b60a08301525060c0620014748482850162001307565b60c08301525092915050565b5f620014966200149084620012cd565b62000ce3565b90508083825260208201905060208402830185811115620014bc57620014bb620012fb565b5b835b818110156200150a57805167ffffffffffffffff811115620014e557620014e462000c68565b5b808601620014f489826200135f565b85526020850194505050602081019050620014be565b5050509392505050565b5f82601f8301126200152b576200152a62000c68565b5b81516200153d84826020860162001480565b91505092915050565b5f602082840312156200155e576200155d62000b4d565b5b5f82015167ffffffffffffffff8111156200157e576200157d62000b51565b5b6200158c8482850162001514565b91505092915050565b5f60ff82169050919050565b7f4e487b71000000000000000000000000000000000000000000000000000000005f52601160045260245ffd5b5f620015da8262001595565b9150620015e78362001595565b9250828201905060ff811115620016035762001602620015a1565b5b9291505056fe608060405234801562000010575f80fd5b50604051620044cb380380620044cb833981810160405281019062000036919062000507565b8160049081620000479190620007d5565b508060059081620000599190620007d5565b506200006e5f801b846200009160201b60201c565b600160065f6101000a81548160ff021916908315150217905550505050620008b9565b620000a38282620000a860201b60201c565b505050565b5f80620000bc8484620000f660201b60201c565b90508015620000ec57620000ea8360015f8781526020019081526020015f20620001f160201b90919060201c565b505b8091505092915050565b5f6200010983836200022660201b60201c565b620001e75760015f808581526020019081526020015f205f015f8473ffffffffffffffffffffffffffffffffffffffff1673ffffffffffffffffffffffffffffffffffffffff1681526020019081526020015f205f6101000a81548160ff021916908315150217905550620001836200028960201b60201c565b73ffffffffffffffffffffffffffffffffffffffff168273ffffffffffffffffffffffffffffffffffffffff16847f2f8788117e7eff1d82e926ec794901d17c78024a50270940304540a733656f0d60405160405180910390a460019050620001eb565b5f90505b92915050565b5f6200021e835f018373ffffffffffffffffffffffffffffffffffffffff165f1b6200029060201b60201c565b905092915050565b5f805f8481526020019081526020015f205f015f8373ffffffffffffffffffffffffffffffffffffffff1673ffffffffffffffffffffffffffffffffffffffff1681526020019081526020015f205f9054906101000a900460ff16905092915050565b5f33905090565b5f620002a383836200030160201b60201c565b620002f757825f0182908060018154018082558091505060019003905f5260205f20015f9091909190915055825f0180549050836001015f8481526020019081526020015f208190555060019050620002fb565b5f90505b92915050565b5f80836001015f8481526020019081526020015f20541415905092915050565b5f604051905090565b5f80fd5b5f80fd5b5f73ffffffffffffffffffffffffffffffffffffffff82169050919050565b5f6200035d8262000332565b9050919050565b6200036f8162000351565b81146200037a575f80fd5b50565b5f815190506200038d8162000364565b92915050565b5f80fd5b5f80fd5b5f601f19601f8301169050919050565b7f4e487b71000000000000000000000000000000000000000000000000000000005f52604160045260245ffd5b620003e3826200039b565b810181811067ffffffffffffffff82111715620004055762000404620003ab565b5b80604052505050565b5f6200041962000321565b9050620004278282620003d8565b919050565b5f67ffffffffffffffff821115620004495762000448620003ab565b5b62000454826200039b565b9050602081019050919050565b5f5b838110156200048057808201518184015260208101905062000463565b5f8484015250505050565b5f620004a16200049b846200042c565b6200040e565b905082815260208101848484011115620004c057620004bf62000397565b5b620004cd84828562000461565b509392505050565b5f82601f830112620004ec57620004eb62000393565b5b8151620004fe8482602086016200048b565b91505092915050565b5f805f606084860312156200052157620005206200032a565b5b5f62000530868287016200037d565b935050602084015167ffffffffffffffff8111156200055457620005536200032e565b5b6200056286828701620004d5565b925050604084015167ffffffffffffffff8111156200058657620005856200032e565b5b6200059486828701620004d5565b9150509250925092565b5f81519050919050565b7f4e487b71000000000000000000000000000000000000000000000000000000005f52602260045260245ffd5b5f6002820490506001821680620005ed57607f821691505b602082108103620006035762000602620005a8565b5b50919050565b5f819050815f5260205f209050919050565b5f6020601f8301049050919050565b5f82821b905092915050565b5f60088302620006677fffffffffffffffffffffffffffffffffffffffffffffffffffffffffffffffff826200062a565b6200067386836200062a565b95508019841693508086168417925050509392505050565b5f819050919050565b5f819050919050565b5f620006bd620006b7620006b1846200068b565b62000694565b6200068b565b9050919050565b5f819050919050565b620006d8836200069d565b620006f0620006e782620006c4565b84845462000636565b825550505050565b5f90565b62000706620006f8565b62000713818484620006cd565b505050565b5b818110156200073a576200072e5f82620006fc565b60018101905062000719565b5050565b601f8211156200078957620007538162000609565b6200075e846200061b565b810160208510156200076e578190505b620007866200077d856200061b565b83018262000718565b50505b505050565b5f82821c905092915050565b5f620007ab5f19846008026200078e565b1980831691505092915050565b5f620007c583836200079a565b9150826002028217905092915050565b620007e0826200059e565b67ffffffffffffffff811115620007fc57620007fb620003ab565b5b620008088254620005d5565b620008158282856200073e565b5f60209050601f8311600181146200084b575f841562000836578287015190505b620008428582620007b8565b865550620008b1565b601f1984166200085b8662000609565b5f5b8281101562000884578489015182556001820191506020850194506020810190506200085d565b86831015620008a45784890151620008a0601f8916826200079a565b8355505b6001600288020188555050505b505050505050565b613c0480620008c75f395ff3fe608060405260043610610155575f3560e01c806391d14854116100c0578063b7d5347411610079578063b7d5347414610473578063bf465465146104af578063bfb231d2146104d9578063ca15c8731461051b578063cd2f071014610557578063d38ea5bf14610593578063d547741f146105af57610155565b806391d148541461036b57806393a12415146103a757806399e07caf146103d15780639d152618146103f9578063a0142e0014610421578063a217fddf1461044957610155565b806347535d7b1161011257806347535d7b146102615780634ba1d6aa1461028b5780636265db2f146102b557806371329171146102dd578063893d20e8146103055780639010d07c1461032f57610155565b806301ffc9a71461015957806306fdde0314610195578063248a9ca3146101bf5780632f2ff15d146101fb57806336568abe1461022357806343d726d61461024b575b5f80fd5b348015610164575f80fd5b5061017f600480360381019061017a9190612a0f565b6105d7565b60405161018c9190612a54565b60405180910390f35b3480156101a0575f80fd5b506101a9610650565b6040516101b69190612af7565b60405180910390f35b3480156101ca575f80fd5b506101e560048036038101906101e09190612b4a565b6106dc565b6040516101f29190612b84565b60405180910390f35b348015610206575f80fd5b50610221600480360381019061021c9190612bf7565b6106f8565b005b34801561022e575f80fd5b5061024960048036038101906102449190612bf7565b61071a565b005b348015610256575f80fd5b5061025f610795565b005b34801561026c575f80fd5b50610275610865565b6040516102829190612a54565b60405180910390f35b348015610296575f80fd5b5061029f610877565b6040516102ac9190612e26565b60405180910390f35b3480156102c0575f80fd5b506102db60048036038101906102d69190612f9c565b610ba9565b005b3480156102e8575f80fd5b5061030360048036038101906102fe9190613054565b610dd8565b005b348015610310575f80fd5b5061031961102a565b604051610326919061308e565b60405180910390f35b34801561033a575f80fd5b50610355600480360381019061035091906130a7565b61103c565b604051610362919061308e565b60405180910390f35b348015610376575f80fd5b50610391600480360381019061038c9190612bf7565b611068565b60405161039e9190612a54565b60405180910390f35b3480156103b2575f80fd5b506103bb6110cb565b6040516103c89190612b84565b60405180910390f35b3480156103dc575f80fd5b506103f760048036038101906103f291906130e5565b6110ef565b005b348015610404575f80fd5b5061041f600480360381019061041a9190613274565b611339565b005b34801561042c575f80fd5b5061044760048036038101906104429190613274565b611406565b005b348015610454575f80fd5b5061045d6114d3565b60405161046a9190612b84565b60405180910390f35b34801561047e575f80fd5b50610499600480360381019061049491906132bb565b6114d9565b6040516104a69190612e26565b60405180910390f35b3480156104ba575f80fd5b506104c3611872565b6040516104d09190612af7565b60405180910390f35b3480156104e4575f80fd5b506104ff60048036038101906104fa9190613054565b6118fe565b6040516105129796959493929190613304565b60405180910390f35b348015610526575f80fd5b50610541600480360381019061053c9190612b4a565b611b0c565b60405161054e9190613386565b60405180910390f35b348015610562575f80fd5b5061057d60048036038101906105789190613054565b611b2d565b60405161058a9190613446565b60405180910390f35b6105ad60048036038101906105a89190613054565b611dc5565b005b3480156105ba575f80fd5b506105d560048036038101906105d09190612bf7565b612169565b005b5f7f5a05180f000000000000000000000000000000000000000000000000000000007bffffffffffffffffffffffffffffffffffffffffffffffffffffffff1916827bffffffffffffffffffffffffffffffffffffffffffffffffffffffff1916148061064957506106488261218b565b5b9050919050565b6004805461065d90613493565b80601f016020809104026020016040519081016040528092919081815260200182805461068990613493565b80156106d45780601f106106ab576101008083540402835291602001916106d4565b820191905f5260205f20905b8154815290600101906020018083116106b757829003601f168201915b505050505081565b5f805f8381526020019081526020015f20600101549050919050565b610701826106dc565b61070a81612204565b6107148383612218565b50505050565b61072261225b565b73ffffffffffffffffffffffffffffffffffffffff168173ffffffffffffffffffffffffffffffffffffffff1614610786576040517f6697b23200000000000000000000000000000000000000000000000000000000815260040160405180910390fd5b6107908282612262565b505050565b5f801b6107a181612204565b6107a96122a5565b6107e8576040517f08c379a00000000000000000000000000000000000000000000000000000000081526004016107df90613533565b60405180910390fd5b5f60065f6101000a81548160ff0219169083151502179055503073ffffffffffffffffffffffffffffffffffffffff1661082061225b565b73ffffffffffffffffffffffffffffffffffffffff167f83d0180088be204f97ef95ce34f9ba21504932c1ebd4f2ff64bd0df8cf70f32860405160405180910390a350565b60065f9054906101000a900460ff1681565b60605f60035467ffffffffffffffff81111561089657610895612e4e565b5b6040519080825280602002602001820160405280156108cf57816020015b6108bc6128ec565b8152602001906001900390816108b45790505b5090505f600190505b6003548111610ba15760025f8281526020019081526020015f206040518060e00160405290815f8201548152602001600182015f9054906101000a900473ffffffffffffffffffffffffffffffffffffffff1673ffffffffffffffffffffffffffffffffffffffff1673ffffffffffffffffffffffffffffffffffffffff168152602001600282015f9054906101000a900473ffffffffffffffffffffffffffffffffffffffff1673ffffffffffffffffffffffffffffffffffffffff1673ffffffffffffffffffffffffffffffffffffffff1681526020016003820180546109c090613493565b80601f01602080910402602001604051908101604052809291908181526020018280546109ec90613493565b8015610a375780601f10610a0e57610100808354040283529160200191610a37565b820191905f5260205f20905b815481529060010190602001808311610a1a57829003601f168201915b50505050508152602001600482018054610a5090613493565b80601f0160208091040260200160405190810160405280929190818152602001828054610a7c90613493565b8015610ac75780601f10610a9e57610100808354040283529160200191610ac7565b820191905f5260205f20905b815481529060010190602001808311610aaa57829003601f168201915b50505050508152602001600582018054610ae090613493565b80601f0160208091040260200160405190810160405280929190818152602001828054610b0c90613493565b8015610b575780601f10610b2e57610100808354040283529160200191610b57565b820191905f5260205f20905b815481529060010190602001808311610b3a57829003601f168201915b5050505050815260200160068201548152505082600183610b78919061357e565b81518110610b8957610b886135b1565b5b602002602001018190525080806001019150506108d8565b508091505090565b5f801b610bb581612204565b60065f9054906101000a900460ff16610c03576040517f08c379a0000000000000000000000000000000000000000000000000000000008152600401610bfa90613628565b60405180910390fd5b60035f815480929190610c1590613646565b91905055506040518060e001604052806003548152602001610c3561225b565b73ffffffffffffffffffffffffffffffffffffffff1681526020015f73ffffffffffffffffffffffffffffffffffffffff168152602001868152602001858152602001848152602001600184610c8b919061368d565b81525060025f60035481526020019081526020015f205f820151815f01556020820151816001015f6101000a81548173ffffffffffffffffffffffffffffffffffffffff021916908373ffffffffffffffffffffffffffffffffffffffff1602179055506040820151816002015f6101000a81548173ffffffffffffffffffffffffffffffffffffffff021916908373ffffffffffffffffffffffffffffffffffffffff1602179055506060820151816003019081610d4a919061386b565b506080820151816004019081610d60919061386b565b5060a0820151816005019081610d76919061386b565b5060c08201518160060155905050610d8c61225b565b73ffffffffffffffffffffffffffffffffffffffff166003547f6375005112faeb3c31f129d3aa24c423df50ca6f7c78b0490c6f4b691feac38a60405160405180910390a35050505050565b5f801b610de481612204565b60065f9054906101000a900460ff16610e32576040517f08c379a0000000000000000000000000000000000000000000000000000000008152600401610e2990613628565b60405180910390fd5b815f60025f8381526020019081526020015f205f015414158015610eb557505f73ffffffffffffffffffffffffffffffffffffffff1660025f8381526020019081526020015f206001015f9054906101000a900473ffffffffffffffffffffffffffffffffffffffff1673ffffffffffffffffffffffffffffffffffffffff1614155b8015610f1f57505f73ffffffffffffffffffffffffffffffffffffffff1660025f8381526020019081526020015f206002015f9054906101000a900473ffffffffffffffffffffffffffffffffffffffff1673ffffffffffffffffffffffffffffffffffffffff16145b610f5e576040517f08c379a0000000000000000000000000000000000000000000000000000000008152600401610f5590613984565b60405180910390fd5b60025f8481526020019081526020015f205f8082015f9055600182015f6101000a81549073ffffffffffffffffffffffffffffffffffffffff0219169055600282015f6101000a81549073ffffffffffffffffffffffffffffffffffffffff0219169055600382015f610fd19190612951565b600482015f610fe09190612951565b600582015f610fef9190612951565b600682015f90555050827fa54eda4149a0fb9258911733973ecf1f6762357ed371fc6d1e63123bbce23bed60405160405180910390a2505050565b5f6110375f801b5f61103c565b905090565b5f6110608260015f8681526020019081526020015f2061233a90919063ffffffff16565b905092915050565b5f805f8481526020019081526020015f205f015f8373ffffffffffffffffffffffffffffffffffffffff1673ffffffffffffffffffffffffffffffffffffffff1681526020019081526020015f205f9054906101000a900460ff16905092915050565b7f45540da1931f496e4f3816a2dc871d2df367bc105b607e7ab8db3f2f22ef1cc781565b5f801b6110fb81612204565b60065f9054906101000a900460ff16611149576040517f08c379a000000000000000000000000000000000000000000000000000000000815260040161114090613628565b60405180910390fd5b855f60025f8381526020019081526020015f205f0154141580156111cc57505f73ffffffffffffffffffffffffffffffffffffffff1660025f8381526020019081526020015f206001015f9054906101000a900473ffffffffffffffffffffffffffffffffffffffff1673ffffffffffffffffffffffffffffffffffffffff1614155b801561123657505f73ffffffffffffffffffffffffffffffffffffffff1660025f8381526020019081526020015f206002015f9054906101000a900473ffffffffffffffffffffffffffffffffffffffff1673ffffffffffffffffffffffffffffffffffffffff16145b611275576040517f08c379a000000000000000000000000000000000000000000000000000000000815260040161126c90613984565b60405180910390fd5b5f60025f8981526020019081526020015f2090508681600301908161129a919061386b565b50858160040190816112ac919061386b565b50848160050190816112be919061386b565b50838160060181905550806001015f9054906101000a900473ffffffffffffffffffffffffffffffffffffffff1673ffffffffffffffffffffffffffffffffffffffff16887f38f487ae24444315197e622aa97fa1b715d2061149fedf9e29b0d2f80f773a1d60405160405180910390a35050505050505050565b5f801b61134581612204565b5f5b82518110156113a1576113947f45540da1931f496e4f3816a2dc871d2df367bc105b607e7ab8db3f2f22ef1cc7848381518110611387576113866135b1565b5b60200260200101516106f8565b8080600101915050611347565b50816040516113b09190613a53565b60405180910390206113c061225b565b73ffffffffffffffffffffffffffffffffffffffff167f3fb075593fdffe7aae47e977558372899ece50b35abfa7840771acb5fa1f55e060405160405180910390a35050565b5f801b61141281612204565b5f5b825181101561146e576114617f45540da1931f496e4f3816a2dc871d2df367bc105b607e7ab8db3f2f22ef1cc7848381518110611454576114536135b1565b5b6020026020010151612169565b8080600101915050611414565b508160405161147d9190613a53565b604051809103902061148d61225b565b73ffffffffffffffffffffffffffffffffffffffff167f27fdb27472f165ba44595057c961348082cdfa76947005a9640022ca451730b060405160405180910390a35050565b5f801b81565b60605f60035467ffffffffffffffff8111156114f8576114f7612e4e565b5b60405190808252806020026020018201604052801561153157816020015b61151e6128ec565b8152602001906001900390816115165790505b5090505f80600190505b6003548111611867578473ffffffffffffffffffffffffffffffffffffffff1660025f8381526020019081526020015f206002015f9054906101000a900473ffffffffffffffffffffffffffffffffffffffff1673ffffffffffffffffffffffffffffffffffffffff160361185a5760025f8281526020019081526020015f206040518060e00160405290815f8201548152602001600182015f9054906101000a900473ffffffffffffffffffffffffffffffffffffffff1673ffffffffffffffffffffffffffffffffffffffff1673ffffffffffffffffffffffffffffffffffffffff168152602001600282015f9054906101000a900473ffffffffffffffffffffffffffffffffffffffff1673ffffffffffffffffffffffffffffffffffffffff1673ffffffffffffffffffffffffffffffffffffffff16815260200160038201805461168990613493565b80601f01602080910402602001604051908101604052809291908181526020018280546116b590613493565b80156117005780601f106116d757610100808354040283529160200191611700565b820191905f5260205f20905b8154815290600101906020018083116116e357829003601f168201915b5050505050815260200160048201805461171990613493565b80601f016020809104026020016040519081016040528092919081815260200182805461174590613493565b80156117905780601f1061176757610100808354040283529160200191611790565b820191905f5260205f20905b81548152906001019060200180831161177357829003601f168201915b505050505081526020016005820180546117a990613493565b80601f01602080910402602001604051908101604052809291908181526020018280546117d590613493565b80156118205780601f106117f757610100808354040283529160200191611820565b820191905f5260205f20905b81548152906001019060200180831161180357829003601f168201915b50505050508152602001600682015481525050838381518110611846576118456135b1565b5b602002602001018190525081806001019250505b808060010191505061153b565b508192505050919050565b6005805461187f90613493565b80601f01602080910402602001604051908101604052809291908181526020018280546118ab90613493565b80156118f65780601f106118cd576101008083540402835291602001916118f6565b820191905f5260205f20905b8154815290600101906020018083116118d957829003601f168201915b505050505081565b6002602052805f5260405f205f91509050805f015490806001015f9054906101000a900473ffffffffffffffffffffffffffffffffffffffff1690806002015f9054906101000a900473ffffffffffffffffffffffffffffffffffffffff169080600301805461196d90613493565b80601f016020809104026020016040519081016040528092919081815260200182805461199990613493565b80156119e45780601f106119bb576101008083540402835291602001916119e4565b820191905f5260205f20905b8154815290600101906020018083116119c757829003601f168201915b5050505050908060040180546119f990613493565b80601f0160208091040260200160405190810160405280929190818152602001828054611a2590613493565b8015611a705780601f10611a4757610100808354040283529160200191611a70565b820191905f5260205f20905b815481529060010190602001808311611a5357829003601f168201915b505050505090806005018054611a8590613493565b80601f0160208091040260200160405190810160405280929190818152602001828054611ab190613493565b8015611afc5780601f10611ad357610100808354040283529160200191611afc565b820191905f5260205f20905b815481529060010190602001808311611adf57829003601f168201915b5050505050908060060154905087565b5f611b2660015f8481526020019081526020015f20612351565b9050919050565b611b356128ec565b60025f8381526020019081526020015f206040518060e00160405290815f8201548152602001600182015f9054906101000a900473ffffffffffffffffffffffffffffffffffffffff1673ffffffffffffffffffffffffffffffffffffffff1673ffffffffffffffffffffffffffffffffffffffff168152602001600282015f9054906101000a900473ffffffffffffffffffffffffffffffffffffffff1673ffffffffffffffffffffffffffffffffffffffff1673ffffffffffffffffffffffffffffffffffffffff168152602001600382018054611c1490613493565b80601f0160208091040260200160405190810160405280929190818152602001828054611c4090613493565b8015611c8b5780601f10611c6257610100808354040283529160200191611c8b565b820191905f5260205f20905b815481529060010190602001808311611c6e57829003601f168201915b50505050508152602001600482018054611ca490613493565b80601f0160208091040260200160405190810160405280929190818152602001828054611cd090613493565b8015611d1b5780601f10611cf257610100808354040283529160200191611d1b565b820191905f5260205f20905b815481529060010190602001808311611cfe57829003601f168201915b50505050508152602001600582018054611d3490613493565b80601f0160208091040260200160405190810160405280929190818152602001828054611d6090613493565b8015611dab5780601f10611d8257610100808354040283529160200191611dab565b820191905f5260205f20905b815481529060010190602001808311611d8e57829003601f168201915b505050505081526020016006820154815250509050919050565b611dcd61225b565b611dd95f801b82611068565b80611e0a5750611e097f45540da1931f496e4f3816a2dc871d2df367bc105b607e7ab8db3f2f22ef1cc782611068565b5b611e49576040517f08c379a0000000000000000000000000000000000000000000000000000000008152600401611e4090613ab3565b60405180910390fd5b60065f9054906101000a900460ff16611e97576040517f08c379a0000000000000000000000000000000000000000000000000000000008152600401611e8e90613628565b60405180910390fd5b815f60025f8381526020019081526020015f205f015414158015611f1a57505f73ffffffffffffffffffffffffffffffffffffffff1660025f8381526020019081526020015f206001015f9054906101000a900473ffffffffffffffffffffffffffffffffffffffff1673ffffffffffffffffffffffffffffffffffffffff1614155b8015611f8457505f73ffffffffffffffffffffffffffffffffffffffff1660025f8381526020019081526020015f206002015f9054906101000a900473ffffffffffffffffffffffffffffffffffffffff1673ffffffffffffffffffffffffffffffffffffffff16145b611fc3576040517f08c379a0000000000000000000000000000000000000000000000000000000008152600401611fba90613984565b60405180910390fd5b60025f8481526020019081526020015f206006015434101561201a576040517f08c379a000000000000000000000000000000000000000000000000000000000815260040161201190613b1b565b60405180910390fd5b61205760025f8581526020019081526020015f206001015f9054906101000a900473ffffffffffffffffffffffffffffffffffffffff1634612364565b61205f61225b565b60025f8581526020019081526020015f206002015f6101000a81548173ffffffffffffffffffffffffffffffffffffffff021916908373ffffffffffffffffffffffffffffffffffffffff1602179055506120b861225b565b73ffffffffffffffffffffffffffffffffffffffff1660025f8581526020019081526020015f206001015f9054906101000a900473ffffffffffffffffffffffffffffffffffffffff1673ffffffffffffffffffffffffffffffffffffffff16847f3e2a5a5ee3a24b1b9d330b0bc0946a7d0eb9c99f453f93a45348a9a8e29a94fb60025f8881526020019081526020015f206006015460405161215c9190613386565b60405180910390a4505050565b612172826106dc565b61217b81612204565b6121858383612262565b50505050565b5f7f7965db0b000000000000000000000000000000000000000000000000000000007bffffffffffffffffffffffffffffffffffffffffffffffffffffffff1916827bffffffffffffffffffffffffffffffffffffffffffffffffffffffff191614806121fd57506121fc8261244d565b5b9050919050565b6122158161221061225b565b6124b6565b50565b5f806122248484612507565b905080156122515761224f8360015f8781526020019081526020015f206125f090919063ffffffff16565b505b8091505092915050565b5f33905090565b5f8061226e848461261d565b9050801561229b576122998360015f8781526020019081526020015f2061270690919063ffffffff16565b505b8091505092915050565b5f80600190505b6003548111612331575f73ffffffffffffffffffffffffffffffffffffffff1660025f8381526020019081526020015f206002015f9054906101000a900473ffffffffffffffffffffffffffffffffffffffff1673ffffffffffffffffffffffffffffffffffffffff1603612324575f915050612337565b80806001019150506122ac565b50600190505b90565b5f612347835f0183612733565b5f1c905092915050565b5f61235d825f0161275a565b9050919050565b804710156123a957306040517fcd7860590000000000000000000000000000000000000000000000000000000081526004016123a0919061308e565b60405180910390fd5b5f8273ffffffffffffffffffffffffffffffffffffffff16826040516123ce90613b66565b5f6040518083038185875af1925050503d805f8114612408576040519150601f19603f3d011682016040523d82523d5f602084013e61240d565b606091505b5050905080612448576040517f1425ea4200000000000000000000000000000000000000000000000000000000815260040160405180910390fd5b505050565b5f7f01ffc9a7000000000000000000000000000000000000000000000000000000007bffffffffffffffffffffffffffffffffffffffffffffffffffffffff1916827bffffffffffffffffffffffffffffffffffffffffffffffffffffffff1916149050919050565b6124c08282611068565b6125035780826040517fe2517d3f0000000000000000000000000000000000000000000000000000000081526004016124fa929190613b7a565b60405180910390fd5b5050565b5f6125128383611068565b6125e65760015f808581526020019081526020015f205f015f8473ffffffffffffffffffffffffffffffffffffffff1673ffffffffffffffffffffffffffffffffffffffff1681526020019081526020015f205f6101000a81548160ff02191690831515021790555061258361225b565b73ffffffffffffffffffffffffffffffffffffffff168273ffffffffffffffffffffffffffffffffffffffff16847f2f8788117e7eff1d82e926ec794901d17c78024a50270940304540a733656f0d60405160405180910390a4600190506125ea565b5f90505b92915050565b5f612615835f018373ffffffffffffffffffffffffffffffffffffffff165f1b612769565b905092915050565b5f6126288383611068565b156126fc575f805f8581526020019081526020015f205f015f8473ffffffffffffffffffffffffffffffffffffffff1673ffffffffffffffffffffffffffffffffffffffff1681526020019081526020015f205f6101000a81548160ff02191690831515021790555061269961225b565b73ffffffffffffffffffffffffffffffffffffffff168273ffffffffffffffffffffffffffffffffffffffff16847ff6391f5c32d9c69d2a47ea670b442974b53935d1edc7fd64eb21e047a839171b60405160405180910390a460019050612700565b5f90505b92915050565b5f61272b835f018373ffffffffffffffffffffffffffffffffffffffff165f1b6127d0565b905092915050565b5f825f018281548110612749576127486135b1565b5b905f5260205f200154905092915050565b5f815f01805490509050919050565b5f61277483836128cc565b6127c657825f0182908060018154018082558091505060019003905f5260205f20015f9091909190915055825f0180549050836001015f8481526020019081526020015f2081905550600190506127ca565b5f90505b92915050565b5f80836001015f8481526020019081526020015f205490505f81146128c1575f6001826127fd919061357e565b90505f6001865f0180549050612813919061357e565b9050808214612879575f865f018281548110612832576128316135b1565b5b905f5260205f200154905080875f018481548110612853576128526135b1565b5b905f5260205f20018190555083876001015f8381526020019081526020015f2081905550505b855f0180548061288c5761288b613ba1565b5b600190038181905f5260205f20015f90559055856001015f8681526020019081526020015f205f9055600193505050506128c6565b5f9150505b92915050565b5f80836001015f8481526020019081526020015f20541415905092915050565b6040518060e001604052805f81526020015f73ffffffffffffffffffffffffffffffffffffffff1681526020015f73ffffffffffffffffffffffffffffffffffffffff1681526020016060815260200160608152602001606081526020015f81525090565b50805461295d90613493565b5f825580601f1061296e575061298b565b601f0160209004905f5260205f209081019061298a919061298e565b5b50565b5b808211156129a5575f815f90555060010161298f565b5090565b5f604051905090565b5f80fd5b5f80fd5b5f7fffffffff0000000000000000000000000000000000000000000000000000000082169050919050565b6129ee816129ba565b81146129f8575f80fd5b50565b5f81359050612a09816129e5565b92915050565b5f60208284031215612a2457612a236129b2565b5b5f612a31848285016129fb565b91505092915050565b5f8115159050919050565b612a4e81612a3a565b82525050565b5f602082019050612a675f830184612a45565b92915050565b5f81519050919050565b5f82825260208201905092915050565b5f5b83811015612aa4578082015181840152602081019050612a89565b5f8484015250505050565b5f601f19601f8301169050919050565b5f612ac982612a6d565b612ad38185612a77565b9350612ae3818560208601612a87565b612aec81612aaf565b840191505092915050565b5f6020820190508181035f830152612b0f8184612abf565b905092915050565b5f819050919050565b612b2981612b17565b8114612b33575f80fd5b50565b5f81359050612b4481612b20565b92915050565b5f60208284031215612b5f57612b5e6129b2565b5b5f612b6c84828501612b36565b91505092915050565b612b7e81612b17565b82525050565b5f602082019050612b975f830184612b75565b92915050565b5f73ffffffffffffffffffffffffffffffffffffffff82169050919050565b5f612bc682612b9d565b9050919050565b612bd681612bbc565b8114612be0575f80fd5b50565b5f81359050612bf181612bcd565b92915050565b5f8060408385031215612c0d57612c0c6129b2565b5b5f612c1a85828601612b36565b9250506020612c2b85828601612be3565b9150509250929050565b5f81519050919050565b5f82825260208201905092915050565b5f819050602082019050919050565b5f819050919050565b612c7081612c5e565b82525050565b5f612c8082612b9d565b9050919050565b612c9081612c76565b82525050565b612c9f81612bbc565b82525050565b5f82825260208201905092915050565b5f612cbf82612a6d565b612cc98185612ca5565b9350612cd9818560208601612a87565b612ce281612aaf565b840191505092915050565b5f60e083015f830151612d025f860182612c67565b506020830151612d156020860182612c87565b506040830151612d286040860182612c96565b5060608301518482036060860152612d408282612cb5565b91505060808301518482036080860152612d5a8282612cb5565b91505060a083015184820360a0860152612d748282612cb5565b91505060c0830151612d8960c0860182612c67565b508091505092915050565b5f612d9f8383612ced565b905092915050565b5f602082019050919050565b5f612dbd82612c35565b612dc78185612c3f565b935083602082028501612dd985612c4f565b805f5b85811015612e145784840389528151612df58582612d94565b9450612e0083612da7565b925060208a01995050600181019050612ddc565b50829750879550505050505092915050565b5f6020820190508181035f830152612e3e8184612db3565b905092915050565b5f80fd5b5f80fd5b7f4e487b71000000000000000000000000000000000000000000000000000000005f52604160045260245ffd5b612e8482612aaf565b810181811067ffffffffffffffff82111715612ea357612ea2612e4e565b5b80604052505050565b5f612eb56129a9565b9050612ec18282612e7b565b919050565b5f67ffffffffffffffff821115612ee057612edf612e4e565b5b612ee982612aaf565b9050602081019050919050565b828183375f83830152505050565b5f612f16612f1184612ec6565b612eac565b905082815260208101848484011115612f3257612f31612e4a565b5b612f3d848285612ef6565b509392505050565b5f82601f830112612f5957612f58612e46565b5b8135612f69848260208601612f04565b91505092915050565b612f7b81612c5e565b8114612f85575f80fd5b50565b5f81359050612f9681612f72565b92915050565b5f805f8060808587031215612fb457612fb36129b2565b5b5f85013567ffffffffffffffff811115612fd157612fd06129b6565b5b612fdd87828801612f45565b945050602085013567ffffffffffffffff811115612ffe57612ffd6129b6565b5b61300a87828801612f45565b935050604085013567ffffffffffffffff81111561302b5761302a6129b6565b5b61303787828801612f45565b925050606061304887828801612f88565b91505092959194509250565b5f60208284031215613069576130686129b2565b5b5f61307684828501612f88565b91505092915050565b61308881612bbc565b82525050565b5f6020820190506130a15f83018461307f565b92915050565b5f80604083850312156130bd576130bc6129b2565b5b5f6130ca85828601612b36565b92505060206130db85828601612f88565b9150509250929050565b5f805f805f60a086880312156130fe576130fd6129b2565b5b5f61310b88828901612f88565b955050602086013567ffffffffffffffff81111561312c5761312b6129b6565b5b61313888828901612f45565b945050604086013567ffffffffffffffff811115613159576131586129b6565b5b61316588828901612f45565b935050606086013567ffffffffffffffff811115613186576131856129b6565b5b61319288828901612f45565b92505060806131a388828901612f88565b9150509295509295909350565b5f67ffffffffffffffff8211156131ca576131c9612e4e565b5b602082029050602081019050919050565b5f80fd5b5f6131f16131ec846131b0565b612eac565b90508083825260208201905060208402830185811115613214576132136131db565b5b835b8181101561323d57806132298882612be3565b845260208401935050602081019050613216565b5050509392505050565b5f82601f83011261325b5761325a612e46565b5b813561326b8482602086016131df565b91505092915050565b5f60208284031215613289576132886129b2565b5b5f82013567ffffffffffffffff8111156132a6576132a56129b6565b5b6132b284828501613247565b91505092915050565b5f602082840312156132d0576132cf6129b2565b5b5f6132dd84828501612be3565b91505092915050565b6132ef81612c5e565b82525050565b6132fe81612c76565b82525050565b5f60e0820190506133175f83018a6132e6565b61332460208301896132f5565b613331604083018861307f565b81810360608301526133438187612abf565b905081810360808301526133578186612abf565b905081810360a083015261336b8185612abf565b905061337a60c08301846132e6565b98975050505050505050565b5f6020820190506133995f8301846132e6565b92915050565b5f60e083015f8301516133b45f860182612c67565b5060208301516133c76020860182612c87565b5060408301516133da6040860182612c96565b50606083015184820360608601526133f28282612cb5565b9150506080830151848203608086015261340c8282612cb5565b91505060a083015184820360a08601526134268282612cb5565b91505060c083015161343b60c0860182612c67565b508091505092915050565b5f6020820190508181035f83015261345e818461339f565b905092915050565b7f4e487b71000000000000000000000000000000000000000000000000000000005f52602260045260245ffd5b5f60028204905060018216806134aa57607f821691505b6020821081036134bd576134bc613466565b5b50919050565b7f4e6f7420616c6c206974656d7320696e2074686973206d61726b6574706c61635f8201527f652068617665206265656e20736f6c642e000000000000000000000000000000602082015250565b5f61351d603183612a77565b9150613528826134c3565b604082019050919050565b5f6020820190508181035f83015261354a81613511565b9050919050565b7f4e487b71000000000000000000000000000000000000000000000000000000005f52601160045260245ffd5b5f61358882612c5e565b915061359383612c5e565b92508282039050818111156135ab576135aa613551565b5b92915050565b7f4e487b71000000000000000000000000000000000000000000000000000000005f52603260045260245ffd5b7f4d61726b6574706c61636520697320636c6f7365642e000000000000000000005f82015250565b5f613612601683612a77565b915061361d826135de565b602082019050919050565b5f6020820190508181035f83015261363f81613606565b9050919050565b5f61365082612c5e565b91507fffffffffffffffffffffffffffffffffffffffffffffffffffffffffffffffff820361368257613681613551565b5b600182019050919050565b5f61369782612c5e565b91506136a283612c5e565b92508282026136b081612c5e565b915082820484148315176136c7576136c6613551565b5b5092915050565b5f819050815f5260205f209050919050565b5f6020601f8301049050919050565b5f82821b905092915050565b5f6008830261372a7fffffffffffffffffffffffffffffffffffffffffffffffffffffffffffffffff826136ef565b61373486836136ef565b95508019841693508086168417925050509392505050565b5f819050919050565b5f61376f61376a61376584612c5e565b61374c565b612c5e565b9050919050565b5f819050919050565b61378883613755565b61379c61379482613776565b8484546136fb565b825550505050565b5f90565b6137b06137a4565b6137bb81848461377f565b505050565b5b818110156137de576137d35f826137a8565b6001810190506137c1565b5050565b601f821115613823576137f4816136ce565b6137fd846136e0565b8101602085101561380c578190505b613820613818856136e0565b8301826137c0565b50505b505050565b5f82821c905092915050565b5f6138435f1984600802613828565b1980831691505092915050565b5f61385b8383613834565b9150826002028217905092915050565b61387482612a6d565b67ffffffffffffffff81111561388d5761388c612e4e565b5b6138978254613493565b6138a28282856137e2565b5f60209050601f8311600181146138d3575f84156138c1578287015190505b6138cb8582613850565b865550613932565b601f1984166138e1866136ce565b5f5b82811015613908578489015182556001820191506020850194506020810190506138e3565b868310156139255784890151613921601f891682613834565b8355505b6001600288020188555050505b505050505050565b7f4974656d206e6f7420617661696c61626c652e000000000000000000000000005f82015250565b5f61396e601383612a77565b91506139798261393a565b602082019050919050565b5f6020820190508181035f83015261399b81613962565b9050919050565b5f81519050919050565b5f81905092915050565b5f819050602082019050919050565b6139ce81612bbc565b82525050565b5f6139df83836139c5565b60208301905092915050565b5f602082019050919050565b5f613a01826139a2565b613a0b81856139ac565b9350613a16836139b6565b805f5b83811015613a46578151613a2d88826139d4565b9750613a38836139eb565b925050600181019050613a19565b5085935050505092915050565b5f613a5e82846139f7565b915081905092915050565b7f496e73756666696369656e7420726f6c650000000000000000000000000000005f82015250565b5f613a9d601183612a77565b9150613aa882613a69565b602082019050919050565b5f6020820190508181035f830152613aca81613a91565b9050919050565b7f4e6f7420656e6f7567682045746865722070726f76696465642e0000000000005f82015250565b5f613b05601a83612a77565b9150613b1082613ad1565b602082019050919050565b5f6020820190508181035f830152613b3281613af9565b9050919050565b5f81905092915050565b50565b5f613b515f83613b39565b9150613b5c82613b43565b5f82019050919050565b5f613b7082613b46565b9150819050919050565b5f604082019050613b8d5f83018561307f565b613b9a6020830184612b75565b9392505050565b7f4e487b71000000000000000000000000000000000000000000000000000000005f52603160045260245ffdfea2646970667358221220d9981f682b695db4c2ac3dc9908bf9decb7102ba8bbc831d0fab0864455d4f9e64736f6c63430008140033a2646970667358221220a2119ec7fbcef895ac66b07c8f4f03b449459f3dfd8eef66ac4751549239606464736f6c63430008140033",
  "immutableReferences": {},
  "source": "// SPDX-License-Identifier: MIT\npragma solidity ^0.8.20;\n\nimport \"./Marketplace.sol\";\nimport \"../libraries/StringUtils.sol\";\n\ncontract MarketplaceFactory {\n    address[] public marketplaces;\n    mapping(address => address[]) public marketplaceToOwner;\n\n    event MarketplaceCreated(\n        address indexed owner,\n        address indexed marketplaceAddress\n    );\n\n    function getMarketplacesWithBoughtItems(address buyer_)\n        public\n        view\n        returns (address[] memory)\n    {\n        uint marketplaceCount = marketplaces.length;\n        address[] memory matchingMarketplaces = new address[](marketplaceCount);\n        uint matchingItemCount = 0;\n        for (uint i = 0; i < marketplaceCount; ) {\n            Marketplace marketplace = getMarketplaceByAddress(marketplaces[i]);\n            if (marketplace.getItemsByBuyer(buyer_).length > 0) {\n                matchingMarketplaces[matchingItemCount] = marketplaces[i];\n                unchecked {\n                    matchingItemCount++;\n                }\n            }\n            unchecked {\n                i++;\n            }\n        }\n        return matchingMarketplaces;\n    }\n\n    function createMarketplace(\n        string memory name_,\n        string memory imageSrc_\n    ) public {\n        Marketplace marketplace = new Marketplace(msg.sender, name_, imageSrc_);\n        marketplaces.push(address(marketplace));\n        marketplaceToOwner[msg.sender].push(address(marketplace));\n        emit MarketplaceCreated(msg.sender, address(marketplace));\n    }\n\n    function getMarketplaceByAddress(\n        address marketplaceAddress\n    ) public view returns (Marketplace) {\n        require(Marketplace(marketplaceAddress).getOwner() == address(0), \"Marketplace does not exist\");\n        return Marketplace(marketplaceAddress);\n    }\n\n    function getMarketplacesByName(\n        string memory name_\n    ) public view returns (address[] memory) {\n        string memory lowerName = StringUtils.toLowerCase(name_);\n        uint marketplaceCount = marketplaces.length;\n        address[] memory matchingMarketplaces = new address[](marketplaceCount);\n        uint matchingItemCount = 0;\n\n        for (uint i = 0; i < marketplaceCount; ) {\n            string memory marketplaceName = getMarketplaceByAddress(\n                marketplaces[i]\n            ).name();\n            string memory lowerMarketplaceName = StringUtils.toLowerCase(\n                marketplaceName\n            );\n            if (StringUtils.isEqual(lowerMarketplaceName, lowerName)) {\n                matchingMarketplaces[matchingItemCount] = marketplaces[i];\n                unchecked {\n                    matchingItemCount++;\n                }\n            }\n            unchecked {\n                i++;\n            }\n        }\n        return matchingMarketplaces;\n    }\n}\n",
  "sourcePath": "/workspaces/blockchain-gaming-marketplace-contract/contracts/MarketplaceFactory.sol",
  "compiler": {
    "name": "solc",
    "version": "0.8.20+commit.a1b79de6.Emscripten.clang"
  },
  "schemaVersion": "3.4.16",
  "updatedAt": "2024-02-08T11:39:39.715Z",
  "networkType": "ethereum",
  "devdoc": {
    "kind": "dev",
    "methods": {},
    "version": 1
  },
  "userdoc": {
    "kind": "user",
    "methods": {},
    "version": 1
  }
}